S01D000054656D704374726C436F7265426F617264563152302E7372656362
S11300000C9427010C9444010C9444010C94440175
S11300100C9444010C9444010C9444010C94440148
S11300200C9444010C9444010C94E20F0C9444018C
S11300300C94D80F0C9444010C9444010C94440186
S11300400C94890E0C9444010C94B2100C94440149
S11300500C9444010C9444010C9444010C94440108
S11300600C9444010C9444010C9429100C94440104
S11300700C9444010C9444010C94D5100C94440148
S11300800C9444010C9444010C9444012E0D370D3E
S1130090390D3C0D400D4B0D570D630D6F0D7B0D50
S11300A0870D8A0D8E0D910D990DA10DA90DB10D20
S11300B0B50DB90DBD0DC00DC30DC70DCB0DCE0DC6
S11300C0D40DD70DDD0DE20DE70DEA0DF20DE511AE
S11300D0B113ED11B113FF11B1130912B1131612BB
S11300E0B1131B12B1132012B1132D12B11340120C
S11300F0B1134312B1134812B1134D12B1131312B9
S1130100B113B113B113B113B113B113B113B113CB
S1130110B1135212B1135D12B1136812B1137312F9
S1130120B1137E12B1138912B1139412B1139F1239
S1130130B113AA12B113B512B113C012B113CB1279
S1130140B113D612B113E112B113EC12B113F712B9
S1130150B1130213B1130D13B1131813B1132313F5
S1130160B1132E13B1133913B1134413B1134F1335
S1130170B1135A13B1136513B1137013B1137B1375
S1130180B1138613B1139113B1139C13B113A713B5
S1130190B113B113B113B113B113B113B113B1133B
S11301A0B113B113B113B113B113B113B113B1132B
S11301B0B113B113B113B113B113B113B113B1131B
S11301C0B113B113B113B113B113B113B113B1130B
S11301D0B113B113B113B113B113B113B113B113FB
S11301E0B113B113B113B113B113B113B113B113EB
S11301F0B113B113B113B113B113B113B113B113DB
S1130200B113B113B113B113B113B113B113B113CA
S1130210B113B113B113B113B113B113B113B113BA
S1130220B113B113B113B113B113B113B113B113AA
S1130230B113B113B113B113B113B113B113B1139A
S1130240B113B113B113B113B113B113E2111124EA
S11302501FBECFEFD0E1DEBFCDBF12E0A0E0B1E022
S1130260EEE3F9E202C005900D92A031B107D9F78F
S113027028E0A0E1B2E001C01D92AB3CB207E1F777
S11302800E94320E0C949D140C9400008FE0000028
S11302908150E9F70895CF92DF92EF92FF929B018C
S11302A0AC01A8EEB3E00E947E146B017C0121E056
S11302B0C21AD108E108F1080E94460181E0C81A77
S11302C0D108E108F108C1F7FF90EF90DF90CF90DB
S11302D00895CF93DF9348EC56E06BEC77E0C8ECDD
S11302E0D7E084EF91E023C09183808311969C939F
S11302F08E939383828313969C938E931297958304
S1130300848315969C938E9314979783868317966C
S11303109C938E9316972F5F38961896283021F762
S1130320405C5F4F605C7F4FC417D50721F0DB0151
S1130330FA0120E0D9CFDF91CF9108950F931F9355
S11303408091900290E09C01220F331FF901E0524A
S1130350FE4F60817181F901E154FE4F20813181AA
S113036062177307D9F0880F991FFC01E154FE4FFF
S11303707183608323E02093D90105960E94FA0DCE
S11303808091900290E0FC01EE0FFF1FE154FE4FBC
S113039061810396880F991F0E94FA0D8091900243
S11303A090E09C01220F331FF901E354FD4F40817B
S11303B05181F901EB5CFD4F2081318142175307D4
S11303C069F0FC01EE0FFF1FEB5CFD4F518340838E
S11303D026E02093D90121E02093C9079C01220F34
S11303E0331FF901EB55FD4F60817181F901E35E23
S11303F0FD4F208131816217730769F0FC01EE0F14
S1130400FF1FE35EFD4F7183608325E02093D901D4
S11304104D960E94FA0D8091900290E0409119024D
S113042050911A0260911B0270911C02FC01EE0FA4
S1130430FF1FEE0FFF1FE157FE4F00811181228144
S11304403381041715072607370709F45AC0880FA4
S1130450991F880F991FFC01E157FE4F4083518378
S113046062837383642F82589F4F0E94FA0D809198
S1130470900290E09C01220F331F220F331FF901D9
S1130480E157FE4F40815181628173819927872F03
S1130490762F652FC90181589F4F0E94FA0D8091D4
S11304A09002282F30E0F901EE0FFF1FEE0FFF1F1F
S11304B0E157FE4F408151816281738188279927DA
S11304C0205E3F4FC901880F991F880F991F0E9412
S11304D0FA0D8091900290E09C01220F331F220FAD
S11304E0331FF901E157FE4F4081518162817381CD
S11304F0672F772788279927C9018F579F4F0E9415
S1130500FA0D81E08093D701109295021F910F910B
S11305100895CF93DF9380918F0290E001979C011F
S113052012F42D5F3F4F35952795359527952F5F0D
S11305302295207FE5EAF3E035EA30833AE531831A
S113054038E0328332E0338383709078992324F443
S113055001978C6F9F6F01968F5F820F8093A90321
S11305608091DE019091DF01C5EAD3E09D838E8303
S11305708091DC019091DD019F8388878091DA016D
S11305809091DB0199878A876DE0CE010E94641106
S11305908B879C876DE0CE010E941E1181E08093C1
S11305A0D901DF91CF9108958091900290E09C0150
S11305B0220F331FF901E154FE4F40815181F901AB
S11305C0E052FE4F208131812417350739F0FC01B8
S11305D0EE0FFF1FE052FE4F518340839C01220F18
S11305E0331FF901EB5CFD4F40815181F901E35464
S11305F0FD4F208131812417350739F0FC01EE0FBE
S1130600FF1FE354FD4F518340839C01220F331F8E
S1130610F901E35EFD4F40815181F901EB55FD4F36
S1130620208131812417350739F0880F991FFC0187
S1130630EB55FD4F5183408381E08093D7011092A5
S11306409502089520910101322F3295307F309325
S1130650A903213009F5E5EAF3E025EA20832AE538
S1130660218324E0228326E02383158286838093DA
S1130670910290939202E5E3F2E0ADEBB2E02DE457
S113068032E08083918332968C9311969C931197D8
S11306901296E217F307A9F769E085EA93E00E944E
S11306A06411E5EAF3E08783908769E0CF010E9453
S11306B01E11809101018F5F843018F48093010131
S11306C0089581E0809301018093D9010895E0E0C9
S11306D0F6E0878190E0A0E0B0E0BA2FA92F982F30
S11306E088272085822BBA2FA92F982F8827218528
S11306F0822BBA2FA92F982F88272285822B8093AB
S1130700190290931A02A0931B02B0931C0208953D
S1130710CF93DF93E82F8091D5029091D602019771
S1130720C1F49B01220F331F660F771F660F771FDB
S1130730660F771F260F371F20543140AFE8B3EE02
S11307400E946F14BC01729562956F7067277F7069
S1130750672730919002932F969596959F5F80E13D
S1130760989FA001112433703F5F432BC5EAD3E067
S113077085EA88838AE5898384E08A83EB834C83D2
S11307807D836E8369E0CE010E9464118F83988714
S113079069E0CE010E941E1181E08093D901DF91AE
S11307A0CF910895CF93DF93482F8091D5029091F4
S11307B0D6020197C1F49B01220F331F660F771FE6
S11307C0660F771F660F771F260F371F205431409F
S11307D0AFE8B3EE0E946F14BC01729562956F701E
S11307E067277F706727C5EAD3E085EA88838AE5AF
S11307F0898384E08A834B837D836E8380910001A7
S11308008295807F8C8369E0CE010E9464118F837E
S1130810988769E0CE010E941E11809100018F5FCC
S1130820843018F48093000103C081E080930001B8
S1130830DF91CF910895E0914201F0E031970024D7
S1130840F695E7950794F695E7950794FE2FE02D26
S1130850DF01A553B84FE853F94F88E02D913C913F
S113086011973183208312962D913C9113973383F2
S1130870228314962D913C911597358324831696E3
S11308802D913C911797378326838150189638967B
S11308908111E4CF0895CF93DF93C8E3D5E095EABF
S11308A098839AE5998394E09A8390E89B8393E0F4
S11308B09C831D828E8369E0CE010E9464118F8324
S11308C0988769E0CE010E94FD10DF91CF910895D1
S11308D080919402813021F483E00E944B0403C090
S11308E081E00E944B046091940280E090E00E94B9
S11308F0FA0D0895CF93DF93C8E3D5E025EA288362
S11309002AE5298325E02A8322E82B839C838D838F
S11309107E836F836AE0CE010E9464118887998781
S11309206AE0CE010E94FD10DF91CF910895AF924D
S1130930BF92CF92DF92EF92FF920F931F93CF93C8
S1130940DF9380911002833008F066C06091FA0151
S11309507091FB01709344016093430183E00E9412
S1130960D2036091430183E090E00E94FA0D60910C
S1130970440184E090E00E94FA0D00EE11E0CFEB18
S1130980D1E00F2EF8EFAF2EF1E0BF2EF02D0F2E99
S1130990F6E0EF2EF12CF02D60914301809144019B
S11309A068838983F801608381830E5F1F4FC701C9
S11309B001970E94FA0D69812296C7010E94FA0DDF
S11309C0F2E0EF0EF11C0A151B0531F78091D502F8
S11309D09091D60220911502309116028217930746
S11309E0C1F0909316028093150220E033E0829FB9
S11309F0B001839F700D929F700D11247D5B8CE379
S1130A0092E00E947A046091150282E090E00E94D4
S1130A10FA0D81E08093D701809110028630C0F4F2
S1130A206091F8017091F90180914501909146011E
S1130A306817790769F0709346016093450184E073
S1130A400E94D203609145018EEF90E00E94FA0D5E
S1130A5080911002893008F048C06091D7027091EB
S1130A60D802809117029091180268177907E9F16A
S1130A70709318026093170285E00E94D20360917C
S1130A80170281E090E00E94FA0DCDE1D2E005EA80
S1130A9012E00F2EF5E3CF2EF2E0DF2EF02D0F2E15
S1130AA0FDE1EF2EF12CF02D6091170280911802D8
S1130AB0688389832296F801608381830E5F1F4FC8
S1130AC0C7010E94FA0DFFEFEF1AFF0ACC15DD05EE
S1130AD059F78091170290911802865B9F4F60E04E
S1130AE0782F84E992E00E947A04809110028F5F4B
S1130AF0893018F48093100205C01092100281E02E
S1130B008093D901DF91CF911F910F91FF90EF90C6
S1130B10DF90CF90BF90AF90089580918F0290E0C6
S1130B209C01215031096091DE014091DF01220FC7
S1130B30331FF901E958FE4F60834183F901E15AFB
S1130B40FE4F4091DC015091DD0151834083F90156
S1130B50E95BFE4F4091DA015091DB015183408300
S1130B6022E02093D9014496880F991F0E94FA0D20
S1130B7080918F0290E0FC01EE0FFF1FEB58FE4FB7
S1130B806181880F991F89960E94FA0D80918F02C6
S1130B9090E0FC01EE0FFF1FE35AFE4F8096608148
S1130BA0880F991F0E94FA0D80918F0290E0FC013A
S1130BB0EE0FFF1FE35AFE4F6181880F991F8F5B71
S1130BC09F4F0E94FA0D80918F0290E0FC01EE0F7E
S1130BD0FF1FEB5BFE4F8C966081880F991F0E946C
S1130BE0FA0D80918F0290E0FC01EE0FFF1FEB5B8A
S1130BF0FE4F6181880F991F875A9F4F0E94FA0DFB
S1130C00E0918F02F0E0EE0FFF1FEB58FE4F608182
S1130C10718186E390E00E947A04E0918F02F0E013
S1130C20EE0FFF1FE35AFE4F6081718188E390E06D
S1130C300E947A04E0918F02F0E0EE0FFF1FEB5B5D
S1130C40FE4F608171818AE390E00E947A040895E6
S1130C5060914301709144018091FA019091FB01EC
S1130C608617970741F07093FB016093FA0188E4BB
S1130C7091E00E947A04609145017091460180914F
S1130C80F8019091F9018617970741F07093F901E3
S1130C906093F8018AE491E00E947A04809117023B
S1130CA0909118022091D7023091D8022817390761
S1130CB061F09093D8028093D702865B9F4F60E0E7
S1130CC0782F84E992E00E947A0480911502909131
S1130CD016022091D5023091D6022817390791F0D7
S1130CE09093D6028093D50220E033E0829FB00136
S1130CF0839F700D929F700D11247D5B8CE392E0B5
S1130D000E947A0481E08093D7010895EF92FF92C4
S1130D100F931F93CF93DF93C82F80938F0281305B
S1130D2031F461E070E080E591E00E947A04D0E063
S1130D302197CC0FDD1FCE0189589E4F7C01FC0109
S1130D406081718186E390E00E947A048E01015AE9
S1130D501E4FF8016081718188E390E00E947A045B
S1130D60C95BDE4F688179818AE390E00E947A044E
S1130D70F7016081718182E591E00E947A04F801B3
S1130D806081718184E591E00E947A0468817981AF
S1130D9086E591E00E947A04F70180819181909325
S1130DA0DF018093DE01F801808191819093DD0160
S1130DB08093DC01888199819093DB018093DA012F
S1130DC0DF91CF911F910F91FF90EF900895EF92D3
S1130DD0FF920F931F93CF93DF93609142016111B0
S1130DE004C081E08093420149C0653020F084E072
S1130DF08093420143C070E082E790E00E947A044D
S1130E00E0914201F0E0E05FFD4F608170E080E737
S1130E1090E00E947A04C0E0D0E0E12C2BC0E09185
S1130E204201F0E03197EE0FFF1FEE0FFF1FEE0FB0
S1130E30FF1FEC0FFD1FEE0FFF1FEE0FFF1FE00F54
S1130E40F11FEE0FFF1FE853F94F608171818F2D61
S1130E5090E08E599E4F0E947A04F394F3940F5FAE
S1130E601F4F04301105D9F688E0E80E219680E47E
S1130E70E81621F0FE2C00E010E0D1CFDF91CF91F5
S1130E801F910F91FF90EF900895DF92EF92FF92E0
S1130E900F931F93CF93DF93EAEDF2E095EA9083EB
S1130EA09AE5918392E492839DE193839FEF980F57
S1130EB0948340E4849F90011124A9014857594F19
S1130EC07A0190E0682F70E0D82E572F6150710995
S1130ED017C0E92FF0E0CD2DD52F8B012C91119661
S1130EE03C9111971296E652FD4F358326839E5FFF
S1130EF09413EFCF98E0E90EF11C942F403421F0C5
S1130F0048E0490FD701E5CF67E48AED92E00E94FB
S1130F10641180931F039093200367E48AED92E0A9
S1130F200E944611F801EF5EFD4F81E0808361E08D
S1130F3070E080E790E00E947A042BB347E050E031
S1130F404C1B5D0B81E090E002C0880F991F4A950D
S1130F50E2F7809582238BBBDF91CF911F910F9194
S1130F60FF90EF90DF9008951F93CF93DF93182F96
S1130F70CAEDD2E085EA88838AE5898382E08A83A0
S1130F808CE18B838FEF810F8C8367E0CE010E940D
S1130F9064118D839E8367E0CE010E944611C12FA8
S1130FA0D0E0FE01E05FFD4F108260E070E080E77A
S1130FB090E00E947A044BB327E030E02C1B3D0BF9
S1130FC081E090E002C0880F991F2A95E2F7842BF4
S1130FD08BBBDF91CF911F910895CF93DF93C8E32B
S1130FE0D5E025EA28832AE5298327E02A8322E815
S1130FF02B839C838D837E836F83588749876CE022
S1131000CE010E9464118A879B876CE0CE010E9406
S1131010FD10DF91CF910895CF92DF92EF92FF926E
S11310200F931F93CF93DF93E12C6894FF24F1F87F
S11310300CE010E0C0E0D0E00F2EFAE0CF2ED12C6F
S1131040F02D8091930290E0BC01660F771F680F2A
S1131050791F660F771F6C0F7D1F6F5F7F4FCE0167
S1131060880F991F0E947A048091930290E0FC01FA
S1131070EE0FFF1FE80FF91FEE0FFF1FE358FD4FA0
S1131080EC0FFD1F608170E0C8010E947A0480911A
S1131090930290E0FC01EE0FFF1FE80FF91FEE0F23
S11310A0FF1FEC0FFD1FEE0FFF1FE75AFD4F2081BE
S11310B03181C901880F991F880F991F880F991FC3
S11310C0B6010E943314CB018096409115025091D1
S11310D01602849FB001859F700D949F700D11249A
S11310E0620F731FC8010C960E947A0480919302C8
S11310F090E0FC01EE0FFF1FE80FF91FEE0FFF1F3A
S1131100EC0FFD1FEE0FFF1FE154FE4F6081718154
S1131110C80148960E947A048091930290E0FC01F1
S1131120EE0FFF1FE80FF91FEE0FFF1FEC0FFD1F5F
S1131130EE0FFF1FE35EFD4F80819181865B9F4F21
S113114060E0782FC8018C5D9D4F0E947A048091E5
S1131150930290E0FC01EE0FFF1FE80FF91FEE0F62
S1131160FF1FEC0FFD1FEE0FFF1FEE0FFF1FE157D8
S1131170FE4F4081518162817381C7010E94ED0756
S113118021960E5F1F4F88E0E80EF11CC630D10592
S113119009F057CFDF91CF911F910F91FF90EF90FE
S11311A0DF90CF9008951092D70181E0809395024B
S11311B0809396026091900270E06F5F7F4F80E3AE
S11311C090E00E947A04E0919002F0E0EE0FFF1F9D
S11311D0E75AFD4F20813181C901880F991F880F7B
S11311E0991F880F991F6AE070E00E943314CB01A5
S11311F080964091150250911602849FB001859FFC
S1131200700D949F700D1124620F731F82E390E0A0
S11312100E947A04E0919002F0E0EE0FFF1FE15487
S1131220FE4F6081718184E390E00E947A04E09132
S11312309002F0E0EE0FFF1FE154FE4F60817181D8
S113124086E491E00E947A04E0919002F0E0EE0FCF
S1131250FF1FEB5CFD4F6081718184E491E00E948B
S11312607A04E0919002F0E0EE0FFF1FE35EFD4F81
S113127080819181865B9F4F60E0782F80E992E0C6
S11312800E947A04E0919002F0E0EE0FFF1FEE0F4F
S1131290FF1FE157FE4F408151816281738188E8CD
S11312A092E00E94ED07E0919002F0E0EE0FFF1F44
S11312B0EE0FFF1FE157FE4F408151816281738120
S11312C088E591E00E94ED07E0919002F0E0EE0FD6
S11312D0FF1FEE0FFF1FE157FE4F80819181A28116
S11312E0B3818093190290931A02A0931B02B093C6
S11312F01C020895CF93DF93C8E3D5E095EA988361
S11313009AE5998394E09A8394E89B838C837D8304
S11313106E8369E0CE010E9464118F83988769E02F
S1131320CE010E94FD10DF91CF9108950F931F937A
S1131330CF93DF938A01E8E3F5E095EA90839AE599
S1131340918393E1928392E89383C62FD0E09E0128
S1131350255D3F4FA90142955295507F5427407F08
S1131360542754832295207F258320E1829FC00146
S11313701124DC01AE50BF4FEEE3F5E02EE435E07E
S11313809D919193E217F307D9F768E188E395E01B
S11313900E946411E8E3F5E0868B978B68E1CF0146
S11313A00E94FD100930110528F40F5C1F4FB8018D
S11313B0736204C0085C1F4FB8017362CE01CC96FF
S11313C0880F991F0E947A04DF91CF911F910F918A
S11313D008959F92AF92BF92CF92DF92EF92FF92C5
S11313E00F931F93CF93DF931092A3021092A20244
S11313F08295807F11E0180F0F2EF5E0FF2EF02D5F
S1131400F80EE12CC5EAD3E00F2EF5EAAF2EF02D4D
S11314100F2EFAE5BF2EF02D6894CC24C1F807E016
S1131420D02E99249394A882B982CA82DB821C8329
S1131430602FCE010E9464118D839E83602FCE01A4
S11314400E941E1107C0222349F00E94B613109275
S1131450A403E92C9091A3022091A403913099F75D
S11314601092A3021092A2021F5F1F11DCCF8E2DD7
S1131470DF91CF911F910F91FF90EF90DF90CF906C
S1131480BF90AF909F900895CF93DF9381E00E9427
S1131490E909C9E8D2E0888382E00E94E9098983E6
S11314A083E00E94E9098A83DF91CF910895CF9365
S11314B0DF93A82FA295AF70AA0FAA0FA4508F7024
S11314C08A0FA82FB0E0EDE6F4E0258130E0322F5A
S11314D022278681282BCD01880F991FEC01C15446
S11314E0DE4F39832883EC01C052DE4F39832883D1
S11314F0278130E0EC01C35EDD4F39832883EC01A2
S1131500CB55DD4F39832883EC01C958DE4F208544
S113151030E0322F22274185242B39832883EC01A4
S1131520C15ADE4F228530E0322F22274385242BF7
S113153039832883EC01C95BDE4F248530E0322FE8
S113154022274585242B39832883AA0FBB1FAA0F82
S1131550BB1FA157BE4F468550E060E070E0762F78
S1131560652F542F44278785482B762F652F542FBA
S113157044278089482B762F652F542F442781894F
S1131580482B4D935D936D937C931397828990E0E0
S11315909093180280931702838990E09093160227
S11315A0809315029093D6028093D502848990E0AB
S11315B0982F88272589822B909344018093430197
S11315C09093FB018093FA01868990E09093460101
S11315D0809345019093F9018093F801DF91CF91B5
S11315E00895CF93DF93C5EAD3E095EA98839AE50B
S11315F0998392E09A8391E09B838295807F8C8388
S113160067E0CE010E9464118D839E8367E0CE0162
S11316100E941E11DF91CF9108951F93CF93DF9302
S1131620EDE6F4E0848182958F7090E00197880F55
S1131630991F880F991FDC01A358BD4F25812C9356
S1131640DC011196ED01C358DD4F26812883BC01CE
S11316506E5F7F4FEB01C358DD4F27812883AC01B8
S11316604D5F5F4FEA01C358DD4F20852883EC01AD
S1131670CF58DD4F21852883ED01CF58DD4F2285DA
S11316802883EB01CF58DD4F23852883EA01CF5807
S1131690DD4F24852883EC01CC0FDD1FC75ADD4FB5
S11316A0258530E0322F22271685212B3983288384
S11316B0ED01CC0FDD1FC75ADD4F278530E0322FF7
S11316C022271089212B39832883EB01CC0FDD1FBE
S11316D0C75ADD4F218930E0322F22271289212B6E
S11316E039832883EA01CC0FDD1FC75ADD4F2389D4
S11316F030E0322F22271489212B39832883EC01EF
S1131700C35BDD4F25892883A35BBD4F86898C93FA
S1131710DB01A35BBD4F87898C93DA01A35BBD4FCB
S1131720808D8C93DF91CF911F910895CF93DF9398
S1131730E8E3F5E095EA90839AE5918393E1928357
S113174092E89383C82FD0E0CE018B969C0122951A
S11317503295307F3227207F322734838295807FF1
S11317608583EEE3F5E02EE435E01192E217F3070A
S1131770E1F768E188E395E00E946411E8E3F5E0AD
S1131780868B978B68E1CF010E94FD10CE01CC9629
S113179060E070E0880F991F0E947A04DF91CF9176
S11317A00895CF92DF92EF92FF920F931F93CF93FE
S11317B0DF9390E00197EC01CC0FDD1FCC0FDD1F10
S11317C0CC0FDD1FC81BD90B219604E410E0BE0129
S11317D0C8010E947A040E5F1F4F2196023511053D
S11317E0B1F70F2EF9E5EF2EF2E0FF2EF02D0DE408
S11317F012E0C0E06801C094D094F80181918F0197
S1131800882339F0A6014E0F5F1F6C2F0E949609A2
S1131810CF5FE016F10689F7C73030F48C2F0E94B1
S1131820960BCF5FC730D1F7DF91CF911F910F9106
S1131830FF90EF90DF90CF900895CF93DF93C8E3AC
S1131840D5E095EA98839AE5998393E09A8390E8A2
S11318509B839BEE9C838D8368E0CE010E94641180
S11318608E839F8368E0CE010E94FD10DF91CF91AB
S11318700895BF92CF92DF92EF92FF920F931F933E
S1131880CF93DF93CDB7DEB764970FB6F894DEBF7E
S11318900FBECDBF84E1ECEFF1E0DE0111960190C3
S11318A00D928A95E1F781E0809395021092960259
S11318B080918D02843024F083E080938D0204C0F3
S11318C0882314F410928D0280918E028C301CF0C7
S11318D010928E0205C088231CF48BE080938E0244
S11318E080918D02880F8E5FB82EBB0CBB0CB80E96
S11318F085B5887F85BD8AE50E941D0CCE010196C1
S11319007E0125E1E20EF11C6C0100E510E0081BEC
S1131910190B80918D02082E000C990B0196F6018B
S113192020813181829FB001839F700D929F700D41
S11319301124619371936F01C8018E0F9F1F0E9440
S11319407A04CE14DF0429F760918E02062E000C6F
S1131950770B6F5F7F4F8CE390E00E947A04E091F5
S11319608E02EE0FFF0BE75AFD4F20813181C90132
S1131970880F991F880F991F880F991F6AE070E0DC
S11319800E943314CB0180964091150250911602A7
S1131990849FB001859F700D949F700D1124620F78
S11319A0731F8EE390E00E947A04E0918E02EE0FA2
S11319B0FF0BE154FE4F6081718180E490E00E944E
S11319C07A04E0918E020E2E000CFF0BE358FD4FBB
S11319D0608170E082E490E00E947A04E0918E02DB
S11319E0EE0FFF0BE35EFD4F80819181865B9F4F7D
S11319F060E0782F80EA92E00E947A04E0918E02FF
S1131A0024E0E202F0011124E157FE4F40815181AC
S1131A106281738188E992E00E94ED07B092A4028A
S1131A2082EB84BD85B5856085BD64960FB6F89458
S1131A30DEBF0FBECDBFDF91CF911F910F91FF90FD
S1131A40EF90DF90CF90BF9008958132910508F018
S1131A50D0C0FC01EA5BFF4F0C946914909194028E
S1131A6081E08927809394020E94680408959498E1
S1131A70089510929302089581E08093930208954B
S1131A8080919302982F990F890F880F8093900269
S1131A900E94D308089580919302982F990F890F7B
S1131AA0880F8F5F809390020E94D30808958091DD
S1131AB09302982F990F890F880F8E5F809390025D
S1131AC00E94D308089580919302982F990F890F4B
S1131AD0880F8D5F809390020E94D30808958091AF
S1131AE09302982F990F890F880F8C5F809390022F
S1131AF00E94D308089580919302982F990F890F1B
S1131B00880F8B5F809390020E94D30808950E94EF
S1131B109E01089587E08093D90108950E948D0560
S1131B20089580918D02815080938D020E94390C1A
S1131B30089580918D028F5F80938D020E94390CED
S1131B40089580918E02815080938E020E94390CF8
S1131B50089580918E028F5F80938E020E94390CCB
S1131B6008958FE00E94960B089581E00E94D10BA6
S1131B70089582E00E94D10B08950E94D402089532
S1131B800E942806089581E00E948606089581E057
S1131B900E94D10B08950E94390C089585B5887F61
S1131BA085BD1092950208951092D701089581E0A1
S1131BB0809342010E94E7060895809142010E94A9
S1131BC0B4070895809142010E94450708950E9438
S1131BD01B040895809142018150809342010E9428
S1131BE0E7060895809142018F5F809342010E942D
S1131BF0E7060895E199FECF9FBB8EBB6DBB8FB7FF
S1131C008F778FBFE29AE19A8FB780688FBF08956C
S1131C10D69AD59AD49AD39AD29AD19AD09ADE9A4D
S1131C20DD9ADC9ADB9ADA98D99AD8988C9A8D9AAC
S1131C309498959A08950E94080E87E690E00E9471
S1131C40F9138FE690E00E94071480E895E20E9461
S1131C5014140E9480100E94A0100E948F100E94F1
S1131C60690108950E941B0E8FB780688FBF64E6D8
S1131C7070E080E090E00E944B010E94440A609171
S1131C8043017091440188E491E00E947A046091D8
S1131C904501709146018AE491E00E947A04209102
S1131CA015023091160280E093E0289FB001299F2D
S1131CB0700D389F700D11247D5B8CE392E00E94BF
S1131CC07A048091170290911802865B9F4F60E01E
S1131CD0782F84E992E00E947A0481E08093A10243
S1131CE00E94680480913705882321F00E948B119B
S1131CF0109237058091A403882321F00E94B61323
S1131D001092A4038091D701882361F30E940C08E8
S1131D10E9CF1F920F920FB60F9211242F933F9386
S1131D204F935F936F937F938F939F93AF93BF93DF
S1131D30EF93FF938FB780688FBF82EB82BF809150
S1131D40A2028F5F8C3318F48093A20205C0109214
S1131D50A20281E08093A3028091A102882309F466
S1131D60D8C08091A0028F5F843618F48093A002BB
S1131D705BC01092A0028091D901833011F128F444
S1131D80813061F08230D1F04FC08630A1F18730CC
S1131D9009F448C0853009F047C020C08091D801BB
S1131DA091E0980F9093D8010E94F10A8091D80194
S1131DB08430D0F181E08093D80136C00E9489023A
S1131DC033C0E0919002F0E0EE0FFF1FE154FE4FAC
S1131DD06081718183E00E94880326C0E0919002B3
S1131DE0F0E0EE0FFF1FE35EFD4F6081718185E03F
S1131DF00E94880319C08091C907813069F4E09179
S1131E009002F0E0EE0FFF1FEB5CFD4F60817181EB
S1131E1086E00E94880308C08091C80790E00E9471
S1131E20220302C00E94970480919502882309F43A
S1131E3070C080919E0290919F020196883C91050A
S1131E4028F490939F0280939E0263C010929F0295
S1131E5010929E0280919602882341F1E0919002B3
S1131E60F0E0EE0FFF1FE75AFD4F20813181C901D9
S1131E70880F991F880F991F880F991F6AE070E0D7
S1131E800E943314CB0180964091150250911602A2
S1131E90849FB001859F700D949F700D1124620F73
S1131EA0731F82E390E00E947A0433C0E0918E02B3
S1131EB0EE0FFF0BE75AFD4F20813181C901880FD6
S1131EC0991F880F991F880F991F6AE070E00E947C
S1131ED03314CB0180964091150250911602849FD1
S1131EE0B001859F700D949F700D1124620F731FB4
S1131EF08EE390E00E947A04E0918E020E2E000C94
S1131F00FF0BE358FD4F608170E082E490E00E9493
S1131F107A048091A20390919D02891729F08093FD
S1131F209D0210929C0214C0882391F090919C020F
S1131F309F5F90939C02943058F08093A30381E0B8
S1131F408093A4031092A20310929D0210929C020B
S1131F508091350590919B02891729F080939B020B
S1131F6010929A0214C0882391F090919A029F5F74
S1131F7090939A02943058F08093360581E08093D0
S1131F8037051092350510929B0210929A02FF9128
S1131F90EF91BF91AF919F918F917F916F915F91DD
S1131FA04F913F912F910F900FBE0F901F90189556
S1131FB01F920F920FB60F9211240F900FBE0F9025
S1131FC01F9018951F920F920FB60F9211242F9302
S1131FD03F934F935F936F937F938F939F93AF93AD
S1131FE0BF93EF93FF938FB780688FBF82EB84BD5D
S1131FF080918E02880F990BFC01E75AFD4F608196
S11320007181FC01E154FE4F20813181809199025C
S11320108F5F809399029091A402891748F01092DF
S11320209902621B730B6C597F4F81E00E947A09FD
S1132030FF91EF91BF91AF919F918F917F916F919C
S11320405F914F913F912F910F900FBE0F901F9072
S113205018951F920F920FB60F9211242F933F934E
S11320604F938F939F93EF93FF93809198028F5F89
S1132070809398029091CA07911136C08930F8F480
S1132080409197028091D902282F30E081E090E0BE
S1132090042E02C0880F991F0A94E2F78223932327
S11320A002C0959587954A95E2F7019711F4AF9A86
S11320B001C0AF98809197028F5F809397028091BF
S11320C09802893019F410929702AF9A809198027D
S11320D08A3051F41092980283E08093CA07EAE8A8
S11320E0F0E08081887F8083FF91EF919F918F91B1
S11320F04F913F912F910F900FBE0F901F90189505
S113210083B7887F83BF82EB82BF87B78C7F87BF0B
S113211087B7816087BF83B7876083BF08958EB513
S113212088608EBD8EB5887F8EBD89E08BBD84ECC2
S11321308ABD87B7806187BF8EB583608EBD0895E1
S113214085B5887F85BD82EB84BD87B78F7387BFD4
S113215087B7806487BF85B5856085BD85B5887F71
S113216085BD08951F920F920FB60F9211248F937D
S11321709F93EF93FF93E091350581E08E0F809359
S113218035059CB1F0E0E050FA4F9083883C20F094
S11321908093360510923505FF91EF919F918F91B1
S11321A00F900FBE0F901F9018951F920F920FB6AD
S11321B00F9211248F939F93EF93FF93E091A203C7
S11321C081E08E0F8093A20390919C00F0E0E3598C
S11321D0FB4F9083883C20F08093A3031092A203CA
S11321E0FF91EF919F918F910F900FBE0F901F90D1
S11321F018955D9BFECF8CB908950F931F93CF93D1
S1132200DF93662371F0EC016150062F10E00F5F3D
S11322101F4F080F191F89910E94F910C017D10789
S1132220D1F7DF91CF911F910F910895EBE9F0E081
S1132230908195FFFDCF80939C0008950F931F9389
S1132240CF93DF93662371F0EC016150062F10E009
S11322500F5F1F4F080F191F89910E941611C01795
S1132260D107D1F7DF91CF911F910F9108958093FA
S1132270D9021092CA07AF98109289001092880070
S1132280EAE8F0E080818160808308950F931F93D2
S1132290CF93DF93662399F08C01EC016150262FD4
S11322A030E02F5F3F4F020F131F89910E943711B7
S11322B08091CA078330F1F7C017D107B1F7DF91D6
S11322C0CF911F910F910895DC0170E06550710961
S11322D016161706ECF430E08FEF9FEFFD01E30FC5
S11322E0F11D2381822728E080FF07C096958795FA
S11322F041E0842740EA942702C0969587952150AF
S113230099F73F5F432F50E0461757073CF3089572
S11323108FEF9FEF0895CF93DF9380910006853A66
S113232021F4809101068A3519F01092370519C2FB
S113233060913605C62FD0E08091020690E00596A4
S1132340C817D90719F0109237050BC280E096E040
S11323500E946411AE0140505A4FFA013197208116
S113236030E0322F222731974081240F311D281766
S1132370390719F010923705F4C1809103068338A8
S113238009F0EFC1A0E0B6E0C050DA4FFE01349787
S1132390808190E0982F882723972881822B149698
S11323A0EC911497F0E0FE2FEE2715962C91E22B7A
S11323B0E054F140E03CF10508F0D3C1E959FF4F86
S11323C00C9469140E94250DCCC196E09093D90118
S11323D01092C9078093C807C4C1E0919002F0E04D
S11323E0EE0FFF1FEB55FD4F91838083865B9F4F5C
S11323F060E0782F80E992E00E947A04B2C1E09113
S11324009002F0E0EE0FFF1FE354FD4F91838083B1
S1132410A8C1E0919002F0E0EE0FFF1FE052FE4FE2
S1132420918380839EC10E9467039BC19093FB01AB
S11324308093FA0196C19093F9018093F80191C1B8
S11324409093D8028093D702865B9F4F60E0782FE9
S113245084E992E00E947A0484C19093D602809326
S1132460D50220E033E0829FB001839F700D929FDC
S1132470700D11247D5B8CE392E00E947A0471C19B
S11324800E9486066EC19093DF018093DE0169C1CC
S11324909093DD018093DC0164C19093DB01809310
S11324A0DA015FC1E091420120E4E29FF0011124CE
S11324B0E557F84F9183808354C1E091420120E4B1
S11324C0E29FF0011124E557F84F9383828349C1B9
S11324D0E091420120E4E29FF0011124E557F84F16
S11324E0958384833EC1E091420120E4E29FF001A0
S11324F01124E557F84F9783868333C1E091420155
S113250020E4E29FF0011124E557F84F918780877A
S113251028C1E091420120E4E29FF0011124E55733
S1132520F84F938782871DC1E091420120E4E29F26
S1132530F0011124E557F84F9587848712C1E09183
S1132540420120E4E29FF0011124E557F84F9787F8
S1132550868707C1E091420120E4E29FF001112443
S1132560E557F84F918B808BFCC0E091420120E449
S1132570E29FF0011124E557F84F938B828BF1C051
S1132580E091420120E4E29FF0011124E557F84F65
S1132590958B848BE6C0E091420120E4E29FF00138
S11325A01124E557F84F978B868BDBC0E0914201ED
S11325B020E4E29FF0011124E557F84F918F808FBA
S11325C0D0C0E091420120E4E29FF0011124E557DC
S11325D0F84F938F828FC5C0E091420120E4E29FBF
S11325E0F0011124E557F84F958F848FBAC0E0911C
S11325F0420120E4E29FF0011124E557F84F978F40
S1132600868FAFC0E091420120E4E29FF0011124E3
S1132610E557F84F91A380A3A4C0E091420120E4C0
S1132620E29FF0011124E557F84F93A382A399C0C8
S1132630E091420120E4E29FF0011124E557F84FB4
S113264095A384A38EC0E091420120E4E29FF001AF
S11326501124E557F84F97A386A383C0E091420164
S113266020E4E29FF0011124E557F84F91A780A7D9
S113267078C0E091420120E4E29FF0011124E55783
S1132680F84F93A782A76DC0E091420120E4E29F36
S1132690F0011124E557F84F95A784A762C0E09193
S11326A0420120E4E29FF0011124E557F84F97A777
S11326B086A757C0E091420120E4E29FF001112473
S11326C0E557F84F91AB80AB4CC0E091420120E458
S11326D0E29FF0011124E557F84F93AB82AB41C060
S11326E0E091420120E4E29FF0011124E557F84F04
S11326F095AB84AB36C0E091420120E4E29FF00147
S11327001124E557F84F97AB86AB2BC0E0914201FB
S113271020E4E29FF0011124E557F84F91AF80AF18
S113272020C0E091420120E4E29FF0011124E5572A
S1132730F84F93AF82AF15C0E091420120E4E29FCD
S1132740F0011124E557F84F95AF84AF0AC0E0912A
S1132750420120E4E29FF0011124E557F84F97AFBE
S113276086AF80E090E0DF91CF910895CF93DF931F
S113277080916D04853A21F480916E048A3519F0B4
S11327801092A40331C06091A303C62FD0E08091BE
S11327906F0490E00596C817D90719F01092A403A6
S11327A023C08DE694E00E946411C359DB4FFE01FF
S11327B03197208130E0322F222722974881240F3D
S11327C0311D2817390719F01092A4030DC0809108
S11327D07004813019F40E940D0B06C0873021F477
S11327E0809171040E94570A80E090E0DF91CF91BC
S11327F00895119A10989093900089B9E5E9F0E052
S11328008081866080838AB188698AB908958B9AA9
S11328108A98909398008093990086E080939D0015
S113282088E980939A000895A79AA698AE9AAF9AD9
S1132830EAE8F0E02081286020832081287F20833B
S11328409C0140E050E060E074E284EF90E00E947C
S113285047143093870020938600EDE7F0E08081F1
S113286080618083089597FB072E16F4009407D0A7
S113287077FD09D00E94891407FC05D03EF4909599
S113288081959F4F0895709561957F4F0895A1E2BA
S11328901A2EAA1BBB1BFD010DC0AA1FBB1FEE1FD6
S11328A0FF1FA217B307E407F50720F0A21BB30B21
S11328B0E40BF50B661F771F881F991F1A9469F79D
S11328C060957095809590959B01AC01BD01CF01F9
S11328D00895EE0FFF1F0590F491E02D0994A29F37
S11328E0B001B39FC001A39F700D811D1124911DE0
S11328F0B29F700D811D1124911D08950E946F14C3
S1132900A59F900DB49F900DA49F800D911D11243F
S11329100895AA1BBB1B51E107C0AA1FBB1FA61722
S1132920B70710F0A61BB70B881F991F5A95A9F774
S111293080959095BC01CD010895F894FFCFD9
S113293E0101B8D0CEC2CFDFB6CFBFAA00000000CF
S113294E0000B8D0CEC2CFDFBDD3B7B400000000B4
S113295E0000B3ACCEC2B1A8BEAF000000000000B0
S113296E0000C9FDCEC2B5BDB4EFC9E8B6A8CEC24B
S113297EB6C801640003006400640064006400646B
S113298E0064006400640064006400640064006415
S113299E0064006400640064006400640064006405
S11329AE00640064006400640064006400640064F5
S11329BE0064006400640064006400640064000049
S11329CE003123000032230000332300003423009F
S11329DE003523000036230000372300003823007F
S11329EE0039230030312300313123003231236486
S11329FE00640064006400640064006400640064A5
S1132A0E0064006400640001010164006400640059
S1132A1E6400640064006400640064006400640084
S1132A2E6400640064006400030064000200040097
S1132A3E060008000A000C000E001000120014001C
S9030000FC
