:100000000C9427010C9444010C9444010C94440179
:100010000C9444010C9444010C9444010C9444014C
:100020000C9444010C9444010C94E70E0C9444018C
:100030000C94DD0E0C9444010C9444010C94440186
:100040000C94E50D0C9444010C94B70F0C944401EE
:100050000C9444010C9444010C9444010C9444010C
:100060000C9444010C9444010C942E0F0C94440104
:100070000C9444010C9444010C94DA0F0C94440148
:100080000C9444010C9444010C944401770C800CB2
:10009000820C870C8D0C980CA40CB00CBC0CC80CFA
:1000A000D40CD70CDA0CDD0CE50CED0CF50CFD0CCA
:1000B000010D050D090D0C0D0F0D130D170D1A0D6A
:1000C000200D230D290D2E0D330D360D3E0D121171
:1000D000E0121C11E0122E11E0123811E01245114D
:1000E000E0124A11E0124F11E0125C11E0126F11A0
:1000F000E0127211E0127711E0127C11E01242114D
:10010000E012E012E012E012E012E012E012E0125F
:10011000E0128111E0128C11E0129711E012A2118D
:10012000E012AD11E012B811E012C311E012CE11CD
:10013000E012D911E012E411E012EF11E012FA110D
:10014000E0120512E0121012E0121B12E012261249
:10015000E0123112E0123C12E0124712E012521289
:10016000E0125D12E0126812E0127312E0127E12C9
:10017000E0128912E0129412E0129F12E012AA1209
:10018000E012B512E012C012E012CB12E012D61249
:10019000E0121511E012E012E012E012E012E0129B
:1001A000E012E012E012E012E012E012E012E012BF
:1001B000E012E012E012E012E012E012E012E012AF
:1001C000E012E012E012E012E012E012E012E0129F
:1001D000E012E012E012E012E012E012E012E0128F
:1001E000E012E012E012E012E012E012E012E0127F
:1001F000E012E012E012E012E012E012E012E0126F
:10020000E012E012E012E012E012E012E012E0125E
:10021000E012E012E012E012E012E012E012E0124E
:10022000E012E012E012E012E012E012E012E0123E
:10023000E012E012E012E012E012E012E012E0122E
:10024000E012E012E012E012E012E0120F111124AD
:100250001FBECFEFD0E1DEBFCDBF12E0A0E0B1E026
:10026000E6E1F7E202C005900D92AE30B107D9F792
:1002700028E0AEE0B2E001C01D92A33DB207E1F775
:100280000E947E0D0C9489130C9400008FE00000F6
:100290008150E9F70895CF92DF92EF92FF929B0190
:1002A000AC01A8EEB3E00E946A136B017C0121E06F
:1002B000C21AD108E108F1080E94460181E0C81A7B
:1002C000D108E108F108C1F7FF90EF90DF90CF90DF
:1002D0000895CF93DF9342ED56E063ED77E0C2EDF2
:1002E000D7E084EF91E023C09183808311969C93A3
:1002F0008E939383828313969C938E931297958308
:10030000848315969C938E93149797838683179670
:100310009C938E9316972F5F38961896283021F766
:10032000405C5F4F605C7F4FC417D50721F0DB0155
:10033000FA0120E0D9CFDF91CF910895CF93DF93D9
:100340008091980290E001979C0112F42D5F3F4F3D
:1003500035952795359527952F5F2295207FEFEAD4
:10036000F3E035EA30833AE5318338E0328332E036
:10037000338383709078992324F401978C6F9F6F57
:1003800001968F5F820F8093B3038091DB01909180
:10039000DC01CFEAD3E09D838E838091D9019091D7
:1003A000DA019F8388878091D7019091D80199873E
:1003B0008A876DE0CE010E9491108B879C8782E036
:1003C0008093D6018091AA028130F1F71092AA029F
:1003D0001092AB026DE08FEA93E00E944B1081E037
:1003E0008093D601DF91CF9108958091990290E09A
:1003F0009C01220F331FF901E354FE4F40815181CC
:10040000F901E352FE4F208131812417350739F07D
:10041000FC01EE0FFF1FE352FE4F518340839C010E
:10042000220F331FF901E65BFD4F40815181F90135
:10043000E953FD4F208131812417350739F0FC0144
:10044000EE0FFF1FE953FD4F518340839C01220FA4
:10045000331FF901EE5CFD4F40815181F901E155F7
:10046000FD4F208131812417350739F0880F991FFE
:10047000FC01E155FD4F5183408381E08093D5011C
:1004800010929E0208951F93CF93DF931092D6018E
:10049000EFEAF3E025EA20832AE5218324E02283A2
:1004A00026E023831582868380939A0290939B0291
:1004B000EAE4F2E0A7ECB2E022E632E08083918346
:1004C00032968C9311969C9311971296E217F3072C
:1004D000A9F711E0CFEAD3E0812F8295807F8C834A
:1004E00069E0CE010E9491108F8398878091AA02C3
:1004F0008130F1F71092AA021092AB0269E0CE01AE
:100500000E944B101F5F143039F781E08093D601B1
:10051000DF91CF911F910895EAE0F6E0878190E0A6
:10052000A0E0B0E0BA2FA92F982F88272085822B32
:10053000BA2FA92F982F88272185822BBA2FA92F70
:10054000982F88272285822B80932E0290932F024A
:10055000A0933002B09331020895CF93DF93582FC8
:100560001092D6018091DF029091E0020197C1F4D0
:100570009B01220F331F660F771F660F771F660FD1
:10058000771F260F371F20543140AFE8B3EE0E948B
:100590005B13BC01729562956F7067277F70672748
:1005A00040919902942F969596959F5F80E1989F30
:1005B0009001112443704F5F242BCFEAD3E085EAEA
:1005C00088838AE5898384E08A835B832C837D83A7
:1005D0006E8369E0CE010E9491108F83988780918D
:1005E000AA028130F1F71092AA021092AB0269E0E0
:1005F0008FEA93E00E944B1081E08093D601DF9157
:10060000CF9108951F93CF93DF93482F1092D60177
:100610008330F1F48091DF029091E0020197C1F400
:100620009B01220F331F660F771F660F771F660F20
:10063000771F260F371F20543140AFE8B3EE0E94DA
:100640005B13BC01729562956F7067277F70672797
:10065000EFEAF3E085EA80838AE5818384E08283A0
:1006600043837583668311E0EF01812F8295807F3C
:100670008C8369E0CE010E9491108F8398878091CE
:10068000AA028130F1F71092AA021092AB0269E03F
:10069000CE010E944B101F5F143039F781E0809328
:1006A000D601DF91CF911F910895E0914001F0E0D4
:1006B00031970024F695E7950794F695E79507940A
:1006C000FE2FE02DDF01AD52B84FEE52F94F88E01A
:1006D0002D913C9111973183208312962D913C915D
:1006E00013973383228314962D913C91159735836C
:1006F000248316962D913C9117973783268381503A
:10070000189638968111E4CF0895CF93DF93C2E411
:10071000D5E095EA98839AE5998394E09A8390E8E6
:100720009B8393E09C831D828E8369E0CE010E94AF
:1007300091108F83988769E0CE010E942A10DF9183
:10074000CF91089580919D02813021F483E00E9431
:10075000850303C081E00E94850360919D0280E0D3
:1007600090E00E94460D0895CF93DF93C2E4D5E058
:1007700025EA28832AE5298325E02A8322E82B839A
:100780009C838D837E836F836AE0CE010E949110EB
:10079000888799876AE0CE010E942A10DF91CF9165
:1007A00008958091980290E001976091DB0170912B
:1007B000DC01880F991FFC01EB58FE4F71836083A9
:1007C000FC01E35AFE4F2091D9013091DA013183C7
:1007D0002083FC01EB5BFE4F2091D7013091D801C3
:1007E0003183208386E390E00E94B403E091980275
:1007F000F0E0EE0FFF1FE55AFE4F6081718188E344
:1008000090E00E94B403E0919802F0E0EE0FFF1F29
:10081000ED5BFE4F608171818AE390E00E94B4033A
:100820000E949E0108956091410170914201809162
:10083000F7019091F8018617970741F07093F8013E
:100840006093F70188E491E00E94B4036091430152
:10085000709144018091F5019091F60186179707F8
:1008600041F07093F6016093F5018AE491E00E94F3
:10087000B40380911402909115022091E10230910D
:10088000E2022817390761F09093E2028093E102B7
:10089000865B9F4F60E0782F84E992E00E94B4036A
:1008A00080911202909113022091DF023091E002B8
:1008B0002817390791F09093E0028093DF0220E03F
:1008C00033E0829FB001839F700D929F700D1124C1
:1008D0007D5B8CE392E00E94B40381E08093D501BC
:1008E0000895EF92FF920F931F93CF93DF93C82F3A
:1008F00080939802813031F461E070E080E591E00E
:100900000E94B403D0E02197CC0FDD1FCE018B589D
:100910009E4F7C01FC016081718186E390E00E9422
:10092000B4038E01035A1E4FF8016081718188E380
:1009300090E00E94B403CB5BDE4F688179818AE34B
:1009400090E00E94B403F7016081718182E591E03B
:100950000E94B403F8016081718184E591E00E94F6
:10096000B4036881798186E591E00E94B403F701C0
:10097000808191819093DC018093DB01F80180817B
:1009800091819093DA018093D90188819981909324
:10099000D8018093D701DF91CF911F910F91FF90E4
:1009A000EF900895EF92FF920F931F93CF93DF93F1
:1009B00060914001611104C081E08093400149C011
:1009C000653020F084E08093400143C070E082E70E
:1009D00090E00E94B403E0914001F0E0E35FFD4F3E
:1009E000608170E080E790E00E94B403C0E0D0E056
:1009F000E12C2BC0E0914001F0E03197EE0FFF1F9A
:100A0000EE0FFF1FEE0FFF1FEC0FFD1FEE0FFF1F7E
:100A1000EE0FFF1FE00FF11FEE0FFF1FEE52F94F19
:100A2000608171818F2D90E08E599E4F0E94B4039A
:100A3000F394F3940F5F1F4F04301105D9F688E04B
:100A4000E80E219680E4E81621F0FE2C00E010E08C
:100A5000D1CFDF91CF911F910F91FF90EF9008952B
:100A6000DF92EF92FF920F931F93CF93DF93E4EE09
:100A7000F2E095EA90839AE5918392E492839DE176
:100A800093839FEF980F948340E4849F90011124F7
:100A9000A9014E56594F7A0190E0682F70E0D82E88
:100AA000572F6150710917C0E92FF0E0CD2DD52FD8
:100AB0008B012C9111963C9111971296EC51FD4FA0
:100AC000358326839E5F9413EFCF98E0E90EF11CE7
:100AD000942F403421F048E0490FD701E5CF67E477
:100AE00084EE92E00E9491108093290390932A0350
:100AF00067E484EE92E00E947310F801E25FFD4F1C
:100B000081E0808361E070E080E790E00E94B403C0
:100B10002BB347E050E04C1B5D0B81E090E002C03E
:100B2000880F991F4A95E2F7809582238BBBDF914E
:100B3000CF911F910F91FF90EF90DF9008951F9339
:100B4000CF93DF93182FC4EED2E085EA88838AE53D
:100B5000898382E08A838CE18B838FEF810F8C8382
:100B600067E0CE010E9491108D839E8367E0CE01E5
:100B70000E947310C12FD0E0FE01E35FFD4F108291
:100B800060E070E080E790E00E94B4034BB327E0A0
:100B900030E02C1B3D0B81E090E002C0880F991FD4
:100BA0002A95E2F7842B8BBBDF91CF911F9108959B
:100BB000CF93DF93C2E4D5E025EA28832AE5298391
:100BC00027E02A8322E82B839C838D837E836F8397
:100BD000588749876CE0CE010E9491108A879B87D5
:100BE0006CE0CE010E942A10DF91CF910895AF9260
:100BF000BF92CF92DF92EF92FF920F931F93CF930A
:100C0000DF936894EE24E6F8FF24F1F80F2EF0E766
:100C1000CF2EF2E0DF2EF02D0CE010E0C0E0D0E0AF
:100C20000F2EFAE0AF2EB12CF02D80919C0290E0B7
:100C3000BC01660F771F680F791F660F771F6C0F57
:100C40007D1F6F5F7F4FCE01880F991F0E94B403F5
:100C500080919C0290E0FC01EE0FFF1FE80FF91F4E
:100C6000EE0FFF1FEA57FD4FEC0FFD1F608170E094
:100C7000C8010E94B40380919C0290E0FC01EE0F39
:100C8000FF1FE80FF91FEE0FFF1FEC0FFD1FEE0F08
:100C9000FF1FEE59FD4F20813181C901880F991F37
:100CA000880F991F880F991FB5010E941F13CB0150
:100CB00080964091120250911302849FB001859F4B
:100CC000700D949F700D1124620F731FC8010C9654
:100CD0000E94B40380919C0290E0FC01EE0FFF1F84
:100CE000E80FF91FEE0FFF1FEC0FFD1FEE0FFF1FA8
:100CF000E354FE4F60817181C80148960E94B4039D
:100D000080919C0290E0FC01EE0FFF1FE80FF91F9D
:100D1000EE0FFF1FEC0FFD1FEE0FFF1FEE5CFD4FF0
:100D200080819181865B9F4F60E0782FC8018C5D48
:100D30009D4F0E94B40380919C0290E0FC01EE0F55
:100D4000FF1FE80FF91FEE0FFF1FEC0FFD1FEE0F47
:100D5000FF1FEE0FFF1FE357FE4F4081518162815D
:100D60007381C701805491090E94D80580919C022B
:100D700090E0FC01EE0FFF1FE80FF91FEE0FFF1FC1
:100D8000E658FD4FEC0FFD1F60816330C8F063E053
:100D900070E0C6010E94B40380919C0290E0FC01C7
:100DA000EE0FFF1FE80FF91FEE0FFF1FE658FD4F74
:100DB000EC0FFD1F608170E0C7010E94B40309C001
:100DC00070E0C6010E94B40362E070E0C7010E94B7
:100DD000B40321960E5F1F4F84E0C80ED11C88E03B
:100DE000E80EF11CC630D10509F01FCFDF91CF917D
:100DF0001F910F91FF90EF90DF90CF90BF90AF9039
:100E000008950F931F938091990290E09C01220F07
:100E1000331FF901E352FE4F60817181F901E35400
:100E2000FE4F208131816217730751F0880F991F9F
:100E3000FC01E354FE4F7183608383E00E94AD02A6
:100E40008091990290E09C01220F331FF901E95330
:100E5000FD4F60817181F901E65BFD4F2081318199
:100E60006217730751F0880F991FFC01E65BFD4F75
:100E70007183608386E00E94AD028091990290E0C8
:100E8000FC01EA5EFD4F6081FC01EE5DFD4F2081BB
:100E9000621741F0FC01EE5DFD4F608370E088E079
:100EA0000E94AD028091990290E040912E025091F3
:100EB0002F026091300270913102FC01EE0FFF1F92
:100EC000EE0FFF1FE357FE4F008111812281338116
:100ED000041715072607370759F0880F991F880F41
:100EE000991FFC01E357FE4F408351836283738354
:100EF0000E94F70581E08093D50110929E021F9118
:100F00000F9108958091F7019091F801909342011B
:100F100080934101EDEBF1E0ADEDB1E025ED31E085
:100F2000819391938D939D93E217F307C9F7809175
:100F3000DF029091E002909313028093120280915D
:100F4000F5019091F60190934401809343018091C3
:100F5000E1029091E2029093150280931402E2E381
:100F6000F2E0AFEAB2E02AE432E0819391938D930C
:100F70009D93E217F307C9F70E94F70560914101BD
:100F80007091420183E00E940203609143017091DD
:100F9000440184E00E9402036091140270911502E2
:100FA00085E00E94020381E08093D50108951092AC
:100FB000D50181E080939E0280939F026091990207
:100FC00070E06F5F7F4F80E390E00E94B403E09198
:100FD0009902F0E0EE0FFF1FEE59FD4F20813181A5
:100FE000C901880F991F880F991F880F991F6AE000
:100FF00070E00E941F13CB01809640911202509125
:101000001302849FB001859F700D949F700D112471
:10101000620F731F82E390E00E94B403E091990293
:10102000F0E0EE0FFF1FE354FE4F6081718184E317
:1010300090E00E94B403E0919902F0E0EE0FFF1FF0
:10104000E354FE4F6081718186E491E00E94B40315
:10105000E0919902F0E0EE0FFF1FE65BFD4F60812B
:10106000718184E491E00E94B403E0919902F0E080
:10107000EE0FFF1FEE5CFD4F80819181865B9F4FDD
:1010800060E0782F80E992E00E94B403E091990239
:10109000F0E0EE0FFF1FEE0FFF1FE357FE4F408102
:1010A00051816281738188E892E00E94D805E091C5
:1010B0009902F0E0EE0FFF1FEE0FFF1FE357FE4F08
:1010C000408151816281738188E591E00E94D80559
:1010D000E0919902F0E0EE0FFF1FEE0FFF1FE357C4
:1010E000FE4F80819181A281B38180932E029093E3
:1010F0002F02A0933002B09331020895CF93DF9373
:10110000C2E4D5E095EA98839AE5998394E09A83BE
:1011100094E89B838C837D836E8369E0CE010E947B
:1011200091108F83988769E0CE010E942A10DF9189
:10113000CF9108950F931F93CF93DF938A01E2E439
:10114000F5E095EA90839AE5918393E1928392E8A2
:101150009383C62FD0E09E01255D3F4FA9014295A4
:101160005295507F5427407F542754832295207FE7
:10117000258320E1829FC0011124DC01A051BF4FD3
:10118000E8E4F5E028E535E09D919193E217F30757
:10119000D9F768E182E495E00E949110E2E4F5E07D
:1011A000868B978B68E1CF010E942A1009301105C8
:1011B00028F40F5C1F4FB801736204C0085C1F4F16
:1011C000B8017362CE01CC96880F991F0E94B403B8
:1011D000DF91CF911F910F9108953F924F925F92AF
:1011E0006F927F928F929F92AF92BF92CF92DF9237
:1011F000EF92FF920F931F93CF93DF931092AD0264
:101200001092AC02982F9295907FFF24F394F90EE0
:1012100020E1829F800111240F5F1F4F0F2EF5E008
:101220009F2EF02D990E412CCFEAD3E00F2EF5EA38
:101230005F2EF02D0F2EFAE56F2EF02D6894772497
:1012400071F80F2EF7E0EF2EF02D8E2C0F2EF7E712
:10125000AF2EF4E0BF2EF02D3324339458826982F0
:101260007A828B82FC826E2DCE010E9491108D833A
:101270009E836E2DCE010E944B1068010DC09923F4
:1012800079F00E94FE0F1092AE03F501848190E088
:101290008C159D0509F4432C8091AD029091AE030D
:1012A000813069F71092AD021092AC02F3940F5F97
:1012B0001F4FF910D3CF842DDF91CF911F910F9144
:1012C000FF90EF90DF90CF90BF90AF909F908F9066
:1012D0007F906F905F904F903F900895CF93DF93F2
:1012E00081E00E94ED08C2E9D2E0888382E00E949A
:1012F000ED08898383E00E94ED088A83988191112B
:1013000007C0EAE7F2E093E09083918392839383AE
:1013100090919302911107C0EAE7F2E093E0948381
:10132000958396839783811107C0EAE7F2E083E013
:101330008087818782878387DF91CF910895982F57
:1013400092959F70990F990F8F70890F855090E03B
:10135000DC01AA0FBB1FAA0FBB1FA357BE4FE7E7B5
:10136000F4E0458150E060E070E0762F652F542F67
:1013700044272681422B762F652F542F442727811F
:10138000422B762F652F542F44272085422B4D93D7
:101390005D936D937C931397218530E0322F222744
:1013A0004285242BAC01440F551FDA01A354BE4FD4
:1013B0002D933C93DA01A352BE4F2D933C93248589
:1013C00030E030931502209314023093E202209310
:1013D000E102E2E3F2E04AE452E021933193E417C0
:1013E000F507D9F7E7E7F4E02685DC01AE5DBD4FF0
:1013F0002C93DC01AA5EBD4F2C9320892330A8F4E6
:10140000422F417030E0FC01EE0FFF1FDF01A65BB1
:10141000BD4F4C9311963C93E953FD4F408331836C
:10142000FC01E658FD4F208311C0FC01E658FD4F3A
:1014300020839C01220F331FF901E65BFD4F1182CF
:101440001082F901E953FD4F11821082880F991F14
:10145000DC01AB58BE4FE7E7F4E0218930E0322FE2
:1014600022274289242B2D933C93DC01A35ABE4FA3
:10147000238930E0322F22274489242B2D933C935B
:10148000DC01AB5BBE4F258930E0322F2227468935
:10149000242B2D933C930895CF93DF93CFEAD3E091
:1014A00095EA98839AE5998392E09A8391E09B83E9
:1014B0008295807F8C8367E0CE010E9491108D839E
:1014C0009E8367E0CE010E944B10DF91CF9108957B
:1014D0001F93CF93DF93E7E7F4E0848182958F70C9
:1014E00090E00197880F991F880F991FDC01AA5778
:1014F000BD4F25812C93DC011196ED01CA57DD4FBC
:1015000026812883BC016E5F7F4FEB01CA57DD4FF8
:1015100027812883AC014D5F5F4FEA01CA57DD4F39
:1015200020852883EC01CC0FDD1FCE59DD4F2585AA
:1015300030E0322F22271685212B39832883ED01B5
:10154000CC0FDD1FCE59DD4F278530E0322F22270B
:101550001089212B39832883EB01CC0FDD1FCE5955
:10156000DD4F218930E0322F22271289212B398348
:101570002883EA01CC0FDD1FCE59DD4F238930E0EF
:10158000322F22271489212B39832883EC01C65856
:10159000DD4F25892883A658BD4F86898C93DB01B2
:1015A000A658BD4F87898C93DA01A658BD4F808D10
:1015B0008C930E94F705DF91CF911F910895CF93EF
:1015C000DF93E2E4F5E095EA90839AE5918393E175
:1015D000928392E89383C82FD0E0CE018B969C0132
:1015E00022953295307F3227207F322734838295AF
:1015F000807F8583E8E4F5E028E535E01192E21785
:10160000F307E1F768E182E495E00E949110E2E4DB
:10161000F5E0868B978B68E1CF010E942A10CE01FE
:10162000CC9660E070E0880F991F0E94B403DF91B0
:10163000CF910895CF92DF92EF92FF920F931F9375
:10164000CF93DF9390E00197EC01CC0FDD1FCC0F1F
:10165000DD1FCC0FDD1FC81BD90B219604E410E061
:10166000BE01C8010E94B4030E5F1F4F21960235D0
:101670001105B1F70F2EF6E8EF2EF2E0FF2EF02D58
:101680000AE712E0C0E06801C094D094F8018191AB
:101690008F01833038F0A6014E0F5F1F6C2F0E9420
:1016A0009A08CF5FE016F10689F7C73030F48C2F27
:1016B0000E94DF0ACF5FC730D1F7DF91CF911F9132
:1016C0000F91FF90EF90DF90CF900895CF93DF932D
:1016D000C2E4D5E095EA98839AE5998393E09A83EA
:1016E00090E89B839BEE9C838D8368E0CE010E94F3
:1016F00091108E839F8368E0CE010E942A10DF91B3
:10170000CF910895BF92CF92DF92EF92FF920F9305
:101710001F93CF93DF93CDB7DEB764970FB6F894DE
:10172000DEBF0FBECDBF84E1E9EFF1E0DE0111962F
:1017300001900D928A95E1F781E080939E021092CC
:101740009F0280919602843024F083E08093960279
:1017500004C0882314F410929602809197028C3072
:101760001CF01092970205C088231CF48BE0809334
:10177000970280919602880F8E5FB82EBB0CBB0C2F
:10178000B80E85B5887F85BD8AE50E94660BCE01BF
:1017900001967E0125E1E20EF11C6C0100E510E0EE
:1017A000081B190B80919602082E000C990B0196CC
:1017B000F60120813181829FB001839F700D929F3D
:1017C000700D1124619371936F01C8018E0F9F1FDB
:1017D0000E94B403CE14DF0429F760919702062E0D
:1017E000000C770B6F5F7F4F8CE390E00E94B40397
:1017F000E0919702EE0FFF0BEE59FD4F20813181F2
:10180000C901880F991F880F991F880F991F6AE0D7
:1018100070E00E941F13CB018096409112025091FC
:101820001302849FB001859F700D949F700D112449
:10183000620F731F8EE390E00E94B403E091970261
:10184000EE0FFF0BE354FE4F6081718180E490E066
:101850000E94B403E09197020E2E000CFF0BEA5792
:10186000FD4F608170E082E490E00E94B403E0915B
:101870009702EE0FFF0BEE5CFD4F80819181865B3E
:101880009F4F60E0782F80EA92E00E94B403E091DD
:10189000970224E0E202F0011124E357FE4F408159
:1018A00051816281738188E992E00E94D805B092EB
:1018B000AE0282EB84BD85B5856085BD64960FB6AA
:1018C000F894DEBF0FBECDBFDF91CF911F910F9176
:1018D000FF90EF90DF90CF90BF90089581329105F7
:1018E00008F0D3C0FC01EA5BFF4F0C9455139091B4
:1018F0009D0281E0892780939D020E94A2030895A2
:101900009498089510929C020E94F705089581E032
:1019100080939C020E94F705089580919C02982F65
:10192000990F890F880F809399020E94D707089515
:1019300080919C02982F990F890F880F8F5F809359
:1019400099020E94D707089580919C02982F990FC1
:10195000890F880F8E5F809399020E94D7070895A0
:1019600080919C02982F990F890F880F8D5F80932B
:1019700099020E94D707089580919C02982F990F91
:10198000890F880F8C5F809399020E94D707089572
:1019900080919C02982F990F890F880F8B5F8093FD
:1019A00099020E94D70708950E94010708950E9496
:1019B000820708950E94D103089580919602815074
:1019C000809396020E94820B0895809196028F5F09
:1019D000809396020E94820B089580919702815015
:1019E000809397020E94820B0895809197028F5FE7
:1019F000809397020E94820B08958FE00E94DF0A75
:101A0000089581E00E941A0B089582E00E941A0B4B
:101A100008950E94F50108950E941304089581E03D
:101A20000E947104089581E00E941A0B08950E949B
:101A3000820B089585B5887F85BD10929E0208951A
:101A40001092D501089581E0809340010E94D20454
:101A50000895809140010E949F0508958091400162
:101A60000E94300508950E94550308958091400119
:101A70008150809340010E94D204089580914001DA
:101A80008F5F809340010E94D2040895E199FECFB8
:101A90009FBB8EBB6DBB8FB78F778FBFE29AE19AEA
:101AA0008FB780688FBF0895D69AD59AD49AD39A63
:101AB000D29AD19AD09ADE9ADD9ADC9ADB9ADA9899
:101AC000D99AD8988C9A8D9A9498959A08950E944C
:101AD000540D87E690E00E94E5128FE690E00E94A8
:101AE000F31280E895E20E9400130E94850F0E9485
:101AF000A50F0E94940F0E94690108950E94670D2E
:101B00008FB780688FBF6CE271E080E090E00E9448
:101B10004B010E946E09609141017091420188E47D
:101B200091E00E94B40360914301709144018AE402
:101B300091E00E94B403209112023091130280E0E0
:101B400093E0289FB001299F700D389F700D1124DC
:101B50007D5B8CE392E00E94B4038091140290912B
:101B60001502865B9F4F60E0782F84E992E00E9427
:101B7000B40381E08093A9020E94F7050E94A203AA
:101B8000C1E080914105882321F00E94B810109295
:101B900041058091AE03882321F00E94FE0F109230
:101BA000AE038091D601813061F78091AA02813025
:101BB00041F78C2F0E944C0ACF5FC43008F0C1E07F
:101BC0001092AA021092AB02DCCF1F920F920FB6B6
:101BD0000F9211242F933F934F935F936F937F93B3
:101BE0008F939F93AF93BF93EF93FF938FB78068CB
:101BF0008FBF82EB82BF8091AC028F5F8C3318F471
:101C00008093AC0205C01092AC0281E08093AD02DB
:101C10008091A902882369F08091AB028F5F84369E
:101C200018F48093AB0205C01092AB0281E0809360
:101C3000AA0280919E02882309F470C08091A702B5
:101C40009091A8020196883C910528F49093A802EF
:101C50008093A70263C01092A8021092A7028091FD
:101C60009F02882341F1E0919902F0E0EE0FFF1FFF
:101C7000EE59FD4F20813181C901880F991F880FCE
:101C8000991F880F991F6AE070E00E941F13CB0113
:101C900080964091120250911302849FB001859F5B
:101CA000700D949F700D1124620F731F82E390E0FA
:101CB0000E94B40333C0E0919702EE0FFF0BEE5980
:101CC000FD4F20813181C901880F991F880F991F0D
:101CD000880F991F6AE070E00E941F13CB01809665
:101CE0004091120250911302849FB001859F700DA4
:101CF000949F700D1124620F731F8EE390E00E9479
:101D0000B403E09197020E2E000CFF0BEA57FD4F33
:101D1000608170E082E490E00E94B4038091AC03A3
:101D20009091A602891729F08093A6021092A5022D
:101D300014C0882391F09091A5029F5F9093A50213
:101D4000943058F08093AD0381E08093AE031092FD
:101D5000AC031092A6021092A50280913F059091CB
:101D6000A402891729F08093A4021092A30214C040
:101D7000882391F09091A3029F5F9093A3029430E7
:101D800058F08093400581E08093410510923F0513
:101D90001092A4021092A302FF91EF91BF91AF9114
:101DA0009F918F917F916F915F914F913F912F9173
:101DB0000F900FBE0F901F9018951F920F920FB6A5
:101DC0000F9211240F900FBE0F901F9018951F9225
:101DD0000F920FB60F9211242F933F934F935F935F
:101DE0006F937F938F939F93AF93BF93EF93FF93E3
:101DF0008FB780688FBF82EB84BD80919702880F78
:101E0000990BFC01EE59FD4F60817181FC01E35497
:101E1000FE4F208131818091A2028F5F8093A202C8
:101E20009091AE02891748F01092A202621B730BC8
:101E30006C597F4F81E00E947E08FF91EF91BF9126
:101E4000AF919F918F917F916F915F914F913F9152
:101E50002F910F900FBE0F901F9018951F920F9209
:101E60000FB60F9211242F933F934F938F939F930D
:101E7000EF93FF938091A1028F5F8093A1029091D5
:101E8000D207911136C08930F8F44091A0028091B8
:101E9000E302282F30E081E090E0042E02C0880F9A
:101EA000991F0A94E2F78223932302C095958795A0
:101EB0004A95E2F7019711F4AF9A01C0AF9880916B
:101EC000A0028F5F8093A0028091A102893019F453
:101ED0001092A002AF9A8091A1028A3051F4109220
:101EE000A10283E08093D207EAE8F0E08081887F56
:101EF0008083FF91EF919F918F914F913F912F910F
:101F00000F900FBE0F901F90189583B7887F83BFE7
:101F100082EB82BF87B78C7F87BF87B7816087BF1F
:101F200083B7876083BF08958EB588608EBD8EB5F8
:101F3000887F8EBD89E08BBD84EC8ABD87B78061C8
:101F400087BF8EB583608EBD089585B5887F85BDBA
:101F500082EB84BD87B78F7387BF87B7806487BFE5
:101F600085B5856085BD85B5887F85BD08951F923F
:101F70000F920FB60F9211248F939F93EF93FF93BD
:101F8000E0913F0581E08E0F80933F059CB1F0E02A
:101F9000E65FF94F9083883C20F0809340051092D3
:101FA0003F05FF91EF919F918F910F900FBE0F9082
:101FB0001F9018951F920F920FB60F9211248F93B6
:101FC0009F93EF93FF93E091AC0381E08E0F80939A
:101FD000AC0390919C00F0E0E958FB4F9083883C63
:101FE00020F08093AD031092AC03FF91EF919F918D
:101FF0008F910F900FBE0F901F90189580917704CE
:10200000853A21F4809178048A3519F01092AE0354
:102010001AC02091AD0330E08091790490E00596DC
:102020002817390719F01092AE030DC080917A0479
:10203000813019F40E94680A06C0873021F480912B
:102040007B040E949F0980E090E008955D9BFECF95
:102050008CB908950F931F93CF93DF93662371F08C
:10206000EC016150062F10E00F5F1F4F080F191F82
:1020700089910E942610C017D107D1F7DF91CF9127
:102080001F910F910895EBE9F0E0908195FFFDCF4E
:1020900080939C0008950F931F93CF93DF93662343
:1020A00071F0EC016150062F10E00F5F1F4F080F19
:1020B000191F89910E944310C017D107D1F7DF91F2
:1020C000CF911F910F9108958093E3021092D20750
:1020D000AF981092890010928800EAE8F0E08081C1
:1020E0008160808308950F931F93CF93DF936623BE
:1020F00099F08C01EC016150262F30E02F5F3F4FAB
:10210000020F131F89910E9464108091D2078330BF
:10211000F1F7C017D107B1F7DF91CF911F910F9160
:102120000895DC0170E06550710916161706ECF48D
:1021300030E08FEF9FEFFD01E30FF11D2381822738
:1021400028E080FF07C09695879541E0842740EA04
:10215000942702C096958795215099F73F5F432FAA
:1021600050E0461757073CF308958FEF9FEF08950F
:10217000CF93DF9380910A06853A21F480910B0674
:102180008A3519F0109241051BC260914005C62F97
:10219000D0E080910C0690E00596C817D90719F099
:1021A000109241050DC28AE096E00E949110AE01A6
:1021B000465F594FFA013197208130E0322F2227B4
:1021C00031974081240F311D2817390719F01092DB
:1021D0004105F6C180910D06833809F0F1C1AAE0EE
:1021E000B6E0C65FD94FFE013497808190E0982F0A
:1021F000882723972881822B1496EC911497F0E07E
:10220000FE2FEE2715962C91E22BE054F140E03C96
:10221000F10508F0D5C1E959FF4F0C9455130E9400
:102220006E0CCEC10E944302CBC1E0919902F0E056
:10223000EA5EFD4F8083C4C1E0919902F0E0EE0FA9
:10224000FF1FE155FD4F91838083865B9F4F60E0C8
:10225000782F80E992E00E94B403B2C1E091990224
:10226000F0E0EE0FFF1FE953FD4F91838083A8C17B
:10227000E0919902F0E0EE0FFF1FE352FE4F9183D1
:1022800080839EC10E948C029BC19093F801809331
:10229000F70196C19093F6018093F50191C1909357
:1022A000E2028093E102865B9F4F60E0782F84E931
:1022B00092E00E94B40384C19093E0028093DF0215
:1022C00020E033E0829FB001839F700D929F700DDC
:1022D00011247D5B8CE392E00E94B40371C10E94E3
:1022E00071046EC19093DC018093DB0169C190930E
:1022F000DA018093D90164C19093D8018093D7010A
:102300005FC1E091400120E4E29FF0011124ED560D
:10231000F84F9183808354C1E091400120E4E29F13
:10232000F0011124ED56F84F9383828349C1E09167
:10233000400120E4E29FF0011124ED56F84F95830F
:1023400084833EC1E091400120E4E29FF00111242A
:10235000ED56F84F9783868333C1E091400120E426
:10236000E29FF0011124ED56F84F9187808728C134
:10237000E091400120E4E29FF0011124ED56F84F76
:10238000938782871DC1E091400120E4E29FF00124
:102390001124ED56F84F9587848712C1E0914001D2
:1023A00020E4E29FF0011124ED56F84F97878687CD
:1023B00007C1E091400120E4E29FF0011124ED56B5
:1023C000F84F918B808BFCC0E091400120E4E29FAC
:1023D000F0011124ED56F84F938B828BF1C0E09100
:1023E000400120E4E29FF0011124ED56F84F958B57
:1023F000848BE6C0E091400120E4E29FF0011124CB
:10240000ED56F84F978B868BDBC0E091400120E4BE
:10241000E29FF0011124ED56F84F918F808FD0C0CC
:10242000E091400120E4E29FF0011124ED56F84FC5
:10243000938F828FC5C0E091400120E4E29FF001BC
:102440001124ED56F84F958F848FBAC0E09140016A
:1024500020E4E29FF0011124ED56F84F978F868F0C
:10246000AFC0E091400120E4E29FF0011124ED565D
:10247000F84F91A380A3A4C0E091400120E4E29F23
:10248000F0011124ED56F84F93A382A399C0E09177
:10249000400120E4E29FF0011124ED56F84F95A38E
:1024A00084A38EC0E091400120E4E29FF00111245A
:1024B000ED56F84F97A386A383C0E091400120E436
:1024C000E29FF0011124ED56F84F91A780A778C044
:1024D000E091400120E4E29FF0011124ED56F84F15
:1024E00093A782A76DC0E091400120E4E29FF00134
:1024F0001124ED56F84F95A784A762C0E0914001E2
:1025000020E4E29FF0011124ED56F84F97A786A72B
:1025100057C0E091400120E4E29FF0011124ED5604
:10252000F84F91AB80AB4CC0E091400120E4E29FBA
:10253000F0011124ED56F84F93AB82AB41C0E0910E
:10254000400120E4E29FF0011124ED56F84F95ABD5
:1025500084AB36C0E091400120E4E29FF0011124F9
:10256000ED56F84F97AB86AB2BC0E091400120E4CD
:10257000E29FF0011124ED56F84F91AF80AF20C0DB
:10258000E091400120E4E29FF0011124ED56F84F64
:1025900093AF82AF15C0E091400120E4E29FF001CB
:1025A0001124ED56F84F95AF84AF0AC0E091400179
:1025B00020E4E29FF0011124ED56F84F97AF86AF6B
:1025C00080E090E0DF91CF910895119A1098909358
:1025D000900089B9E5E9F0E08081866080838AB166
:1025E00088698AB908958B9A8A9890939800809305
:1025F000990086E080939D0088E980939A00089571
:10260000A79AA698AE9AAF9AEAE8F0E020812860EF
:1026100020832081287F20839C0140E050E060E0FF
:1026200074E284EF90E00E9433133093870020938C
:102630008600EDE7F0E0808180618083089597FB5C
:10264000072E16F4009407D077FD09D00E94751369
:1026500007FC05D03EF4909581959F4F08957095A5
:1026600061957F4F0895A1E21A2EAA1BBB1BFD01A5
:102670000DC0AA1FBB1FEE1FFF1FA217B307E40761
:10268000F50720F0A21BB30BE40BF50B661F771FB9
:10269000881F991F1A9469F7609570958095909599
:1026A0009B01AC01BD01CF010895EE0FFF1F059006
:1026B000F491E02D0994A29FB001B39FC001A39FA4
:1026C000700D811D1124911DB29F700D811D11246B
:1026D000911D08950E945B13A59F900DB49F900DCE
:1026E000A49F800D911D11240895AA1BBB1B51E1CD
:1026F00007C0AA1FBB1FA617B70710F0A61BB70B72
:10270000881F991F5A95A9F780959095BC01CD0116
:062710000895F894FFCFCC
:10271600B8D0CEC2CFDFB6CFBFAA000000000000FF
:10272600B8D0CEC2CFDFBDD3B7B4000000000000E2
:10273600B3ACCEC2B1A8BEAF0000000000000000DE
:10274600C9FDCEC2B5BDB4EFC9E8B6A8CEC2B6C8FB
:1027560001640003006400640064006400640064B3
:102766000064006400640064006400640064006443
:102776000064006400640064006400640064006433
:102786000064006400640064006400640064006423
:1027960000640064006400640064006400000031AA
:1027A60023000032230000332300003423000035C9
:1027B60023000036230000372300003823000039A9
:1027C6002300303123003131230032312364006489
:1027D60000640064006400640064006400640064D3
:1027E6000064006400010164006400640064006425
:1027F60000640064006400640064006400640064B3
:10280600006400640003006400020004000600087F
:0E281600000A000C000E00100012001400005A
:00000001FF
