S01D000054656D704374726C436F7265426F617264563152302E7372656362
S11300000C942F010C944C010C944C010C944C0155
S11300100C944C010C944C010C944C010C944C0128
S11300200C944C010C944C010C94AB100C944C01AA
S11300300C94A1100C944C010C944C010C944C01A4
S11300400C94940F0C944C010C9499110C944C0145
S11300500C944C010C944C010C944C010C944C01E8
S11300600C944C010C944C010C9410110C944C0104
S11300700C944C010C944C010C94BC110C944C0148
S11300800C944C010C944C010C944C01FC0C050D8B
S1130090070D0C0D120D1D0D290D350D410D4D0DC6
S11300A0590D5C0D5F0D620D6A0D720D7A0D820D96
S11300B0850D940DA30DA60DA90DAD0DB10DB40DB7
S11300C0BA0DBD0DC30DC80DCD0DD00DD80DE00D6D
S11300D0E60DEC0DF20DF80DFE0D040E0A0EF412F1
S11300E0C214FE12C2141013C2141A13C21427131A
S11300F0C2142C13C2143113C2143E13C21451136C
S1130100C2145413C2145913C2145E13C214241318
S1130110C214C214C214C214C214C214C214C2142B
S1130120C2146313C2146E13C2147913C214841359
S1130130C2148F13C2149A13C214A513C214B01399
S1130140C214BB13C214C613C214D113C214DC13D9
S1130150C214E713C214F213C214FD13C214081418
S1130160C2141314C2141E14C2142914C214341455
S1130170C2143F14C2144A14C2145514C214601495
S1130180C2146B14C2147614C2148114C2148C14D5
S1130190C2149714C214A214C214AD14C214B81415
S11301A0C214F712C214C214C214C214C214C21468
S11301B0C214C214C214C214C214C214C214C2148B
S11301C0C214C214C214C214C214C214C214C2147B
S11301D0C214C214C214C214C214C214C214C2146B
S11301E0C214C214C214C214C214C214C214C2145B
S11301F0C214C214C214C214C214C214C214C2144B
S1130200C214C214C214C214C214C214C214C2143A
S1130210C214C214C214C214C214C214C214C2142A
S1130220C214C214C214C214C214C214C214C2141A
S1130230C214C214C214C214C214C214C214C2140A
S1130240C214C214C214C214C214C214C214C214FA
S1130250C214C214C214C214C214C214F11211245E
S11302601FBECFEFD0E1DEBFCDBF12E0A0E0B1E012
S1130270E4E0FBE202C005900D92AE33B107D9F77A
S113028029E0AEE3B2E001C01D92AF39B207E1F755
S11302900E94230F0C9480150C9400008FE0000042
S11302A08150E9F70895CF92DF92EF92FF929B017C
S11302B0AC01A8EEB3E00E944C156B017C0121E077
S11302C0C21AD108E108F1080E944E0181E0C81A5F
S11302D0D108E108F108C1F7FF90EF90DF90CF90CB
S11302E00895CF93DF9342E157E06FE978E0C2E1EC
S11302F0D8E084EF91E023C09183808311969C938E
S11303008E939383828313969C938E9312979583F3
S1130310848315969C938E9314979783868317965C
S11303209C938E9316972F5F38961896283021F752
S1130330405C5F4F605C7F4FC417D50721F0DB0141
S1130340FA0120E0D9CFDF91CF910895CF93DF93C5
S11303508091D50290E001979C0112F42D5F3F4FEC
S113036035952795359527952F5F2295207FEFEEBC
S1130370F3E035EA30833AE5318338E0328332E022
S1130380338383709078992324F401978C6F9F6F43
S113039001968F5F820F8093F30380910C029091FA
S11303A00D02CFEED3E09D838E8380910A0290915B
S11303B00B029F8388878091080290910902998794
S11303C08A876DE0CE010E9473128B879C8782E03E
S11303D0809307028091EA028130F1F71092EA02D9
S11303E01092EB026DE08FEE93E00E942D1281E0FB
S11303F080930702DF91CF9108958091D60290E017
S11304009C01220F331FF901E251FE4F40815181BB
S1130410F901E25FFD4F208131812417350739F05E
S1130420FC01EE0FFF1FE25FFD4F518340839C01EF
S1130430220F331FF901E558FD4F40815181F90125
S1130440E95FFC4F208131812417350739F0FC0125
S1130450EE0FFF1FE95FFC4F518340839C01220F85
S1130460331FF901ED59FD4F40815181F901E151EB
S1130470FD4F208131812417350739F0880F991FEA
S1130480FC01E151FD4F5183408381E080930602DA
S11304901092DB0208951F93CF93DF93109207020B
S11304A0EFEEF3E025EA20832AE5218324E022838A
S11304B026E02383158286838093D7029093D80203
S11304C0EBE7F2E0A7E0B3E023E932E08083918335
S11304D032968C9311969C9311971296E217F30718
S11304E0A9F711E0CFEED3E0812F8295807F8C8332
S11304F069E0CE010E9473128F8398878091EA028B
S11305008130F1F71092EA021092EB0269E0CE0119
S11305100E942D121F5F143039F781E08093070287
S1130520DF91CF911F910895EAE4F6E0878190E08E
S1130530A0E0B0E0BA2FA92F982F88272085822B1E
S1130540BA2FA92F982F88272185822BBA2FA92F5C
S1130550982F88272285822B80935F0290936002D4
S1130560A0936102B09362020895CF93DF93582F52
S11305701092070280911F03909120030197C1F408
S11305809B01220F331F660F771F660F771F660FBD
S1130590771F260F371F20543140AFE8B3EE0E9477
S11305A03D15BC01729562956F7067277F70672750
S11305B04091D602942F969596959F5F80E1989FDF
S11305C09001112443704F5F242BCFEED3E085EAD2
S11305D088838AE5898384E08A835B832C837D8393
S11305E06E8369E0CE010E9473128F839887809195
S11305F0EA028130F1F71092EA021092EB0269E00C
S11306008FEE93E00E942D1281E080930702DF9128
S1130610CF9108951F93CF93DF93482F1092070231
S11306208330F1F480911F03909120030197C1F46A
S11306309B01220F331F660F771F660F771F660F0C
S1130640771F260F371F20543140AFE8B3EE0E94C6
S11306503D15BC01729562956F7067277F7067279F
S1130660EFEEF3E085EA80838AE5818384E0828388
S113067043837583668311E0EF01812F8295807F28
S11306808C8369E0CE010E9473128F8398878091D6
S1130690EA028130F1F71092EA021092EB0269E06B
S11306A0CE010E942D121F5F143039F781E0809330
S11306B00702DF91CF911F910895E0917101F0E05D
S11306C031970024F695E7950794F695E7950794F6
S11306D0FE2FE02DDF01A156B74FEE5EF84F88E004
S11306E02D913C9111973183208312962D913C9149
S11306F013973383228314962D913C911597358358
S1130700248316962D913C91179737832683815025
S1130710189638968111E4CF0895E4E2F3E095EA5F
S113072090839AE591839AE0928363839FEF980F75
S11307309483E62FF0E098E0899FE00DF11D1124E9
S1130740EE0FFF1FEE0FFF1FEE0FFF1FE653FA4FD2
S1130750A4E2B3E02CE233E08081918132961596D5
S11307609C93159716968C9316971296A217B30717
S113077099F76FE084E293E00E947312E4E2F3E0FD
S1130780858796876FE0CF010E9455120895CF9315
S1130790DF93C2E8D5E095EA98839AE5998394E0DB
S11307A09A8390E89B8393E09C831D828E8369E007
S11307B0CE010E9473128F83988769E0CE010E9454
S11307C00C12DF91CF9108958091DA02813021F4E7
S11307D083E00E94C70303C081E00E94C7036091C5
S11307E0DA0281E090E00E9473150895CF93DF93BD
S11307F0C2E8D5E025EA28832AE5298325E02A836F
S113080022E82B839C838D837E836F836AE0CE01F1
S11308100E947312888799876AE0CE010E940C12A5
S1130820DF91CF9108958091D50290E00197609176
S11308300C0270910D02880F991FFC01EA55FE4FBE
S113084071836083FC01E257FE4F20910A023091CC
S11308500B0231832083FC01EA58FE4F20910802E9
S1130860309109023183208386E390E00E94F603ED
S1130870E091D502F0E0EE0FFF1FE457FE4F6081D8
S1130880718188E390E00E94F603E091D502F0E0E4
S1130890EE0FFF1FEC58FE4F608171818AE390E0F8
S11308A00E94F6030E94A60108956091720170915E
S11308B0730180912802909129028617970741F0CD
S11308C0709329026093280288E491E00E94F60361
S11308D060917401709175018091260290912702B4
S11308E08617970741F070932702609326028AE4E3
S11308F091E00E94F6038091450290914602209176
S11309002103309122032817390761F090932203C1
S113091080932103865B9F4F60E0782F84E992E007
S11309200E94F603809143029091440220911F0398
S1130930309120032817390791F090932003809376
S11309401F0320E033E0829FB001839F700D929FCC
S1130950700D11247D5B8CE392E00E94F60381E02C
S1130960809306020895EF92FF920F931F93CF9303
S1130970DF93C82F8093D502813031F461E070E0B9
S113098080E591E00E94F603D0E02197CC0FDD1FB3
S1130990CE018A559E4F7C01FC016081718186E302
S11309A090E00E94F6038E0102571E4FF801608109
S11309B0718188E390E00E94F603CA58DE4F688193
S11309C079818AE390E00E94F603F70160817181E6
S11309D082E591E00E94F603F8016081718184E56B
S11309E091E00E94F6036881798186E591E00E9496
S11309F0F603F7018081918190930D0280930C029C
S1130A00F8018081918190930B0280930A0288817E
S1130A1099819093090280930802DF91CF911F91ED
S1130A200F91FF90EF900895EF92FF920F931F9311
S1130A30CF93DF9360917101611104C081E08093D1
S1130A40710149C0653020F084E08093710143C096
S1130A5070E082E790E00E94F603E0917101F0E01B
S1130A60E25CFD4F608170E080E790E00E94F60355
S1130A70C0E0D0E0E12C2BC0E0917101F0E03197AF
S1130A80EE0FFF1FEE0FFF1FEE0FFF1FEC0FFD1FFA
S1130A90EE0FFF1FEE0FFF1FE00FF11FEE0FFF1F02
S1130AA0EE5EF84F608171818F2D90E08E599E4FDC
S1130AB00E94F603F394F3940F5F1F4F0430110563
S1130AC0D9F688E0E80E219680E4E81621F0FE2CA1
S1130AD000E010E0D1CFDF91CF911F910F91FF90F3
S1130AE0EF900895DF92EF92FF920F931F93CF93AD
S1130AF0DF93E4E2F3E095EA90839AE5918392E44C
S1130B0092839DE193839FEF980F948340E4849FA5
S1130B1090011124A9014E52594F7A0190E0682F97
S1130B2070E0D82E572F6150710917C0E92FF0E0FB
S1130B30CD2DD52F8B012C9111963C9111971296A6
S1130B40EC5DFC4F358326839E5F9413EFCF98E0D2
S1130B50E90EF11C942F403421F048E0490FD701ED
S1130B60E5CF67E484E293E00E9473128093690303
S1130B7090936A0367E484E293E00E945512F801BB
S1130B80E15CFD4F81E0808361E070E080E790E00C
S1130B900E94F6032BB347E050E04C1B5D0B81E051
S1130BA090E002C0880F991F4A95E2F7809582234E
S1130BB08BBBDF91CF911F910F91FF90EF90DF904E
S1130BC008951F93CF93DF93182FC4E2D3E085EAEF
S1130BD088838AE5898382E08A838CE18B838FEF23
S1130BE0810F8C8367E0CE010E9473128D839E83F4
S1130BF067E0CE010E945512C12FD0E0FE01E25CF5
S1130C00FD4F108260E070E080E790E00E94F60300
S1130C104BB327E030E02C1B3D0B81E090E002C099
S1130C20880F991F2A95E2F7842B8BBBDF91CF9114
S1130C301F910895CF93DF93C2E8D5E025EA288376
S1130C402AE5298327E02A8322E82B839C838D834A
S1130C507E836F83588749876CE0CE010E947312AC
S1130C608A879B876CE0CE010E940C12DF91CF91A2
S1130C700895AF92BF92CF92DF92EF92FF920F93BB
S1130C801F93CF93DF936894EE24E6F8FF24F1F8E2
S1130C900F2EF0E7CF2EF2E0DF2EF02D0CE010E067
S1130CA0C0E0D0E00F2EFAE0AF2EB12CF02D8091F1
S1130CB0D90290E0BC01660F771F680F791F660F99
S1130CC0771F6C0F7D1F6F5F7F4FCE01880F991FB9
S1130CD00E94F6038091D90290E0FC01EE0FFF1F01
S1130CE0E80FF91FEE0FFF1FED53FD4FEC0FFD1F33
S1130CF0608170E0C8010E94F6038091D90290E0FF
S1130D00FC01EE0FFF1FE80FF91FEE0FFF1FEC0FA2
S1130D10FD1FEE0FFF1FED56FD4F20813181C901EC
S1130D20880F991F880F991F880F991FB5010E947A
S1130D300115CB0180964091430250914402849F57
S1130D40B001859F700D949F700D1124620F731F65
S1130D50C8010C960E94F6038091D90290E0FC0130
S1130D60EE0FFF1FE80FF91FEE0FFF1FEC0FFD1F23
S1130D70EE0FFF1FE251FE4F60817181C80148965A
S1130D800E94F6038091D90290E0FC01EE0FFF1F50
S1130D90E80FF91FEE0FFF1FEC0FFD1FEE0FFF1FF3
S1130DA0ED59FD4F80819181865B9F4F60E0782FE4
S1130DB0C8018C5D9D4F0E94F6038091D90290E09A
S1130DC0FC01EE0FFF1FE80FF91FEE0FFF1FEC0FE2
S1130DD0FD1FEE0FFF1FEE0FFF1FE254FE4F408179
S1130DE0518162817381C701805491090E941A065E
S1130DF08091D90290E0FC01EE0FFF1FE80FF91F6C
S1130E00EE0FFF1FE954FD4FEC0FFD1F60816330AF
S1130E10C8F063E070E0C6010E94F6038091D90235
S1130E2090E0FC01EE0FFF1FE80FF91FEE0FFF1F0C
S1130E30E954FD4FEC0FFD1F608170E0C7010E9473
S1130E40F60309C070E0C6010E94F60362E070E098
S1130E50C7010E94F60321960E5F1F4F84E0C80E5F
S1130E60D11C88E0E80EF11CC630D10509F01FCF73
S1130E70DF91CF911F910F91FF90EF90DF90CF9072
S1130E80BF90AF9008950F931F938091D60290E086
S1130E909C01220F331FF901E25FFD4F60817181D4
S1130EA0F901E251FE4F208131816217730751F03D
S1130EB0880F991FFC01E251FE4F7183608383E028
S1130EC00E94B5028091D60290E09C01220F331F4C
S1130ED0F901E95FFC4F60817181F901E558FD4F2B
S1130EE0208131816217730751F0880F991FFC012B
S1130EF0E558FD4F7183608386E00E94B5028091BE
S1130F00D60290E0FC01E95BFD4F6081FC01ED5AE3
S1130F10FD4F2081621741F0FC01ED5AFD4F6083C3
S1130F2070E088E00E94B5028091D60290E0409182
S1130F305F02509160026091610270916202FC0153
S1130F40EE0FFF1FEE0FFF1FE254FE4F00811181D1
S1130F5022813381041715072607370759F0880FB4
S1130F60991F880F991FFC01E254FE4F408351835F
S1130F70628373830E94390681E080930602109293
S1130F80DB021F910F91089580912802909129020C
S1130F909093730180937201EEEEF1E0AEE0B2E063
S1130FA026E032E0819391938D939D93E217F307AA
S1130FB0C9F780911F03909120039093440280937A
S1130FC043028091260290912702909375018093A9
S1130FD0740180912103909122039093460280939F
S1130FE04502E3E6F2E0AFEEB2E02BE732E08193B4
S1130FF091938D939D93E217F307C9F70E943906E5
S1131000609172017091730183E00E940A03609100
S113101074017091750184E00E940A036091450295
S11310207091460285E00E940A0381E080930602E3
S113103008951092060281E08093DB028093DC0223
S11310406091D60270E06F5F7F4F80E390E00E9472
S1131050F603E091D602F0E0EE0FFF1FED56FD4FD0
S113106020813181C901880F991F880F991F880F2A
S1131070991F6AE070E00E940115CB0180964091AF
S1131080430250914402849FB001859F700D949F48
S1131090700D1124620F731F82E390E00E94F60327
S11310A0E091D602F0E0EE0FFF1FE251FE4F6081A7
S11310B0718184E390E00E94F603E091D602F0E0AF
S11310C0EE0FFF1FE251FE4F6081718186E491E0D3
S11310D00E94F603E091D602F0E0EE0FFF1FE55800
S11310E0FD4F6081718184E491E00E94F603E091F8
S11310F0D602F0E0EE0FFF1FED59FD4F8081918184
S1131100865B9F4F60E0782F80E992E00E94F603AF
S1131110E091D602F0E0EE0FFF1FEE0FFF1FE25446
S1131120FE4F408151816281738188E892E00E9480
S11311301A06E091D602F0E0EE0FFF1FEE0FFF1F3C
S1131140E254FE4F408151816281738188E591E0D0
S11311500E941A06E091D602F0E0EE0FFF1FEE0F98
S1131160FF1FE254FE4F80819181A281B38180935D
S11311705F0290936002A0936102B09362020895AB
S1131180CF93DF93C2E8D5E095EA98839AE59983F3
S113119094E09A8394E89B838C837D836E8369E0D7
S11311A0CE010E9473128F83988769E0CE010E945A
S11311B00C12DF91CF9108950F931F93CF93DF9378
S11311C08A01E2E8F5E095EA90839AE5918393E158
S11311D0928392E89383C62FD0E09E01255D3F4F12
S11311E0A90142955295507F5427407F5427548338
S11311F02295207F258320E1829FC0011124DC01F8
S1131200AF5FBE4FE8E8F5E028E935E09D919193A2
S1131210E217F307D9F768E182E895E00E947312B8
S1131220E2E8F5E0868B978B68E1CF010E940C120F
S11312300930110528F40F5C1F4FB801736204C014
S1131240085C1F4FB8017362CE01CC96880F991FBA
S11312500E94F603DF91CF911F910F9108953F9261
S11312604F925F926F927F928F929F92AF92BF92B2
S1131270CF92DF92EF92FF920F931F93CF93DF935E
S11312801092ED021092EC02982F9295907FFF2419
S1131290F394F90E20E1829F800111240F5F1F4F08
S11312A00F2EF5E09F2EF02D990E412CCFEED3E0BA
S11312B00F2EF5EA5F2EF02D0F2EFAE56F2EF02D8E
S11312C06894772471F80F2EF7E0EF2EF02D8E2C12
S11312D00F2EF7EBAF2EF4E0BF2EF02D3324339412
S11312E0588269827A828B82FC826E2DCE010E94A2
S11312F073128D839E836E2DCE010E942D12680180
S11313000DC0992379F00E94E0111092EE03F501CB
S1131310848190E08C159D0509F4432C8091ED02A5
S11313209091EE03813069F71092ED021092EC0275
S1131330F3940F5F1F4FF910D3CF842DDF91CF911A
S11313401F910F91FF90EF90DF90CF90BF90AF90DF
S11313509F908F907F906F905F904F903F900895F3
S1131360CF93DF9381E00E942F09CFECD2E08883F2
S113137082E00E942F09898383E00E942F098A83D7
S11313809881911107C0E7EBF2E093E09083918399
S1131390928393839091D002911107C0E7EBF2E01E
S11313A093E09483958396839783811107C0E7EB39
S11313B0F2E083E08087818782878387DF91CF9102
S11313C00895982F92959F70990F990F8F70890F98
S11313D0855090E0DC01AA0FBB1FAA0FBB1FA254CB
S11313E0BE4FE7EBF4E0458150E060E070E0762F1B
S11313F0652F542F44272681422B762F652F542F97
S113140044272781422B762F652F542F442720858C
S1131410422B4D935D936D937C931397218530E01C
S1131420322F22274285242BAC01440F551FDA01A9
S1131430A251BE4F2D933C93DA01A25FBD4F2D9371
S11314403C93248530E03093460220934502309348
S1131450220320932103E3E6F2E04BE752E02193D9
S11314603193E417F507D9F7E7EBF4E02685DC01BF
S1131470AD5ABD4F2C93DC01A95BBD4F2C93208941
S11314802330A8F4422F417030E0FC01EE0FFF1F1F
S1131490DF01A558BD4F4C9311963C93E95FFC4F77
S11314A040833183FC01E954FD4F208311C0FC01CA
S11314B0E954FD4F20839C01220F331FF901E558A5
S11314C0FD4F11821082F901E95FFC4F11821082F5
S11314D0880F991FDC01AA55BE4FE7EBF4E0218980
S11314E030E0322F22274289242B2D933C93DC01B8
S11314F0A257BE4F238930E0322F22274489242B60
S11315002D933C93DC01AA58BE4F258930E0322F3D
S113151022274689242B2D933C930895CF93DF9360
S1131520CFEED3E095EA98839AE5998392E09A8383
S113153091E09B838295807F8C8367E0CE010E943B
S113154073128D839E8367E0CE010E942D12DF917A
S1131550CF9108951F93CF93DF93E7EBF4E0848159
S113156082958F7090E00197880F991F880F991FBB
S1131570DC01AD53BD4F25812C93DC011196ED01A7
S1131580CD53DD4F26812883BC016E5F7F4FEB0175
S1131590CD53DD4F27812883AC014D5F5F4FEA01B6
S11315A0CD53DD4F20852883EC01CC0FDD1FCD56B4
S11315B0DD4F258530E0322F22271685212B3983F4
S11315C02883ED01CC0FDD1FCD56DD4F278530E09C
S11315D0322F22271089212B39832883EB01CC0F4A
S11315E0DD1FCD56DD4F218930E0322F22271289AD
S11315F0212B39832883EA01CC0FDD1FCD56DD4F23
S1131600238930E0322F22271489212B3983288320
S1131610EC01C954DD4F25892883A954BD4F86891F
S11316208C93DB01A954BD4F87898C93DA01A954AB
S1131630BD4F808D8C930E943906DF91CF911F910D
S11316400895CF93DF93E2E8F5E095EA90839AE575
S1131650918393E1928392E89383C82FD0E0CE01E3
S11316608B969C0122953295307F3227207F32273A
S113167034838295807F8583E8E8F5E028E935E0C6
S11316801192E217F307E1F768E182E895E00E941E
S11316907312E2E8F5E0868B978B68E1CF010E9434
S11316A00C12CE01CC9660E070E0880F991F0E9466
S11316B0F603DF91CF910895BF92CF92DF92EF921C
S11316C0FF920F931F93CF93DF9390E0019729EF3D
S11316D0829FB02C11248C01000F111F000F111FC9
S11316E0000F111F081B190B0F2EF4E4EF2EF12C21
S11316F0F02DD0E0C0913E0268010F5F1F4FB8018A
S1131700C7010E94F60380913E0290E0C816D906F4
S11317107CF4EC2FEB0DED1BF0E0EE0FFF1FE05F10
S1131720F74F418150E06D2F80810E94DC0803C097
S11317308D2F0E94210BDF5F82E0E80EF11CD73071
S1131740C9F6DF91CF911F910F91FF90EF90DF9039
S1131750CF90BF900895CF9310923E02C0E08C2F9B
S11317600E94210BCF5FC730D1F781E00E945C0B50
S113177060913E0282E090E00E947315CF9108953B
S1131780CF93DF93C2E8D5E095EA98839AE59983ED
S113179093E09A8390E89B839BEE9C838D8368E01F
S11317A0CE010E9473128E839F8368E0CE010E9453
S11317B00C12DF91CF910895BF92CF92DF92EF92F6
S11317C0FF920F931F93CF93DF93CDB7DEB7649748
S11317D00FB6F894DEBF0FBECDBF84E1EAE2F2E0BB
S11317E0DE01119601900D928A95E1F781E08093D4
S11317F0DB021092DC028091D302843024F083E077
S11318008093D30204C0882314F41092D3028091ED
S1131810D4028C301CF01092D40205C088231CF42E
S11318208BE08093D4028091D302880F8E5FB82E10
S1131830BB0CBB0CB80E85B5887F85BD8AE50E94BC
S1131840C00BCE0101967E0125E1E20EF11C6C0174
S113185000E510E0081B190B8091D302082E000C40
S1131860990B0196F60120813181829FB001839FFB
S1131870700D929F700D1124619371936F01C801D3
S11318808E0F9F1F0E94F603CE14DF0429F7609188
S1131890D402062E000C770B6F5F7F4F8CE390E031
S11318A00E94F603E091D402EE0FFF0BED56FD4FBC
S11318B020813181C901880F991F880F991F880FD2
S11318C0991F6AE070E00E940115CB018096409157
S11318D0430250914402849FB001859F700D949FF0
S11318E0700D1124620F731F8EE390E00E94F603C3
S11318F0E091D402EE0FFF0BE251FE4F6081718143
S113190080E490E00E94F603E091D4020E2E000CD5
S1131910FF0BED53FD4F608170E082E490E00E9484
S1131920F603E091D402EE0FFF0BED59FD4F8081D9
S11319309181865B9F4F60E0782F80EA92E00E945D
S1131940F603E091D40224E0E202F0011124E2540F
S1131950FE4F408151816281738188E992E00E9447
S11319601A06B092EE0282EB84BD85B5856085BD12
S113197064960FB6F894DEBF0FBECDBFDF91CF9152
S11319801F910F91FF90EF90DF90CF90BF9008953B
S1131990FC0190913E02992331F185E2989F212D1B
S11319A01124892F821B8695820F86958695282F70
S11319B0220F220F220F281B92130AC085E2989F40
S11319C0812D1124981B9695980F969596950CC089
S11319D085E2989F812D1124981B9695980F9695D2
S11319E096959F5F01C091E0E932F10508F017C1B7
S11319F0EA5BFF4F0C9437159091DA0281E0892756
S1131A008093DA020E94E403089594980895109252
S1131A10D9020E943906089581E08093D9020E9478
S1131A20390608958091D902982F990F890F880F4C
S1131A308093D6020E94190808958091D902982FA4
S1131A40990F890F880F8F5F8093D6020E9419081F
S1131A5008958091D902982F990F890F880F8E5F6E
S1131A608093D6020E94190808958091D902982F74
S1131A70990F890F880F8D5F8093D6020E941908F1
S1131A8008958091D902982F990F890F880F8C5F40
S1131A908093D6020E94190808958091D902982F44
S1131AA0990F890F880F8B5F8093D6020E941908C3
S1131AB008950E94430708950E94C40708950E9450
S1131AC0130408958091D30281508093D3020E941D
S1131AD0DC0B08958091D3028F5F8093D3020E9420
S1131AE0DC0B08958091D40281508093D4020E942B
S1131AF0DC0B08958091D4028F5F8093D4020E94FE
S1131B00DC0B08950E94AB0B089580910001815075
S1131B1019F08093000103C081E08093000180915B
S1131B2000010E945C0B0895809100018F5F89176A
S1131B3018F48093000102C0909300018091000189
S1131B400E945C0B08950E94FD0108950E945504B3
S1131B50089581E00E94B304089581E00E945C0B23
S1131B6008950E94DC0B089585B5887F85BD109289
S1131B70DB02089510920602089581E080937101BA
S1131B800E9414050895809171010E94E105089551
S1131B90809171010E94720508950E945D03089569
S1131BA0809171018150809371010E941405089500
S1131BB0809171018F5F809371010E9414050895D3
S1131BC061E2809171010E948D03089562E2809127
S1131BD071010E948D03089563E2809171010E9456
S1131BE08D03089564E2809171010E948D0308952C
S1131BF065E2809171010E948D03089566E28091EF
S1131C0071010E948D03089567E2809171010E9421
S1131C108D03089568E2809171010E948D030895F7
S1131C204F925F926F927F928F929F92AF92BF92E8
S1131C30CF92DF92EF92FF920F931F93CF93DF9394
S1131C400F2EF7EBEF2EF2E0FF2EF02D0F2EFBEA16
S1131C50CF2EF2E0DF2EF02D00E010E0812C912C4D
S1131C6066246394712C0F2EF5E44F2EF02DCCE9ED
S1131C70D8E0202F502E5701F7018081F601908182
S1131C808917D1F180838330D8F1949A80913E02F0
S1131C90853458F040923E02E2E1F8E0828193817B
S1131CA081939193EC17FD07C9F780913E0290E070
S1131CB0F50160816350FC01EE0FFF1FEE5EF74FEC
S1131CC0608321830296880F991F0E947315809167
S1131CD03E0290E0880F991FFC01EE5EF74F618190
S1131CE003960E94731560913E026F5F60933E02FB
S1131CF082E090E00E947315F5018081833040F406
S1131D00C30102C0880F991F5A94E2F7882A992ABE
S1131D100F5F1F4FFFEFEF1AFF0A8FEFC81AD80AA1
S1131D200C30110509F0A5CFEFEF8E16EFE09E06FB
S1131D3009F49498DF91CF911F910F91FF90EF9048
S1131D40DF90CF90BF90AF909F908F907F906F90D7
S1131D505F904F900895EF92FF920F931F93CF934C
S1131D60DF9380E090E00E946B15893781F069E78A
S1131D7080E090E00E94731560E081E090E00E94B2
S1131D80731560E082E090E00E9473152BC081E03F
S1131D9090E00E946B158093DA0282E090E00E944A
S1131DA06B1580933E028823E9F002E118E081502C
S1131DB0E82EF12C83E0E80EF11CEE0CFF1CC4E0CD
S1131DC0D0E0CE010E946B15F8018083CE0101970B
S1131DD00E946B15F801818322960E5F1F4FCE156A
S1131DE0DF0579F7DF91CF911F910F91FF90EF906D
S1131DF00895D69AD59AD49AD39AD29AD19AD09A47
S1131E00DE9ADD9ADC9ADB9ADA98D99AD8988C9A79
S1131E108D9A9498959A08950E94F90E87E690E019
S1131E200E94C7148FE690E00E94D51480E895E2E2
S1131E300E94E2140E9467110E9487110E94761189
S1131E400E94710108950E940C0F8FB780688FBFA4
S1131E500E94AB0E64E670E080E090E00E945301C3
S1131E600E94B009609172017091730188E491E05D
S1131E700E94F60360917401709175018AE491E007
S1131E800E94F603209143023091440280E093E0E3
S1131E90289FB001299F700D389F700D11247D5B20
S1131EA08CE392E00E94F6038091450290914602F1
S1131EB0865B9F4F60E0782F84E992E00E94F603EE
S1131EC081E08093E9020E9439060E94E403C1E0A4
S1131ED080918105882321F00E949A121092810535
S1131EE08091EE03882321F00E94E0111092EE030A
S1131EF080910702813079F48091EA02813059F4AB
S1131F008C2F0E948E0ACF5FC43008F0C1E010927B
S1131F10EA021092EB028091E8028823C9F20E943F
S1131F20100E1092E802D4CF1F920F920FB60F92A8
S1131F3011242F933F934F935F936F937F938F93CA
S1131F409F93AF93BF93EF93FF938FB780688FBF37
S1131F5082EB82BF8091EC028F5F8C3318F4809304
S1131F60EC0205C01092EC0281E08093ED028091B6
S1131F70E902882311F18091EB028F5F843618F413
S1131F808093EB0205C01092EB0281E08093EA0299
S1131F908091E6029091E70201968C3221E092074B
S1131FA028F49093E7028093E60207C01092E702B8
S1131FB01092E60281E08093E8028091DB0288239C
S1131FC009F470C08091E4029091E5020196883C86
S1131FD0910528F49093E5028093E40263C0109283
S1131FE0E5021092E4028091DC02882341F1E09141
S1131FF0D602F0E0EE0FFF1FED56FD4F2081318138
S1132000C901880F991F880F991F880F991F6AE0CB
S113201070E00E940115CB018096409143025091DB
S11320204402849FB001859F700D949F700D11240C
S1132030620F731F82E390E00E94F60333C0E091C5
S1132040D402EE0FFF0BED56FD4F20813181C90103
S1132050880F991F880F991F880F991F6AE070E0F5
S11320600E940115CB018096409143025091440295
S1132070849FB001859F700D949F700D1124620F91
S1132080731F8EE390E00E94F603E091D4020E2EBB
S1132090000CFF0BED53FD4F608170E082E490E093
S11320A00E94F6038091EC039091E302891729F0D2
S11320B08093E3021092E20214C0882391F090917D
S11320C0E2029F5F9093E202943058F08093ED0314
S11320D081E08093EE031092EC031092E3021092DD
S11320E0E20280917F059091E102891729F08093A3
S11320F0E1021092E00214C0882391F09091E00272
S11321009F5F9093E002943058F08093800581E0C3
S11321108093810510927F051092E1021092E002F3
S1132120FF91EF91BF91AF919F918F917F916F91AB
S11321305F914F913F912F910F900FBE0F901F9081
S113214018951F920F920FB60F9211240F900FBE85
S11321500F901F9018951F920F920FB60F92112493
S11321602F933F934F935F936F937F938F939F939B
S1132170AF93BF93CF93DF93EF93FF938FB78068B1
S11321808FBF82EB84BD8091D402880F990BFC0130
S1132190ED56FD4F20813181E0914302F0914402DC
S11321A0DC01A251BE4FCD91DC918091DF028F5FA3
S11321B08093DF029091EE028917F8F01092DF020B
S11321C0C901880F991F880F991F880F991F6AE00A
S11321D070E00E940115CB0180968E9FB0018F9F05
S11321E0700D9E9F700D11242C593F4F2C1B3D0BDD
S11321F0620F731F81E00E94C008FF91EF91DF918D
S1132200CF91BF91AF919F918F917F916F915F918A
S11322104F913F912F910F900FBE0F901F901895E3
S11322201F920F920FB60F9211242F933F934F9347
S11322308F939F93EF93FF938091DE028F5F809340
S1132240DE0290919E08911136C08930F8F44091D5
S1132250DD0280912303282F30E081E090E0042EFA
S113226002C0880F991F0A94E2F78223932302C0C5
S1132270959587954A95E2F7019711F4AF9A01C0B5
S1132280AF988091DD028F5F8093DD028091DE0242
S1132290893019F41092DD02AF9A8091DE028A30FF
S11322A051F41092DE0283E080939E08EAE8F0E0A5
S11322B08081887F8083FF91EF919F918F914F91CF
S11322C03F912F910F900FBE0F901F90189583B7D9
S11322D0887F83BF82EB82BF87B78C7F87BF87B736
S11322E0816087BF83B7876083BF08958EB5886098
S11322F08EBD8EB5887F8EBD89E08BBD84EC8ABD92
S113230087B7806187BF8EB583608EBD089585B51C
S1132310887F85BD82EB84BD87B78F7387BF87B7FE
S1132320806487BF85B5856085BD85B5887F85BD9B
S113233008951F920F920FB60F9211248F939F93BB
S1132340EF93FF93E0917F0581E08E0F80937F05EB
S11323509CB1F0E0E65BF94F9083883C20F08093D9
S1132360800510927F05FF91EF919F918F910F90BF
S11323700FBE0F901F9018951F920F920FB60F92D9
S113238011248F939F93EF93FF93E091EC0381E0EB
S11323908E0F8093EC0390919C00F0E0E954FB4F86
S11323A09083883C20F08093ED031092EC03FF911E
S11323B0EF919F918F910F900FBE0F901F901895E2
S11323C08091B704853A21F48091B8048A3519F0D4
S11323D01092EE031AC02091ED0330E08091B9040D
S11323E090E005962817390719F01092EE030DC0F6
S11323F08091BA04813019F40E94AA0A06C0873079
S113240021F48091BB040E94E10980E090E00895EA
S11324105D9BFECF8CB908950F931F93CF93DF93E9
S1132420662371F0EC016150062F10E00F5F1F4F1F
S1132430080F191F89910E940812C017D107D1F7FC
S1132440DF91CF911F910F910895EBE9F0E0908116
S113245095FFFDCF80939C0008950F931F93CF9316
S1132460DF93662371F0EC016150062F10E00F5FDB
S11324701F4F080F191F89910E942512C017D107F9
S1132480D1F7DF91CF911F910F910895809323038A
S113249010929E08AF981092890010928800EAE882
S11324A0F0E080818160808308950F931F93CF9320
S11324B0DF93662399F08C01EC016150262F30E004
S11324C02F5F3F4F020F131F89910E944612809184
S11324D09E088330F1F7C017D107B1F7DF91CF9190
S11324E01F910F910895DC0170E065507109161673
S11324F01706ECF430E08FEF9FEFFD01E30FF11DC1
S11325002381822728E080FF07C09695879541E0C4
S1132510842740EA942702C096958795215099F71D
S11325203F5F432F50E0461757073CF308958FEF62
S11325309FEF0895CF93DF9380914A06853A21F463
S113254080914B068A3519F0109281051BC2609167
S11325508005C62FD0E080914C0690E00596C81700
S1132560D90719F0109281050DC28AE496E00E9401
S11325707312AE01465B594FFA013197208130E066
S1132580322F222731974081240F311D2817390714
S113259019F010928105F6C180914D06833809F037
S11325A0F1C1AAE4B6E0C65BD94FFE01349780813D
S11325B090E0982F882723972881822B1496EC91FA
S11325C01497F0E0FE2FEE2715962C91E22BE054A1
S11325D0F140E03CF10508F0D5C1E159FF4F0C94FE
S11325E037150E94C80CCEC10E944B02CBC1E091AA
S11325F0D602F0E0E95BFD4F8083C4C1E091D602CE
S1132600F0E0EE0FFF1FE151FD4F91838083865B65
S11326109F4F60E0782F80E992E00E94F603B2C1F8
S1132620E091D602F0E0EE0FFF1FE95FFC4F9183CB
S11326308083A8C1E091D602F0E0EE0FFF1FE25FB5
S1132640FD4F918380839EC10E9494029BC190930D
S113265029028093280296C1909327028093260230
S113266091C19093220380932103865B9F4F60E086
S1132670782F84E992E00E94F60384C190932003AA
S113268080931F0320E033E0829FB001839F700D8D
S1132690929F700D11247D5B8CE392E00E94F603FF
S11326A071C10E94B3046EC190930D0280930C0219
S11326B069C190930B0280930A0264C1909309024A
S11326C0809308025FC1E091710120E4E29FF00170
S11326D01124E15AF74F9183808354C1E091710131
S11326E020E4E29FF0011124E15AF74F938382839F
S11326F049C1E091710120E4E29FF0011124E15A03
S1132700F74F958384833EC1E091710120E4E29FF9
S1132710F0011124E15AF74F9783868333C1E09186
S1132720710120E4E29FF0011124E15AF74F9187EF
S1132730808728C1E091710120E4E29FF001112417
S1132740E15AF74F938782871DC1E091710120E41C
S1132750E29FF0011124E15AF74F9587848712C153
S1132760E091710120E4E29FF0011124E15AF74F56
S11327709787868707C1E091710120E4E29FF00109
S11327801124E15AF74F918B808BFCC0E0917101C9
S113279020E4E29FF0011124E15AF74F938B828BDE
S11327A0F1C0E091710120E4E29FF0011124E15AAB
S11327B0F74F958B848BE6C0E091710120E4E29F92
S11327C0F0011124E15AF74F978B868BDBC0E0911F
S11327D0710120E4E29FF0011124E15AF74F918F37
S11327E0808FD0C0E091710120E4E29FF0011124B8
S11327F0E15AF74F938F828FC5C0E091710120E4B5
S1132800E29FF0011124E15AF74F958F848FBAC0EB
S1132810E091710120E4E29FF0011124E15AF74FA5
S1132820978F868FAFC0E091710120E4E29FF001A1
S11328301124E15AF74F91A380A3A4C0E091710140
S113284020E4E29FF0011124E15AF74F93A382A3FD
S113285099C0E091710120E4E29FF0011124E15A52
S1132860F74F95A384A38EC0E091710120E4E29F09
S1132870F0011124E15AF74F97A386A383C0E09196
S1132880710120E4E29FF0011124E15AF74F91A76E
S113289080A778C0E091710120E4E29FF001112447
S11328A0E15AF74F93A782A76DC0E091710120E42C
S11328B0E29FF0011124E15AF74F95A784A762C063
S11328C0E091710120E4E29FF0011124E15AF74FF5
S11328D097A786A757C0E091710120E4E29FF00119
S11328E01124E15AF74F91AB80AB4CC0E0917101D8
S11328F020E4E29FF0011124E15AF74F93AB82AB3D
S113290041C0E091710120E4E29FF0011124E15AF9
S1132910F74F95AB84AB36C0E091710120E4E29FA0
S1132920F0011124E15AF74F97AB86AB2BC0E0912D
S1132930710120E4E29FF0011124E15AF74F91AFB5
S113294080AF20C0E091710120E4E29FF0011124E6
S1132950E15AF74F93AF82AF15C0E091710120E4C3
S1132960E29FF0011124E15AF74F95AF84AF0AC0FA
S1132970E091710120E4E29FF0011124E15AF74F44
S113298097AF86AF80E090E0DF91CF910895119AE0
S113299010989093900089B9E5E9F0E08081866011
S11329A080838AB188698AB908958B9A8A989093AA
S11329B098008093990086E080939D0088E9809335
S11329C09A000895A79AA698AE9AAF9AEAE8F0E01A
S11329D02081286020832081287F20839C0140E07F
S11329E050E060E074E284EF90E00E9415153093AB
S11329F0870020938600EDE7F0E08081806180838A
S1132A00089597FB072E16F4009407D077FD09D09C
S1132A100E94571507FC05D03EF4909581959F4F71
S1132A200895709561957F4F0895A1E21A2EAA1B0F
S1132A30BB1BFD010DC0AA1FBB1FEE1FFF1FA2176A
S1132A40B307E407F50720F0A21BB30BE40BF50B67
S1132A50661F771F881F991F1A9469F760957095F0
S1132A60809590959B01AC01BD01CF010895EE0FB7
S1132A70FF1F0590F491E02D0994A29FB001B39F2C
S1132A80C001A39F700D811D1124911DB29F700D73
S1132A90811D1124911D08950E943D15A59F900D3F
S1132AA0B49F900DA49F800D911D11240895AA1B1D
S1132AB0BB1B51E107C0AA1FBB1FA617B70710F025
S1132AC0A61BB70B881F991F5A95A9F78095909557
S1132AD0BC01CD010895E199FECF9FBB8EBBE09A66
S1132AE099278DB30895262FE199FECF9FBB8EBB06
S1132AF02DBB0FB6F894E29AE19A0FBE01960895A1
S1072B00F894FFCF73
S1132B0401C8C8B5E7C5BCB6CFBFAA000000000021
S1132B1400CEC2B6C8B9FDB8DF0000000000000052
S1132B2400CEC2B6C8B9FDB5CD0000000000000057
S1132B3400C8C8B5E7C5BCB6CCC2B70000000000E5
S1132B4400C8C8B5E7C5BCBDD3B7B40000000000D5
S1132B5400BCD3C8C8C6F7B6CFBFAA0000000000A3
S1132B6400BCD3C8C8C6F7B6CCC2B7000000000086
S1132B7400016400030064006400640064006400F1
S1132B84640064006400640064006400640064001D
S1132B94640064006400640064006400640064000D
S1132BA464006400640064006400640064006400FD
S1132BB46400640064006400640064006400000051
S1132BC431230000322300003323000034230000A7
S1132BD43523000036230000372300003823000087
S1132BE4392300303123003131230032312364008E
S1132BF464006400640064006400640064006400AD
S1132C0464006400640001016400640064006400FE
S1132C14640064006400640064006400640064008C
S1132C2464006400640003006400020004000600FD
S1112C3408000A000C000E001000120014002C
S9030000FC
