S01F000074656D706374726C626F786D6F6E69746F725F763172302E73726563A1
S11300000C9468000C9485000C9485000C94850075
S11300100C9485000C9485000C9485000C94850048
S11300200C9485000C9485000C9424110C94850088
S11300300C941A110C9485000C9485000C94850082
S11300400C94DD0F0C9485000C94A7110C9485007E
S11300500C9485000C9485000C9485000C94850008
S11300600C9485000C9485000C946B110C94850001
S11300700C9485000C9485000C94CA110C94850092
S11300800C9485000C9485000C948500200B290B9E
S11300902B0B2E0B320B3D0B490B550B610B6D0BD0
S11300A0790B7C0B800B830B8B0B930B9B0BA30BA0
S11300B0A70BAB0BAF0BB20BB50BB90BBD0BC00B46
S11300C0C60BC90BCF0BEA0BEA0BD20BE00BE80B08
S11300D011241FBECFEFD0E1DEBFCDBF12E0A0E000
S11300E0B1E0EEE4F8E202C005900D92A835B10744
S11300F0D9F726E0A8E5B2E001C01D92AF34B207FB
S1130100E1F70E947E0F0C9425140C9400000F93C9
S11301101F938091E10290E09C01220F331FF901AB
S1130120E95DFD4F60817181F901E250FE4F20814C
S1130130318162177307D9F0880F991FFC01E250CF
S1130140FE4F7183608323E02093180205960E947A
S1130150EB0B8091E10290E0FC01EE0FFF1FE250F7
S1130160FE4F61810396880F991F0E94EB0B8091CB
S1130170E10290E09C01220F331FF901E55FFC4F7F
S113018040815181F901E657FD4F208131814217A9
S1130190530769F0FC01EE0FFF1FE657FD4F518333
S11301A0408326E02093180221E020934E069C0110
S11301B0220F331FF901ED50FD4F60817181F90168
S11301C0EE58FD4F208131816217730769F0FC01FD
S11301D0EE0FFF1FEE58FD4F7183608325E02093DF
S11301E018024D960E94EB0B8091E10290E0409141
S11301F06E0250916F026091700270917102FC0165
S1130200EE0FFF1FEE0FFF1FE253FE4F008111811F
S113021022813381041715072607370709F45AC0CA
S1130220880F991F880F991FFC01E253FE4F4083EA
S1130230518362837383642F82589F4F0E94EB0B18
S11302408091E10290E09C01220F331F220F331FA3
S1130250F901E253FE4F40815181628173819927F4
S1130260872F762F652FC90181589F4F0E94EB0B72
S11302708091E102282F30E0F901EE0FFF1FEE0F0D
S1130280FF1FE253FE4F40815181628173818827B1
S11302909927205E3F4FC901880F991F880F991F26
S11302A00E94EB0B8091E10290E09C01220F331F2E
S11302B0220F331FF901E253FE4F408151816281C5
S11302C07381672F772788279927C9018F579F4FF5
S11302D00E94EB0B81E0809316021092E6021F91BC
S11302E00F9108958091E00290E09C012150310922
S11302F06091250240912602220F331FF901EA542E
S1130300FE4F60834183F901E256FE4F4091230280
S11303105091240251834083F901EA57FE4F4091E2
S11303202102509122025183408322E0209318023B
S11303304496880F991F0E94EB0B8091E00290E095
S1130340FC01EE0FFF1FEC54FE4F6181880F991FD3
S113035089960E94EB0B8091E00290E0FC01EE0F85
S1130360FF1FE456FE4F80966081880F991F0E94FC
S1130370EB0B8091E00290E0FC01EE0FFF1FE456CE
S1130380FE4F6181880F991F8F5B9F4F0E94EB0B7B
S11303908091E00290E0FC01EE0FFF1FEC57FE4F4E
S11303A08C966081880F991F0E94EB0B8091E0026C
S11303B090E0FC01EE0FFF1FEC57FE4F6181880FA8
S11303C0991F875A9F4F0E94EB0B0895CF93DF9399
S11303D08091E00290E001979C0112F42D5F3F4F61
S11303E035952795359527952F5F2295207FEDEB41
S11303F0F4E035EA30833AE5318338E0328332E0A1
S1130400338383709078992324F401978C6F9F6FC2
S113041001968F5F820F8093C10480912502909191
S11304202602CDEBD4E09D838E83809123029091AC
S113043024029F83888780912102909122029987C8
S11304408A876DE0CE010E942C128B879C876DE019
S1130450CE010E94131281E080931802DF91CF91A4
S113046008958091E10290E09C01220F331FF9016D
S1130470E250FE4F40815181F901E95DFD4F208139
S113048031812417350739F0FC01EE0FFF1FE95DB8
S1130490FD4F518340839C01220F331FF901E6571E
S11304A0FD4F40815181F901E55FFC4F208131818D
S11304B02417350739F0FC01EE0FFF1FE55FFC4FF1
S11304C0518340839C01220F331FF901EE58FD4FE5
S11304D040815181F901ED50FD4F20813181241774
S11304E0350739F0880F991FFC01ED50FD4F5183FA
S11304F0408381E0809316021092E60208952091D1
S11305000101322F3295307F3093C104213009F537
S1130510EDEBF4E025EA20832AE5218324E022831D
S113052026E02383158286838093E2029093E3027C
S1130530EAE8F2E0ABE0B3E022EA32E080839183C0
S113054032968C9311969C9311971296E217F307A7
S1130550A9F769E08DEB94E00E942C12EDEBF4E036
S11305608783908769E0CF010E9413128091010173
S11305708F5F843018F480930101089581E08093A3
S11305800101809318020895E2EFF3E0878190E07F
S1130590A0E0B0E0BA2FA92F982F88272085822BBE
S11305A0BA2FA92F982F88272185822BBA2FA92FFC
S11305B0982F88272285822B80936E0290936F0256
S11305C0A0937002B09371020895CF93DF93E82F44
S11305D080912303909124030197C1F49B01220F7E
S11305E0331F660F771F660F771F660F771F260F5F
S11305F0371F20543140AFE8B3EE0E940214BC010F
S1130600729562956F7067277F7067273091E1025A
S1130610932F969596959F5F80E1989FA001112452
S113062033703F5F432BCDEBD4E085EA88838AE5C2
S1130630898384E08A83EB834C837D836E8369E0C2
S1130640CE010E942C128F83988769E0CE010E940C
S1130650131281E080931802DF91CF910895CF9314
S1130660DF93482F80912303909124030197C1F4D1
S11306709B01220F331F660F771F660F771F660FCC
S1130680771F260F371F20543140AFE8B3EE0E9486
S11306900214BC01729562956F7067277F7067279B
S11306A0CDEBD4E085EA88838AE5898384E08A8374
S11306B04B837D836E83809100018295807F8C8340
S11306C069E0CE010E942C128F83988769E0CE01E5
S11306D00E941312809100018F5F843018F480937C
S11306E0000103C081E080930001DF91CF91089560
S11306F0CF93DF93CAE2D3E095EA98839AE599838E
S113070094E09A8390E89B8393E09C831D828E837C
S113071069E0CE010E942C128F83988769E0CE0194
S11307200E94F211DF91CF9108958091E50281300A
S113073021F483E00E94780303C081E00E947803DF
S11307406091E50280E090E00E94EB0B0895CF9366
S1130750DF93CAE2D3E025EA28832AE5298325E04A
S11307602A8322E82B839C838D837E836F836AE0B4
S1130770CE010E942C12888799876AE0CE010E94DC
S1130780F211DF91CF910895AF92BF92CF92DF9291
S1130790EF92FF920F931F93CF93DF9380915802B0
S11307A0833008F066C060914102709142027093F8
S11307B043016093420183E00E942F036091420150
S11307C083E090E00E94EB0B6091430184E090E0B1
S11307D00E94EB0B07E212E0CEEFD1E00F2EFFE315
S11307E0AF2EF2E0BF2EF02D0F2EF6E0EF2EF12CFF
S11307F0F02D609142018091430168838983F8015F
S1130800608381830E5F1F4FC70101970E94EB0B2A
S113081069812296C7010E94EB0BF2E0EF0EF11CF6
S11308200A151B0531F7809123039091240320912D
S11308305A0230915B0282179307C1F090935B02D6
S113084080935A0220E033E0829FB001839F700DB1
S1130850929F700D11247D5B8CE392E00E94A703AC
S113086060915A0282E090E00E94EB0B81E0809359
S11308701602809158028630C0F460913F02709154
S1130880400280914401909145016817790769F00D
S1130890709345016093440184E00E942F036091AA
S11308A044018EEF90E00E94EB0B80915802893056
S11308B008F048C0609125037091260380915C0282
S11308C090915D0268177907E9F170935D02609376
S11308D05C0285E00E942F0360915C0281E090E05D
S11308E00E94EB0BC2E7D2E003EF12E00F2EFAE80E
S11308F0CF2EF2E0DF2EF02D0F2EFDE1EF2EF12CA6
S1130900F02D60915C0280915D0268838983229658
S1130910F801608381830E5F1F4FC7010E94EB0BB8
S1130920FFEFEF1AFF0ACC15DD0559F780915C0241
S113093090915D02865B9F4F60E0782F84E992E09E
S11309400E94A703809158028F5F893018F4809326
S1130950580205C01092580281E080931802DF917A
S1130960CF911F910F91FF90EF90DF90CF90BF90A8
S1130970AF900895609142017091430180914102CA
S1130980909142028617970741F070934202609358
S1130990410288E491E00E94A703609144017091B0
S11309A0450180913F02909140028617970741F0DC
S11309B07093400260933F028AE491E00E94A7038F
S11309C080915C0290915D02209125033091260371
S11309D02817390761F09093260380932503865BDB
S11309E09F4F60E0782F84E992E00E94A7038091F2
S11309F05A0290915B02209123033091240328171B
S1130A00390791F0909324038093230320E033E08B
S1130A10829FB001839F700D929F700D11247D5BA6
S1130A208CE392E00E94A70381E08093160208956C
S1130A30EF92FF920F931F93CF93DF93C82F80936E
S1130A40E002813031F461E070E080E591E00E94E1
S1130A50A703D0E02197CC0FDD1FCE018A549E4F0F
S1130A607C01FC016081718186E390E00E94A70310
S1130A708E0102561E4FF8016081718188E390E077
S1130A800E94A703CA57DE4F688179818AE390E008
S1130A900E94A703F7016081718182E591E00E94C1
S1130AA0A703F8016081718184E591E00E94A703A6
S1130AB06881798186E591E00E94A703F70180812E
S1130AC091819093260280932502F801808191817F
S1130AD09093240280932302888199819093220227
S1130AE080932102DF91CF911F910F91FF90EF909E
S1130AF008958091E8029091E90260911F0240916B
S1130B0020029C01220F331FF901EA58FE4F608333
S1130B104183F901EA59FE4F40911D0250911E0292
S1130B2051834083F901EA5AFE4F40911B025091D0
S1130B301C0251834083F901EA5BFE4F4091190284
S1130B4050911A0251834083895A9F4F880F991FED
S1130B500E94EB0B8091E8029091E902FC01EE0FF8
S1130B60FF1FEA58FE4F6181880F991F81559F4FDF
S1130B700E94EB0B8091E8029091E902FC01EE0FD8
S1130B80FF1FEA59FE4F815A9F4F6081880F991FBA
S1130B900E94EB0B8091E8029091E902FC01EE0FB8
S1130BA0FF1FEA59FE4F6181880F991F81549F4F9F
S1130BB00E94EB0B8091E8029091E902FC01EE0F98
S1130BC0FF1FEA5AFE4F89599F4F6081880F991F72
S1130BD00E94EB0B8091E8029091E902FC01EE0F78
S1130BE0FF1FEA5AFE4F6181880F991F81539F4F5F
S1130BF00E94EB0B8091E8029091E902FC01EE0F58
S1130C00FF1FEA5BFE4F81599F4F6081880F991F38
S1130C100E94EB0B8091E8029091E902FC01EE0F37
S1130C20FF1FEA5BFE4F6181880F991F81529F4F1E
S1130C300E94EB0BE091E802F091E902EE0FFF1F36
S1130C40EA58FE4F6081718180E790E00E94A7031B
S1130C50E091E802F091E902EE0FFF1FEA59FE4F1E
S1130C606081718182E790E00E94A703E091E8022D
S1130C70F091E902EE0FFF1FEA5AFE4F6081718185
S1130C8084E790E00E94A703E091E802F091E90272
S1130C90EE0FFF1FEA5BFE4F6081718186E790E0F3
S1130CA00E94A7030895CF93DF93CAE2D3E025EA15
S1130CB028832AE5298327E02A8322E82B839C833F
S1130CC08D837E836F83588749876CE0CE010E94B1
S1130CD02C128A879B876CE0CE010E94F211DF916F
S1130CE0CF910895CF92DF92EF92FF920F931F93CB
S1130CF0CF93DF93E12C6894FF24F1F80CE010E02B
S1130D00C0E0D0E00F2EFAE0CF2ED12CF02D809150
S1130D10E40290E0BC01660F771F680F791F660F2D
S1130D20771F6C0F7D1F6F5F7F4FCE01880F991F58
S1130D300E94A7038091E40290E0FC01EE0FFF1FE4
S1130D40E80FF91FEE0FFF1FEE52FD4FEC0FFD1FD2
S1130D50608170E0C8010E94A7038091E40290E0E2
S1130D60FC01EE0FFF1FE80FF91FEE0FFF1FEC0F42
S1130D70FD1FEE0FFF1FE255FD4F20813181C90198
S1130D80880F991F880F991F880F991FB6010E9419
S1130D90E813CB01809640915A0250915B02849FE4
S1130DA0B001859F700D949F700D1124620F731F05
S1130DB0C8010C960E94A7038091E40290E0FC0114
S1130DC0EE0FFF1FE80FF91FEE0FFF1FEC0FFD1FC3
S1130DD0EE0FFF1FE250FE4F60817181C8014896FB
S1130DE00E94A7038091E40290E0FC01EE0FFF1F34
S1130DF0E80FF91FEE0FFF1FEC0FFD1FEE0FFF1F93
S1130E00EE58FD4F80819181865B9F4F60E0782F83
S1130E10C8018C5D9D4F0E94A7038091E40290E07D
S1130E20FC01EE0FFF1FE80FF91FEE0FFF1FEC0F81
S1130E30FD1FEE0FFF1FEE0FFF1FE253FE4F408119
S1130E40518162817381C7010E94530621960E5F0E
S1130E501F4F88E0E80EF11CC630D10509F057CFCA
S1130E60DF91CF911F910F91FF90EF90DF90CF9082
S1130E7008951092160281E08093E6028093E702BF
S1130E806091E10270E06F5F7F4F80E390E00E9429
S1130E90A703E091E102F0E0EE0FFF1FE255FD4FE2
S1130EA020813181C901880F991F880F991F880FEC
S1130EB0991F6AE070E00E94E813CB01809640918C
S1130EC05A0250915B02849FB001859F700D949FDC
S1130ED0700D1124620F731F82E390E00E94A70338
S1130EE0E091E102F0E0EE0FFF1FE250FE4F60815F
S1130EF0718184E390E00E94A703E091E102F0E0B5
S1130F00EE0FFF1FE250FE4F6081718186E491E095
S1130F100E94A703E091E102F0E0EE0FFF1FE65705
S1130F20FD4F6081718184E491E00E94A703E09108
S1130F30E102F0E0EE0FFF1FEE58FD4F808191813A
S1130F40865B9F4F60E0782F80E992E00E94A703C0
S1130F50E091E102F0E0EE0FFF1FEE0FFF1FE253FE
S1130F60FE4F408151816281738188E892E00E9442
S1130F705306E091E102F0E0EE0FFF1FEE0FFF1FBA
S1130F80E253FE4F408151816281738188E591E093
S1130F900E945306E091E102F0E0EE0FFF1FEE0F16
S1130FA0FF1FE253FE4F80819181A281B381809320
S1130FB06E0290936F02A0937002B0937102089531
S1130FC0CF93DF93CAE2D3E095EA98839AE59983B5
S1130FD094E09A8394E89B838C837D836E8369E099
S1130FE0CE010E942C128F83988769E0CE010E9463
S1130FF0F211DF91CF9108950F931F93CF93DF9355
S11310008A01EAE2F3E095EA90839AE5918393E119
S1131010928392E89383C62FD0E09E01255D3F4FD3
S1131020A90142955295507F5427407F54275483F9
S11310302295207F258320E1829FC0011124DC01B9
S1131040AE50BF4FE0E3F3E020E433E09D91919391
S1131050E217F307D9F768E18AE293E00E942C12C1
S1131060EAE2F3E0868B978B68E1CF010E94F211EC
S11310700930110528F40F5C1F4FB801736204C0D6
S1131080085C1F4FB8017362CE01CC96880F991F7C
S11310900E94A703DF91CF911F910F910895CF93E1
S11310A0DF93CDEBD4E095EA98839AE5998392E0B7
S11310B09A8391E09B838295807F8C8367E0CE0145
S11310C00E942C128D839E8367E0CE010E9413122E
S11310D0DF91CF9108951F93CF93DF93E5E8F5E077
S11310E0848182958F7090E00197880F991F880FF3
S11310F0991FDC01AE52BD4F25812C93DC01119662
S1131100ED01CE52DD4F26812883BC016E5F7F4FF7
S1131110EB01CE52DD4F27812883AC014D5F5F4F39
S1131120EA01CE52DD4F20852883EC01CA53DD4FFE
S113113021852883ED01CA53DD4F22852883EB01E5
S1131140CA53DD4F23852883EA01CA53DD4F248522
S11311502883EC01CC0FDD1FC255DD4F258530E01F
S1131160322F22271685212B39832883ED01CC0FBA
S1131170DD1FC255DD4F278530E0322F222710892D
S1131180212B39832883EB01CC0FDD1FC255DD4FA2
S1131190218930E0322F22271289212B3983288399
S11311A0EA01CC0FDD1FC255DD4F238930E0322F19
S11311B022271489212B39832883EC01CE55DD4F56
S11311C025892883AE55BD4F86898C93DB01AE55A6
S11311D0BD4F87898C93DA01AE55BD4F808D8C93BA
S11311E0DF91CF911F910895CF93DF93EAE2F3E06B
S11311F095EA90839AE5918393E1928392E89383AD
S1131200C82FD0E0CE018B969C0122953295307F79
S11312103227207F322734838295807F8583E0E3E1
S1131220F3E020E433E01192E217F307E1F768E119
S11312308AE293E00E942C12EAE2F3E0868B978B19
S113124068E1CF010E94F211CE01CC9660E070E01B
S1131250880F991F0E94A703DF91CF910895CF9221
S1131260DF92EF92FF920F931F93CF93DF9390E05F
S11312700197EC01CC0FDD1FCC0FDD1FCC0FDD1F60
S1131280C81BD90B219604E410E0BE01C8010E94DA
S1131290A7030E5F1F4F219602351105B1F70F2EDC
S11312A0FEEAEF2EF2E0FF2EF02D02EA12E0C0E09B
S11312B06801C094D094F80181918F01882339F09A
S11312C0A6014E0F5F1F6C2F0E94FC07CF5FE01634
S11312D0F10689F7C73030F48C2F0E94F408CF5FF1
S11312E0C730D1F7DF91CF911F910F91FF90EF900D
S11312F0DF90CF900895CF93DF93CAE2D3E095EACD
S113130098839AE5998393E09A8390E89B839BEE74
S11313109C838D8368E0CE010E942C128E839F8370
S113132068E0CE010E94F211DF91CF910895BF923F
S1131330CF92DF92EF92FF920F931F93CF93DF939D
S1131340CDB7DEB764970FB6F894DEBF0FBECDBF3E
S113135084E1E3E4F2E0DE01119601900D928A95B6
S1131360E1F781E08093E6021092E7028091DE02C9
S1131370843024F083E08093DE0204C0882314F4D4
S11313801092DE028091DF028C301CF01092DF029A
S113139005C088231CF48BE08093DF028091DE0279
S11313A0880F8E5FB82EBB0CBB0CB80E85B5887F3A
S11313B085BD8AE50E947B09CE0101967E0125E167
S11313C0E20EF11C6C0100E510E0081B190B809182
S11313D0DE02082E000C990B0196F6012081318162
S11313E0829FB001839F700D929F700D11246193B1
S11313F071936F01C8018E0F9F1F0E94A703CE1423
S1131400DF0429F76091DF02062E000C770B6F5F73
S11314107F4F8CE390E00E94A703E091DF02EE0F80
S1131420FF0BE255FD4F20813181C901880F991FBF
S1131430880F991F880F991F6AE070E00E94E813D3
S1131440CB01809640915A0250915B02849FB00177
S1131450859F700D949F700D1124620F731F8EE38E
S113146090E00E94A703E091DF02EE0FFF0BE25031
S1131470FE4F6081718180E490E00E94A703E091B7
S1131480DF020E2E000CFF0BEE52FD4F608170E068
S113149082E490E00E94A703E091DF02EE0FFF0BCD
S11314A0EE58FD4F80819181865B9F4F60E0782FDD
S11314B080EA92E00E94A703E091DF0224E0E202C6
S11314C0F0011124E253FE4F408151816281738106
S11314D088E992E00E945306B092F20282EB84BD46
S11314E085B5856085BD64960FB6F894DEBF0FBEE2
S11314F0CDBFDF91CF911F910F91FF90EF90DF90BF
S1131500CF90BF9008958AE50E947B098091E802FC
S11315109091E902880F991FFC01EA58FE4F6081FF
S113152071817093200260931F02FC01EA59FE4FFF
S11315302081318130931E0220931D02FC01EA5A5E
S1131540FE4F2081318130931C0220931B02FC0149
S1131550EA5BFE4F8081918190931A028093190275
S113156080E691E00E94A703E091E802F091E9028D
S1131570EE0FFF1FEA59FE4F6081718182E691E010
S11315800E94A703E091E802F091E902EE0FFF1F29
S1131590EA5AFE4F6081718184E691E00E94A703BC
S11315A0E091E802F091E902EE0FFF1FEA5BFE4FC3
S11315B06081718186E691E00E94A703E091E802D0
S11315C0F091E902EE0FFF1FEA58FE4F608171812E
S11315D080E790E00E94A703E091E802F091E9021D
S11315E0EE0FFF1FEA59FE4F6081718182E790E0A0
S11315F00E94A703E091E802F091E902EE0FFF1FB9
S1131600EA5AFE4F6081718184E790E00E94A7034B
S1131610E091E802F091E902EE0FFF1FEA5BFE4F52
S11316206081718186E790E00E94A7030895823269
S1131630910508F0CFC0FC01EA5BFF4F0C94FC134A
S11316409091E50281E089278093E5020E94950349
S11316500895949808951092E402089581E0809387
S1131660E40208958091E402982F990F890F880F5E
S11316708093E1020E94390708958091E402982F33
S1131680990F890F880F8F5F8093E1020E943907B9
S113169008958091E402982F990F890F880F8E5F27
S11316A08093E1020E94390708958091E402982F03
S11316B0990F890F880F8D5F8093E1020E9439078B
S11316C008958091E402982F990F890F880F8C5FF9
S11316D08093E1020E94390708958091E402982FD3
S11316E0990F890F880F8B5F8093E1020E9439075D
S11316F008950E948700089587E080931802089552
S11317000E94720108958091DE0281508093DE026E
S11317100E94970908958091DE028F5F8093DE0214
S11317200E94970908958091DF0281508093DF021F
S11317300E94970908958091DF028F5F8093DF02F2
S11317400E94970908958FE00E94F408089581E0AB
S11317500E942F09089582E00E942F0908950E9493
S1131760310208950E94BA04089581E00E94180588
S1131770089581E00E942F0908950E949709089511
S113178085B5887F85BD1092E602089510921602F1
S1131790089581E0809359020E94830A089510926B
S11317A0590208958091E8029091E902FC01EA59F6
S11317B0FD4F21E02083FC01E25AFD4F2083089570
S11317C0E091E802F091E902E25AFD4F1082089597
S11317D00E9479050895E199FECF9FBB8EBB6DBB36
S11317E08FB78F778FBFE29AE19A8FB780688FBFE8
S11317F00895E199FECF9FBB8EBBE09A8DB3089507
S11318002F923F924F925F926F927F928F929F920C
S1131810AF92BF92CF92DF92EF92FF920F931F93FA
S1131820CF93DF93CDB7DEB72A970FB6F894DEBF18
S11318300FBECDBF8CEF90E00E94F90B893709F4FD
S113184057C169E78CEF90E00E94EB0B0F2EFEEF7F
S11318506F2EF1E07F2EF02D0F2EF2E74F2EF2E0E7
S11318605F2EF02D0F2EF6EBAF2EF1E0BF2EF02DF4
S11318700F2EFEE9CF2EF1E0DF2EF02D0F2EF6E82D
S11318808F2EF1E09F2EF02D0F2EFEECEF2EF1E0C7
S1131890FF2EF02D130100E010E02DE130E03A833B
S11318A029831C821B82F1016081F2E02F0E311C1E
S11318B08B819C8105960E94EB0BF3016181F2E020
S11318C06F0E711C8B819C8106960E94EB0BF201BA
S11318D06081F2E04F0E511C89819A810E94EB0BCA
S11318E0F50160818B819C818A960E94EB0BF50146
S11318F061818B819C818B960E94EB0BF601608148
S11319008B819C818E5B9F4F0E94EB0BF601618162
S11319108B819C818D5B9F4F0E94EB0BF401608156
S11319208B819C81865A9F4F0E94EB0BF40161814D
S11319308B819C81855A9F4F0E94EB0BF70160813C
S1131940C80182589F4F0E94EB0BF701808191815F
S1131950A281B381692F7A2F8B2F9927C8018158CF
S11319609F4F0E94EB0BF70180819181A281B3818B
S1131970BD0188279927C80180589F4F0E94EB0B0F
S1131980F70181919191A191B1917F016B2F7727FB
S113199088279927C8018F579F4F0E94EB0B2B81F3
S11319A03C812E5F3F4F3C832B8389819A81019632
S11319B09A83898392E0A90EB11CE2E0CE0ED11C79
S11319C0F2E08F0E911C0C5F1F4F2831310509F096
S11319D06ACF0F2EF6E78F2EF1E09F2EF02D0F2EFB
S11319E0F6E6CF2EF1E0DF2EF02D0F2EF6E5EF2EEA
S11319F0F1E0FF2EF02D06E411E054011A82198261
S1131A00F4016081F2E08F0E911C89819A818255E4
S1131A109F4F0E94EB0BF5016181F2E0AF0EB11C08
S1131A2089819A8181559F4F0E94EB0BF601608159
S1131A3089819A8182549F4F0E94EB0BF601618148
S1131A4089819A8181549F4F0E94EB0BF701608139
S1131A5089819A8182539F4F0E94EB0BF701618128
S1131A6089819A8181539F4F0E94EB0BF801608119
S1131A7089819A8182529F4F0E94EB0BF801618108
S1131A8089819A8181529F4F0E94EB0B29813A816F
S1131A902E5F3F4F3A83298332E0C30ED11C82E08C
S1131AA0E80EF11C0E5F1F4FE981FA81709709F06F
S1131AB0A7CF60E080E090E00E94EB0B60E081E063
S1131AC090E00E94EB0B60E082E090E00E94EB0B60
S1131AD064E683E090E00E94EB0B60E084E090E039
S1131AE00E94EB0B63E08EEF90E00E94EB0BC9C108
S1131AF00F2EFEEFAF2EF1E0BF2EF02D27E232E0E5
S1131B003E832D8382E792E09C838B83E3EFF2E0B4
S1131B10F887EF8326EB31E03A8329830F2EFEE921
S1131B208F2EF1E09F2EF02D0F2EF6E82F2EF1E0F0
S1131B303F2EF02D0F2EFEECEF2EF1E0FF2EF02DB8
S1131B4000E010E00F2EFDE1CF2ED12CF02D1A86EF
S1131B50198689859A8506960E94F90B682E712C40
S1131B60F5017182608289859A8505960E94F90B38
S1131B70762D6627682BF501619371935F01ED81E2
S1131B80FE8161937193FE83ED8383E00E94E502FD
S1131B90C6010E94F90B682F70E0EB81FC81619310
S1131BA07193FC83EB83EF81F88561937193F887DC
S1131BB0EF8385E00E94E50289859A858B960E94D1
S1131BC0F90B682E712CE981FA8171826082898512
S1131BD09A858A960E94F90B762C6624682AE981F4
S1131BE0FA8161927192FA83E98389859A858D5B82
S1131BF09F4F0E94F90B682E712CF4017182608250
S1131C0089859A858E5B9F4F0E94F90B762C6624FA
S1131C10682AF401619271924F0189859A85855AE7
S1131C209F4F0E94F90B682E712CF1017182608222
S1131C3089859A85865A9F4F0E94F90B762C6624D3
S1131C40682AF101619271921F01C8018F579F4F59
S1131C500E94F90B482E512C612C712CF701408203
S1131C60518262827382C80180589F4F0E94F90B8F
S1131C70762C652C542C4424482AF7014082518246
S1131C8062827382C80181589F4F0E94F90B762C9F
S1131C90652C542C4424482AF701408251826282E4
S1131CA07382C80182589F4F0E94F90B762C652CD1
S1131CB0542C4424482AF701419251926192719222
S1131CC07F0129853A852E5F3F4F3A8729873FEF69
S1131CD0C31AD30A0C5F1F4F89859A85489709F068
S1131CE038CF0F2EF6E7AF2EF1E0BF2EF02D0F2EDA
S1131CF0F6E6CF2EF1E0DF2EF02D0F2EF6E5EF2ED7
S1131D00F1E0FF2EF02D06E411E045011A8219825C
S1131D1089819A8181559F4F0E94F90B682E712CFD
S1131D20F501619271925F0189819A8182559F4F79
S1131D300E94F90B762C6624682AF4016192719250
S1131D404F0189819A8181549F4F0E94F90B682E1B
S1131D50712CF6017182608289819A8182549F4F2D
S1131D600E94F90B762C6624682AF601619271921E
S1131D706F0189819A8181539F4F0E94F90B682ECC
S1131D80712CF7017182608289819A8182539F4FFD
S1131D900E94F90B762C6624682AF70161927192ED
S1131DA07F0189819A8181529F4F0E94F90B682E8D
S1131DB0712CF8017182608289819A8182529F4FCD
S1131DC00E94F90B762C6624682AF80161927192BC
S1131DD08F0129813A812E5F3F4F3A832983203135
S1131DE0310509F095CF80E090E00E94F90B8093D3
S1131DF0E50281E090E00E94F90B90E090935D028F
S1131E0080935C02909326038093250382E090E004
S1131E100E94F90B90E090935B0280935A02909396
S1131E2024038093230384E090E00E94F90BE82FBD
S1131E30F0E0FA83E983F0934301E093420183E005
S1131E4090E00E94F90B29813A81322F2227282B16
S1131E503093420220934102309343012093420184
S1131E608EEF90E00E94F90B682F70E070934501AB
S1131E70609344017093400260933F0284E00E94A7
S1131E802F032A960FB6F894DEBF0FBECDBFDF91A5
S1131E90CF911F910F91FF90EF90DF90CF90BF9063
S1131EA0AF909F908F907F906F905F904F903F90F6
S1131EB02F900895D69AD59AD49AD39AD29AD19A31
S1131EC0D09ADE9ADD9ADC9ADB9ADA98D99AD89875
S1131ED08C9A8D9A9498959A08950E945A0F87E641
S1131EE090E00E94CD138FE690E00E94DB130E94E5
S1131EF075110E9495110E94841108950E946D0F1E
S1131F008FB780688FBF0E94000C2FEF87EA91E69D
S1131F10215080409040E1F700C000006091E2024F
S1131F207091E30280E491E00E94A7036091420172
S1131F307091430188E491E00E94A70360914401F9
S1131F40709145018AE491E00E94A70320915A020E
S1131F5030915B0280E093E0289FB001299F700DCF
S1131F60389F700D11247D5B8CE392E00E94A703DF
S1131F7080915C0290915D02865B9F4F60E0782FB8
S1131F8084E992E00E94A7030E94950380912903AB
S1131F90882321F00E945312109229038091BC04DB
S1131FA0882321F00E9491131092BC0480911602A0
S1131FB0882361F30E947206E9CF1F920F920FB635
S1131FC00F9211242F933F934F935F936F937F93BB
S1131FD08F939F93AF93BF93EF93FF938FB78068D3
S1131FE08FBF82EB82BF8091F1028F5F843618F439
S1131FF08093F1025BC01092F10280911802833049
S113200011F128F4813061F08230D1F04FC0863074
S1132010A1F1873009F448C0853009F047C020C0D9
S11320208091170291E0980F909317020E944F0835
S1132030809117028430D0F181E08093170236C07A
S11320400E94E60133C0E091E102F0E0EE0FFF1FD1
S1132050E250FE4F6081718183E00E94E50226C058
S1132060E091E102F0E0EE0FFF1FEE58FD4F6081BA
S1132070718185E00E94E50219C080914E0681308D
S113208069F4E091E102F0E0EE0FFF1FE657FD4F27
S11320906081718186E00E94E50208C080914D064E
S11320A090E00E947F0202C00E94C4038091E60275
S11320B0882309F470C08091EF029091F002019698
S11320C0883C910528F49093F0028093EF0263C05A
S11320D01092F0021092EF028091E702882341F1FE
S11320E0E091E102F0E0EE0FFF1FE255FD4F208189
S11320F03181C901880F991F880F991F880F991F73
S11321006AE070E00E94E813CB01809640915A0285
S113211050915B02849FB001859F700D949F700D58
S11321201124620F731F82E390E00E94A70333C05F
S1132130E091DF02EE0FFF0BE255FD4F208131816C
S1132140C901880F991F880F991F880F991F6AE08A
S113215070E00E94E813CB01809640915A0250919E
S11321605B02849FB001859F700D949F700D1124B4
S1132170620F731F8EE390E00E94A703E091DF02D9
S11321800E2E000CFF0BEE52FD4F608170E082E4D6
S113219090E00E94A7038091BA049091EE028917FF
S11321A029F08093EE021092ED0214C0882391F07E
S11321B09091ED029F5F9093ED02943058F08093DC
S11321C0BB0481E08093BC041092BA041092EE0226
S11321D01092ED02809127039091EC02891729F067
S11321E08093EC021092EB0214C0882391F090913A
S11321F0EB029F5F9093EB02943058F08093280396
S113220081E080932903109227031092EC0210922C
S1132210EB02FF91EF91BF91AF919F918F917F91CD
S11322206F915F914F913F912F910F900FBE0F903F
S11322301F9018951F920F920FB60F9211240F90B2
S11322400FBE0F901F9018951F920F920FB60F920A
S113225011242F933F934F935F936F937F938F93A7
S11322609F93AF93BF93EF93FF938FB780688FBF14
S113227082EB84BD8091DF02880F990BFC01E2554B
S1132280FD4F60817181FC01E250FE4F208131815C
S11322908091EA028F5F8093EA029091F20289179B
S11322A048F01092EA02621B730B6C597F4F81E075
S11322B00E94E007FF91EF91BF91AF919F918F91A1
S11322C07F916F915F914F913F912F910F900FBE2E
S11322D00F901F9018951F920F920FB60F92112412
S11322E00F900FBE0F901F90189583B7887F83BF00
S11322F082EB82BF87B78C7F87BF87B7816087BF38
S113230083B7876083BF08958EB588608EBD8EB510
S1132310887F8EBD89E08BBD84EC8ABD87B78061E0
S113232087BF8EB583608EBD089585B5887F85BDD2
S113233082EB84BD87B78F7387BF87B7806487BFFD
S113234085B5856085BD85B5887F85BD08951F9257
S11323500F920FB60F9211248F939F93EF93FF93D5
S1132360E091270381E08E0F809327039CB1F0E076
S1132370EE50FC4F9083883C20F080932803109209
S11323802703FF91EF919F918F910F900FBE0F90B4
S11323901F9018951F920F920FB60F9211248F93CE
S11323A09F93EF93FF93E091BA0481E08E0F8093A3
S11323B0BA0490919C00F0E0EB57FA4F9083883C6C
S11323C020F08093BB041092BA04FF91EF919F9187
S11323D08F910F900FBE0F901F9018955D9BFECFAD
S11323E08CB908950F931F93CF93DF93662371F0F5
S11323F0EC016150062F10E00F5F1F4F080F191FEB
S113240089910E94EE11C017D107D1F7DF91CF91C6
S11324101F910F910895EBE9F0E0908195FFFDCFB6
S113242080939C0008950F931F93CF93DF936623AB
S113243071F0EC016150062F10E00F5F1F4F080F81
S1132440191F89910E940B12C017D107D1F7DF9190
S1132450CF911F910F910895DC0170E065507109CF
S113246016161706ECF430E08FEF9FEFFD01E30F33
S1132470F11D2381822728E080FF07C09695879568
S113248041E0842740EA942702C09695879521501D
S113249099F73F5F432F50E0461757073CF30895E1
S11324A08FEF9FEF0895CF93DF938091F203853AE6
S11324B021F48091F3038A3519F0109229032CC179
S11324C060912803C62FD0E08091F40390E0059634
S11324D0C817D90719F0109229031EC182EF93E09F
S11324E00E942C12AE014E505C4FFA0131972081AC
S11324F030E0322F222731974081240F311D2817D5
S1132500390719F01092290307C18091F503833824
S113251009F002C1E2EFF3E0CE50DC4FDE01149784
S11325208C9190E0982F882723972881822B2481EF
S113253030E0322F22274581242B223541E0340715
S113254009F4C1C080F5283441E0340709F48EC091
S1132550A8F4223441E0340709F45FC028F420349D
S1132560314009F452C0D8C0243441E0340709F49E
S113257066C02634314009F46CC0CEC02C3441E02E
S1132580340709F47DC028F42A34314009F473C0B7
S1132590C3C02E3441E0340709F47FC020353140F4
S11325A009F48EC0B9C0223641E0340709F4A6C04C
S11325B0A8F4263541E0340709F48FC028F4243503
S11325C0314009F485C0A8C0283541E0340709F436
S11325D04AC02036314009F48CC09EC0263641E002
S11325E0340709F495C028F42436314009F48BC02B
S11325F093C0283641E0340709F474C02F3F3140BA
S113260009F08AC00E94170B87C096E090931802C5
S113261010924E0680934D067FC0E091E102F0E0F7
S1132620EE0FFF1FED50FD4F91838083865B9F4F1C
S113263060E0782F80E992E00E94A7036DC0E091EA
S1132640E102F0E0EE0FFF1FE55FFC4F9183808312
S113265063C0E091E102F0E0EE0FFF1FE95DFD4F82
S11326609183808359C00E94C40256C09093420251
S11326708093410251C09093400280933F024CC02A
S11326809093260380932503865B9F4F60E0782F09
S113269084E992E00E94A7033FC0909324038093AF
S11326A0230320E033E0829FB001839F700D929F4B
S11326B0700D11247D5B8CE392E00E94A7032CC073
S11326C00E94180529C0909326028093250224C0F5
S11326D090932402809323021FC09093220280933C
S11326E021021AC09093E9028093E8020E94830AAF
S11326F013C09093200280931F020EC090931E0279
S113270080931D0209C090931C0280931B0204C095
S113271090931A028093190280E090E0DF91CF91A8
S11327200895CF93DF9380918505853A21F48091B4
S113273086058A3519F01092BC042AC06091BB0446
S1132740C62FD0E08091870590E00596C817D90779
S113275019F01092BC041CC085E895E00E942C126C
S1132760CB57DA4FFE013197208130E0322F2227F8
S113277022974881240F311D2817390719F0109228
S1132780BC0406C080918805813011F40E946B0856
S113279080E090E0DF91CF910895119A1098909382
S11327A0900089B9E5E9F0E08081866080838AB190
S11327B088698AB908958B9A8A989093980080932F
S11327C0990086E080939D0088E980939A0008959B
S11327D097FB072E16F4009407D077FD09D00E94CA
S11327E0111407FC05D03EF4909581959F4F0895F0
S11327F0709561957F4F0895EE0FFF1F0590F4913A
S1132800E02D0994A29FB001B39FC001A39F700D56
S1132810811D1124911DB29F700D811D1124911DE4
S11328200895AA1BBB1B51E107C0AA1FBB1FA61713
S1132830B70710F0A61BB70B881F991F5A95A9F765
S111284080959095BC01CD010895F894FFCFCA
S113284E0101B8D0CEC2CFDFB6CFBFAA00000000C0
S113285E0000B8D0CEC2CFDFBDD3B7B400000000A5
S113286E0000B3ACCEC2B1A8BEAF000000000000A1
S113287E0000C9FDCEC2B5BDB4EFC9E8B6A8CEC23C
S113288EB6C864000300F401F401F401F401F40188
S113289EF401F401F401F401F401F401F401F4017E
S11328AEF401F401F401F401F401F401F401F4016E
S11328BEF401F401F401F401F401F401F401F4015E
S11328CEF401F401F4016400640064006400640023
S11328DE64006400640064006400640064006400C6
S11328EE64006400640064006400640064006400B6
S11328FE64006400640064006400640064006400A6
S113290E64006400640064006400640064000000F9
S113291E312300003223000033230000342300004F
S113292E352300003623000037230000382300002F
S113293E3923003031230031312300323123640036
S113294E6400640064006400640064006400640055
S113295E640064006400010101F401F401F401F463
S113296E0164006400640064006400640064006434
S113297E0064006400640064006400640064000386
S113298E00640002000400060008000A000C000E99
S10B299E0010001200140000F7
S9030000FC
