:100000000C9427010C9444010C9444010C94440179
:100010000C9444010C9444010C9444010C9444014C
:100020000C9444010C9444010C94A0100C944401D1
:100030000C9496100C9444010C9444010C944401CB
:100040000C94590F0C9444010C9470110C944401BD
:100050000C9444010C9444010C9444010C9444010C
:100060000C9444010C9444010C94E7100C9444014A
:100070000C9444010C9444010C9493110C9444018D
:100080000C9444010C9444010C944401870B900B94
:10009000920B950B990BA40BB00BBC0BC80BD40B9C
:1000A000E00BE30BE70BEA0BF20BFA0B020C0A0C6A
:1000B0000E0C120C160C190C1C0C200C240C270C0A
:1000C0002D0C300C360C3B0C400C430C4B0CA4128A
:1000D0007014AC127014BE127014C8127014D512C1
:1000E0007014DA127014DF127014EC127014FF1214
:1000F000701402137014071370140C137014D212BE
:1001000070147014701470147014701470147014CF
:100110007014111370141C137014271370143213FD
:1001200070143D13701448137014531370145E133D
:10013000701469137014741370147F1370148A137D
:10014000701495137014A0137014AB137014B613BD
:100150007014C1137014CC137014D7137014E213FD
:100160007014ED137014F8137014031470140E143B
:10017000701419147014241470142F1470143A1479
:10018000701445147014501470145B1470146614B9
:10019000701470147014701470147014701470143F
:1001A000701470147014701470147014701470142F
:1001B000701470147014701470147014701470141F
:1001C000701470147014701470147014701470140F
:1001D00070147014701470147014701470147014FF
:1001E00070147014701470147014701470147014EF
:1001F00070147014701470147014701470147014DF
:1002000070147014701470147014701470147014CE
:1002100070147014701470147014701470147014BE
:1002200070147014701470147014701470147014AE
:10023000701470147014701470147014701470149E
:10024000701470147014701470147014A1121124AE
:100250001FBECFEFD0E1DEBFCDBF12E0A0E0B1E026
:10026000E8E9FAE202C005900D92A031B107D9F792
:1002700028E0A0E1B2E001C01D92A83CB207E1F77E
:100280000E94FA0E0C944A150C940000CF93DF9351
:1002900045EC56E068EC77E0C5ECD7E084EF91E000
:1002A00023C09183808311969C938E939383828342
:1002B00013969C938E9312979583848315969C93A3
:1002C0008E9314979783868317969C938E93169795
:1002D0002F5F38961896283021F7405C5F4F605C9E
:1002E0007F4FC417D50721F0DB01FA0120E0D9CFF9
:1002F000DF91CF9108950F931F938091900290E02A
:100300009C01220F331FF901E052FE4F6081718181
:10031000F901E154FE4F2081318162177307D9F052
:10032000880F991FFC01E154FE4F7183608323E025
:100330002093D90105960E94530C8091900290E081
:10034000FC01EE0FFF1FE154FE4F61810396880F01
:10035000991F0E94530C8091900290E09C01220F03
:10036000331FF901E654FD4F40815181F901E75CEB
:10037000FD4F208131814217530769F0FC01EE0FD8
:10038000FF1FE75CFD4F5183408326E02093D90196
:1003900021E02093C6079C01220F331FF901EE557F
:1003A000FD4F60817181F901EF5DFD4F2081318149
:1003B0006217730769F0FC01EE0FFF1FEF5DFD4F41
:1003C0007183608325E02093D9014D960E94530CE0
:1003D0008091900290E040911D0250911E02609128
:1003E0001F0270912002FC01EE0FFF1FEE0FFF1F96
:1003F000E157FE4F008111812281338104171507D7
:100400002607370709F45AC0880F991F880F991FCC
:10041000FC01E157FE4F4083518362837383642F55
:1004200082589F4F0E94530C8091900290E09C0153
:10043000220F331F220F331FF901E157FE4F408176
:100440005181628173819927872F762F652FC9018A
:1004500081589F4F0E94530C80919002282F30E0CA
:10046000F901EE0FFF1FEE0FFF1FE157FE4F408116
:1004700051816281738188279927205E3F4FC9018E
:10048000880F991F880F991F0E94530C809190022A
:1004900090E09C01220F331F220F331FF901E15717
:1004A000FE4F4081518162817381672F77278827B2
:1004B0009927C9018F579F4F0E94530C81E0809369
:1004C000D701109295021F910F91089580918F028C
:1004D00090E09C01215031096091DE014091DF01E3
:1004E000220F331FF901E958FE4F60834183F90160
:1004F000E15AFE4F4091DC015091DD015183408370
:10050000F901E95BFE4F4091DA015091DB01518323
:10051000408322E02093D9014496880F991F0E94BE
:10052000530C80918F0290E0FC01EE0FFF1FEB58FF
:10053000FE4F6181880F991F89960E94530C80910C
:100540008F0290E0FC01EE0FFF1FE35AFE4F8096F2
:100550006081880F991F0E94530C80918F0290E058
:10056000FC01EE0FFF1FE35AFE4F6181880F991FB8
:100570008F5B9F4F0E94530C80918F0290E0FC0193
:10058000EE0FFF1FEB5BFE4F8C966081880F991F6B
:100590000E94530C80918F0290E0FC01EE0FFF1F30
:1005A000EB5BFE4F6181880F991F875A9F4F0E9416
:1005B000530C0895CF93DF9380918F0290E00197C1
:1005C0009C0112F42D5F3F4F359527953595279562
:1005D0002F5F2295207FE2EAF3E035EA30833AE5A7
:1005E000318338E0328332E033838370907899230B
:1005F00024F401978C6F9F6F01968F5F820F809319
:10060000A6038091DE019091DF01C2EAD3E09D83D1
:100610008E838091DC019091DD019F83888780919A
:10062000DA019091DB0199878A876DE0CE010E9403
:1006300023128B879C876DE0CE010E94DC1181E044
:100640008093D901DF91CF9108958091900290E03D
:100650009C01220F331FF901E154FE4F408151816B
:10066000F901E052FE4F208131812417350739F01E
:10067000FC01EE0FFF1FE052FE4F518340839C01AF
:10068000220F331FF901E75CFD4F40815181F901D1
:10069000E654FD4F208131812417350739F0FC01E4
:1006A000EE0FFF1FE654FD4F518340839C01220F44
:1006B000331FF901EF5DFD4F40815181F901EE5586
:1006C000FD4F208131812417350739F0880F991F9C
:1006D000FC01EE55FD4F5183408381E08093D701AB
:1006E00010929502089520910101322F3295307FAA
:1006F0003093A603213009F5E2EAF3E025EA2083EE
:100700002AE5218324E0228326E023831582868341
:100710008093910290939202E9E3F2E0AAEBB2E0B7
:1007200021E532E08083918332968C9311969C93DD
:1007300011971296E217F307A9F769E082EA93E0AE
:100740000E942312E2EAF3E08783908769E0CF01F9
:100750000E94DC11809101018F5F843018F4809336
:100760000101089581E0809301018093D9010895EA
:10077000EDEFF5E0878190E0A0E0B0E0BA2FA92F7F
:10078000982F88272085822BBA2FA92F982F88276A
:100790002185822BBA2FA92F982F88272285822B7B
:1007A00080931D0290931E02A0931F02B09320021B
:1007B0000895CF93DF93E82F8091D2029091D302D6
:1007C0000197C1F49B01220F331F660F771F660F3D
:1007D000771F660F771F260F371F20543140AFE871
:1007E000B3EE0E942715BC01729562956F70672762
:1007F0007F70672730919002932F969596959F5F13
:1008000080E1989FA001112433703F5F432BC2EA1F
:10081000D3E085EA88838AE5898384E08A83EB8351
:100820004C837D836E8369E0CE010E9423128F8307
:10083000988769E0CE010E94DC1181E08093D901A4
:10084000DF91CF910895CF93DF93482F8091D2020B
:100850009091D3020197C1F49B01220F331F660FC1
:10086000771F660F771F660F771F260F371F2054DD
:100870003140AFE8B3EE0E942715BC017295629536
:100880006F7067277F706727C2EAD3E085EA8883A5
:100890008AE5898384E08A834B837D836E8380919C
:1008A00000018295807F8C8369E0CE010E94231233
:1008B0008F83988769E0CE010E94DC11809100014E
:1008C0008F5F843018F48093000103C081E080932F
:1008D0000001DF91CF910895E0914201F0E031975E
:1008E0000024F695E7950794F695E7950794FE2F73
:1008F000E02DDF01A853B84FEB53F94F88E02D915D
:100900003C9111973183208312962D913C9113973E
:100910003383228314962D913C911597358324833C
:1009200016962D913C911797378326838150189600
:1009300038968111E4CF0895E7EDF2E095EA9083CF
:100940009AE5918392E492839DE193839FEF980FC0
:10095000948390E4899FA00111244B57594F90E054
:1009600010C0E92FF0E0E952FD4F15822C9112964C
:1009700026839E5F9313F5CF485F5F4F932F3034EC
:1009800021F038E0390FDA01ECCF67E487ED92E02F
:100990000E94231280931C0390931D0367E487ED4C
:1009A00092E00E9404120895CF93DF93C7EDD2E046
:1009B00095EA98839AE5998392E09A839CE19B83D8
:1009C00081508C8367E0CE010E9423128D839E8329
:1009D00067E0CE010E940412DF91CF910895CF937A
:1009E000DF93C5E3D5E095EA98839AE5998394E08F
:1009F0009A8390E89B8393E09C831D828E8369E0B9
:100A0000CE010E9423128F83988769E0CE010E9455
:100A1000BB11DF91CF91089580919402813021F430
:100A200083E00E94EF0403C081E00E94EF04609124
:100A3000940280E090E00E94530C0895CF93DF93DE
:100A4000C5E3D5E025EA28832AE5298325E02A8322
:100A500022E82B839C838D837E836F836AE0CE01A3
:100A60000E942312888799876AE0CE010E94BB11F9
:100A7000DF91CF910895AF92BF92CF92DF92EF9224
:100A8000FF920F931F93CF93DF93809110028330D7
:100A900008F066C06091FA017091FB017093440107
:100AA0006093430183E00E9423046091430183E04B
:100AB00090E00E94530C6091440184E090E00E9419
:100AC000530C00EE11E0CFEBD1E00F2EF8EFAF2E7C
:100AD000F1E0BF2EF02D0F2EF6E0EF2EF12CF02DD1
:100AE000609143018091440168838983F8016083A8
:100AF00081830E5F1F4FC70101970E94530C6981CC
:100B00002296C7010E94530CF2E0EF0EF11C0A1569
:100B10001B0531F78091D2029091D30220911902E6
:100B200030911A0282179307C1F090931A028093B2
:100B3000190220E033E0829FB001839F700D929FE5
:100B4000700D11247D5B8CE392E00E941E05609184
:100B5000190282E090E00E94530C81E08093D7015B
:100B6000809110028630C0F46091F8017091F90113
:100B700080914501909146016817790769F070935B
:100B800046016093450184E00E9423046091450181
:100B90008EEF90E00E94530C80911002893008F093
:100BA00048C06091D4027091D50280911B0290914F
:100BB0001C0268177907E9F170931C0260931B020D
:100BC00085E00E94230460911B0281E090E00E9476
:100BD000530CC1E2D2E002EA12E00F2EF9E3CF2E6D
:100BE000F2E0DF2EF02D0F2EFDE1EF2EF12CF02D97
:100BF00060911B0280911C02688389832296F80110
:100C0000608381830E5F1F4FC7010E94530CFFEF6B
:100C1000EF1AFF0ACC15DD0559F780911B02909160
:100C20001C02865B9F4F60E0782F84E992E00E946F
:100C30001E05809110028F5F893018F48093100296
:100C400005C01092100281E08093D901DF91CF910D
:100C50001F910F91FF90EF90DF90CF90BF90AF90DA
:100C6000089560914301709144018091FA0190913F
:100C7000FB018617970741F07093FB016093FA011F
:100C800088E491E00E941E05609145017091460143
:100C90008091F8019091F9018617970741F07093C0
:100CA000F9016093F8018AE491E00E941E058091A9
:100CB0001B0290911C022091D4023091D50228177A
:100CC000390761F09093D5028093D402865B9F4FE1
:100CD00060E0782F84E992E00E941E05809119025D
:100CE00090911A022091D2023091D302281739072D
:100CF00091F09093D3028093D20220E033E0829F60
:100D0000B001839F700D929F700D11247D5B8CE369
:100D100092E00E941E0581E08093D7010895EF9232
:100D2000FF920F931F93CF93DF93C82F80938F026F
:100D3000813031F461E070E080E591E00E941E05B1
:100D4000D0E02197CC0FDD1FCE0189589E4F7C014A
:100D5000FC016081718186E390E00E941E058E0196
:100D6000015A1E4FF8016081718188E390E00E9472
:100D70001E05C95BDE4F688179818AE390E00E949D
:100D80001E05F7016081718182E591E00E941E05D8
:100D9000F8016081718184E591E00E941E056881FF
:100DA000798186E591E00E941E05F701808191819D
:100DB0009093DF018093DE01F8018081918190930F
:100DC000DD018093DC01888199819093DB01809320
:100DD000DA01DF91CF911F910F91FF90EF9008956D
:100DE000EF92FF920F931F93CF93DF936091420195
:100DF000611104C081E08093420149C0653020F058
:100E000084E08093420143C070E082E790E00E945A
:100E10001E05E0914201F0E0E05FFD4F608170E06F
:100E200080E790E00E941E05C0E0D0E0E12C2BC0DE
:100E3000E0914201F0E03197EE0FFF1FEE0FFF1F30
:100E4000EE0FFF1FEC0FFD1FEE0FFF1FEE0FFF1F3A
:100E5000E00FF11FEE0FFF1FEB53F94F608171811F
:100E60008F2D90E08E599E4F0E941E05F394F394AF
:100E70000F5F1F4F04301105D9F688E0E80E219668
:100E800080E4E81621F0FE2C00E010E0D1CFDF91E5
:100E9000CF911F910F91FF90EF900895CF93DF9323
:100EA000C5E3D5E025EA28832AE5298327E02A83BC
:100EB00022E82B839C838D837E836F8358874987A9
:100EC0006CE0CE010E9423128A879B876CE0CE01E2
:100ED0000E94BB11DF91CF910895CF92DF92EF92E4
:100EE000FF920F931F93CF93DF93E12C6894FF241D
:100EF000F1F80CE010E0C0E0D0E00F2EFAE0CF2EC9
:100F0000D12CF02D8091930290E0BC01660F771FE9
:100F1000680F791F660F771F6C0F7D1F6F5F7F4F04
:100F2000CE01880F991F0E941E058091930290E0C8
:100F3000FC01EE0FFF1FE80FF91FEE0FFF1FEF5729
:100F4000FD4FEC0FFD1F608170E0C8010E941E057F
:100F50008091930290E0FC01EE0FFF1FE80FF91F54
:100F6000EE0FFF1FEC0FFD1FEE0FFF1FE35AFD4FAB
:100F700020813181C901880F991F880F991F880F1F
:100F8000991FB6010E94EB14CB0180964091190283
:100F900050911A02849FB001859F700D949F700D2F
:100FA0001124620F731FC8010C960E941E058091C8
:100FB000930290E0FC01EE0FFF1FE80FF91FEE0F08
:100FC000FF1FEC0FFD1FEE0FFF1FE154FE4F60816E
:100FD0007181C80148960E941E058091930290E09D
:100FE000FC01EE0FFF1FE80FF91FEE0FFF1FEC0FC4
:100FF000FD1FEE0FFF1FEF5DFD4F80819181865B2E
:101000009F4F60E0782FC8018C5D9D4F0E941E05A8
:101010008091930290E0FC01EE0FFF1FE80FF91F93
:10102000EE0FFF1FEC0FFD1FEE0FFF1FEE0FFF1F58
:10103000E157FE4F4081518162817381C7010E9457
:101040004E0721960E5F1F4F88E0E80EF11CC63058
:10105000D10509F057CFDF91CF911F910F91FF90EC
:10106000EF90DF90CF9008951092D70181E08093A8
:101070009502809396026091900270E06F5F7F4FBF
:1010800080E390E00E941E05E0919002F0E0EE0FF8
:10109000FF1FE35AFD4F20813181C901880F991F3D
:1010A000880F991F880F991F6AE070E00E94EB1467
:1010B000CB0180964091190250911A02849FB00191
:1010C000859F700D949F700D1124620F731F82E332
:1010D00090E00E941E05E0919002F0E0EE0FFF1FED
:1010E000E154FE4F6081718184E390E00E941E050F
:1010F000E0919002F0E0EE0FFF1FE154FE4F60819F
:10110000718186E491E00E941E05E0919002F0E07A
:10111000EE0FFF1FE75CFD4F6081718184E491E079
:101120000E941E05E0919002F0E0EE0FFF1FEF5DC0
:10113000FD4F80819181865B9F4F60E0782F80E931
:1011400092E00E941E05E0919002F0E0EE0FFF1F7A
:10115000EE0FFF1FE157FE4F408151816281738185
:1011600088E892E00E944E07E0919002F0E0EE0FD6
:10117000FF1FEE0FFF1FE157FE4F4081518162813B
:10118000738188E591E00E944E07E0919002F0E0C3
:10119000EE0FFF1FEE0FFF1FE157FE4F8081918181
:1011A000A281B38180931D0290931E02A0931F021F
:1011B000B09320020895CF93DF93C5E3D5E095EA7D
:1011C00098839AE5998394E09A8394E89B838C832F
:1011D0007D836E8369E0CE010E9423128F839887FE
:1011E00069E0CE010E94BB11DF91CF9108950F936A
:1011F0001F93CF93DF938A01E5E3F5E095EA9083AF
:101200009AE5918393E1928392E89383C62FD0E08D
:101210009E01255D3F4FA90142955295507F54276D
:10122000407F542754832295207F258320E1829F8D
:10123000C0011124DC01AE50BF4FEBE3F5E02BE41D
:1012400035E09D919193E217F307D9F768E185E3C3
:1012500095E00E942312E5E3F5E0868B978B68E129
:10126000CF010E94BB110930110528F40F5C1F4FFC
:10127000B801736204C0085C1F4FB8017362CE01ED
:10128000CC96880F991F0E941E05DF91CF911F9168
:101290000F910895CF93DF93C2EAD3E095EA988344
:1012A0009AE5998392E09A8391E09B838295807F6F
:1012B0008C8367E0CE010E9423128D839E8367E0BA
:1012C000CE010E94DC11DF91CF9108951F93CF933F
:1012D000DF93EAE6F4E0848182958F7090E00197D5
:1012E000880F991F880F991FDC01AF57BD4F2581CB
:1012F0002C93DC011196ED01CF57DD4F2681288319
:10130000BC016E5F7F4FEB01CF57DD4F27812883F4
:10131000AC014D5F5F4FEA01CF57DD4F2085288339
:10132000EC01CB58DD4F21852883ED01CB58DD4FF3
:1013300022852883EB01CB58DD4F23852883EA01E2
:10134000CB58DD4F24852883EC01CC0FDD1FC35A19
:10135000DD4F258530E0322F22271685212B39835A
:101360002883ED01CC0FDD1FC35ADD4F278530E008
:10137000322F22271089212B39832883EB01CC0FB0
:10138000DD1FC35ADD4F218930E0322F2227128919
:10139000212B39832883EA01CC0FDD1FC35ADD4F8F
:1013A000238930E0322F22271489212B3983288387
:1013B000EC01CF5ADD4F25892883AF5ABD4F86896E
:1013C0008C93DB01AF5ABD4F87898C93DA01AF5AFA
:1013D000BD4F808D8C93DF91CF911F910895CF9356
:1013E000DF93E5E3F5E095EA90839AE5918393E155
:1013F000928392E89383C82FD0E0CE018B969C0114
:1014000022953295307F3227207F32273483829590
:10141000807F8583EBE3F5E02BE435E01192E21762
:10142000F307E1F768E185E395E00E942312E5E325
:10143000F5E0868B978B68E1CF010E94BB11CE014E
:10144000CC9660E070E0880F991F0E941E05DF9126
:10145000CF910895CF92DF92EF92FF920F931F9357
:10146000CF93DF9390E00197EC01CC0FDD1FCC0F01
:10147000DD1FCC0FDD1FC81BD90B219604E410E043
:10148000BE01C8010E941E050E5F1F4F2196023546
:101490001105B1F70F2EFDE5EF2EF2E0FF2EF02D36
:1014A00001E512E0C0E06801C094D094F801819198
:1014B0008F01882339F0A6014E0F5F1F6C2F0E9409
:1014C000F708CF5FE016F10689F7C73030F48C2FAC
:1014D0000E94EF09CF5FC730D1F7DF91CF911F9105
:1014E0000F91FF90EF90DF90CF900895CF93DF930F
:1014F000C5E3D5E095EA98839AE5998393E09A83CA
:1015000090E89B839BEE9C838D8368E0CE010E94D4
:1015100023128E839F8368E0CE010E94BB11DF916E
:10152000CF910895BF92CF92DF92EF92FF920F93E7
:101530001F93CF93DF93CDB7DEB764970FB6F894C0
:10154000DEBF0FBECDBF84E1ECEFF1E0DE0111960E
:1015500001900D928A95E1F781E0809395021092B7
:10156000960280918D02843024F083E080938D0276
:1015700004C0882314F410928D0280918E028C3066
:101580001CF010928E0205C088231CF48BE080931F
:101590008E0280918D02880F8E5FB82EBB0CBB0C23
:1015A000B80E85B5887F85BD8AE50E94760ACE0192
:1015B00001967E0125E1E20EF11C6C0100E510E0D0
:1015C000081B190B80918D02082E000C990B0196B7
:1015D000F60120813181829FB001839F700D929F1F
:1015E000700D1124619371936F01C8018E0F9F1FBD
:1015F0000E941E05CE14DF0429F760918E02062E8C
:10160000000C770B6F5F7F4F8CE390E00E941E050C
:10161000E0918E02EE0FFF0BE35AFD4F20813181E6
:10162000C901880F991F880F991F880F991F6AE0B9
:1016300070E00E94EB14CB0180964091190250910A
:101640001A02849FB001859F700D949F700D112424
:10165000620F731F8EE390E00E941E05E0918E02E0
:10166000EE0FFF0BE154FE4F6081718180E490E04A
:101670000E941E05E0918E020E2E000CFF0BEF570C
:10168000FD4F608170E082E490E00E941E05E091D1
:101690008E02EE0FFF0BEF5DFD4F80819181865B27
:1016A0009F4F60E0782F80EA92E00E941E05E09153
:1016B0008E0224E0E202F0011124E157FE4F408146
:1016C00051816281738188E992E00E944E07B09255
:1016D000A10282EB84BD85B5856085BD64960FB699
:1016E000F894DEBF0FBECDBFDF91CF911F910F9158
:1016F000FF90EF90DF90CF90BF90089581329105D9
:1017000008F0D0C0FC01EA5BFF4F0C9421159091CA
:10171000940281E08927809394020E940C05089529
:101720009498089510929302089581E08093930213
:10173000089580919302982F990F890F880F8093B5
:1017400090020E943408089580919302982F990F77
:10175000890F880F8F5F809390020E94340808954C
:1017600080919302982F990F890F880F8E5F809335
:1017700090020E943408089580919302982F990F47
:10178000890F880F8D5F809390020E94340808951E
:1017900080919302982F990F890F880F8C5F809307
:1017A00090020E943408089580919302982F990F17
:1017B000890F880F8B5F809390020E9434080895F0
:1017C0000E947B01089587E08093D90108950E94CB
:1017D0006602089580918D02815080938D020E944F
:1017E000920A089580918D028F5F80938D020E94EE
:1017F000920A089580918E02815080938E020E94F9
:10180000920A089580918E028F5F80938E020E94CB
:10181000920A08958FE00E94EF09089581E00E94E6
:101820002A0A089582E00E942A0A08950E94250348
:1018300008950E943106089581E00E948F06089560
:1018400081E00E942A0A08950E94920A089585B5AF
:10185000887F85BD1092950208951092D701089552
:1018600081E0809342010E94F00608958091420138
:101870000E94D4040895809142010E949C0408951E
:101880000E946C040895809142018150809342012E
:101890000E94F0060895809142018F5F809342017B
:1018A0000E94F0060895E199FECF9FBB8EBB6DBBF1
:1018B0008FB78F778FBFE29AE19A8FB780688FBF1B
:1018C0000895E199FECF9FBB8EBBE09A8DB308953A
:1018D0002F923F924F925F926F927F928F929F9240
:1018E000AF92BF92CF92DF92EF92FF920F931F932E
:1018F000CF93DF93CDB7DEB72A970FB6F894DEBF4C
:101900000FBECDBF8CEF90E00E94610C893709F4C7
:10191000E7C069E78CEF90E00E94530C0F2EFFEBBD
:101920006F2EF1E07F2EF02D0F2EF1E24F2EF2E020
:101930005F2EF02D0F2EF7E7AF2EF1E0BF2EF02D2A
:101940000F2EFFE5CF2EF1E0DF2EF02D0F2EF7E466
:101950008F2EF1E09F2EF02D0F2EFFE8EF2EF1E0FD
:10196000FF2EF02D130100E010E02DE130E03A836E
:1019700029831C821B82F1016081F2E02F0E311C51
:101980008B819C8105960E94530CF3016181F2E0EA
:101990006F0E711C8B819C8106960E94530CF20184
:1019A0006081F2E04F0E511C89819A810E94530C94
:1019B000F50160818B819C818A960E94530CF50110
:1019C00061818B819C818B960E94530CF601608112
:1019D0008B819C818E5B9F4F0E94530CF60161812D
:1019E0008B819C818D5B9F4F0E94530CF401608121
:1019F0008B819C81865A9F4F0E94530CF401618118
:101A00008B819C81855A9F4F0E94530CF701608106
:101A1000C80182589F4F0E94530CF7018081918129
:101A2000A281B381692F7A2F8B2F9927C801815802
:101A30009F4F0E94530CF70180819181A281B38155
:101A4000BD0188279927C80180589F4F0E94530CD9
:101A5000F70181919191A191B1917F016B2F77272E
:101A600088279927C8018F579F4F0E94530C2B81BD
:101A70003C812E5F3F4F3C832B8389819A81019665
:101A80009A83898392E0A90EB11CE2E0CE0ED11CAC
:101A9000F2E08F0E911C0C5F1F4F2831310509F0C9
:101AA0006ACF60E080E090E00E94530C60E081E04B
:101AB00090E00E94530C60E082E090E00E94530CA2
:101AC00064E683E090E00E94530C60E084E090E0E4
:101AD0000E94530C63E08EEF90E00E94530C47C1CC
:101AE0000F2EFFEBAF2EF1E0BF2EF02D20EE31E0F8
:101AF0003E832D8381E292E09C838B83E2EAF2E0D5
:101B0000F887EF8327E731E03A8329830F2EFFE53B
:101B10008F2EF1E09F2EF02D0F2EF7E42F2EF1E007
:101B20003F2EF02D0F2EFFE8EF2EF1E0FF2EF02DCF
:101B300000E010E00F2EFDE1CF2ED12CF02D1A8603
:101B4000198689859A8506960E94610C682E712CEB
:101B5000F5017182608289859A8505960E94610CE3
:101B6000762D6627682BF501619371935F01ED81F6
:101B7000FE8161937193FE83ED8383E00E94D9031C
:101B8000C6010E94610C682F70E0EB81FC816193BB
:101B90007193FC83EB83EF81F88561937193F887F0
:101BA000EF8385E00E94D90389859A858B960E94F0
:101BB000610C682E712CE981FA81718260828985BD
:101BC0009A858A960E94610C762C6624682AE9819F
:101BD000FA8161927192FA83E98389859A858D5B96
:101BE0009F4F0E94610C682E712CF40171826082FB
:101BF00089859A858E5B9F4F0E94610C762C6624A6
:101C0000682AF401619271924F0189859A85855AFB
:101C10009F4F0E94610C682E712CF10171826082CD
:101C200089859A85865A9F4F0E94610C762C66247E
:101C3000682AF101619271921F01C8018F579F4F6D
:101C40000E94610C482E512C612C712CF7014082AE
:101C5000518262827382C80180589F4F0E94610C3A
:101C6000762C652C542C4424482AF701408251825A
:101C700062827382C80181589F4F0E94610C762C4A
:101C8000652C542C4424482AF701408251826282F8
:101C90007382C80182589F4F0E94610C762C652C7C
:101CA000542C4424482AF701419251926192719236
:101CB0007F0129853A852E5F3F4F3A8729873FEF7D
:101CC000C31AD30A0C5F1F4F89859A85489709F07C
:101CD00038CF80E090E00E94610C8093940281E014
:101CE00090E00E94610C90E090931C0280931B0294
:101CF0009093D5028093D40282E090E00E94610C20
:101D000090E090931A02809319029093D3028093EB
:101D1000D20284E090E00E94610CE82FF0E0FA83A8
:101D2000E983F0934401E093430183E090E00E9453
:101D3000610C29813A81322F2227282B3093FB0115
:101D40002093FA0130934401209343018EEF90E0F9
:101D50000E94610C682F70E070934601609345010A
:101D60007093F9016093F80184E00E9423042A969D
:101D70000FB6F894DEBF0FBECDBFDF91CF911F919C
:101D80000F91FF90EF90DF90CF90BF90AF909F901A
:101D90008F907F906F905F904F903F902F9008951D
:101DA000D69AD59AD49AD39AD29AD19AD09ADE9AC0
:101DB000DD9ADC9ADB9ADA98D99AD8988C9A8D9A1F
:101DC0009498959A08950E94D00E87E690E00E941C
:101DD000B1148FE690E00E94BF1480E895E20E9463
:101DE000CC140E943E110E945E110E944D110E946F
:101DF000460108950E94E30E8FB780688FBF0E944E
:101E0000680C2FEF87EA91E6215080409040E1F77F
:101E100000C00000609191027091920280E491E014
:101E20000E941E05609143017091440188E491E095
:101E30000E941E0560914501709146018AE491E07F
:101E40000E941E052091190230911A0280E093E051
:101E5000289FB001299F700D389F700D11247D5B64
:101E60008CE392E00E941E0580911B0290911C025F
:101E7000865B9F4F60E0782F84E992E00E941E0508
:101E80000E940C0580913405882321F00E944A129B
:101E9000109234058091A103882321F00E947514CB
:101EA0001092A1038091D701882361F30E946D07EE
:101EB000E9CF1F920F920FB60F9211242F933F93E9
:101EC0004F935F936F937F938F939F93AF93BF9342
:101ED000EF93FF938FB780688FBF82EB82BF8091B3
:101EE000A0028F5F843618F48093A0025BC010922A
:101EF000A0028091D901833011F128F4813061F082
:101F00008230D1F04FC08630A1F1873009F448C04B
:101F1000853009F047C020C08091D80191E0980F2A
:101F20009093D8010E944A098091D8018430D0F161
:101F300081E08093D80136C00E94DA0233C0E0917C
:101F40009002F0E0EE0FFF1FE154FE4F60817181BF
:101F500083E00E94D90326C0E0919002F0E0EE0FEA
:101F6000FF1FEF5DFD4F6081718185E00E94D90305
:101F700019C08091C607813069F4E0919002F0E0C9
:101F8000EE0FFF1FE75CFD4F6081718186E00E94CC
:101F9000D90308C08091C50790E00E94730302C076
:101FA0000E943B0580919502882309F470C08091BE
:101FB0009E0290919F020196883C910528F490938F
:101FC0009F0280939E0263C010929F0210929E0215
:101FD00080919602882341F1E0919002F0E0EE0FAB
:101FE000FF1FE35AFD4F20813181C901880F991FDE
:101FF000880F991F880F991F6AE070E00E94EB1408
:10200000CB0180964091190250911A02849FB00131
:10201000859F700D949F700D1124620F731F82E3D2
:1020200090E00E941E0533C0E0918E02EE0FFF0B80
:10203000E35AFD4F20813181C901880F991F880F14
:10204000991F880F991F6AE070E00E94EB14CB0182
:1020500080964091190250911A02849FB001859F89
:10206000700D949F700D1124620F731F8EE390E02A
:102070000E941E05E0918E020E2E000CFF0BEF5702
:10208000FD4F608170E082E490E00E941E05809127
:102090009F0390919D02891729F080939D021092D1
:1020A0009C0214C0882391F090919C029F5F9093B2
:1020B0009C02943058F08093A00381E08093A103A8
:1020C00010929F0310929D0210929C028091320503
:1020D00090919B02891729F080939B0210929A029B
:1020E00014C0882391F090919A029F5F90939A0276
:1020F000943058F08093330581E08093340510923A
:10210000320510929B0210929A02FF91EF91BF91BB
:10211000AF919F918F917F916F915F914F913F917F
:102120002F910F900FBE0F901F9018951F920F9236
:102130000FB60F9211240F900FBE0F901F9018959D
:102140001F920F920FB60F9211242F933F934F932C
:102150005F936F937F938F939F93AF93BF93EF930F
:10216000FF938FB780688FBF82EB84BD80918E0212
:10217000880F990BFC01E35AFD4F60817181FC01CE
:10218000E154FE4F20813181809199028F5F8093CD
:1021900099029091A102891748F010929902621B4E
:1021A000730B6C597F4F81E00E94DB08FF91EF9128
:1021B000BF91AF919F918F917F916F915F914F915F
:1021C0003F912F910F900FBE0F901F9018951F9267
:1021D0000F920FB60F9211242F933F934F938F932B
:1021E0009F93EF93FF93809198028F5F8093980263
:1021F0009091C707911136C08930F8F44091970249
:102200008091D602282F30E081E090E0042E02C0B9
:10221000880F991F0A94E2F78223932302C09595B1
:1022200087954A95E2F7019711F4AF9A01C0AF98EC
:10223000809197028F5F80939702809198028930F6
:1022400019F410929702AF9A809198028A3051F453
:102250001092980283E08093C707EAE8F0E080815B
:10226000887F8083FF91EF919F918F914F913F9154
:102270002F910F900FBE0F901F90189583B7887FF6
:1022800083BF82EB82BF87B78C7F87BF87B78160B0
:1022900087BF83B7876083BF08958EB588608EBD82
:1022A0008EB5887F8EBD89E08BBD84EC8ABD87B7F3
:1022B000806187BF8EB583608EBD089585B5887FA8
:1022C00085BD82EB84BD87B78F7387BF87B7806476
:1022D00087BF85B5856085BD85B5887F85BD089537
:1022E0001F920F920FB60F9211248F939F93EF932B
:1022F000FF93E091320581E08E0F809332059CB10F
:10230000F0E0E350FA4F9083883C20F0809333054F
:1023100010923205FF91EF919F918F910F900FBE18
:102320000F901F9018951F920F920FB60F921124C5
:102330008F939F93EF93FF93E0919F0381E08E0F24
:1023400080939F0390919C00F0E0E659FB4F9083AF
:10235000883C20F08093A00310929F03FF91EF919F
:102360009F918F910F900FBE0F901F9018955D9BBE
:10237000FECF8CB908950F931F93CF93DF936623FD
:1023800071F0EC016150062F10E00F5F1F4F080F36
:10239000191F89910E94B711C017D107D1F7DF919A
:1023A000CF911F910F910895EBE9F0E0908195FF97
:1023B000FDCF80939C0008950F931F93CF93DF93DD
:1023C000662371F0EC016150062F10E00F5F1F4F84
:1023D000080F191F89910E94D411C017D107D1F796
:1023E000DF91CF911F910F9108958093D6021092A3
:1023F000C707AF981092890010928800EAE8F0E0D1
:1024000080818160808308950F931F93CF93DF9322
:102410006623A1F0EC016150062F10E00F5F1F4F03
:10242000080F191F89910E94F5118FEB92E1019716
:10243000F1F700C00000C017D107A1F7DF91CF91DD
:102440001F910F910895DC0170E065507109161617
:102450001706ECF430E08FEF9FEFFD01E30FF11D65
:102460002381822728E080FF07C09695879541E069
:10247000842740EA942702C096958795215099F7C2
:102480003F5F432F50E0461757073CF308958FEF07
:102490009FEF0895CF93DF938091FD05853A21F456
:1024A0008091FE058A3519F01092340519C26091A9
:1024B0003305C62FD0E08091FF0590E00596C81740
:1024C000D90719F0109234050BC28DEF95E00E94E8
:1024D0002312AE0143505A4FFA013197208130E068
:1024E000322F222731974081240F311D28173907B9
:1024F00019F010923405F4C180910006833809F078
:10250000EFC1ADEFB5E0C350DA4FFE0134978081E3
:1025100090E0982F882723972881822B1496EC919E
:102520001497F0E0FE2FEE2715962C91E22BE05445
:10253000F140E03CF10508F0D3C1E959FF4F0C949C
:1025400021150E947E0BCCC196E09093D901109288
:10255000C6078093C507C4C1E0919002F0E0EE0F7A
:10256000FF1FEE55FD4F91838083865B9F4F60E098
:10257000782F80E992E00E941E05B2C1E09190029E
:10258000F0E0EE0FFF1FE654FD4F91838083A8C15A
:10259000E0919002F0E0EE0FFF1FE052FE4F9183BA
:1025A00080839EC10E94B8039BC19093FB018093DE
:1025B000FA0196C19093F9018093F80191C190932B
:1025C000D5028093D402865B9F4F60E0782F84E928
:1025D00092E00E941E0584C19093D3028093D202A0
:1025E00020E033E0829FB001839F700D929F700DB9
:1025F00011247D5B8CE392E00E941E0571C10E9454
:102600008F066EC19093DF018093DE0169C19093C4
:10261000DD018093DC0164C19093DB018093DA01DA
:102620005FC1E091420120E4E29FF0011124E857EC
:10263000F84F9183808354C1E091420120E4E29FEE
:10264000F0011124E857F84F9383828349C1E09148
:10265000420120E4E29FF0011124E857F84F9583EE
:1026600084833EC1E091420120E4E29FF001112405
:10267000E857F84F9783868333C1E091420120E405
:10268000E29FF0011124E857F84F9187808728C115
:10269000E091420120E4E29FF0011124E857F84F55
:1026A000938782871DC1E091420120E4E29FF001FF
:1026B0001124E857F84F9587848712C1E0914201B1
:1026C00020E4E29FF0011124E857F84F97878687AE
:1026D00007C1E091420120E4E29FF0011124E85794
:1026E000F84F918B808BFCC0E091420120E4E29F87
:1026F000F0011124E857F84F938B828BF1C0E091E1
:10270000420120E4E29FF0011124E857F84F958B35
:10271000848BE6C0E091420120E4E29FF0011124A5
:10272000E857F84F978B868BDBC0E091420120E49D
:10273000E29FF0011124E857F84F918F808FD0C0AD
:10274000E091420120E4E29FF0011124E857F84FA4
:10275000938F828FC5C0E091420120E4E29FF00197
:102760001124E857F84F958F848FBAC0E091420149
:1027700020E4E29FF0011124E857F84F978F868FED
:10278000AFC0E091420120E4E29FF0011124E8573C
:10279000F84F91A380A3A4C0E091420120E4E29FFE
:1027A000F0011124E857F84F93A382A399C0E09158
:1027B000420120E4E29FF0011124E857F84F95A36D
:1027C00084A38EC0E091420120E4E29FF001112435
:1027D000E857F84F97A386A383C0E091420120E415
:1027E000E29FF0011124E857F84F91A780A778C025
:1027F000E091420120E4E29FF0011124E857F84FF4
:1028000093A782A76DC0E091420120E4E29FF0010E
:102810001124E857F84F95A784A762C0E0914201C0
:1028200020E4E29FF0011124E857F84F97A786A70C
:1028300057C0E091420120E4E29FF0011124E857E3
:10284000F84F91AB80AB4CC0E091420120E4E29F95
:10285000F0011124E857F84F93AB82AB41C0E091EF
:10286000420120E4E29FF0011124E857F84F95ABB4
:1028700084AB36C0E091420120E4E29FF0011124D4
:10288000E857F84F97AB86AB2BC0E091420120E4AC
:10289000E29FF0011124E857F84F91AF80AF20C0BC
:1028A000E091420120E4E29FF0011124E857F84F43
:1028B00093AF82AF15C0E091420120E4E29FF001A6
:1028C0001124E857F84F95AF84AF0AC0E091420158
:1028D00020E4E29FF0011124E857F84F97AF86AF4C
:1028E00080E090E0DF91CF910895CF93DF938091C6
:1028F0006A04853A21F480916B048A3519F01092AC
:10290000A1032AC06091A003C62FD0E080916C047F
:1029100090E00596C817D90719F01092A1031CC0C2
:102920008AE694E00E942312C659DB4FFE013197DC
:10293000208130E0322F222722974881240F311D39
:102940002817390719F01092A10306C080916D0471
:10295000813011F40E94660980E090E0DF91CF9110
:102960000895119A10989093900089B9E5E9F0E0E4
:102970008081866080838AB188698AB908958B9A3C
:102980008A98909398008093990086E080939D00A8
:1029900088E980939A000895A79AA698AE9AAF9A6C
:1029A000EAE8F0E02081286020832081287F2083CE
:1029B0009C0140E050E060E074E284EF90E00E940F
:1029C000FF143093870020938600EDE7F0E08081CC
:1029D00080618083089597FB072E16F4009407D03A
:1029E00077FD09D00E94361507FC05D03EF490957E
:1029F00081959F4F0895709561957F4F0895A1E24D
:102A00001A2EAA1BBB1BFD010DC0AA1FBB1FEE1F68
:102A1000FF1FA217B307E407F50720F0A21BB30BB3
:102A2000E40BF50B661F771F881F991F1A9469F72F
:102A300060957095809590959B01AC01BD01CF018B
:102A40000895EE0FFF1F0590F491E02D0994A29FC9
:102A5000B001B39FC001A39F700D811D1124911D72
:102A6000B29F700D811D1124911D0895AA1BBB1BDF
:102A700051E107C0AA1FBB1FA617B70710F0A61B7E
:102A8000B70B881F991F5A95A9F780959095BC019F
:082A9000CD010895F894FFCF79
:102A98000101B8D0CEC2CFDFB6CFBFAA0000000078
:102AA8000000B8D0CEC2CFDFBDD3B7B4000000005D
:102AB8000000B3ACCEC2B1A8BEAF00000000000059
:102AC8000000C9FDCEC2B5BDB4EFC9E8B6A8CEC2F4
:102AD800B6C8016400030064006400640064006414
:102AE80000640064006400640064006400640064BE
:102AF80000640064006400640064006400640064AE
:102B0800006400640064006400640064006400649D
:102B180000640064006400640064006400640000F1
:102B28000031230000322300003323000034230047
:102B38000035230000362300003723000038230027
:102B4800003923003031230031312300323123642E
:102B5800006400640064006400640064006400644D
:102B68000064006400640001010164006400640002
:102B7800640064006400640064006400640064002D
:102B88006400640064006400030064000200040040
:102B9800060008000A000C000E00100012001400C5
:00000001FF
