S01C000054656D704374726C426F78436F7265426F6172642E7372656343
S11300000C9431010C944E010C944E010C944E014D
S11300100C944E010C944E010C944E010C944E0120
S11300200C944E010C944E010C943C120C944E0111
S11300300C9432120C944E010C944E010C944E010B
S11300400C9425110C944E010C942A130C944E011B
S11300500C944E010C944E010C944E010C944E01E0
S11300600C944E010C944E010C94A1120C944E016C
S11300700C944E010C944E010C944D130C944E01AF
S11300800C944E010C944E010C944E01DA0DE30DC8
S1130090E50DF20D000E0B0E170E230E2F0E3B0E68
S11300A0470E4A0E4D0E750E7D0E850E8D0E950E65
S11300B0980EA70EB60EB90E500EBC0EC20EC50E8B
S11300C0CB0ECE0ED40ED90EDE0EE10EE90EF10EDD
S11300D0F70EFD0E030F090F0F0F150F1B0F560E12
S11300E0650E851450168F145016A1145016AB14B7
S11300F05016B8145016BD145016C2145016CF140E
S1130100501650165016E2145016E7145016EC14FC
S11301105016B51450165016501650165016501648
S1130120501650165016F1145016FC14501607159C
S11301305016121550161D15501628155016331545
S113014050163E15501649155016541550165F1585
S113015050166A15501675155016801550168B15C5
S1130160501696155016A1155016AC155016B71505
S11301705016C2155016CD155016D8155016E31545
S11301805016EE155016F9155016041650160F1683
S113019050161A16501625165016301650163B16C1
S11301A050164616501688145016501650165016EF
S11301B0501650165016501650165016501650160B
S11301C050165016501650165016501650165016FB
S11301D050165016501650165016501650165016EB
S11301E050165016501650165016501650165016DB
S11301F050165016501650165016501650165016CB
S113020050165016501650165016501650165016BA
S113021050165016501650165016501650165016AA
S1130220501650165016501650165016501650169A
S1130230501650165016501650165016501650168A
S1130240501650165016501650165016501650167A
S1130250501650165016501650165016501650166A
S1130260821411241FBECFEFD0E1DEBFCDBF11E059
S1130270A0E0B1E0E6E5FEE202C005900D92A639E9
S1130280B107D9F72AE0A6E9B1E001C01D92AE3F5B
S1130290B207E1F70E94B4100C9429170C940000E3
S11302A08FE000008150E9F70895CF92DF92EF923A
S11302B0FF929B01AC01A8EEB3E00E94DA166B0139
S11302C07C0121E0C21AD108E108F1080E94500122
S11302D081E0C81AD108E108F108C1F7FF90EF9056
S11302E0DF90CF9008952F923F924F925F926F923A
S11302F07F928F929F92AF92BF92CF92DF92EF92B2
S1130300FF920F931F93CF93DF9300D000D0CDB70C
S1130310DEB741E257E06EEF79E084EF91E024C06C
S11303209183808311969C938E93938382831396F7
S11303309C938E9312979583848315969C938E93A6
S113034014979783868317969C938E9316972150C0
S1130350389618962111E4CF405C5F4F605C7F4F64
S113036028E04132520721F0DB01FA0128E0D8CF1E
S11303700F2EFDE98F2EF9E09F2EF02D0F2EFDECB0
S1130380AF2EF9E0BF2EF02D0F2EF1E5CF2EF8E0C1
S1130390DF2EF02D0F2EF1E8EF2EF8E0FF2EF02DDA
S11303A001E218E0EDE3F9E0FA83E9833F01E1E0DB
S11303B0F0E0FC83EB83512C50E060E040E024E665
S11303C030E00F2EFAE02F2E312CF02D412CD401E9
S11303D02D933D934D01F501219331935F01D60196
S11303E02D933D936D01F701219331937F01D80142
S11303F02D933D938D01493068F48B819C81B1012B
S11304000E948F160F2EF0E35F2EF02D580E542D00
S1130410642D29C087EF840F8A3570F48B819C8109
S1130420B1010E948F160F2EF0E35F2EF02D560EB1
S113043050E3580F642D17C08DE9840F843698F467
S11304408B819C81B9010E948F160F2EF0E35F2EE1
S1130450F02D560E8B819C81B1010E948F1650E3C2
S1130460560F60E3680FF30181919191A191B191CD
S11304703F018362BA2FA92F982F88278529BA2F85
S1130480A92F982F8827852BBA2FA92F982F882733
S1130490862BE981FA8181939193A193B193FA8395
S11304A0E9834F5FEB81FC813196FC83EB83483118
S11304B009F08DCF0F900F900F900F90DF91CF9197
S11304C01F910F91FF90EF90DF90CF90BF90AF906E
S11304D09F908F907F906F905F904F903F902F9060
S11304E00895CF93DF938091B40290E001979C012B
S11304F012F42D5F3F4F35952795359527952F5F3E
S11305002295207FEEEFF3E035EA30833AE531833C
S113051038E0328332E0338383709078992324F473
S113052001978C6F9F6F01968F5F820F80930204F7
S113053080917C0190917D01CEEFD3E09D838E83E9
S113054080917A0190917B019F83888780917801C3
S11305509091790199878A876DE0CE010E940414F5
S11305608B879C8782E0809377018091C9028130D8
S1130570F1F71092C9021092CA026DE08EEF93E077
S11305800E94BE1381E080937701DF91CF9108959B
S11305908091B50290E09C01220F331FF901E356CC
S11305A0F64F40815181F901E353F64F20813181A7
S11305B02417350739F0FC01EE0FFF1FE353F64F04
S11305C0518340839C01220F331FF901ED5FFD4FDE
S11305D040815181F901E250FD4F2081318124177E
S11305E0350739F0FC01EE0FFF1FE250FD4F518338
S11305F040839C01220F331FF901ED52FE4F4081CD
S11306005181F901E253FD4F2081318124173507CF
S113061039F0880F991FFC01E253FD4F5183408349
S113062081E0809376011092BA0208951F93CF93CC
S1130630DF9310927701EEEFF3E025EA20832AE5B9
S1130640218324E0228326E02383158286838093FA
S1130650B6029093B702E3E0F2E0AEEFB2E023E338
S113066032E08083918332968C9311969C931197F8
S11306701296E217F307A9F711E0CEEFD3E0812F2A
S11306808295807F8C8369E0CE010E9404148F835D
S113069098878091C9028130F1F71092C9021092B3
S11306A0CA0269E0CE010E94BE131F5F173039F7FA
S11306B081E080937701DF91CF911F910895E9E55F
S11306C0F6E0878190E0A0E0B0E0BA2FA92F982F40
S11306D088272085822BBA2FA92F982F8827218538
S11306E0822BBA2FA92F982F88272285822B8093BB
S11306F0CF019093D001A093D101B093D20108957A
S1130700CF93DF93582F1092770180912E0390910D
S11307102F030197C1F49B01220F331F660F771F2C
S1130720660F771F660F771F260F371F205431403F
S1130730AFE8B3EE0E94CB16BC01729562956F7060
S113074067277F7067274091B502942F96959695F9
S11307509F5F80E1989F9001112443704F5F242B89
S1130760CEEFD3E085EA88838AE5898384E08A83AF
S11307705B832C837D836E8369E0CE010E94041425
S11307808F8398878091C9028130F1F71092C90252
S11307901092CA0269E08EEF93E00E94BE1381E0DA
S11307A080937701DF91CF9108951F93CF93DF93C7
S11307B0482F109277018330F1F480912E039091A9
S11307C02F030197C1F49B01220F331F660F771F7C
S11307D0660F771F660F771F260F371F205431408F
S11307E0AFE8B3EE0E94CB16BC01729562956F70B0
S11307F067277F706727EEEFF3E085EA80838AE559
S1130800818384E0828343837583668311E0EF01EF
S1130810812F8295807F8C8369E0CE010E9404142D
S11308208F8398878091C9028130F1F71092C902B1
S11308301092CA0269E0CE010E94BE131F5F1730F6
S113084039F781E080937701DF91CF911F9108956B
S11308500F931F93CF93DF93C0E0D0E02BC0809120
S1130860710190E00197880F991F880F991F880FD5
S1130870991F8C0F9D1F880F991F880F991F800F38
S1130880911F880F991FFC01E250F64F608171811E
S1130890FC01EF5DF84F7183608381579F4F0E9485
S11308A014170F5F1F4F04301105C9F62196C83085
S11308B0D10519F000E010E0D2CFDF91CF911F9164
S11308C00F910895E3E3F3E095EA90839AE5918329
S11308D09AE0928363839FEF980F9483E62FF0E06E
S11308E098E0899FE00DF11D1124EE0FFF1FEE0F1C
S11308F0FF1FEE0FFF1FE752FA4FA3E3B3E02BE312
S113090033E080819181329615969C9315971696C3
S11309108C9316971296A217B30799F76FE083E3A7
S113092093E00E940414E3E3F3E0858796876FE085
S1130930CF010E94E6130895CF93DF93C1E9D5E078
S113094095EA98839AE5998394E09A8390E89B8347
S113095093E09C831D828E8369E0CE010E9404147F
S11309608F83988769E0CE010E949D13DF91CF9118
S113097008958091B902813021F483E00E949C049F
S113098003C081E00E949C046091B90281E090E080
S11309900E9407170895CF93DF93C1E9D5E025EAB4
S11309A028832AE5298325E02A8322E82B839C8354
S11309B08D837E836F836AE0CE010E94041488874E
S11309C099876AE0CE010E949D13DF91CF9108952B
S11309D08091B40290E0019760917C0170917D0157
S11309E0880F991FFC01EF5AF74F71836083FC0154
S11309F0EF57F74F20917A0130917B0131832083A7
S1130A00FC01EF5DF74F209178013091790131833A
S1130A10208386E390E00E94CB04E091B402F0E0EE
S1130A20EE0FFF1FE158F74F6081718188E390E07A
S1130A300E94CB04E091B402F0E0EE0FFF1FE15EF0
S1130A40F74F608171818AE390E00E94CB040E9499
S1130A507102089560917201709173018091800117
S1130A60909181018617970741F0709381016093FB
S1130A70800188E491E00E94CB046091740170913C
S1130A80750180917E0190917F018617970741F04F
S1130A9070937F0160937E018AE491E00E94CB040D
S1130AA080919D0190919E012091300330913103FA
S1130AB02817390761F09093310380933003865BE4
S1130AC09F4F60E0782F84E992E00E94CB048091EC
S1130AD09B0190919C0120912E0330912F032817A4
S1130AE0390791F090932F0380932E0320E033E095
S1130AF0829FB001839F700D929F700D11247D5BC6
S1130B008CE392E00E94CB0481E080937601089507
S1130B10EF92FF920F931F93CF93DF938093B402CE
S1130B20C82FD0E0BE0180E591E00E94CB0421975C
S1130B30CC0FDD1FCE018F5A974F7C01FC016081E1
S1130B40718186E390E00E94CB048E010F57174F0A
S1130B50F8016081718188E390E00E94CB04CF5D4D
S1130B60D74F688179818AE390E00E94CB04F70132
S1130B706081718182E591E00E94CB04F80160817B
S1130B80718184E591E00E94CB046881798186E5D6
S1130B9091E00E94CB04F7018081918190937D01C3
S1130BA080937C01F8018081918190937B018093F3
S1130BB07A01888199819093790180937801DF91FA
S1130BC0CF911F910F91FF90EF900895EF92FF92B4
S1130BD00F931F93CF93DF9360917101611104C050
S1130BE081E08093710149C0653020F084E08093F6
S1130BF0710143C070E082E790E00E94CB04E09171
S1130C007101F0E0EA56FE4F608170E080E790E009
S1130C100E94CB04C0E0D0E0E12C2BC0E091710134
S1130C20F0E03197EE0FFF1FEE0FFF1FEE0FFF1FD7
S1130C30EC0FFD1FEE0FFF1FEE0FFF1FE00FF11F64
S1130C40EE0FFF1FEF5DF84F608171818F2D90E0F3
S1130C508E599E4F0E94CB04F394F3940F5F1F4F61
S1130C6004301105D9F688E0E80E219680E4E816F0
S1130C7021F0FE2C00E010E0D1CFDF91CF911F9145
S1130C800F91FF90EF900895DF92EF92FF920F93F0
S1130C901F93CF93DF93E3E3F3E095EA90839AE520
S1130CA0918392E492839DE193839FEF980F9483C1
S1130CB040E4849F90011124A9014F51594F7A01B6
S1130CC090E0682F70E0D82E572F6150710917C03B
S1130CD0E92FF0E0CD2DD52F8B012C9111963C916D
S1130CE011971296ED5CFC4F358326839E5F941317
S1130CF0EFCF98E0E90EF11C942F403421F048E046
S1130D00490FD701E5CF67E483E393E00E9404141D
S1130D10809378039093790367E483E393E00E94DC
S1130D20E613F801E956FE4F81E0808361E070E04C
S1130D3080E790E00E94CB042BB347E050E04C1BCB
S1130D405D0B81E090E002C0880F991F4A95E2F79D
S1130D50809582238BBBDF91CF911F910F91FF90E0
S1130D60EF90DF9008951F93CF93DF93182FC3E381
S1130D70D3E085EA88838AE5898382E08A838CE1EB
S1130D808B838FEF810F8C8367E0CE010E94041464
S1130D908D839E8367E0CE010E94E613C12FD0E0CD
S1130DA0FE01EA56FE4F108260E070E080E790E0BA
S1130DB00E94CB044BB327E030E02C1B3D0B81E0B9
S1130DC090E002C0880F991F2A95E2F7842B8BBB11
S1130DD0DF91CF911F910895CF93DF93C1E9D5E0BF
S1130DE025EA28832AE5298327E02A8322E82B831E
S1130DF09C838D837E836F83588749876CE0CE0103
S1130E000E9404148A879B876CE0CE010E949D1384
S1130E10DF91CF910895AF92BF92CF92DF92EF927C
S1130E20FF920F931F93CF93DF936894EE24E6F819
S1130E30FF24F1F80F2EF0E7CF2EF2E0DF2EF02D95
S1130E400CE010E0C0E0D0E00F2EFAE0AF2EB12CA1
S1130E50F02D8091B802082E000C990BBC01660F8E
S1130E60771F680F791F660F771F6C0F7D1F6F5FE9
S1130E707F4FCE01880F991F0E94CB048091B80246
S1130E80082E000C990BFC01EE0FFF1FE80FF91F51
S1130E90EE0FFF1FED56FD4FEC0FFD1F608170E05C
S1130EA0C8010E94CB048091B802082E000C990B53
S1130EB0FC01EE0FFF1FE80FF91FEE0FFF1FEC0FF1
S1130EC0FD1FEE0FFF1FED5CFD4F20813181C90135
S1130ED0880F991F880F991F880F991FB5010E94C9
S1130EE08F16CB01809640919B0150919C01849F69
S1130EF0B001859F700D949F700D1124620F731FB4
S1130F00C8010C960E94CB048091B802082E000CF4
S1130F10990BFC01EE0FFF1FE80FF91FEE0FFF1FE7
S1130F20EC0FFD1FEE0FFF1FE356F64F608171813A
S1130F30C80148960E94CB048091B802082E000C88
S1130F40990BFC01EE0FFF1FE80FF91FEE0FFF1FB7
S1130F50EC0FFD1FEE0FFF1FED52FE4F80819181BC
S1130F60865B9F4F60E0782FC8018C5D9D4F0E9487
S1130F70CB048091B802082E000C990BFC01EE0FF3
S1130F80FF1FE80FF91FEE0FFF1FEC0FFD1FEE0F01
S1130F90FF1FEE0FFF1FE35CF64F4081518162811A
S1130FA07381C701805491090E94EC068091B802B4
S1130FB0082E000C990BFC01EE0FFF1FE80FF91F20
S1130FC0EE0FFF1FE558FD4FEC0FFD1F60816330EE
S1130FD0D8F063E070E0C6010E94CB048091B802AF
S1130FE0082E000C990BFC01EE0FFF1FE80FF91FF0
S1130FF0EE0FFF1FE558FD4FEC0FFD1F608170E001
S1131000C7010E94CB0409C070E0C6010E94CB0452
S113101062E070E0C7010E94CB0421960E5F1F4F6F
S113102084E0C80ED11C88E0E80EF11CC630D1055E
S113103009F00FCFDF91CF911F910F91FF90EF90A7
S1131040DF90CF90BF90AF9008950F931F9380913E
S1131050B50290E09C01220F331FF901E353F64FD0
S113106060817181F901E356F64F20813181621765
S1131070730751F0880F991FFC01E356F64F7183F3
S1131080608383E00E9480038091B50290E09C011C
S1131090220F331FF901E250FD4F60817181F90184
S11310A0ED5FFD4F208131816217730751F0880F86
S11310B0991FFC01ED5FFD4F7183608386E00E9400
S11310C080038091B50290E0FC01E156FE4F6081FF
S11310D0FC01E954FE4F2081621741F0FC01E95400
S11310E0FE4F608370E088E00E9480038091B50227
S11310F090E04091CF015091D0016091D101709165
S1131100D201FC01EE0FFF1FEE0FFF1FE35CF64F51
S113111000811181228133810417150726073707BF
S113112059F0880F991F880F991FFC01E35CF64F53
S113113040835183628373830E940B0781E0809311
S113114076011092BA021F910F9108958091800147
S1131150909181019093730180937201EDE9F9E01C
S1131160ADECB9E02DEC39E0819391938D939D938F
S1131170E217F307C9F780912E0390912F03909300
S11311809C0180939B0180917E0190917F019093BB
S11311907501809374018091300390913103909391
S11311A09E0180939D01E3EDF1E0AEECB2E023E01B
S11311B032E0819391938D939D93E217F307C9F7DE
S11311C00E940B07609172017091730183E00E9489
S11311D0D503609174017091750184E00E94D50378
S11311E060919D0170919E0185E00E94D50381E08C
S11311F08093760108951092760181E08093BA027B
S11312008093BB026091B50270E06F5F7F4F80E313
S113121090E00E94CB04E091B502F0E0EE0FFF1FD6
S1131220ED5CFD4F20813181C901880F991F880F22
S1131230991F880F991F6AE070E00E948F16CB01F6
S1131240809640919B0150919C01849FB001859FA1
S1131250700D949F700D1124620F731F82E390E050
S11312600E94CB04E091B502F0E0EE0FFF1FE356BD
S1131270F64F6081718184E390E00E94CB04E09199
S1131280B502F0E0EE0FFF1FE356F64F6081718167
S113129086E491E00E94CB04E091B502F0E0EE0F09
S11312A0FF1FED5FFD4F6081718184E491E00E9436
S11312B0CB04E091B502F0E0EE0FFF1FED52FE4FBC
S11312C080819181865B9F4F60E0782F80E992E076
S11312D00E94CB04E091B502F0E0EE0FFF1FEE0F89
S11312E0FF1FE35CF64F408151816281738188E87E
S11312F092E00E94EC06E091B502F0E0EE0FFF1FD1
S1131300EE0FFF1FE35CF64F4081518162817381D0
S113131088E591E00E94EC06E091B502F0E0EE0F62
S1131320FF1FEE0FFF1FE35CF64F80819181A281C6
S1131330B3818093CF019093D001A093D101B09356
S1131340D2010895CF93DF93C1E9D5E095EA98835C
S11313509AE5998394E09A8394E89B838C837D83B4
S11313606E8369E0CE010E9404148F83988769E03C
S1131370CE010E949D13DF91CF9108950F931F9387
S1131380CF93DF938A01E1E9F5E095EA90839AE54A
S1131390918393E1928392E89383C62FD0E09E01D8
S11313A0255D3F4FA90142955295507F5427407FB8
S11313B0542754832295207F258320E1829FC001F6
S11313C01124DC01AF5FBE4FE7E9F5E027EA35E021
S11313D09D919193E217F307D9F768E181E995E0CC
S11313E00E940414E1E9F5E0868B978B68E1CF0154
S11313F00E949D130930110528F40F5C1F4FB8019A
S1131400736204C0085C1F4FB8017362CE01CC96AE
S1131410880F991F0E94CB04DF91CF911F910F91E8
S113142008953F924F925F926F927F928F929F9214
S1131430AF92BF92CF92DF92EF92FF920F931F93DE
S1131440CF93DF931092CC021092CB02982F9295F7
S1131450907FFF24F394F90E20E1829F80011124F0
S11314600F5F1F4F0F2EF5E09F2EF02D990E412C8C
S1131470CEEFD3E00F2EF5EA5F2EF02D0F2EFAE516
S11314806F2EF02D6894772471F80F2EF7E0EF2E6D
S1131490F02D8E2C0F2EF6ECAF2EF4E0BF2EF02D97
S11314A033243394588269827A828B82FC826E2D33
S11314B0CE010E9404148D839E836E2DCE010E9462
S11314C0BE1368010DC0992379F00E947113109224
S11314D0FD03F501848190E08C159D0509F4432CEE
S11314E08091CC029091FD03813069F71092CC0277
S11314F01092CB02F3940F5F1F4FF910D3CF842DBA
S1131500DF91CF911F910F91FF90EF90DF90CF90DB
S1131510BF90AF909F908F907F906F905F904F900F
S11315203F900895EF92FF920F931F93CF93DF9311
S11315300F2EFBEAEF2EF2E0FF2EF02D0BE712E068
S1131540C0E0D3E0CF5F8C2F0E94110AF701819392
S11315507F01811105C0F801D083D183D283D38365
S11315600C5F1F4FC63071F7DF91CF911F910F9120
S1131570FF90EF900895CF93DF93482F42954F70DB
S1131580440F440F8F70840F8550482F50E0EA01B8
S1131590CC0FDD1FCC0FDD1FC35CD64FE6ECF4E0AF
S11315A0858190E0A0E0B0E0BA2FA92F982F88277A
S11315B02681822BBA2FA92F982F88272781822B47
S11315C0BA2FA92F982F88272085822B8883998367
S11315D0AA83BB83818590E0982F88272285822B5C
S11315E09A01220F331FD901A356B64F8D939C93B2
S11315F0D901A353B64F8D939C93848590E0909327
S11316009E0180939D019093310380933003E3ED19
S1131610F1E023E032E081939193E217F307D9F7E5
S1131620E6ECF4E08685DA01A954BE4F8C93DA0126
S1131630A156BE4F8C9380898330A8F4282F217043
S113164090E0FA01EE0FFF1FDF01AD5FBD4F2C9359
S113165011969C93E250FD4F20839183FA01E55843
S1131660FD4F808311C0FA01E558FD4F8083CA0104
S1131670880F991FFC01ED5FFD4F11821082FC0160
S1131680E250FD4F11821082440F551FDA01AF5A08
S1131690B74FE6ECF4E0818990E0982F88272289FF
S11316A0822B8D939C93DA01AF57B74F838990E0D7
S11316B0982F88272489822B8D939C93DA01AF5D20
S11316C0B74F858990E0982F88272689822B8D93A0
S11316D09C93DF91CF910895CF93DF93CEEFD3E026
S11316E095EA98839AE5998392E09A8391E09B83A3
S11316F08295807F8C8367E0CE010E9404148D83E1
S11317009E8367E0CE010E94BE13DF91CF910895BE
S11317101F93CF93DF93E6ECF4E0848182958F707E
S113172090E00197880F991F880F991FDC01AD562F
S1131730BD4F25812C93DC011196ED01CD56DD4F73
S113174026812883BC016E5F7F4FEB01CD56DD4FB0
S113175027812883AC014D5F5F4FEA01CD56DD4FF1
S113176020852883EC01CC0FDD1FCD5CDD4F258562
S113177030E0322F22271685212B39832883ED016F
S1131780CC0FDD1FCD5CDD4F278530E0322F2227C3
S11317901089212B39832883EB01CC0FDD1FCD5C0D
S11317A0DD4F218930E0322F22271289212B398302
S11317B02883EA01CC0FDD1FCD5CDD4F238930E0A7
S11317C0322F22271489212B39832883EC01C55811
S11317D0DD4F25892883A558BD4F86898C93DB016D
S11317E0A558BD4F87898C93DA01A558BD4F808DCC
S11317F08C930E940B07DF91CF911F910895CF9393
S1131800DF93E1E9F5E095EA90839AE5918393E12A
S1131810928392E89383C82FD0E0CE018B969C01EB
S113182022953295307F3227207F32273483829568
S1131830807F8583E7E9F5E027EA35E01192E21736
S1131840F307E1F768E181E995E00E940414E1E916
S1131850F5E0868B978B68E1CF010E949D13CE0142
S1131860CC9660E070E0880F991F0E94CB04DF9152
S1131870CF910895BF92CF92DF92EF92FF920F9390
S11318801F93CF93DF9390E0019729EF829FB02CB1
S113189011248C01000F111F000F111F000F111FC5
S11318A0081B190B0F2EF4E4EF2EF12CF02DD0E0D1
S11318B0C091960168010F5F1F4FB801C7010E94D4
S11318C0CB048091960190E0C816D9067CF4EC2FE5
S11318D0EB0DED1BF0E0EE0FFF1FE155F74F4181DB
S11318E050E06D2F80810E94BE0903C08D2F0E949D
S11318F0FF0BDF5F82E0E80EF11CD730C9F6DF9101
S1131900CF911F910F91FF90EF90DF90CF90BF90F8
S11319100895CF9310929601C0E08C2F0E94FF0B84
S1131920CF5FC730D1F781E00E943A0C60919601F5
S113193082E090E00E940717CF910895CF93DF9340
S1131940C1E9D5E095EA98839AE5998393E09A836F
S113195090E89B839BEE9C838D8368E0CE010E947C
S113196004148E839F8368E0CE010E949D13DF914F
S1131970CF910895BF92CF92DF92EF92FF920F938F
S11319801F93CF93DF93CDB7DEB764970FB6F89468
S1131990DEBF0FBECDBF84E1E2E8F1E0DE011196C7
S11319A001900D928A95E1F781E08093BA0210923A
S11319B0BB028091B202843024F083E08093B202AF
S11319C004C0882314F41092B2028091B3028831C7
S11319D01CF01092B30205C088231CF487E18093A5
S11319E0B3028091B202880F8E5FB82EBB0CBB0C81
S11319F0B80E85B5887F85BD8AE50E949E0CCE0110
S1131A0001967E0125E1E20EF11C6C0100E510E077
S1131A10081B190B8091B202082E000C990B019639
S1131A20F60120813181829FB001839F700D929FC6
S1131A30700D1124619371936F01C8018E0F9F1F64
S1131A400E94CB04CE14DF0429F76091B302062E62
S1131A50000C770B6F5F7F4F8CE390E00E94CB0408
S1131A60E091B302EE0FFF0BED5CFD4F208131815D
S1131A70C901880F991F880F991F880F991F6AE061
S1131A8070E00E948F16CB01809640919B0150918B
S1131A909C01849FB001859F700D949F700D11244B
S1131AA0620F731F8EE390E00E94CB04E091B302B7
S1131AB0EE0FFF0BE356F64F6081718180E490E0F6
S1131AC00E94CB04E091B3020E2E000CFF0BED56E6
S1131AD0FD4F608170E082E490E00E94CB04E091CD
S1131AE0B302EE0FFF0BED52FE4F80819181865BB6
S1131AF09F4F60E0782F80EA92E00E94CB04E0914F
S1131B00B30224E0E202F0011124E35CF64F4081C9
S1131B1051816281738188E992E00E94EC06B0925F
S1131B20CD0282EB84BD85B5856085BD64960FB614
S1131B30F894DEBF0FBECDBFDF91CF911F910F91FF
S1131B40FF90EF90DF90CF90BF900895FC019091AB
S1131B509601992331F185E2989F212D1124892F33
S1131B60821B8695820F86958695282F220F220F39
S1131B70220F281B92130AC085E2989F812D1124FD
S1131B80981B9695980F969596950CC085E2989F0C
S1131B90812D1124981B9695980F969596959F5F85
S1131BA001C091E0EB32F10508F04AC1EA5BFF4F56
S1131BB00C94C5169091B90281E089278093B902EB
S1131BC00E94B9040895949808958091B8028150B0
S1131BD018161CF48093B80202C01092B8020E9436
S1131BE00B0708958091B8028F5F83301CF48093B3
S1131BF0B80203C083E08093B8020E940B070895E3
S1131C008091B802982F990F890F880F8093B5029D
S1131C100E94FB0808958091B802982F990F890FAC
S1131C20880F8F5F8093B5020E94FB08089580910E
S1131C30B802982F990F890F880F8E5F8093B50291
S1131C400E94FB0808958091B802982F990F890F7C
S1131C50880F8D5F8093B5020E94FB0808958091E0
S1131C60B802982F990F890F880F8C5F8093B50263
S1131C700E94FB0808958091B802982F990F890F4C
S1131C80880F8B5F8093B5020E94FB0808950E9421
S1131C90250808950E94A60808950E94E80408955E
S1131CA081E08093B1020E94880508958091B10279
S1131CB0815019F08093B10203C088E18093B1028E
S1131CC08091B1020E94880508958091B1028F5FCE
S1131CD0893118F48093B10203C081E08093B1028A
S1131CE08091B1020E94880508958091B2028150CA
S1131CF08093B2020E94BA0C08958091B2028F5F61
S1131D008093B2020E94BA0C08958091B30281506C
S1131D108093B3020E94BA0C08958091B3028F5F3E
S1131D208093B3020E94BA0C08950E94890C08950E
S1131D3080910001815019F08093000103C081E07B
S1131D4080930001809100010E943A0C08958091D3
S1131D5000018F5F891718F48093000102C09093EB
S1131D600001809100010E943A0C08950E94C8026B
S1131D7008950E942A05089581E0809300010E943D
S1131D803A0C08950E94BA0C089585B5887F85BDE4
S1131D901092BA02089510927601089581E080931A
S1131DA071010E94E6050895809171010E94B306B5
S1131DB00895809171010E94440608950E942804A8
S1131DC00895809171018150809371010E94E6050C
S1131DD00895809171018F5F809371010E94E605DF
S1131DE0089561E2809171010E946204089562E2A3
S1131DF0809171010E946204089563E280917101EF
S1131E000E946204089564E2809171010E94620458
S1131E10089565E2809171010E946204089566E26A
S1131E20809171010E946204089567E280917101BA
S1131E300E946204089568E2809171010E94620424
S1131E4008954F925F926F927F928F929F92AF927A
S1131E50BF92CF92DF92EF92FF920F931F93CF9393
S1131E60DF930F2EFBE7EF2EF2E0FF2EF02D0F2E67
S1131E70F3E6CF2EF2E0DF2EF02D00E010E0812C0F
S1131E80912C66246394712C0F2EF5E44F2EF02DC3
S1131E90CBE3D9E0202F502E5701F7018081F601C2
S1131EA090818917D9F180838330E0F1949AD9988D
S1131EB080919601853458F040929601E1EBF8E068
S1131EC08281938181939193EC17FD07C9F78091E7
S1131ED0960190E0F50160816350FC01EE0FFF1F55
S1131EE0EF54F74F608321830296880F991F0E9455
S1131EF007178091960190E0880F991FFC01EF5419
S1131F00F74F618103960E940717609196016F5FF6
S1131F106093960182E090E00E940717F5018081AA
S1131F20833040F4C30102C0880F991F5A94E2F72A
S1131F30882A992A0F5F1F4FFFEFEF1AFF0A8FEFCE
S1131F40C81AD80A0831110509F0A4CFEFEF8E168C
S1131F50EFE09E0611F49498D99ADF91CF911F91E6
S1131F600F91FF90EF90DF90CF90BF90AF909F9034
S1131F708F907F906F905F904F9008956F927F92B3
S1131F808F929F92AF92BF92CF92DF92EF92FF9285
S1131F900F931F93CF93DF9380E090E00E94F91694
S1131FA08937F1F160E081E090E00E94071760E07A
S1131FB082E090E00E9407170F2EFFECAF2EB12CA9
S1131FC0F02D20C0F801619171918F01CE010E9422
S1131FD014172296EC16FD06A9F7F8E0CF0ED11CD3
S1131FE0E701EA14FB0431F07E0128E0E20EF11C63
S1131FF08601E8CF30E4A30EB11C8FECA81681E073
S1132000B80641F0F501EE5AF94F6F01E501C054ED
S1132010D109EACF69E780E090E00E9407176BC01E
S113202081E090E00E94F9168093B90282E090E08A
S11320300E94F91680939601882309F456C001EB97
S113204018E08150E82EF12CF3E0EF0EF11CEE0CB9
S1132050FF1CC4E0D0E0CE010E94F916F801808391
S1132060CE0101970E94F916F801818322960E5F32
S11320701F4FCE15DF0579F738C0C3010E94011741
S113208089939993F801819391938F01F2E06F0EF4
S1132090711C6E147F0489F728E0A20EB11C38E08D
S11320A0C30ED11C37018E149F0439F0730188E0EC
S11320B0E80EF11C8601E501E0CF90E4890E911C45
S11320C0EFEC8E16E1E09E06B1F03401F0E46F1AF5
S11320D07108C4018F5C91099C012F5D384F59012F
S11320E0FC01E250F64F6F01E1CF0F2EFFEC8F2E73
S11320F0912CF02DEACFDF91CF911F910F91FF909A
S1132100EF90DF90CF90BF90AF909F908F907F9093
S11321106F900895D69AD59AD49AD39AD29AD19A8E
S1132120D09ADE9ADD9ADC9ADB9ADA98D99AD89812
S11321308C9A8D9A9498959A08950E948A1089E1B0
S113214090E00E9455168FE690E00E94631680E8A6
S113215095E20E9470160E94F8120E9418130E94C1
S113216007130E94730108950E949D108FB7806821
S11321708FBF0E94BE0F64E670E080E090E00E9492
S113218055010E94920A609172017091730188E472
S113219091E00E94CB0460917401709175018AE40E
S11321A091E00E94CB0420919B0130919C0180E03E
S11321B093E0289FB001299F700D389F700D112462
S11321C07D5B8CE392E00E94CB0480919D01909111
S11321D09E01865B9F4F60E0782F84E992E00E9425
S11321E0CB0481E08093C8020E940B070E94B904CB
S11321F0C1E080919005882321F00E942B14109255
S113220090058091FD03882321F00E9471131092A0
S1132210FD0380917701813079F48091C902813086
S113222059F48C2F0E946C0BCF5FC73008F0C1E0CB
S11322301092C9021092CA028091C7028823C9F27F
S11322400E94210F1092C702D4CF1F920F920FB693
S11322500F9211242F933F934F935F936F937F9328
S11322608F939F93AF93BF93EF93FF938FB7806840
S11322708FBF82EB82BF8091CB028F5F8C3318F4C7
S11322808093CB0205C01092CB0281E08093CC02F4
S11322908091C802882311F18091CA028F5F84362D
S11322A018F48093CA0205C01092CA0281E0809398
S11322B0C9028091C5029091C60201968C3221E038
S11322C0920728F49093C6028093C50207C0109227
S11322D0C6021092C50281E08093C7028091BA02BF
S11322E0882309F470C08091C3029091C4020196BE
S11322F0883C910528F49093C4028093C30263C080
S11323001092C4021092C3028091BB02882341F14F
S1132310E091B502F0E0EE0FFF1FED5CFD4F208170
S11323203181C901880F991F880F991F880F991F40
S11323306AE070E00E948F16CB01809640919B0169
S113234050919C01849FB001859F700D949F700DE6
S11323501124620F731F82E390E00E94CB0433C008
S1132360E091B302EE0FFF0BED5CFD4F2081318154
S1132370C901880F991F880F991F880F991F6AE058
S113238070E00E948F16CB01809640919B01509182
S11323909C01849FB001859F700D949F700D112442
S11323A0620F731F8EE390E00E94CB04E091B302AE
S11323B00E2E000CFF0BED56FD4F608170E082E4A1
S11323C090E00E94CB048091FB039091C202891794
S11323D029F08093C2021092C10214C0882391F0A4
S11323E09091C1029F5F9093C102943058F0809302
S11323F0FC0381E08093FD031092FB031092C20260
S11324001092C10280918E059091C002891729F023
S11324108093C0021092BF0214C0882391F090915F
S1132420BF029F5F9093BF02943058F080938F0552
S113243081E08093900510928E051092C002109254
S1132440BF02FF91EF91BF91AF919F918F917F91C7
S11324506F915F914F913F912F910F900FBE0F900D
S11324601F9018951F920F920FB60F9211240F9080
S11324700FBE0F901F9018951F920F920FB60F92D8
S113248011242F933F934F935F936F937F938F9375
S11324909F93AF93BF93CF93DF93EF93FF938FB744
S11324A080688FBF82EB84BD8091B302880F990B43
S11324B0FC01ED5CFD4F20813181E0919B01F091A5
S11324C09C01DC01A356B64FCD91DC918091BE02F4
S11324D08F5F8093BE029091CD028917F8F010921D
S11324E0BE02C901880F991F880F991F880F991F71
S11324F06AE070E00E948F16CB0180968E9FB00137
S11325008F9F700D9E9F700D11242C593F4F2C1BD3
S11325103D0B620F731F81E00E94A209FF91EF91AE
S1132520DF91CF91BF91AF919F918F917F916F91E7
S11325305F914F913F912F910F900FBE0F901F907D
S113254018951F920F920FB60F9211242F933F9359
S11325504F938F939F93EF93FF938091BD028F5F6F
S11325608093BD029091FD09911136C08930F8F431
S11325704091BC0280913203282F30E081E090E04A
S1132580042E02C0880F991F0A94E2F78223932332
S113259002C0959587954A95E2F7019711F4AF9A91
S11325A001C0AF988091BC028F5F8093BC02809180
S11325B0BD02893019F41092BC02AF9A8091BD0219
S11325C08A3051F41092BD0283E08093FD09EAE859
S11325D0F0E08081887F8083FF91EF919F918F91BC
S11325E04F913F912F910F900FBE0F901F90189510
S11325F083B7887F83BF82EB82BF87B78C7F87BF17
S113260087B7816087BF83B7876083BF08958EB51E
S113261088608EBD8EB5887F8EBD89E08BBD84ECCD
S11326208ABD87B7806187BF8EB583608EBD0895EC
S113263085B5887F85BD82EB84BD87B78F7387BFDF
S113264087B7806487BF85B5856085BD85B5887F7C
S113265085BD08951F920F920FB60F9211248F9388
S11326609F93EF93FF93E0918E0581E08E0F80930B
S11326708E059CB1F0E0E75AF94F9083883C20F036
S113268080938F0510928E05FF91EF919F918F910A
S11326900F900FBE0F901F9018951F920F920FB6B8
S11326A00F9211248F939F93EF93FF93E091FB0379
S11326B081E08E0F8093FB0390919C00F0E0EA533D
S11326C0FB4F9083883C20F08093FC031092FB0323
S11326D0FF91EF919F918F910F900FBE0F901F90DC
S11326E018958091C604853A21F48091C7048A35EF
S11326F019F01092FD031AC02091FC0330E0809180
S1132700C80490E005962817390719F01092FD03C4
S11327100DC08091C904813019F40E94880B06C051
S1132720873021F48091CA040E94BB0A80E090E0C3
S113273008955D9BFECF8CB908950F931F93CF939B
S1132740DF93662371F0EC016150062F10E00F5FF8
S11327501F4F080F191F89910E949913C017D107A1
S1132760D1F7DF91CF911F910F910895EBE9F0E03C
S1132770908195FFFDCF80939C0008950F931F9344
S1132780CF93DF93662371F0EC016150062F10E0C4
S11327900F5F1F4F080F191F89910E94B613C017AE
S11327A0D107D1F7DF91CF911F910F9108958093B5
S11327B032031092FD09AF9810928900109288009C
S11327C0EAE8F0E080818160808308950F931F938D
S11327D0CF93DF93662399F08C01EC016150262F8F
S11327E030E02F5F3F4F020F131F89910E94D713D0
S11327F08091FD098330F1F7C017D107B1F7DF915C
S1132800CF911F910F910895DC0170E0655071091B
S113281016161706ECF430E08FEF9FEFFD01E30F7F
S1132820F11D2381822728E080FF07C096958795B4
S113283041E0842740EA942702C096958795215069
S113284099F73F5F432F50E0461757073CF308952D
S11328508FEF9FEF0895CF93DF9380915906853AC8
S113286021F480915A068A3519F01092900518C205
S113287060918F05C62FD0E080915B0690E00596AD
S1132880C817D90719F0109290050AC289E596E095
S11328900E940414AE01475A594FFA01319720811E
S11328A030E0322F222731974081240F311D281721
S11328B0390719F010929005F3C180915C068338B2
S11328C009F0EEC1A9E5B6E0C75AD94FFE01349725
S11328D0808190E0982F882723972881822B149653
S11328E0EC911497F0E0FE2FEE2715962C91E22B35
S11328F0E054F140E03CF10508F0D2C1EF58FF4F3D
S11329000C94C5160E94A60DCBC10E941603C8C123
S1132910E091B502F0E0E156FE4F8083C1C1E09141
S1132920B502F0E0EE0FFF1FE253FD4F9183808369
S1132930865B9F4F60E0782F80E992E00E94CB0491
S1132940AFC1E091B502F0E0EE0FFF1FE250FD4F82
S113295091838083A5C1E091B502F0E0EE0FFF1FE3
S1132960E353F64F918380839BC10E945F0398C118
S1132970909381018093800193C190937F01809310
S11329807E018EC19093310380933003865B9F4F09
S113299060E0782F84E992E00E94CB0481C1909397
S11329A02F0380932E0320E033E0829FB001839FA6
S11329B0700D929F700D11247D5B8CE392E00E9458
S11329C0CB046EC190937D0180937C0169C1909387
S11329D07B0180937A0164C190937901809378019B
S11329E05FC1E091710120E4E29FF0011124E254FF
S11329F0F64F9183808354C1E091710120E4E29FFA
S1132A00F0011124E254F64F9383828349C1E0918B
S1132A10710120E4E29FF0011124E254F64F958302
S1132A2084833EC1E091710120E4E29FF00111240E
S1132A30E254F64F9783868333C1E091710120E419
S1132A40E29FF0011124E254F64F9187808728C158
S1132A50E091710120E4E29FF0011124E254F64F69
S1132A60938782871DC1E091710120E4E29FF00108
S1132A701124E254F64F9587848712C1E0917101C5
S1132A8020E4E29FF0011124E254F64F97878687F1
S1132A9007C1E091710120E4E29FF0011124E254A6
S1132AA0F64F918B808BFCC0E091710120E4E29F92
S1132AB0F0011124E254F64F938B828BF1C0E09124
S1132AC0710120E4E29FF0011124E254F64F958B4A
S1132AD0848BE6C0E091710120E4E29FF0011124AF
S1132AE0E254F64F978B868BDBC0E091710120E4B2
S1132AF0E29FF0011124E254F64F918F808FD0C0F1
S1132B00E091710120E4E29FF0011124E254F64FB8
S1132B10938F828FC5C0E091710120E4E29FF001A0
S1132B201124E254F64F958F848FBAC0E09171015D
S1132B3020E4E29FF0011124E254F64F978F868F30
S1132B40AFC0E091710120E4E29FF0011124E2544E
S1132B50F64F91A380A3A4C0E091710120E4E29F09
S1132B60F0011124E254F64F93A382A399C0E0919B
S1132B70710120E4E29FF0011124E254F64F95A381
S1132B8084A38EC0E091710120E4E29FF00111243E
S1132B90E254F64F97A386A383C0E091710120E429
S1132BA0E29FF0011124E254F64F91A780A778C068
S1132BB0E091710120E4E29FF0011124E254F64F08
S1132BC093A782A76DC0E091710120E4E29FF00118
S1132BD01124E254F64F95A784A762C0E0917101D5
S1132BE020E4E29FF0011124E254F64F97A786A750
S1132BF057C0E091710120E4E29FF0011124E254F6
S1132C00F64F91AB80AB4CC0E091710120E4E29FA0
S1132C10F0011124E254F64F93AB82AB41C0E09132
S1132C20710120E4E29FF0011124E254F64F95ABC8
S1132C3084AB36C0E091710120E4E29FF0011124DD
S1132C40E254F64F97AB86AB2BC0E091710120E4C0
S1132C50E29FF0011124E254F64F91AF80AF20C0FF
S1132C60E091710120E4E29FF0011124E254F64F57
S1132C7093AF82AF15C0E091710120E4E29FF001AF
S1132C801124E254F64F95AF84AF0AC0E09171016C
S1132C9020E4E29FF0011124E254F64F97AF86AF8F
S1132CA080E090E0DF91CF910895119A109890936D
S1132CB0900089B9E5E9F0E08081866080838AB17B
S1132CC088698AB908958B9A8A989093980080931A
S1132CD0990086E080939D0088E980939A00089586
S1132CE0A79AA698AE9AAF9AEAE8F0E02081286005
S1132CF020832081287F20839C0140E050E060E015
S1132D0074E284EF90E00E94A3163093870020932E
S1132D108600EDE7F0E0808180618083089597FB71
S1132D20072E16F4009407D077FD09D00E94E5160B
S1132D3007FC05D03EF4909581959F4F08957095BA
S1132D4061957F4F0895A1E21A2EAA1BBB1BFD01BA
S1132D500DC0AA1FBB1FEE1FFF1FA217B307E40776
S1132D60F50720F0A21BB30BE40BF50B661F771FCE
S1132D70881F991F1A9469F76095709580959095AE
S1132D809B01AC01BD01CF010895EE0FFF1F05901B
S1132D90F491E02D0994A29FB001B39FC001A39FB9
S1132DA0700D811D1124911DB29F700D811D112480
S1132DB0911D08950E94CB16A59F900DB49F900D70
S1132DC0A49F800D911D11240895AA1BBB1B51E1E2
S1132DD007C0AA1FBB1FA617B70710F0A61BB70B87
S1132DE0881F991F5A95A9F780959095BC01CD012C
S1132DF00895E199FECF9FBB8EBBE09A99278DB3CE
S1132E000895A8E1B0E042E050E00C941B17262F8F
S1132E10E199FECF9FBB8EBB2DBB0FB6F894E29A0F
S1132E20E19A0FBE019608950E940717272F0C946C
S1132E300817DC01CB01FC01E199FECF06C0FFBB02
S1132E40EEBBE09A31960DB20D9241505040B8F766
S1092E500895F894FFCF81
S1132E5601C8C8B5E7C5BCB6CFBFAA0000000000CC
S1132E6600CEC2B6C8B9FDB8DF00000000000000FD
S1132E7600CEC2B6C8B9FDB5CD0000000000000002
S1132E8600C8C8B5E7C5BCB6CCC2B7000000000090
S1132E9600C8C8B5E7C5BCBDD3B7B4000000000080
S1132EA600BCD3C8C8C6F7B6CFBFAA00000000004E
S1132EB600BCD3C8C8C6F7B6CCC2B7000000000031
S1132EC6000164000300010164006400640003005F
S1132ED6640002000400060008000A000C000E004C
S1092EE6100012001400AC
S9030000FC
