S01C000054656D704374726C426F78436F7265426F6172642E7372656343
S1130000A4C20000BFC20000BDC20000BBC2000009
S1130010B9C20000B7C20000B5C20000B3C20000FC
S1130020B1C20000AFC200000C94D131ABC20000D9
S11300300C94BE31A7C20000A5C20000A3C20000F8
S11300400C9461309FC200000C9422359BC20000C6
S113005099C2000097C2000095C2000093C200003C
S113006091C200008FC200000C9498328BC2000031
S113007089C2000087C200000C945B3583C2000073
S113008081C200007FC200007DC20000B20DBB0D22
S1130090C50DD20DE00DEB0DF70D030E0F0E1B0E6B
S11300A0270EF311290E550E5D0E650E6D0E750E9D
S11300B0780E890E9B0E9D0E2B0E9F0EA70EAA0E78
S11300C0B60EE70EED0EF20EF70EFA0E020F0A0F41
S11300D0100F160F1C0F220F280F2E0F340F330E84
S11300E0440E3A0F980FAE0FF311550F0F1039103D
S11300F064108F10BA10F31131114B116E1191115C
S1130100B411F311D30FD80FDE0FE40FEA0FF3117C
S11301100711E510F610F3110F112011F00F3F0F26
S1130120F311F311F311F311D711DC11DF11E21103
S1130130E51190159A1595159E15AE15AE15A215D7
S1130140AE15AE15A615AA154236B13B7636B13BAF
S11301509836B13BA636B13BFB36B13B3D37B13B9C
S11301604C37B13B6837B13BB13BB13BBF37B13BD7
S1130170C637B13BCD37B13BEE36B13BB13BB13BBA
S1130180B13BB13BB13BB13BB13BB13BD437B13BEC
S1130190EA37B13B0038B13B1638B13B2C38B13BA0
S11301A04238B13B5838B13B6E38B13B8438B13B2F
S11301B09A38B13BB038B13BC638B13BDC38B13BBF
S11301C0F238B13B0839B13B1E39B13B3439B13B4C
S11301D04A39B13B6039B13B7639B13B8C39B13BDB
S11301E0A239B13BB839B13BCE39B13BE439B13B6B
S11301F0FA39B13B103AB13B263AB13B3C3AB13BF8
S1130200523AB13B683AB13B7E3AB13BAE3AB13B6C
S1130210B13BB13BBA3AB13BB13BB13BC73AB13B5D
S1130220B13BB13BD43AB13BB13BB13BE13AB13B19
S1130230B13BB13B943AB13BB13BB13B4F36B13BDF
S1130240A13AB13BB13BB13BFC3AB13B1F3BB13BA3
S11302504A3BB13B753BB13BB13BB13BB13BB13BDD
S1130260B13BB13BB13BB13BB13BB13BB13BB13B2A
S1130270B13BB13BB13BB13BB13BB13BB13BB13B1A
S1130280B13BB13BB13BB13BB13BB13BB13BB13B0A
S1130290B13BB13BB13BB13BB13BB13BB13BB13BFA
S11302A0B13BB13BB13BB13BB13BB13BB13BB13BEA
S11302B0B13BB13BB13BB13BB13BB13BB13BB13BDA
S11302C0B13BB13BB13B3D36B13BB13BB13BB13B43
S11302D0B13BB13BB13BB13BB13BB13BB13BB13BBA
S11302E0B13BB13BB13BB13BB13BB13BB13BB13BAA
S11302F0B13BB13BB13BB13BB13BB13BB13BB13B9A
S1130300B13BB13BB13BB13BB13BB13BB13BB13B89
S1130540B13BB13BB13BB13BEE3A11241FBECFEFFF
S1130550D0E1DEBFCDBF12E0A0E0B1E0E8E7FFE705
S113056002C005900D92A830B107D9F72DE0A8E09C
S1130570B2E001C01D92AC36B207E1F70E942D2F04
S11305800C94BA3F3DCDCF93DF9300D000D0CDB7CC
S1130590DEB78C836C818AEB99E069D4198253C0ED
S11305A08981882F90E02981222F30E0220F331F88
S11305B02154364FF90120813181880F991F855FBD
S11305C0934FFC01318320838981882F90E0298116
S11305D0222F30E0220F331F255F334FF901208192
S11305E03181880F991F855C934FFC0131832083EF
S11305F08981882F90E02981222F30E0220F331F38
S11306002151364FF90120813181880F991F8F5371
S11306109D4FFC01318320838981882F90E02981BB
S1130620222F30E0220F331F2F533D4FF901208139
S11306303181880F991F8E55984FFC013183208397
S113064089818F5F89838981883108F4A9CF1982D0
S1130650CBC01A82C2C01B82B9C08981682F70E0E6
S11306608A81482F50E08B81882F90E02981A22F26
S1130670B0E02A81E22FF0E02B81222F30E0AA0F94
S1130680BB1FAA0FBB1FAA0FBB1FEA0FFB1FEE0F56
S1130690FF1FEE0FFF1F2E0F3F1F220F331F215E80
S11306A0354FF90120813181660F771F660F771F5F
S11306B0660F771F460F571F440F551F440F551FD2
S11306C0840F951F880F991F865D974FFC01318316
S11306D020838981682F70E08A81482F50E08B81C4
S11306E0882F90E02981A22FB0E02A81E22FF0E048
S11306F02B81222F30E0AA0FBB1FAA0FBB1FAA0F0A
S1130700BB1FEA0FFB1FEE0FFF1FEE0FFF1F2E0F85
S11307103F1F220F331F265D374FF901208131819E
S1130720660F771F660F771F660F771F460F571FD9
S1130730440F551F440F551F840F951F880F991F91
S11307408459934FFC01318320838981482F50E0E1
S11307508A81282F30E08B81882F90E0440F551F29
S1130760440F551F440F551F240F351F220F331FED
S1130770220F331F820F931F880F991F865D974F97
S1130780FC01408151818981882F90E09C01220FD6
S1130790331F220F331F220F331F8A81882F90E0CB
S11307A0820F931F9C01220F331F220F331F8B8153
S11307B0882F90E0820F931F880F991F81579F4FB6
S11307C0BA010E94A73F8B818F5F8B838B8184301A
S11307D008F443CF8A818F5F8A838A81883008F442
S11307E03ACF89818F5F89838981843008F431CF3E
S11307F06BE07CE08AE00E942D2C61EC72E08BE0DF
S11308000E942D2C00000F900F900F900F90DF91FD
S1130810CF910895CF93DF9300D000D01F92CDB72E
S1130820DEB76A837B838C839D8381E0898312C0D6
S113083089815DD29B01AC018A819B81AC81BD81A0
S1130840281739074A075B0711F4898109C0898190
S11308508F5F8983809131039981891748F780E0FC
S11308600F900F900F900F900F90DF91CF910895FC
S1130870CF93DF9300D000D01F92CDB7DEB789832A
S11308804A835B836C837D838091310399818917CB
S113089040F08A819B81AC81BD81AC01BD0189811D
S11308A0D1D1809107010E945D2800000F900F9024
S11308B00F900F900F90DF91CF910895CF93DF9316
S11308C000D000D0CDB7DEB78C83809131039C81FA
S11308D0891708F45AC085E0809332038C81882FED
S11308E090E00197880F991F8E52984FFC018081E8
S11308F091819B838A838C81898318C08981882F05
S113090090E001972981222F30E0220F331F2E52CD
S1130910384FF90120813181880F991F8E52984FE9
S1130920FC013183208389818F5F89838091310326
S11309309981981718F380913103882F90E00197DB
S1130940880F991F8E52984F2A813B81FC01318375
S1130950208380913103815080933103909131033E
S113096080910701981768F480913103863020F450
S113097081E08093070105C0809131038450809306
S11309800701809107010E945D28198217C089819F
S1130990882F90E0880F991F8E52984FFC01208178
S11309A031818981882F90E088539F4F880F991F48
S11309B0B9010E94A73F89818F5F898389818C3225
S11309C030F380913103682F8FEF91E00E949A3FBA
S11309D000000F900F900F900F90DF91CF9108952A
S11309E0CF93DF9300D000D000D0CDB7DEB78E8395
S11309F081E0809332031092BA0980913703909179
S1130A003803A0913903B0913A038093BB099093C2
S1130A10BC09A093BD09B093BE0919822FC0898176
S1130A20082E000C990B2981022E000C330B220F87
S1130A30331F255F334FF90120813181880F991FBE
S1130A408154964FFC01318320838981082E000C48
S1130A50990B2981022E000C330B220F331F2F53C5
S1130A603D4FF90120813181880F991F8151964FA3
S1130A70FC013183208389818F5F89838981883157
S1130A8074F2198257C01A824EC01B8245C08981F4
S1130A90682F880F770B8A81482F880F550B8B811D
S1130AA0082E000C990B2981A22F220FBB0B2A813F
S1130AB0E22F220FFF0B2B81022E000C330BAA0F07
S1130AC0BB1FAA0FBB1FAA0FBB1FEA0FFB1FEE0F12
S1130AD0FF1FEE0FFF1F2E0F3F1F220F331F265D38
S1130AE0374FF90120813181660F771F660F771F19
S1130AF0660F771F460F571F440F551F440F551F8E
S1130B00840F951F880F991F815E954FFC013183D7
S1130B1020838B818F5F8B838B8184300CF4B7CFE0
S1130B208A818F5F8A838A8188300CF4AECF898171
S1130B308F5F8983898184300CF4A5CF8091280844
S1130B40909129089D838C838AE289831AC08981C4
S1130B50082E000C990B01962981022E000C330BF0
S1130B60220F331F2E52384FF90120813181880F13
S1130B70991F8E52984FFC013183208389818150C3
S1130B808983898188231CF78C819D819093D30765
S1130B908093D20761E08AEB99E028D181E08093C9
S1130BA00701809107010E945D28198219C089817B
S1130BB0082E000C990B880F991F8E52984FFC0138
S1130BC0208131818981082E000C990B88539F4F15
S1130BD0880F991FB9010E94A73F89818F5F89837C
S1130BE089818C3224F36E818FEF91E00E949A3FC9
S1130BF0000026960FB6F894DEBF0FBECDBFDF917E
S1130C00CF910895CF93DF9300D000D0CDB7DEB756
S1130C108C838C81882F90E00197880F991F8E52C6
S1130C20984FFC01808191819A83898389819A817B
S1130C3046D28B838B810F900F900F900F90DF9192
S1130C40CF910895CF93DF93CDB7DEB727970FB633
S1130C50F894DEBF0FBECDBF8B834C835D836E8360
S1130C607F838B81882F90E00197880F991F8E5284
S1130C70984FFC018081918104969A8389838C81A9
S1130C809D81AE81BF818B2F9927AA27BB27282F4F
S1130C9089819A81622F30D18C819D81AE81BF81FF
S1130CA0CD01AA27BB27282F89819A810197622F1A
S1130CB023D18C819D81AE81BF81892F9A2FAB2F47
S1130CC0BB27282F89819A810297622F15D12C8105
S1130CD089819A810397622F0FD1000027960FB65E
S1130CE0F894DEBF0FBECDBFDF91CF910895CF92B0
S1130CF0DF92EF92FF92CF93DF93CDB7DEB72797C2
S1130D000FB6F894DEBF0FBECDBF8F838F81882FBF
S1130D1090E00197880F991F8E52984FFC018081B3
S1130D20918104969A83898389819A81C8D1CC015F
S1130D30A0E0B0E08B839C83AD83BE838B819C81D8
S1130D40AD81BE81CC24D82EE92EFA2E89819A81D8
S1130D500197B5D1CC01A0E0B0E08C299D29AE2942
S1130D60BF298B839C83AD83BE838B819C81AD81A2
S1130D70BE81CC24D82EE92EFA2E89819A8102973D
S1130D809ED1CC01A0E0B0E08C299D29AE29BF29D9
S1130D908B839C83AD83BE838B819C81AD81BE811B
S1130DA0CC24D82EE92EFA2E89819A81039787D1F3
S1130DB0CC01A0E0B0E08C299D29AE29BF298B830A
S1130DC09C83AD83BE838B819C81AD81BE81BC013C
S1130DD0CD0127960FB6F894DEBF0FBECDBFDF91CD
S1130DE0CF91FF90EF90DF90CF900895CF93DF9352
S1130DF0CDB7DEB727970FB6F894DEBF0FBECDBFD1
S1130E009E838D836F838F81882F90E00197880F55
S1130E10991F8E52984FFC01808191819C838B8312
S1130E201A82198215C02D813E8189819A81820F8F
S1130E30931FFC01408129813A818B819C81820F1F
S1130E40931F642F59D089819A8101969A8389834B
S1130E5089819A818536914030F3000027960FB638
S1130E60F894DEBF0FBECDBFDF91CF9108950F93ED
S1130E701F93CF93DF93CDB7DEB727970FB6F894C0
S1130E80DEBF0FBECDBF9E838D836F838F81882F7E
S1130E9090E00197880F991F8E52984FFC01808132
S1130EA091819C838B831A82198215C02D813E8186
S1130EB089819A818901080F191F29813A818B81BF
S1130EC09C81820F931FFBD0F801808389819A81D2
S1130ED001969A83898389819A818536914030F37A
S1130EE0000027960FB6F894DEBF0FBECDBFDF918A
S1130EF0CF911F910F910895CF93DF93CDB7DEB7B4
S1130F0064970FB6F894DEBF0FBECDBF9B8B8A8B60
S1130F106C8B19828A899B89892F99278A838A896C
S1130F208B830AC089818F5F89838981853020F012
S1130F300E94F43380E0BAC00E94BF33882391F347
S1130F400AC089818F5F89838981853020F00E945E
S1130F50F43380E0ABC060E080E50E940134882374
S1130F6081F30AC089818F5F89838981853020F06C
S1130F700E94F43380E09AC08A810E944B34882313
S1130F8089F30AC089818F5F89838981853020F044
S1130F900E94F43380E08AC08B810E944B34882302
S1130FA089F30AC089818F5F89838981853020F024
S1130FB00E94F43380E07AC08C890E944B348823E9
S1130FC089F30E94F43380E090E0A0E0B0E48C83E5
S1130FD09D83AE83BF8320E030E04AE755E46C8113
S1130FE07D818E819F810E94A43EDC01CB01888794
S1130FF09987AA87BB8720E030E040E85FE36885F3
S113100079858A859B850E94233E88232CF481E080
S113101090E09D878C873FC020E03FEF4FE757E487
S1131020688579858A859B850E94A03E18164CF5B3
S113103020E030E040E251E46C817D818E819F812B
S11310400E94A43EDC01CB01BC01CD010E94273EDD
S1131050DC01CB019D878C870FC080E991E09F87DD
S11310608E878E859F850197F1F79F878E878C8564
S11310709D8501979D878C878C859D85892B69F734
S113108014C0688579858A859B850E94273EDC018A
S1131090CB019D878C878C859D85998B888B8889CE
S11310A099890197F1F7998B888B81E064960FB643
S11310B0F894DEBF0FBECDBFDF91CF910895CF93DB
S11310C0DF93CDB7DEB764970FB6F894DEBF0FBEDB
S11310D0CDBF9C8B8B8B19828B899C89892F9927F7
S11310E08A838B898B830BC089818F5F89838981F4
S11310F0853028F00E94F4338FEF9FEFD6C00E9412
S1131100BF33882389F30BC089818F5F89838981E9
S1131110853028F00E94F4338FEF9FEFC6C060E063
S113112080E50E940134882379F30BC089818F5FA5
S113113089838981853028F00E94F4338FEF9FEFF3
S1131140B4C08A810E944B34882381F30BC0898107
S11311508F5F89838981853028F00E94F4338FEF73
S11311609FEFA3C08B810E944B34882381F30BC073
S113117089818F5F89838981853028F00E94F433C7
S11311808FEF9FEF92C00E94BF33882389F30BC077
S113119089818F5F89838981853028F00E94F433A7
S11311A08FEF9FEF82C061E080E50E9401348823C5
S11311B079F3000080E00E947D348C830E94F43334
S11311C080E090E0A0E0B0E48D839E83AF83B88795
S11311D020E030E04AE755E46D817E818F81988577
S11311E00E94A43EDC01CB0189879A87AB87BC8728
S11311F020E030E040E85FE369857A858B859C8553
S11312000E94233E88232CF481E090E09E878D8702
S11312103FC020E03FEF4FE757E469857A858B852F
S11312209C850E94A03E18164CF520E030E040E278
S113123051E46D817E818F8198850E94A43EDC01FA
S1131240CB01BC01CD010E94273EDC01CB019E876E
S11312508D870FC080E991E0988B8F878F8598895F
S11312600197F1F7988B8F878D859E8501979E87CF
S11312708D878D859E85892B69F714C069857A854C
S11312808B859C850E94273EDC01CB019E878D8740
S11312908D859E859A8B898B89899A890197F1F727
S11312A09A8B898B8C81882F90E064960FB6F89482
S11312B0DEBF0FBECDBFDF91CF910895CF93DF93F3
S11312C000D000D000D0CDB7DEB71C821D821E82B4
S11312D0198255C01A824CC01B8243C08981482F91
S11312E050E08A81282F30E08B81882F90E0440FD2
S11312F0551F440F551F440F551F240F351F220F30
S1131300331F220F331F820F931F880F991F865D8F
S1131310974F24EF31E0FC01318320838981482FEA
S113132050E08A81282F30E08B81882F90E0440F91
S1131330551F440F551F440F551F240F351F220FEF
S1131340331F220F331F820F931F880F991F845955
S1131350934F24EF31E0FC01318320838B818F5F35
S11313608B838B81843008F4B9CF8A818F5F8A8321
S11313708A81883008F4B0CF89818F5F898389811D
S1131380843008F4A7CF198233C18981882F90E073
S1131390880F991F855F934F24E630E0FC01318369
S11313A020838981882F90E0880F991F855C934F53
S11313B024E630E0FC01318320838981882F90E08A
S11313C0880F991F865A964F24E630E0FC0131833A
S11313D020838981882F90E0880F991F8657964F24
S11313E024E630E0FC01318320838981882F90E05A
S11313F0880F991F865D964F24E630E0FC01318307
S113140020838981893070F48981882F90E0019646
S11314102AE030E0B9010E942F3F805D8E831D8257
S11314201C8248C089818930E0F089818336C8F400
S11314308981882F90E001962AE030E0B9010E946A
S11314402F3FCB01805D8E838981882F90E00196A8
S11314502AE030E0B9010E942F3F805D8D831C8219
S113146029C08981833630F18981873C18F58981C7
S1131470882F90E0019624E630E0B9010E942F3FC6
S1131480CB01805D8E838981882F90E001962AE0CC
S113149030E0B9010E942F3FCB01805D8D838981AB
S11314A0882F90E001962AE030E0B9010E942F3F96
S11314B0805D8C838981282F30E08981882F90E09A
S11314C0880F991F880F991F8555944FFC018081BF
S11314D09181A281B3818362220F331F220F331FB4
S11314E02555344FF90180839183A283B383898185
S11314F0682F70E08981882F90E0880F991F880FEA
S1131500991F8555944FFC0180819181A281B381FB
S11315102227382F492F5A2F8E81882F90E0A0E060
S1131520B0E0822B932BA42BB52B9B01220F331FEE
S1131530220F331F2555344FF90180839183A283F1
S1131540B3838981682F70E08981882F90E0880FA8
S1131550991F880F991F8555944FFC0180819181B3
S1131560A281B3812227382F492F5A2F8D81882FAA
S113157090E0A0E0B0E0822B932BA42BB52B9B0131
S1131580220F331F220F331F2555344FF901808357
S11315909183A283B3838981682F70E08981882F26
S11315A090E0880F991F880F991F8555944FFC016F
S11315B080819181A281B3812227382F492F5A2F0C
S11315C08C81882F90E0A0E0B0E0822B932BA42B99
S11315D0B52B9B01220F331F220F331F2555344F88
S11315E0F90180839183A283B38389818F5F898387
S11315F08981883108F4C9CE000026960FB6F89484
S1131600DEBF0FBECDBFDF91CF910895CF93DF939F
S11316101F92CDB7DEB71982198248C28981482F3B
S113162050E080910B02282F880F330BC901880FDB
S1131630991F820F931F880F991F840F951F01967E
S11316409C018981882F90E0880F991FB9010E941D
S113165043208981482F50E080910B02282F880F66
S1131660330BC901880F991F820F931F880F991F8D
S1131670840F951F875E9D4FDC018C91282F30E0ED
S11316808981882F90E00696880F991FB9010E94DE
S113169043208981482F50E080910B02282F880F26
S11316A0330BC901880F991F820F931F880F991F4D
S11316B0840F951F880F991F8F599D4FFC018081BE
S11316C09181FC018981482F50E080910B02282FE1
S11316D0880F330BC901880F991F820F931F880F3E
S11316E0991F840F951F880F991F8F599D4FDC01F7
S11316F08D919C91880F991F880F991F880F991FAE
S11317002AE030E0B9010E942F3FCB018096AC0162
S11317102091270330912803429FC001439F900DDD
S1131720529F900D11249F01280F391F8981882F02
S113173090E00C96880F991FB9010E94432089817B
S1131740482F50E080910B02282F880F330BC901DA
S1131750880F991F820F931F880F991F840F951F5D
S1131760880F991F855F934FFC01408151818981C6
S1131770682F70E080910B02282F880F330BC9016A
S1131780880F991F820F931F880F991F860F971F29
S1131790880F991F855F934FDC018D919C91880F71
S11317A0991F880F991F880F991F9C01ADECBCEC01
S11317B00E946A3F96958795969587959695879505
S11317C0BC01605E7F4F2091270330912803629F04
S11317D0C001639F900D729F900D11249A01280FF0
S11317E0391F8981882F90E04296880F991FB9018B
S11317F00E9443208981482F50E080910B02282FBA
S1131800880F330BC901880F991F820F931F880F0C
S1131810991F840F951F880F991F8F539D4FFC01AB
S113182080819181865B9F4F382F22278981882F61
S113183090E0885E9E4F880F991FB9010E94432053
S11318408981482F50E080910B02282F880F330B99
S1131850C901880F991F820F931F880F991F840F46
S1131860951F880F991F880F991F8555944FFC0168
S113187080819181A281B3812981222F30E0205C73
S11318803F4F220F331F220F331F220F331FAC0190
S1131890BD01C9010E948D208981482F50E08091AB
S11318A00B02282F880F330BC901880F991F820F51
S11318B0931F880F991F840F951F8F5C9D4FDC0128
S11318C08C91843008F472C08981482F50E0809153
S11318D00B02282F880F330BC901880F991F820F21
S11318E0931F880F991F840F951F8F5C9D4FFC01D8
S11318F080818C3008F05AC08981882F90E084560A
S11319009F4F880F991F880F991F64E070E00E9411
S113191043208981482F50E080910B02282F880FA3
S1131920330BC901880F991F820F931F880F991FCA
S1131930840F951F8F5C9D4FDC018C918B3081F45B
S11319408981882F90E0885B9F4F880F991F880FAB
S1131950991F880F991F6CE170E00E944320A3C077
S11319608981482F50E080910B02282F880F330B78
S1131970C901880F991F820F931F880F991F840F25
S1131980951F8F5C9D4FFC018081282F30E0898159
S1131990882F90E0885B9F4F880F991F880F991FAD
S11319A0880F991FB9010E9443207DC08981482F67
S11319B050E080910B02282F880F330BC901880F48
S11319C0991F820F931F880F991F840F951F8F5C97
S11319D09D4FDC018C91843098F58981482F50E02B
S11319E080910B02282F880F330BC901880F991F90
S11319F0820F931F880F991F840F951F8F5C9D4F33
S1131A00FC018081282F30E08981882F90E0845662
S1131A109F4F880F991F880F991FB9010E94432077
S1131A208981882F90E0885B9F4F880F991F880FCA
S1131A30991F880F991F63E070E00E94432033C010
S1131A408981482F50E080910B02282F880F330B97
S1131A50C901880F991F820F931F880F991F840F44
S1131A60951F8F5C9D4FDC018C918F30E1F489814F
S1131A70882F90E084569F4F880F991F880F991FD5
S1131A806FE070E00E9443208981882F90E0885B9A
S1131A909F4F880F991F880F991F880F991F6DE01A
S1131AA070E00E94432089818F5F89838981863019
S1131AB008F4B4CD00000F90DF91CF910895CF9337
S1131AC0DF9300D000D0CDB7DEB79C838B838091A9
S1131AD02D03882319F481E0898330C020912D03DC
S1131AE085E2289F812D1124922F981B9695890FAA
S1131AF0982F96959695892F880F880F880F891BA4
S1131B00922F981B992369F490912D0385E2989F55
S1131B10812D1124981B9695890F86958695898326
S1131B200DC090912D0385E2989F812D1124981B5F
S1131B309695890F869586958F5F89838B819C8185
S1131B40CC01A0E0B0E040E050E022E530E0841BAE
S1131B50950B2817390708F446C48A5B9F4FFC018C
S1131B600C94643F90910A0281E0892780930A02D1
S1131B700E94F21F3DC482E390E022E330E0F901C9
S1131B8020812F7EFC01208333C480910B0281507D
S1131B9080930B0280910B02181614F010920B0222
S1131BA035DD26C480910B028F5F80930B028091F8
S1131BB00B0283301CF083E080930B0227DD18C4F2
S1131BC080910B02982F892F880F890F880F80939B
S1131BD00E02CCD70DC480910B02982F892F880F49
S1131BE0890F880F8F5F80930E02C0D701C4809144
S1131BF00B02982F892F880F890F880F8E5F80938F
S1131C000E02B4D7F5C380910B02982F892F880F49
S1131C10890F880F8D5F80930E02A8D7E9C3809146
S1131C200B02982F892F880F890F880F8C5F809360
S1131C300E029CD7DDC380910B02982F892F880F49
S1131C40890F880F8B5F80930E0290D7D1C3D8D3AE
S1131C50CFC3F7D4CDC381E08093120280911202E6
S1131C600E945717C5C380911202815080931202BB
S1131C7080911202882319F488E1809312028091E2
S1131C8012020E945717B4C3809112028F5F80938F
S1131C90120280911202893118F081E080931202BD
S1131CA0809112020E945717A3C3809111028150A0
S1131CB0809311020E94FA179BC3809111028F5FD7
S1131CC0809311020E94FA1793C3809110028150ED
S1131CD0809310020E94FA178BC3809110028F5FC9
S1131CE0809310020E94FA1783C30E94D72680C3F0
S1131CF08091EC0181508093EC018091EC01882368
S1131D0019F481E08093EC018091EC010E94741F2E
S1131D106FC38091EC018F5F8093EC019091EC0193
S1131D208981981718F089818093EC018091EC01E6
S1131D300E94741F5DC37AD55BC368DC59C381E01C
S1131D408093EC018091EC010E94741F51C30E94A6
S1131D50FA174EC385E490E025E430E0F9012081D0
S1131D60287FFC0120831092090242C38091030161
S1131D7090910401880F991F880F991F880F991F4C
S1131D809C01ADECBCEC0E946A3F969587959695B4
S1131D90879596958795AC01405E5F4F80912703A8
S1131DA090912803489F9001499F300D589F300D12
S1131DB011248091030190910401820F931FBC01AF
S1131DC088E491E00E9443201092000111C381E055
S1131DD0809305010E9465190BC3809105010E943F
S1131DE06B1D06C3809105010E94EF1A01C30E9476
S1131DF0D619FEC2809105018150809305010E948D
S1131E006519F6C2809105018F5F809305010E94D8
S1131E106519EEC28091050161E20E94341DE8C299
S1131E208091050162E20E94341DE2C280910501A5
S1131E3063E20E94341DDCC28091050164E20E94C9
S1131E40341DD6C28091050165E20E94341DD0C2C2
S1131E508091050166E20E94341DCAC28091050189
S1131E6067E20E94341DC4C28091050168E20E94A9
S1131E70341DBEC2809107010E945D28B9C281E071
S1131E8080930701109233031092340310923503A8
S1131E9010923603109237031092380310923903CC
S1131EA010923A0310923203A3C2809137039091A7
S1131EB03803A0913903B0913A03892B8A2B8B2BD9
S1131EC041F486E080933203809107010E945D28EB
S1131ED08FC28091370390913803A0913903B09158
S1131EE03A03BC01CD010E940A04882341F088E032
S1131EF080933203809107010E945D2879C280910A
S1131F0031038F5F80933103809131038D3258F018
S1131F108CE28093310389E080933203809107013E
S1131F200E945D2865C2809131030E94F00460C262
S1131F3080910701882F90E005971816190624F060
S1131F4081E08093070105C080910701855080934B
S1131F500701809107010E945D284AC28091070110
S1131F60882F90E09C012B5F3F4F80913103882F95
S1131F7090E08217930754F0809107018B5F809360
S1131F800701809107010E945D282FC280913103CF
S1131F90863008F02AC281E080930701809107010E
S1131FA00E945D2822C2809107010E945E0420C223
S1131FB0809107018F5F0E945E041AC2809107011D
S1131FC08E5F0E945E0414C2809107018D5F0E949F
S1131FD05E040EC2809107018C5F0E945E0408C2F9
S1131FE08091330390913403A0913503B09136036B
S1131FF0BC01CD010E940A048A838A81882339F0B6
S11320008A818093070182E08093320303C083E0D6
S113201080933203809107010E945D28E9C1809179
S1132020070180932E0381E080932F0390912E0368
S113203080913103891740F487E0809332038091C3
S113204007010E945D28D4C190910A0287E1989FFC
S1132050802D11248B5E0E940A2080912E03682F0C
S11320608AEB99E00E94370780912F030E940C2984
S1132070BFC1809107018F5F80932E0381E080931D
S11320802F0390912E0380913103891740F487E048
S113209080933203809107010E945D28A9C1909129
S11320A00A0287E1989F802D11248B5E0E940A20EA
S11320B080912E03682F8AEB99E00E943707809164
S11320C02F030E940C2994C1809107018E5F809395
S11320D02E0381E080932F0390912E03809131038E
S11320E0891740F487E080933203809107010E94AE
S11320F05D287EC190910A0287E1989F802D11246A
S11321008B5E0E940A2080912E03682F8AEB99E04F
S11321100E94370780912F030E940C2969C1809186
S113212007018D5F80932E0381E080932F039091AC
S11321302E0380913103891740F487E080933203A2
S1132140809107010E945D2853C190910A0287E1A2
S1132150989F802D11248B5E0E940A2080912E036B
S1132160682F8AEB99E00E94370780912F030E9421
S11321700C293EC1809107018C5F80932E0381E07E
S113218080932F0390912E0380913103891740F49B
S113219087E080933203809107010E945D2828C163
S11321A090910A0287E1989F802D11248B5E0E94F2
S11321B00A2080912E03682F8AEB99E00E9437074A
S11321C080912F030E940C2913C180912F03815009
S11321D080932F0380912F03882319F481E0809347
S11321E02F0380912F030E940C2902C180912F0399
S11321F08F5F80932F0380912F03823018F082E049
S113220080932F0380912F030E940C29F1C081E059
S113221080933003809130030E949F29E9C080910C
S1132220300381508093300380913003882319F464
S113223081E080933003809130030E949F29D8C0AD
S1132240809130038F5F809330038091300384301A
S113225018F084E080933003809130030E949F291A
S1132260C7C09091070180913103891740F487E03A
S113227080933203809107010E945D28B9C0809148
S113228007010E94C30284E0809332038091070116
S11322900E945D28ADC080910701882F90E09C01C9
S11322A02F5F3F4F80913103882F90E0821793076F
S11322B044F487E080933203809107010E945D28F3
S11322C097C0809107018F5F0E94C30284E08093CE
S11322D03203809107010E945D288AC08091070122
S11322E0882F90E09C012E5F3F4F80913103882F0F
S11322F090E08217930744F487E08093320380913F
S113230007010E945D2874C0809107018E5F0E94BE
S1132310C30284E080933203809107010E945D2808
S113232067C080910701882F90E09C012D5F3F4F8B
S113233080913103882F90E08217930744F487E05B
S113234080933203809107010E945D2851C08091DF
S113235007018D5F0E94C30284E080933203809161
S113236007010E945D2844C080910701882F90E0F6
S11323709C012C5F3F4F80913103882F90E082179E
S1132380930744F487E080933203809107010E940D
S11323905D282EC0809107018C5F0E94C30284E0F7
S11323A080933203809107010E945D2821C08091AF
S11323B005010E947A1A1CC00E94C21B19C00E9407
S11323C0DF1A16C00E94CE1D13C080910C0290919A
S11323D00D02892B61F080913B03882F90E0BC01B2
S11323E089E080D304C0000003C0000001C00000E5
S11323F000000F900F900F900F90DF91CF910895F0
S1132400CF93DF93CDB7DEB780910E02882F90E093
S1132410880F991F855C934FFC0120813181809145
S11324200E02882F90E0880F991F855F934FFC015F
S1132430808191812817390721F180910E02882F1C
S113244090E020910E02222F30E0220F331F255CF2
S1132450334FF90120813181880F991F855F934F94
S1132460FC013183208380910E02882F90E0880F35
S1132470991F855F934FFC0180819181BC0183E0AA
S1132480CED280910E02882F90E0880F991F8E582B
S1132490984FFC012081318180910E02882F90E0B9
S11324A0880F991F8F569D4FFC01808191812817B9
S11324B03907B9F180910E02882F90E020910E0225
S11324C0222F30E0220F331F2E58384FF90120817C
S11324D03181880F991F8F569D4FFC0131832083D2
S11324E080910E02882F90E020910E02222F30E07E
S11324F0220F331F2F563D4FF90120813181845C17
S11325009C4FFC01208380910E02882F90E0880F5D
S1132510991F8F569D4FFC0180819181BC0186E0FB
S11325207ED280910E02882F90E0835F9C4FFC0145
S1132530208180910E02882F90E08B509D4FFC01EA
S113254080812817E9F080910E02882F90E0209175
S11325500E02222F30E0235F3C4FF90120818B5083
S11325609D4FFC01208380910E02882F90E08B50B8
S11325709D4FFC018081882F90E0BC0188E04FD200
S113258080910E02882F90E0880F991F880F991F61
S11325908555944FFC012081318142815381809182
S11325A0F1029091F202A091F302B091F402281783
S11325B039074A075B07B9F080910E02282F30E0F3
S11325C08091F1029091F202A091F302B091F40291
S11325D0220F331F220F331F2555344FF9018083F7
S11325E09183A283B38380910E02882F90E08C5A4A
S11325F09C4FFC01908180916C039817B9F08091F5
S11326000E02882F90E020916C038C5A9C4FFC01A1
S1132610208380910E02882F90E08C5A9C4FFC01FD
S11326208081882F90E0BC018EE0F9D10E94060BD6
S113263081E080930001109209020000DF91CF91A4
S11326400895CF93DF93CDB7DEB780910F02882F23
S113265090E001972091ED013091EE01880F991FD0
S1132660865A964FFC013183208380910F02882F74
S113267090E001972091EF013091F001880F991FAC
S11326808657964FFC013183208380910F02882F57
S113269090E001972091F1013091F201880F991F88
S11326A0865D964FFC013183208380910F02882F31
S11326B090E00197880F991F865A964FFC018081FC
S11326C09181BC0186E390E00E94432080910F0237
S11326D0882F90E00197880F991F8657964FFC0129
S11326E080819181BC0188E390E00E944320809125
S11326F00F02882F90E00197880F991F865D964FEF
S1132700FC0180819181BC018AE390E00E94432016
S113271004D00000DF91CF910895CF93DF9300D0D0
S11327201F92CDB7DEB71A8219821B8280910F02E5
S1132730882F90E0019799230CF40396959587953B
S1132740959587958F5F8B838B81282F2295207F8A
S113275080910F02882F90E00197837090789923DD
S113276024F401978C6F9F6F0196820F8F5F8B8388
S113277085EA8093DA058AE58093DB0588E0809317
S1132780DC0582E08093DD058B818093DE058091FA
S1132790ED019091EE01892F99278093DF058091B7
S11327A0ED019091EE018093E0058091EF0190910D
S11327B0F001892F99278093E1058091EF01909191
S11327C0F0018093E2058091F1019091F201892F4B
S11327D099278093E3058091F1019091F201809310
S11327E0E4056DE08AED95E00E94EB3C9A838983D1
S11327F089818093E50589819A81892F992780931E
S1132800E6050000809171038130E1F76DE08AED07
S113281095E00E94753C10927103109270030000C1
S11328200F900F900F90DF91CF910895CF93DF9386
S1132830CDB7DEB780910E02882F90E0880F991FE4
S1132840855C934FFC012081318180910E02882F99
S113285090E0880F991F855F934FFC0180819181DF
S113286028173907B1F080910E02882F90E020914B
S11328700E02222F30E0220F331F255F334FF90160
S113288020813181880F991F855C934FFC0131832E
S1132890208380910E02882F90E0880F991F8E5814
S11328A0984FFC012081318180910E02882F90E0A5
S11328B0880F991F8F569D4FFC01808191812817A5
S11328C03907B1F080910E02882F90E020910E021A
S11328D0222F30E0220F331F2F563D4FF901208164
S11328E03181880F991F8E58984FFC0131832083C2
S11328F080910E02882F90E0880F991F8E55984F73
S1132900FC012081318180910E02882F90E0880F94
S1132910991F8F539D4FFC0180819181281739079E
S1132920B1F080910E02882F90E020910E02222FA8
S113293030E0220F331F2F533D4FF90120813181A5
S1132940880F991F8E55984FFC013183208381E0B5
S113295080930001109209020000DF91CF91089545
S1132960CF93DF9300D000D0CDB7DEB7809186033C
S1132970882F90E0A0E0B0E089839A83AB83BC8386
S113298089819A81AB81BC812227382F492F5A2F04
S113299080918703882F90E0A0E0B0E0822B932BF6
S11329A0A42BB52B89839A83AB83BC8389819A81B9
S11329B0AB81BC812227382F492F5A2F809188035D
S11329C0882F90E0A0E0B0E0822B932BA42BB52BB2
S11329D089839A83AB83BC8389819A81AB81BC81CF
S11329E02227382F492F5A2F80918903882F90E06E
S11329F0A0E0B0E0822B932BA42BB52B89839A8380
S1132A00AB83BC8389819A81AB81BC81BC01CD013C
S1132A100F900F900F900F90DF91CF910895CF9367
S1132A20DF9300D000D000D0CDB7DEB78C837E8397
S1132A306D831A8219821B8280910E028695869577
S1132A408F5F8B838B81882F90E082959295907F06
S1132A509827807F9827982F80910E0283708F5F2C
S1132A60892B8B8385EA8093DA058AE58093DB05DD
S1132A7084E08093DC058C818093DD058B818093D9
S1132A80DE058D819E81892F99278093DF058D81B5
S1132A908093E00569E08AED95E00E94EB3C9A831F
S1132AA0898389818093E10589819A81892F992776
S1132AB08093E2050000809171038130E1F769E0C1
S1132AC08AED95E00E94753C109271031092700398
S1132AD0000026960FB6F894DEBF0FBECDBFDF917F
S1132AE0CF910895CF93DF9300D01F92CDB7DEB777
S1132AF089837B836A838981882F90E0092E000C67
S1132B00AA0BBB0B43E050E02AE030E0841B950B9A
S1132B102817390718F187569F4FFC010C94643F1E
S1132B208A819B810E94F3291AC08A819B810E9419
S1132B304E2A15C08A810E94A92A11C08A810E9446
S1132B40EE2A0DC08A810E945E2B09C08A810E94F0
S1132B50A32B05C08A810E94E82B01C0000000005D
S1132B600F900F900F90DF91CF910895CF93DF9343
S1132B70CDB7DEB71092000181E08093090281E0B5
S1132B808093080280910E02882F90E020910E021B
S1132B90222F30E0220F331F255F334FD9012D91AF
S1132BA03C91880F991F855C934FFC0131832083EE
S1132BB080910E02882F90E020910E02222F30E0A7
S1132BC02B503D4FD9012C91835F9C4FFC012083F6
S1132BD080910E02882F90E00196BC0180E390E082
S1132BE00E94432080910E02882F90E0880F991F45
S1132BF08F599D4FDC018D919C91FC0180910E02B7
S1132C00882F90E0880F991F8F599D4FDC018D917B
S1132C109C91880F991F880F991F880F991F2AE08C
S1132C2030E0B9010E942F3FCB018096AC01209186
S1132C30270330912803429FC001439F900D529F68
S1132C40900D11248E0F9F1FBC0182E390E00E941F
S1132C50432080910E02882F90E0880F991F855F92
S1132C60934FFC014081518180910E02882F90E0A6
S1132C70880F991F855F934FDC018D919C91880F7C
S1132C80991F880F991F880F991F9C01ADECBCEC0C
S1132C900E946A3F96958795969587959695879510
S1132CA0BC01605E7F4F2091270330912803629F0F
S1132CB0C001639F900D729F900D1124840F951F86
S1132CC0BC0184E390E00E94432080910E02882F8F
S1132CD090E0880F991F855F934FFC0140815181DB
S1132CE080910E02882F90E0880F991F855F934F83
S1132CF0DC018D919C91880F991F880F991F880F73
S1132D00991F9C01ADECBCEC0E946A3F9695879597
S1132D109695879596958795BC01605E7F4F209127
S1132D20270330912803629FC001639F900D729F17
S1132D30900D1124840F951FBC0186E491E00E943C
S1132D40432080910E02882F90E0880F991F8F56A0
S1132D509D4FFC0180819181BC0184E491E00E943B
S1132D60432080910E02882F90E0880F991F8F5383
S1132D709D4FDC018D919C91865B9F4F982F8827F6
S1132D80BC0180E992E00E94432080910E02882FCA
S1132D9090E08B509D4FFC018081882F90E0BC0116
S1132DA08AEB91E00E94432080910E02882F90E0EC
S1132DB08C5A9C4FDC018C91282F30E080910E02BC
S1132DC0882F90E08C5A9C4FFC018081882F90E0E2
S1132DD0880F991F880F991F880F991F4AE050E0A8
S1132DE0BA010E942F3FCB018096BC01409127037A
S1132DF050912803649FC001659F900D749F900DAE
S1132E001124820F931FBC0180EC91E00E944320A7
S1132E1080910E02882F90E0880F991F880F991FC8
S1132E208555944FFC0180819181A281B381AC01CD
S1132E30BD0188E892E00E948D2080910E02882FC7
S1132E4090E0880F991F880F991F8555944FFC01B6
S1132E5080819181A281B381AC01BD0188E591E0BB
S1132E600E948D2080910E02882F90E0880F991F78
S1132E70880F991F8555944FFC0180819181A2810F
S1132E80B3818093F1029093F202A093F302B09382
S1132E90F40280910E02882F90E08C5A9C4FDC0142
S1132EA08C9180936C030000DF91CF910895CF93B0
S1132EB0DF931F92CDB7DEB78983898180930F0298
S1132EC08981882F90E0BC0180E591E00E94432035
S1132ED08981882F90E00197880F991F865A964F11
S1132EE0FC0180819181BC0186E390E00E94432033
S1132EF08981882F90E00197880F991F8657964FF4
S1132F00FC0180819181BC0188E390E00E94432010
S1132F108981882F90E00197880F991F865D964FCD
S1132F20FC0180819181BC018AE390E00E944320EE
S1132F308981882F90E00197880F991F865A964FB0
S1132F40FC0180819181BC0182E591E00E944320D3
S1132F508981882F90E00197880F991F8657964F93
S1132F60FC0180819181BC0184E591E00E944320B1
S1132F708981882F90E00197880F991F865D964F6D
S1132F80FC0180819181BC0186E591E00E9443208F
S1132F908981882F90E00197880F991F865A964F50
S1132FA0FC01808191819093EE018093ED018981F0
S1132FB0882F90E00197880F991F8657964FFC0140
S1132FC0808191819093F0018093EF018981882F12
S1132FD090E00197880F991F865D964FFC018081D0
S1132FE091819093F2018093F10100000F90DF91A1
S1132FF0CF910895CF93DF93CDB7DEB766970FB621
S1133000F894DEBF0FBECDBF19821A8284E1E3EFCC
S1133010F1E0DE01139601900D928A95E1F781E0CB
S1133020809309021092080280911102843024F0E6
S113303083E08093110206C080911102882314F466
S1133040109211028091100288311CF0109210022B
S113305007C08091100288231CF487E1809310023A
S113306080911102082E000C990B0196880F982F5D
S1133070990F990F890F8A8385E490E025E430E065
S1133080D9012C91287FFC0120838AE50E94F62631
S1133090198245C08981882F90E02981222F30E050
S11330A0220F331FAE014F5F5F4F240F351F2E5F7A
S11330B03F4FD9014D915C9120911102022E000CD9
S11330C0330B2F5F3F4FB901469F9001479F300D4F
S11330D0569F300D1124880F991FAE014F5F5F4F2B
S11330E0840F951F0296FC01318320838981882FE8
S11330F090E0880F991F9E012F5F3F4F820F931F0F
S11331000296DC012D913C918981882F90E089966B
S1133110880F991FB901B7D789818F5F8983898106
S11331208A3008F4B7CF80911002082E000C990B56
S11331300196BC018CE390E0A6D780911002082E82
S1133140000C990B880F991F8F599D4FFC018081AA
S11331509181FC0180911002082E000C990B880FBC
S1133160991F8F599D4FDC018D919C91880F991F58
S1133170880F991F880F991F2AE030E0B9010E9437
S11331802F3FCB018096AC01209127033091280377
S1133190429FC001439F900D529F900D11248E0FAA
S11331A09F1FBC018EE390E06ED780911002082E21
S11331B0000C990B880F991F855F934FFC01408188
S11331C0518180911002082E000C990B880F991FD1
S11331D0855F934FDC018D919C91880F991F880F17
S11331E0991F880F991F9C01ADECBCEC0E946A3FAB
S11331F0969587959695879596958795BC01605E7B
S11332007F4F2091270330912803629FC001639F61
S1133210900D729F900D1124840F951FBC0180E4C2
S113322090E031D780911002082E000C990B875E34
S11332309D4FFC018081882F90E0BC0182E490E0E6
S113324022D780911002082E000C990B880F991F29
S11332508F539D4FDC018D919C91865B9F4F982FDE
S11332608827BC0180EA92E00ED780911002082ED4
S1133270000C990B880F991F880F991F8555944F3F
S1133280FC0180819181A281B381AC01BD0188E9F7
S113329092E043D78A8180936D0384E490E022EB2B
S11332A0DC012C9385E490E025E430E0F9012081F1
S11332B02560DC012C93000066960FB6F894DEBFFF
S11332C00FBECDBFDF91CF910895CF93DF9300D090
S11332D01F92CDB7DEB71B8280910501882321F4AC
S11332E081E0809305015BC080910501853020F069
S11332F084E08093050153C080910501882F90E0FC
S1133300BC0182E790E0BFD680910501882F90E050
S11333100197875D9C4FFC018081882F90E0BC0160
S113332080E790E0B0D6198237C01A822FC080910E
S11333300501882F90E0AC01415051098981282F63
S113334030E08A81882F90E0440F551F440F551FA9
S1133350440F551F240F351F220F331F220F331F15
S1133360820F931F880F991F865D974FFC01208160
S113337031818B81882F90E08E599E4FB90183D67D
S11333808B818E5F8B838A818F5F8A838A8184306D
S113339070F289818F5F89838981883030F20000DF
S11333A00F900F900F90DF91CF910895CF93DF93FB
S11333B000D0CDB7DEB7198293C01A828AC080913B
S11333C00501882F90E0BC01615071098981482F63
S11333D050E08A81882F90E020910501222F30E06F
S11333E0D90111972981E22FF0E02A81222F30E0C0
S11333F0AA0FBB1FAA0FBB1FAA0FBB1FEA0FFB1FFD
S1133400EE0FFF1FEE0FFF1F2E0F3F1F220F331F64
S11334102459334FF90120813181660F771F660FDC
S1133420771F660F771F460F571F440F551F440F12
S1133430551F840F951F880F991F865D974FFC01B8
S11334403183208380910501882F90E0AC014150A5
S113345051098981282F30E08A81882F90E0440F18
S1133460551F440F551F440F551F240F351F220F9E
S1133470331F220F331F820F931F880F991F865DFE
S1133480974FFC014081518180910501882F90E084
S113349001979C01220F331F220F331F220F331F6A
S11334A08981882F90E0820F931F9C01220F331F84
S11334B0220F331F8A81882F90E0820F931F880F79
S11334C0991F81579F4FBA010E94A73F8A818F5F3E
S11334D08A838A81843008F472CF89818F5F8983DB
S11334E08981883008F469CF00000F900F90DF9134
S11334F0CF910895CF93DF9300D01F92CDB7DEB75D
S11335008B831A82198285EA8093A5068AE58093C3
S1133510A60682E08093A7068EE48093A8068B819A
S113352081508093A90667E085EA96E00E94EB3C0F
S11335309A83898389818093AA0689819A81892FB4
S113354099278093AB0667E085EA96E00E94C13C28
S11335508B81882F90E00197875D9C4F22E0FC01CE
S113356020838B81882F90E00197875D9C4FFC011D
S11335708081882F90E0BC0180E790E084D58BE3C4
S113358090E02BE330E0F9012081622F2B81222F80
S113359030E047E050E0421B530B21E030E002C032
S11335A0220F331F4A95E2F720952623FC0120833E
S11335B000000F900F900F90DF91CF910895CF935B
S11335C0DF93CDB7DEB781E095DF82E093DF83E060
S11335D091DF84E08FDF0000DF91CF910895CF93D6
S11335E0DF9300D000D000D0CDB7DEB78E831B822E
S11335F01D821C8285EA8093A5068AE58093A6062F
S113360082E48093A7068DE18093A8068E81815081
S11336108093A906198263C01A825AC08B81882FAD
S113362090E005962E81222F30E0B9016150710996
S11336302981422F50E02A81222F30E0660F771F24
S1133640660F771F660F771F460F571F440F551FCE
S1133650440F551F240F351F220F331F265D374F8C
S1133660F90120813181232F33278B55994FFC0198
S113367020838B81882F90E006962E81222F30E0C4
S1133680B901615071092981422F50E02A81222F0A
S113369030E0660F771F660F771F660F771F460FA0
S11336A0571F440F551F440F551F240F351F220F5A
S11336B0331F265D374FF901208131818B55994F96
S11336C0FC0120838B818E5F8B838A818F5F8A8349
S11336D08A81843008F4A2CF89818F5F89838981AC
S11336E0883008F499CF67E485EA96E00E94EB3CC1
S11336F09D838C838C818093EA068C819D81892FA4
S113370099278093EB0667E485EA96E00E94C13C22
S11337108E81882F90E00197875D9C4F21E0FC010A
S113372020838E81882F90E00197875D9C4FFC0158
S11337308081882F90E0BC0180E790E0A4D48BE3E3
S113374090E02BE330E0F9012081622F2E81222FBB
S113375030E047E050E0421B530B21E030E002C070
S1133760220F331F4A95E2F720952623FC0120837C
S1133770000026960FB6F894DEBF0FBECDBFDF91D2
S1133780CF910895CF93DF93CDB7DEB7AA970FB645
S1133790F894DEBF0FBECDBF81E021DF80E090E072
S11337A0A0E4B0E489839A83AB83BC8320E030E057
S11337B04AE755E469817A818B819C810E94A43E09
S11337C0DC01CB0189A39AA3ABA3BCA320E030E026
S11337D040E85FE369A17AA18BA19CA10E94233EEA
S11337E088232CF481E090E09EA38DA33FC020E0C9
S11337F03FEF4FE757E469A17AA18BA19CA10E94F6
S1133800A03E18164CF520E030E040E251E4698116
S11338107A818B819C810E94A43EDC01CB01BC0196
S1133820CD010E94273EDC01CB019EA38DA30FC0D6
S113383080E991E098A78FA38FA198A50197F1F74C
S113384098A78FA38DA19EA101979EA38DA38DA15F
S11338509EA1892B69F714C069A17AA18BA19CA1AF
S11338600E94273EDC01CB019EA38DA38DA19EA1C6
S11338709AA789A789A59AA50197F1F79AA789A775
S113388082E0ADDE80E090E0A0E4B0E48D839E832E
S1133890AF83B88720E030E04AE755E46D817E814C
S11338A08F8198850E94A43EDC01CB018F8B988F79
S11338B0A98FBA8F20E030E040E85FE36F89788D0C
S11338C0898D9A8D0E94233E88232CF481E090E018
S11338D09C8F8B8F3FC020E03FEF4FE757E46F8909
S11338E0788D898D9A8D0E94A03E18164CF520E0A3
S11338F030E040E251E46D817E818F8198850E94A1
S1133900A43EDC01CB01BC01CD010E94273EDC01B9
S1133910CB019C8F8B8F0FC080E991E09E8F8D8FA0
S11339208D8D9E8D0197F1F79E8F8D8F8B8D9C8D44
S113393001979C8F8B8F8B8D9C8D892B69F714C07D
S11339406F89788D898D9A8D0E94273EDC01CB0189
S11339509C8F8B8F8B8D9C8D98A38F8F8F8D98A12F
S11339600197F1F798A38F8F83E039DE80E090E030
S1133970A0E4B0E489879A87AB87BC8720E030E075
S11339804AE755E469857A858B859C850E94A43E27
S1133990DC01CB018D879E87AF87B88B20E030E0B8
S11339A040E85FE36D857E858F8598890E94233E7C
S11339B088232CF481E090E09A8B898B3FC020E02F
S11339C03FEF4FE757E46D857E858F8598890E9488
S11339D0A03E18164CF520E030E040E251E4698541
S11339E07A858B859C850E94A43EDC01CB01BC01B9
S11339F0CD010E94273EDC01CB019A8B898B0FC03D
S1133A0080E991E09C8B8B8B8B899C890197F1F7E2
S1133A109C8B8B8B89899A8901979A8B898B89894D
S1133A209A89892B69F714C06D857E858F8598895D
S1133A300E94273EDC01CB019A8B898B89899A8964
S1133A409E8B8D8B8D899E890197F1F79E8B8D8B33
S1133A5084E0C5DD0000AA960FB6F894DEBF0FBE61
S1133A60CDBFDF91CF910895CF93DF9300D000D0E5
S1133A70CDB7DEB78B836C831A82198285EA809373
S1133A80A5068AE58093A60682E08093A7068C812A
S1133A908093A8068B8181508093A90667E085EA0C
S1133AA096E00E94EB3C9A83898389818093B206D5
S1133AB089819A81892F99278093B30667E085EAE3
S1133AC096E00E94C13C00000F900F900F900F9061
S1133AD0DF91CF910895CF93DF9300D01F92CDB79C
S1133AE0DEB78B831A82198285EA8093A5068AE55C
S1133AF08093A60682E08093A7068CE18093A806B3
S1133B008B8181508093A90667E085EA96E00E9444
S1133B10EB3C9A83898389818093AA0689819A815F
S1133B20892F99278093AB0667E085EA96E00E9487
S1133B30C13C8B81882F90E00197875D9C4FFC01ED
S1133B4010828B81882F90E00197875D9C4FFC0148
S1133B508081882F90E0BC0180E790E094D28BE3D1
S1133B6090E02BE330E0F9012081622F2B81222F9A
S1133B7030E047E050E0421B530B21E030E002C04C
S1133B80220F331F4A95E2F7262BFC012083000005
S1133B900F900F900F90DF91CF910895CF93DF9303
S1133BA0CDB7DEB7AA970FB6F894DEBF0FBECDBF70
S1133BB081E091DF80E090E0A0E4B0E489839A831F
S1133BC0AB83BC8320E030E04AE755E469817A8125
S1133BD08B819C810E94A43EDC01CB0189A39AA322
S1133BE0ABA3BCA320E030E040E85FE369A17AA185
S1133BF08BA19CA10E94233E88232CF481E090E0B9
S1133C009EA38DA33FC020E03FEF4FE757E469A197
S1133C107AA18BA19CA10E94A03E18164CF520E02D
S1133C2030E040E251E469817A818B819C810E9479
S1133C30A43EDC01CB01BC01CD010E94273EDC0186
S1133C40CB019EA38DA30FC080E991E098A78FA319
S1133C508FA198A50197F1F798A78FA38DA19EA195
S1133C6001979EA38DA38DA19EA1892B69F714C0F2
S1133C7069A17AA18BA19CA10E94273EDC01CB0102
S1133C809EA38DA38DA19EA19AA789A789A59AA574
S1133C900197F1F79AA789A782E01DDF80E090E001
S1133CA0A0E4B0E48D839E83AF83B88720E030E046
S1133CB04AE755E46D817E818F8198850E94A43EF8
S1133CC0DC01CB018F8B988FA98FBA8F20E030E075
S1133CD040E85FE36F89788D898D9A8D0E94233E39
S1133CE088232CF481E090E09C8F8B8F3FC020E0F0
S1133CF03FEF4FE757E46F89788D898D9A8D0E9445
S1133D00A03E18164CF520E030E040E251E46D810D
S1133D107E818F8198850E94A43EDC01CB01BC0189
S1133D20CD010E94273EDC01CB019C8F8B8F0FC0FD
S1133D3080E991E09E8F8D8F8D8D9E8D0197F1F797
S1133D409E8F8D8F8B8D9C8D01979C8F8B8F8B8DF0
S1133D509C8D892B69F714C06F89788D898D9A8D14
S1133D600E94273EDC01CB019C8F8B8F8B8D9C8D19
S1133D7098A38F8F8F8D98A10197F1F798A38F8FB8
S1133D8083E0A9DE80E090E0A0E4B0E489879A872C
S1133D90AB87BC8720E030E04AE755E469857A8543
S1133DA08B859C850E94A43EDC01CB018D879E8778
S1133DB0AF87B88B20E030E040E85FE36D857E8517
S1133DC08F8598890E94233E88232CF481E090E01B
S1133DD09A8B898B3FC020E03FEF4FE757E46D8516
S1133DE07E858F8598890E94A03E18164CF520E0A8
S1133DF030E040E251E469857A858B859C850E9498
S1133E00A43EDC01CB01BC01CD010E94273EDC01B4
S1133E10CB019A8B898B0FC080E991E09C8B8B8BB3
S1133E208B899C890197F1F79C8B8B8B89899A8963
S1133E3001979A8B898B89899A89892B69F714C090
S1133E406D857E858F8598890E94273EDC01CB0194
S1133E509A8B898B89899A899E8B8D8B8D899E8972
S1133E600197F1F79E8B8D8B84E035DE0000AA96D6
S1133E700FB6F894DEBF0FBECDBFDF91CF9108958A
S1133E80CF93DF9300D01F92CDB7DEB78B831A8216
S1133E90198285EA8093A5068AE58093A60682E0C6
S1133EA08093A7068FE18093A8068B818093A9064F
S1133EB067E085EA96E00E94EB3C9A8389838981D6
S1133EC08093AA0689819A81892F99278093AB06CA
S1133ED067E085EA96E00E94C13C00000F900F90D5
S1133EE00F90DF91CF910895CF93DF9300D01F926D
S1133EF0CDB7DEB78B8319821A82198268C090917C
S1133F002D038981292F281B8B81882F90E001970D
S1133F10982F89EF989F802D1124820F8A8389819D
S1133F20482F50E08B81882F90E09C01215031096B
S1133F30C901880F991F880F991F880F991F821B29
S1133F40930B840F951F01969C018981882F90E023
S1133F508296880F991FB90196D080912D03482F1E
S1133F6050E08981682F70E08B81882F90E09C015C
S1133F7021503109C901880F991F880F991F880F93
S1133F80991F821B930B860F971F84179507D4F4F0
S1133F908A81882F90E00197880F991F805E944F43
S1133FA0FC018081282F30E08A81882F90E00197DE
S1133FB0880F991F815E944FFC018081A90169815A
S1133FC054D102C089818FD689818F5F8983898189
S1133FD0873008F494CF00000F900F900F90DF917A
S1133FE0CF910895CF93DF93CDB7DEB780910A02C6
S1133FF0813019F48EE10ED002C081E00BD08091A3
S11340000A02682F81E090E00E949A3F0000DF914D
S1134010CF910895CF93DF9300D01F92CDB7DEB731
S11340208B831A82198285EA809347048AE58093F8
S1134030480484E08093490480E880934A0483E040
S113404080934B0410924C048B8180934D0469E05F
S113405087E494E00E94EB3C9A838983898180936E
S11340604E0489819A81892F992780934F0469E0AE
S113407087E494E00E94353C00000F900F900F906D
S1134080DF91CF910895CF93DF9300D000D000D07B
S1134090CDB7DEB79C838B837E836D831A821982AE
S11340A085EA809347048AE58093480485E08093F9
S11340B0490482E880934A048B819C81892F992743
S11340C080934B048B8180934C048D819E81892F36
S11340D0992780934D048D8180934E046AE087E490
S11340E094E00E94EB3C9A838983898180934F04F6
S11340F089819A81892F9927809350046AE087E403
S113410094E00E94353C000026960FB6F894DEBF7A
S11341100FBECDBFDF91CF910895CF93DF93CDB77D
S1134120DEB728970FB6F894DEBF0FBECDBF9C83D1
S11341308B834D835E836F8378871A82198285EA25
S1134140809347048AE58093480487E08093490478
S113415082E880934A048B819C81892F99278093DC
S11341604B048B8180934C048D819E81AF81B885F3
S11341708B2F9927AA27BB2780934D048D819E817D
S1134180AF81B885CD01AA27BB2780934E048D81CA
S11341909E81AF81B885892F9A2FAB2FBB2780933F
S11341A04F048D81809350046CE087E494E00E9476
S11341B0EB3C9A83898389818093510489819A8114
S11341C0892F9927809352046CE087E494E00E943D
S11341D0353C000028960FB6F894DEBF0FBECDBF65
S11341E0DF91CF910895CF93DF9300D000D01F9239
S11341F0CDB7DEB78B837D836C831A82198285EAFF
S1134200809347048AE58093480484E080934904BA
S113421084E880934A048B8180934B048C819D8134
S1134220892F992780934C048C8180934D0469E0F5
S113423087E494E00E94EB3C9A838983898180938C
S11342404E0489819A81892F992780934F0469E0CC
S113425087E494E00E94353C00000F900F900F908B
S11342600F900F90DF91CF910895CF93DF93CDB747
S1134270DEB727970FB6F894DEBF0FBECDBF8C8391
S11342806D835F834E8319821B821A8285EA809331
S113429047048AE58093480483E18093490482E8D3
S11342A080934A048D81882F90E08B968295929515
S11342B0907F9827807F9827892F990F990B809357
S11342C04B048D81882F90E08B968295807F80931C
S11342D04C04198230C08981882F90E0AC014A5F78
S11342E05F4F8C81682F70E080910A02282F30E0A4
S11342F0C901880F991F880F991F880F991F821B66
S1134300930B9B01280F391F8981882F90E02295F8
S11343103295307F3227207F3227820F931F845FAC
S11343209E4FFC012081CA01895B9B4FFC012083C5
S113433089818F5F89838981803168F268E187E4AC
S113434094E00E94EB3C9B838A838A8180935D0482
S11343508A819B81892F992780935E0468E187E491
S113436094E00E94353C8E819F819C012F5F3F4FDA
S11343708D81882F90E080579E4F880F991FB90137
S113438082DE000027960FB6F894DEBF0FBECDBFC5
S1134390DF91CF9108950F931F93CF93DF9300D0B4
S11343A0CDB7DEB7198232C08981082F10E0898128
S11343B08F5F37D0282FC8018D5E9D4FFC0120836D
S11343C08981882F90E08D5E9D4FFC018081882338
S11343D0D1F41A8215C08981882F90E09C01220FA4
S11343E0331F220F331F8A81882F90E0820F931F7F
S11343F08F5C9D4F2FE0FC0120838A818F5F8A832D
S11344008A81843040F389818F5F898389818630F2
S113441058F200000F900F90DF91CF911F910F91F0
S11344200895CF93DF9300D000D01F92CDB7DEB7AD
S11344308D8319821C821B8210926E0310926F036B
S113444081E08A8355C085EA8093DA058AE5809302
S1134450DB0582E08093DC0587E08093DD058D81B8
S1134460982F9295907F8A81890F8093DE0567E06B
S11344708AED95E00E94EB3C9C838B838B81809337
S1134480DF058B819C81892F99278093E00567E064
S11344908AED95E00E94753C20C08091A206882395
S11344A0E1F00E94BD3B1092A20680911605282FD0
S11344B030E08D81882F90E0AC0142955295507F79
S11344C05427407F54278A81882F90E0840F951FBA
S11344D02817390711F481E0898380916E038130B4
S11344E0E1F610926E0310926F038A818F5F8A83C4
S11344F08A81853008F4A7CF89810F900F900F909F
S11345000F900F90DF91CF910895CF93DF9300D058
S11345101F92CDB7DEB78B838B8182958F70882FE6
S113452090E00197982F990F990F8B818F70890FC5
S113453081508A838A81282F30E080911705882F43
S113454090E0A0E0B0E0220F331F220F331F255567
S1134550344FF90180839183A283B3838A81682FC6
S113456070E08A81882F90E0880F991F880F991F27
S11345708555944FFC0180819181A281B3812227CA
S1134580382F492F5A2F80911805882F90E0A0E0EA
S1134590B0E0822B932BA42BB52B9B01220F331F4E
S11345A0220F331F2555344FF90180839183A28351
S11345B0B3838A81682F70E08A81882F90E0880F06
S11345C0991F880F991F8555944FFC018081918113
S11345D0A281B3812227382F492F5A2F80911905A0
S11345E0882F90E0A0E0B0E0822B932BA42BB52B76
S11345F09B01220F331F220F331F2555344FF9011E
S113460080839183A283B3838A81682F70E08A8137
S1134610882F90E0880F991F880F991F8555944F14
S1134620FC0180819181A281B3812227382F492FF7
S11346305A2F80911A05882F90E0A0E0B0E0822BD9
S1134640932BA42BB52B9B01220F331F220F331F57
S11346502555344FF90180839183A283B3838A81E2
S1134660882F90E020911B05222F30E0880F991F9E
S1134670855F934FFC01318320838A81882F90E0EA
S11346802A81222F30E0220F331F255F334FF90197
S113469020813181522F442720911C05222F30E0A4
S11346A0242B352B880F991F855F934FFC01318391
S11346B020838A81882F90E02A81222F30E0220FE4
S11346C0331F255F334FF90120813181880F991FF2
S11346D0855C934FFC013183208380911E05882FD4
S11346E090E0909326038093250380912503909175
S11346F0260390936F0780936E07198211C08981F6
S1134700882F90E02091250330912603880F991F6C
S11347108F539D4FFC013183208389818F5F89836F
S11347208981883160F38A81882F90E02091200567
S11347308B509D4FFC0120838A81882F90E02A8131
S1134740222F30E02B503D4FF9012081835F9C4F95
S1134750FC01208380912205833070F58A81882FA3
S113476090E020912205222F30E021703327880F1A
S1134770991F8F569D4FFC01318320838A81882F96
S113478090E02A81222F30E0220F331F2F563D4F15
S1134790F90120813181880F991F8E58984FFC01AF
S11347A0318320838A81882F90E0209122058F5CB9
S11347B09D4FFC0120831DC08A81882F90E02091A9
S11347C022058F5C9D4FFC0120838A81882F90E015
S11347D0880F991F8F569D4FFC01118210828A8188
S11347E0882F90E0880F991F8E58984FFC011182F2
S11347F010828A81882F90E020912305222F30E0B7
S1134800880F991F865A964FFC01318320838A8131
S1134810882F90E02A81222F30E0220F331F265A5E
S1134820364FF90120813181522F442720912405EC
S1134830222F30E0242B352B880F991F865A964F50
S1134840FC01318320838A81882F90E02091250503
S1134850222F30E0880F991F8657964FFC01318331
S113486020838A81882F90E02A81222F30E0220F32
S1134870331F2657364FF90120813181522F4427A7
S113488020912605222F30E0242B352B880F991FE9
S11348908657964FFC01318320838A81882F90E0CC
S11348A020912705222F30E0880F991F865D964FAF
S11348B0FC01318320838A81882F90E02A81222F72
S11348C030E0220F331F265D364FF90120813181FC
S11348D0522F442720912805222F30E0242B352BFA
S11348E0880F991F865D964FFC0131832083809148
S11348F029058093080180912A058093090100000D
S11349000F900F900F90DF91CF910895CF93DF9385
S113491000D01F92CDB7DEB78B831A82198285EA45
S11349208093DA058AE58093DB0582E08093DC05D9
S113493081E08093DD058B818295807F8093DE0505
S113494067E08AED95E00E94EB3C9A838983898134
S11349508093DF0589819A81892F99278093E005C7
S113496067E08AED95E00E94753C00000F900F907F
S11349700F90DF91CF910895CF93DF931F92CDB71E
S1134980DEB719828091160582958F70898389819B
S1134990882F90E00197880F991F880F991F209105
S11349A01705875E9D4FFC0120838981882F90E045
S11349B00197880F991F880F991F01962091180558
S11349C0875E9D4FFC0120838981882F90E00197A9
S11349D0880F991F880F991F029620911905875EE9
S11349E09D4FFC0120838981882F90E00197880FD7
S11349F0991F880F991F039620911A05875E9D4F72
S1134A00FC0120838981882F90E00197880F991FEA
S1134A10880F991F20911B058F5C9D4FFC012083FB
S1134A208981882F90E00197880F991F880F991F1B
S1134A30019620911C058F5C9D4FFC012083898188
S1134A40882F90E00197880F991F880F991F02966D
S1134A5020911D058F5C9D4FFC0120838981882F47
S1134A6090E00197880F991F880F991F0396209152
S1134A701E058F5C9D4FFC0120838981882F90E067
S1134A800197880F991F880F991F20911F05222FC6
S1134A9030E0880F991F8F599D4FFC01318320838B
S1134AA08981882F90E00197880F991F880F991F9B
S1134AB02981222F30E021503109220F331F220F88
S1134AC0331F220F331F2F593D4FF90120813181AC
S1134AD0522F442720912005222F30E0242B352B00
S1134AE0880F991F8F599D4FFC0131832083898141
S1134AF0882F90E00197880F991F880F991F0196BE
S1134B0020912105222F30E0880F991F8F599D4F46
S1134B10FC01318320838981882F90E00197880FDD
S1134B20991F880F991F01962981222F30E0215067
S1134B303109220F331F220F331F2F5F3F4F220FE4
S1134B40331F2F593D4FF90120813181522F4427C2
S1134B5020912205222F30E0242B352B880F991F1A
S1134B608F599D4FFC01318320838981882F90E0E8
S1134B700197880F991F880F991F0296209123058A
S1134B80222F30E0880F991F8F599D4FFC013183EC
S1134B9020838981882F90E00197880F991F880FBF
S1134BA0991F02962981222F30E021503109220FCA
S1134BB0331F220F331F2E5F3F4F220F331F2F59F6
S1134BC03D4FF90120813181522F44272091240542
S1134BD0222F30E0242B352B880F991F8F599D4F9E
S1134BE0FC01318320838981882F90E00197880F0D
S1134BF0991F880F991F039620912505222F30E0D5
S1134C00880F991F8F599D4FFC013183208389811F
S1134C10882F90E00197880F991F880F991F03969A
S1134C202981222F30E021503109220F331F220F16
S1134C30331F2D5F3F4F220F331F2F593D4FF90173
S1134C4020813181522F442720912605222F30E0E4
S1134C50242B352B880F991F8F599D4FFC013183CD
S1134C6020838981882F90E00197880F991F880FEE
S1134C70991F209127058F5C9D4FFC01208389811A
S1134C80882F90E00197880F991F880F991F01962C
S1134C90209128058F5C9D4FFC0120838981882FFA
S1134CA090E00197880F991F880F991F0296209111
S1134CB029058F5C9D4FFC0120838981882F90E01A
S1134CC00197880F991F880F991F039620912A0531
S1134CD08F5C9D4FFC0120830E94060B00000F9007
S1134CE0DF91CF910895CF93DF9300D000D0CDB75B
S1134CF0DEB78C8319821B821A8285EA809347046B
S1134D008AE58093480483E18093490482E8809390
S1134D104A048C81882F90E08B9682959295907F9F
S1134D209827807F9827892F990F990B80934B049C
S1134D308C81882F90E08B968295807F80934C04A1
S1134D4019820BC08981882F90E00696895B9B4F5E
S1134D50FC01108289818F5F89838981803190F37E
S1134D6068E187E494E00E94EB3C9B838A838A8118
S1134D7080935D048A819B81892F992780935E04A7
S1134D8068E187E494E00E94353C8C81882F90E0B0
S1134D9080579E4F880F991F60E070E074D900001F
S1134DA00F900F900F900F90DF91CF910895CF93B4
S1134DB0DF931F92CDB7DEB710922D03198205C081
S1134DC0898191DF89818F5F898389818730C0F3ED
S1134DD081E08AD880912D03682F82E090E00E94C0
S1134DE09A3F00000F90DF91CF910895CF93DF9306
S1134DF000D01F92CDB7DEB78B831A82198285EA61
S1134E00809347048AE58093480483E080934904AF
S1134E1080E880934A048BEE80934B048B818093CB
S1134E204C0468E087E494E00E94EB3C9A83898315
S1134E30898180934D0489819A81892F9927809350
S1134E404E0468E087E494E00E94353C00000F9033
S1134E500F900F90DF91CF910895CF93DF9300D0FF
S1134E6000D000D0CDB7DEB71B821C821D821E820B
S1134E701982F6C08981882F90E0845C9C4FFC01E4
S1134E808081813009F0BDC08981882F90E08F5CDA
S1134E909D4FFC0120818981882F90E0875B9D4F85
S1134EA0FC018081281709F4ACC08981882F90E027
S1134EB02981222F30E02F5C3D4FF9012081875B4F
S1134EC09D4FFC0120838981882F90E08F5C9D4F4A
S1134ED0FC018081843008F494C08981882F90E09B
S1134EE08F5C9D4FFC0180818C3008F08AC082E386
S1134EF090E022E330E0F90120812061FC0120836D
S1134F008BE390E02BE330E0F90120812D7FFC015D
S1134F10208380912D03853418F185E480932D033B
S1134F201A8219C08A81882F90E02A81222F30E0CA
S1134F302F5F3F4F880F991F815E944F220F331FBD
S1134F40215E344FF90120813181FC0131832083BA
S1134F508A818F5F8A8380912D039A81981710F339
S1134F6080912D03882F90E02981222F30E02F5C3F
S1134F703D4FF90120812450880F991F815E944F81
S1134F80FC01208380912D03882F90E0880F991FC6
S1134F90805E944F2981FC01208380912D03882F0A
S1134FA090E0880F991F815E944FFC0120818091CD
S1134FB02D03882F90E00296880F991F622F0E947C
S1134FC09A3F80912D03882F90E0880F991F805E6F
S1134FD0944FFC01208180912D03882F90E0880F4D
S1134FE0991F0396622F0E949A3F80912D038F5F31
S1134FF080932D0380912D03682F82E090E00E941E
S11350009A3F8981882F90E08F5C9D4FFC018081BD
S1135010843048F08981882F90E08F5C9D4FFC019B
S113502080818F30D1F48981282F30E081E090E0B5
S113503002C0880F991F2A95E2F7092E000CAA0BCB
S1135040BB0B2B813C814D815E81822B932BA42B46
S1135050B52B8B839C83AD83BE8389818F5F8983CA
S11350608981883108F406CF8B819C81AD81BE8112
S11350708F3F9F4FAF4FB10591F482E390E022E35D
S113508030E0F90120812F7EFC0120838BE390E046
S11350902BE330E0F90120812260FC0120831B8294
S11350A01C821D821E82000026960FB6F894DEBF75
S11350B00FBECDBFDF91CF910895CF93DF93CDB7CE
S11350C0DEB727970FB6F894DEBF0FBECDBF8F8330
S11350D08091370390913803A0913903B0913A033A
S11350E0AC01BD018CEB91E018D880913303909111
S11350F03403A0913503B0913603AC01BD0186EBB6
S113510091E00BD880913203882F90E0BC018EE8A7
S113511090E00E94432019826FC08F81282F30E0D5
S11351208981882F90E0820F931F9C018981882FA9
S113513090E0CC96880F991FB9010E9443208F817B
S1135140282F30E08981882F90E0280F391F809123
S11351503103882F90E082179307D4F48981882F34
S113516090E0880F991F880F991F8E559E4F40E03D
S113517050E0BA010E948D208981882F90E08E5BD7
S11351809F4F880F991F64E070E00E94432031C054
S11351909F818981890F0E9402068A838A81282F30
S11351A030E08981882F90E08E5B9F4F880F991F94
S11351B0B9010E9443209F818981890F0E9477064B
S11351C0DC01CB018B839C83AD83BE838981882FD3
S11351D090E0880F991F880F991F8E559E4F9C0150
S11351E08B819C81AD81BE81AC01BD01C9010E944E
S11351F08D2089818F5F89838981853008F48DCFE3
S113520010923203000027960FB6F894DEBF0FBE4B
S1135210CDBFDF91CF910895CF93DF9300D01F923C
S1135220CDB7DEB78B838091270390912803BC010F
S113523080E990E00E944320198276C08B81882FF8
S113524090E00197982F892F880F890F880F880F76
S1135250982F8981890F8F5F8A838A81282F30E074
S11352608981882F90E0875B9F4F880F991FB90130
S11352700E9443208A81882F90E00197880F991F0C
S11352808154964FFC01408151818A81882F90E09E
S11352900197880F991F8154964FFC018081918159
S11352A0880F991F880F991F880F991F9C01ADECD7
S11352B0BCEC0E946A3F969587959695879596953E
S11352C08795BC01605E7F4F2091270330912803AE
S11352D0629FC001639F900D729F900D11249A01EB
S11352E0280F391F8981882F90E08B5A9F4F880F90
S11352F0991FB9010E9443208A81882F90E0019769
S1135300880F991F8151964FFC0120813181898139
S1135310882F90E08A579F4F880F991FB9010E94E8
S1135320432089818F5F898389818C3008F486CFFB
S113533000000F900F900F90DF91CF910895CF93BD
S1135340DF9300D000D0CDB7DEB78C831B828C8175
S1135350882F90E0BC0182E091E00E9443201982F2
S113536037C01A822FC08C81882F90E0AC01415045
S113537051098981282F30E08A81882F90E0440FD9
S1135380551F440F551F440F551F240F351F220F5F
S1135390331F220F331F820F931F880F991F815EC3
S11353A0954FFC01208131818B81882F90E08E53B1
S11353B09F4FB9010E9443208B818E5F8B838A812A
S11353C08F5F8A838A81843070F289818F5F8983B9
S11353D08981883030F200000F900F900F900F9069
S11353E0DF91CF910895CF93DF9300D000D01F9227
S11353F0CDB7DEB79D838C8319820FC08981882F36
S113540090E0880F991F855F934F2C813D81FC01AB
S11354103183208389818F5F89838981883170F307
S113542085EA8093DA058AE58093DB0584E080933E
S1135430DC0583E08093DD051092DE058C819D817F
S1135440892F99278093DF058C818093E00569E09B
S11354508AED95E00E94EB3C9B838A838A8180934A
S1135460E1058A819B81892F99278093E2050000B9
S1135470809171038130E1F769E08AED95E00E9443
S1135480753C109271031092700300000F900F90FE
S11354900F900F900F90DF91CF910895CF93DF93EA
S11354A000D000D01F92CDB7DEB79D838C831982C4
S11354B00FC08981882F90E0880F991F8F539D4FCB
S11354C02C813D81FC013183208389818F5F898315
S11354D08981883170F385EA8093DA058AE58093BF
S11354E0DB0584E08093DC0585E08093DD05109284
S11354F0DE058C819D81892F99278093DF058C811E
S11355008093E00569E08AED95E00E94EB3C9B8383
S11355108A838A818093E1058A819B81892F9927D7
S11355208093E2050000809171038130E1F769E026
S11355308AED95E00E94753C1092710310927003FD
S113554000000F900F900F900F900F90DF91CF916C
S11355500895CF93DF9300D01F92CDB7DEB78B832E
S113556085EA8093DA058AE58093DB0584E08093FD
S1135570DC0584E08093DD051092DE058B81882FA5
S113558090E0892F990F990B8093DF058B8180938D
S1135590E00569E08AED95E00E94EB3C9A838983FB
S11355A089818093E10589819A81892F9927809344
S11355B0E2050000809171038130E1F769E08AED32
S11355C095E00E94753C10927103109270030000E4
S11355D00F900F900F90DF91CF910895CF93DF93A9
S11355E000D000D0CDB7DEB78C83198225C0898165
S11355F0882F90E02C81222F30E0880F991F8F563E
S11356009D4FFC01318320838981882F90E02C8178
S1135610222F30E0880F991F8E58984FFC01318358
S113562020838981882F90E0845C9C4F2C81FC012D
S1135630208389818F5F898389818831C0F285EADB
S11356408093DA058AE58093DB0584E08093DC05AA
S113565086E08093DD051092DE058C81882F90E032
S1135660892F990F990B8093DF058C818093E00536
S113567069E08AED95E00E94EB3C9B838A838A81F2
S11356808093E1058A819B81892F99278093E20584
S11356900000809171038130E1F769E08AED95E0C3
S11356A00E94753C109271031092700300000F90D9
S11356B00F900F900F90DF91CF910895CF93DF93C8
S11356C000D01F92CDB7DEB78B8385EA8093DA05CD
S11356D08AE58093DB0584E08093DC0589E0809390
S11356E0DD051092DE058B81882F90E0892F990FBC
S11356F0990B8093DF058B818093E00569E08AED47
S113570095E00E94EB3C9A83898389818093E1052B
S113571089819A81892F99278093E20500008091DD
S113572071038130E1F769E08AED95E00E94753CF0
S1135730109271031092700300000F900F900F905D
S1135740DF91CF910895CF93DF9300D01F92CDB70F
S1135750DEB78B8385EA8093DA058AE58093DB05DF
S113576084E08093DC058CE08093DD051092DE05F7
S11357708B81882F90E0892F990F990B8093DF05F7
S11357808B818093E00569E08AED95E00E94EB3C13
S11357909A83898389818093E10589819A81892FFC
S11357A099278093E2050000809171038130E1F72D
S11357B069E08AED95E00E94753C109271031092A5
S11357C0700300000F900F900F90DF91CF91089518
S11357D0CF93DF9300D01F92CDB7DEB78B8385EADA
S11357E08093DA058AE58093DB0584E08093DC0509
S11357F08DE08093DD051092DE058B81882F90E08B
S1135800892F990F990B8093DF058B818093E00595
S113581069E08AED95E00E94EB3C9A838983898153
S11358208093E10589819A81892F99278093E205E4
S11358300000809171038130E1F769E08AED95E021
S11358400E94753C109271031092700300000F9037
S11358500F900F90DF91CF910895CF93DF93CDB741
S1135860DEB727970FB6F894DEBF0FBECDBF8D838A
S11358707F836E8387E38A8385EA8093DA058AE5EA
S11358808093DB058A8185508093DC058D8180932C
S1135890DD051092DE05198231C08981882F90E0E0
S11358A0880F991F05962981222F30E0220F331F7C
S11358B04E815F81240F351FF90120813181232F0F
S11358C0332786529A4FFC0120838981882F90E0E8
S11358D00396880F991F2981222F30E0220F331F4E
S11358E04E815F81240F351FF90120813181865259
S11358F09A4FFC01208389818F5F89838981883154
S113590060F26A818AED95E00E94EB3C9C838B8374
S11359108A81882F90E002972B8186529A4FFC014E
S113592020838A81882F90E001972B813C81232F4B
S1135930332786529A4FFC01208300008091710323
S11359408130E1F76A818AED95E00E94753C1092FE
S1135950710310927003000027960FB6F894DEBF0F
S11359600FBECDBFDF91CF910895CF92DF92EF921A
S1135970FF920F931F93CF93DF9300D01F92CDB765
S1135980DEB780E090E00E948D3F893709F4ABC018
S113599060E081E090E00E949A3F60E082E090E065
S11359A00E949A3F60E08FEF91E00E949A3F61E489
S11359B080E092E00E949A3F68E572E081E092E024
S11359C00E94A73F198253C01A824AC01B8241C059
S11359D08981482F50E08A81282F30E08B81882FDD
S11359E090E0440F551F440F551F440F551F240FBB
S11359F0351F220F331F220F331F820F931F880F6F
S1135A00991F865D974FFC01408151818981882FC0
S1135A1090E09C01220F331F220F331F220F331FEC
S1135A208A81882F90E0820F931F9C01220F331FDD
S1135A30220F331F8B81882F90E0820F931F880FD2
S1135A40991F81579F4FBA010E94A73F8B818F5F97
S1135A508B838B81843008F4BBCF8A818F5F8A83E8
S1135A608A81883008F4B2CF89818F5F89838981E4
S1135A70843008F4A9CF19822DC08981882F90E041
S1135A802981622F70E045E651E0649F9001659F93
S1135A90300D749F300D1124880F991F8E52984F2A
S1135AA0FC01318320838981882F90E0880F991F1E
S1135AB08E52984FFC01208131818981882F90E09A
S1135AC088539F4F880F991FB9010E94A73F89816E
S1135AD08F5F898389818C3280F269E780E090E06E
S1135AE00E949A3F03C181E090E00E948D3F809321
S1135AF00A0282E090E00E948D3F80932D038FEF95
S1135B0091E00E948D3F8093310380E092E00E94F7
S1135B108D3F8093060181E092E00E94953F90932F
S1135B200B0180930A01198229C08981082F10E092
S1135B308981882F90E00296880F991F0E948D3FDB
S1135B40282FC801880F991F815E944FFC01208380
S1135B508981082F10E08981882F90E0880F991F90
S1135B6003960E948D3F282FC801880F991F805EDD
S1135B70944FFC01208389818F5F898380912D0359
S1135B809981981790F2198218C08981082F10E022
S1135B908981882F90E088539F4F880F991F0E9416
S1135BA0953F9C01C801880F991F8E52984FFC01A4
S1135BB03183208389818F5F898389818C3228F3A3
S1135BC0198290C01A8287C01B827EC08981C82E28
S1135BD0D12C8A81E82EF12C8B81082F10E0898149
S1135BE0882F90E09C01220F331F220F331F220FB6
S1135BF0331F8A81882F90E0820F931F9C01220F0C
S1135C00331F220F331F8B81882F90E0820F931F45
S1135C10880F991F81579F4F0E94953F9C01C60191
S1135C20880F991F880F991F880F991F8E0D9F1D2C
S1135C30880F991F880F991F800F911F880F991F34
S1135C40865D974FFC01318320838981682F70E042
S1135C508A81482F50E08B81882F90E02981A22FE0
S1135C60B0E02A81E22FF0E02B81222F30E0AA0F4E
S1135C70BB1FAA0FBB1FAA0FBB1FEA0FFB1FEE0F10
S1135C80FF1FEE0FFF1F2E0F3F1F220F331F265D36
S1135C90374FF90120813181660F771F660F771F17
S1135CA0660F771F460F571F440F551F440F551F8C
S1135CB0840F951F880F991F8459934FFC013183DA
S1135CC020838B818F5F8B838B81843008F47ECF1C
S1135CD08A818F5F8A838A81883008F475CF8981AD
S1135CE08F5F89838981843008F46CCF00000F9022
S1135CF00F900F90DF91CF911F910F91FF90EF9034
S1135D00DF90CF900895CF93DF93CDB7DEB78AE3CA
S1135D1090E02AE330E0F90120812064FC01208333
S1135D208AE390E02AE330E0F90120812062FC015B
S1135D3020838AE390E02AE330E0F90120812061A6
S1135D40FC0120838AE390E02AE330E0F90120811A
S1135D502860FC0120838AE390E02AE330E0F90123
S1135D6020812460FC0120838AE390E02AE330E070
S1135D70F90120812260FC0120838AE390E02AE378
S1135D8030E0F90120812160FC0120838BE390E065
S1135D902BE330E0F90120812064FC0120838BE3B4
S1135DA090E02BE330E0F90120812062FC012083A4
S1135DB08BE390E02BE330E0F90120812061FC01CA
S1135DC020838BE390E02BE330E0F901208128600D
S1135DD0FC0120838BE390E02BE330E0F901208188
S1135DE02B7FFC0120838BE390E02BE330E0F9016F
S1135DF020812260FC0120838BE390E02BE330E0E0
S1135E00F90120812E7FFC01208381E390E021E3CE
S1135E1030E0F90120812061FC01208381E390E0DE
S1135E2021E330E0F90120812062FC01208382E338
S1135E3090E022E330E0F90120812F7EFC012083F1
S1135E4082E390E022E330E0F90120812062FC014A
S1135E5020830000DF91CF910895CF93DF93CDB7D6
S1135E60DEB72F970FB6F894DEBF0FBECDBF81E02B
S1135E7089830AD18FE590E02FE530E0F901208194
S1135E802068FC01208371DD80E090E0AAE7B4E49F
S1135E908A839B83AC83BD8320E030E04AE755E4EA
S1135EA06A817B818C819D810E94A43EDC01CB01AF
S1135EB08E839F83A887B98720E030E040E85FE3C2
S1135EC06E817F81888599850E94233E88232CF4E6
S1135ED081E090E09B878A873FC020E03FEF4FE757
S1135EE057E46E817F81888599850E94A03E1816AB
S1135EF04CF520E030E040E251E46A817B818C8102
S1135F009D810E94A43EDC01CB01BC01CD010E9415
