S01C000054656D704374726C426F78436F7265426F6172642E7372656343
S11300000C9450010C946D010C946D010C946D01D1
S11300100C946D010C946D010C946D010C946D01A4
S11300200C946D010C946D010C94CC250C946D0111
S11300300C94B9250C946D010C946D010C946D0114
S11300400C945C240C946D010C9418290C946D018F
S11300500C946D010C946D010C946D010C946D0164
S11300600C946D010C946D010C948E260C946D010E
S11300700C946D010C946D010C9451290C946D0138
S11300800C946D010C946D010C946D018D0996090D
S1130090A009AE09BD09C909D609E309F009FD099A
S11300A00A0A0D0A100A3D0A450A4D0A550A5D0A54
S11300B0600A710A830A860A130A890A910A940A51
S11300C0A00AD10AD70ADC0AE10AE40AEC0AF40A13
S11300D0FA0A000B060B0C0B120B180B1E0B1B0A57
S11300E02C0A240B3F0B3F0B3F0B350B3F0B3F0BF5
S11300F03F0B3F0B3F0B3F0B3F0B3F0B3F0B3F0BAC
S11301003F0B3F0B3F0B3F0B3F0B3F0B3F0B3F0B9B
S11301103F0B3F0B3F0B3F0B3F0B3F0B3F0B290BA1
S1130120392A412E5A2A412E7C2A412E8A2A412ECE
S1130130C52A412EEC2A412EF32A412E072B412EAB
S1130140412E412E5F2B412E662B412E6D2B412ECD
S1130150B82A412E412E412E412E412E412E412EB0
S1130160412E412E742B412E8A2B412EA02B412E41
S1130170B62B412ECC2B412EE22B412EF82B412EB7
S11301800E2C412E242C412E3A2C412E502C412E43
S1130190662C412E7C2C412E922C412EA82C412ED3
S11301A0BE2C412ED42C412EEA2C412E002D412E62
S11301B0162D412E2C2D412E422D412E582D412EEF
S11301C06E2D412E842D412E9A2D412EB02D412E7F
S11301D0C62D412EDC2D412EF22D412E082E412E0E
S11301E01E2E412E502A412E412E412E412E412EAB
S11301F0412E412E412E412E412E412E412E412E83
S1130200412E412E412E412E412E412E342E412E7F
S1130210412E412E412E412E412E412E412E412E62
S1130220412E412E412E412E412E412E412E412E52
S1130230412E412E412E412E412E412E412E412E42
S1130240412E412E412E412E412E412E412E412E32
S1130250412E412E412E412E412E412E412E412E22
S1130260412E412E412E412E412E412E412E412E12
S1130270412E412E412E412E412E412E412E412E02
S1130280412E412E412E412E412E412E412E412EF2
S1130290412E412E412E412E412E412E412E342AF3
S11302A011241FBECFEFD0E1DEBFCDBF11E0A0E02F
S11302B0B1E0E6ECF4E602C005900D92AA39B1076C
S11302C0D9F72CE0AAE9B1E001C01D92AE3BB20718
S11302D0E1F70E943E220C9461320C940000CF930B
S11302E0DF93CDB7DEB729970FB6F894DEBF0FBE04
S11302F0CDBF898789858930B8F499858DEC989F1D
S1130300812D1124869586958695880F282F220F96
S1130310220F820F292F281B822F882F90E0C0964E
S11303209E838D831C8225C08985893010F189853F
S11303308336F8F499858DEC989F812D1124869548
S113034086958695882F90E0C0969E838D839985A7
S11303508DEC989F812D1124869586958695880F1E
S1130360282F220F220F820FE92FE81B8E2F805D8A
S11303708C831092F8088D819E81982F8827CC0158
S1130380A0E0B0E09C01AD01406554658C81882FEC
S113039090E0A0E0B0E0822B932BA42BB52B8093AC
S11303A0F9089093FA08A093FB08B093FC0819820B
S11303B02BC08981882F90E02981222F30E0220FE1
S11303C0331F275B344FF90120813181880F991F36
S11303D08350974FFC01318320838981882F90E0DB
S11303E02981222F30E0220F331F2D5A3D4FF9016E
S11303F020813181880F991F835D964FFC013183E1
S1130400208389818F5F89838981883190F2198261
S113041051C01A8248C01B823FC08981682F70E096
S11304208A81482F50E08B81882F90E02981A22F68
S1130430B0E02A81E22FF0E02B81222F30E0AA0FD6
S1130440BB1FAA0FBB1FAA0FBB1FEA0FFB1FEE0F98
S1130450FF1FEE0FFF1F2E0F3F1F220F331F2C59BC
S1130460384FF90120813181660F771F660F771F9E
S1130470660F771F460F571F440F551F440F551F14
S1130480840F951F880F991F835A964FFC0131835F
S113049020838B818F5F8B838B81843008F4BDCF65
S11304A08A818F5F8A838A81883008F4B4CF8981F6
S11304B08F5F89838981843008F4ABCF8091620790
S11304C09091630798878F838DE1898319C089810F
S11304D0882F90E02981222F30E02F5F3F4F220F99
S11304E0331F285D384FF90120813181880F991F0E
S11304F0885D984FFC013183208389818F5F8983D4
S11305008981882321F38F8198859093290780938B
S11305102807198217C08981882F90E0880F991FB6
S1130520885D984FFC01208131818981882F90E07A
S1130530885B9F4F880F991FB9010E944C328981B3
S11305408F5F898389818E3130F361E088EF98E091
S11305500E945F0381E080930001809100010E946A
S1130560551F000029960FB6F894DEBF0FBECDBF0D
S1130570DF91CF910895CF93DF9300D000D0CDB712
S1130580DEB78C838C81882F90E00197880F991FA8
S1130590885D984FFC01808191819A838983898148
S11305A09A810E94CA048B838B810F900F900F90C5
S11305B00F90DF91CF910895CF92DF92EF92FF9247
S11305C0CF93DF93CDB7DEB727970FB6F894DEBF8E
S11305D00FBECDBF8F838F81882F90E00197880F46
S11305E0991F885D984FFC018081918104969A83BC
S11305F0898389819A810E94CA04CC01A0E0B0E079
S11306008B839C83AD83BE838B819C81AD81BE81B2
S1130610CC24D82EE92EFA2E89819A8101970E9442
S1130620CA04CC01A0E0B0E08C299D29AE29BF29E1
S11306308B839C83AD83BE838B819C81AD81BE8182
S1130640CC24D82EE92EFA2E89819A8102970E9411
S1130650CA04CC01A0E0B0E08C299D29AE29BF29B1
S11306608B839C83AD83BE838B819C81AD81BE8152
S1130670CC24D82EE92EFA2E89819A8103970E94E0
S1130680CA04CC01A0E0B0E08C299D29AE29BF2981
S11306908B839C83AD83BE838B819C81AD81BE8122
S11306A0BC01CD0127960FB6F894DEBF0FBECDBFB7
S11306B0DF91CF91FF90EF90DF90CF900895CF938B
S11306C0DF93CDB7DEB727970FB6F894DEBF0FBE22
S11306D0CDBF9E838D836F838F81882F90E0019798
S11306E0880F991F885D984FFC01808191819C83BC
S11306F08B831A82198216C02D813E8189819A8149
S1130700820F931FFC01408129813A818B819C8156
S1130710820F931F642F0E94E70389819A810196B7
S11307209A83898389819A818536914028F30000D0
S113073027960FB6F894DEBF0FBECDBFDF91CF91E1
S113074008950F931F93CF93DF93CDB7DEB7279709
S11307500FB6F894DEBF0FBECDBF9E838D836F832B
S11307608F81882F90E00197880F991F885D984F9B
S1130770FC01808191819C838B831A82198216C02B
S11307802D813E8189819A818901080F191F298150
S11307903A818B819C81820F931F0E94CA04F801C5
S11307A0808389819A8101969A83898389819A8138
S11307B08536914028F3000027960FB6F894DEBFE3
S11307C00FBECDBFDF91CF911F910F910895CF93AD
S11307D0DF93CDB7DEB764970FB6F894DEBF0FBED4
S11307E0CDBF9B8B8A8B6C8B19828A899B89892FBD
S11307F099278A838A898B830AC089818F5F898339
S11308008981853020F00E94EA2780E0BAC00E94E6
S1130810B527882391F30AC089818F5F89838981F1
S1130820853020F00E94EA2780E0ABC060E080E5DC
S11308300E94F727882381F30AC089818F5F898307
S11308408981853020F00E94EA2780E09AC08A815D
S11308500E944128882389F30AC089818F5F898394
S11308608981853020F00E94EA2780E08AC08B814C
S11308700E944128882389F30AC089818F5F898374
S11308808981853020F00E94EA2780E07AC08C8933
S11308900E944128882389F30E94EA2780E090E09F
S11308A0A0E0B0E48C839D83AE83BF8320E030E07E
S11308B04AE755E46C817D818E819F810E943D31A0
S11308C0DC01CB0188879987AA87BB8720E030E0C9
S11308D040E85FE3688579858A859B850E94B73007
S11308E088232CF481E090E09D878C873FC020E032
S11308F03FEF4FE757E4688579858A859B850E9499
S1130900383118164CF520E030E040E251E46C81B7
S11309107D818E819F810E943D31DC01CB01BC0130
S1130920CD010E94BC30DC01CB019D878C870FC0B8
S113093080E991E09F878E878E859F850197F1F7E7
S11309409F878E878C859D8501979D878C878C8555
S11309509D85892B69F714C0688579858A859B856F
S11309600E94BC30DC01CB019D878C878C859D85E2
S1130970998B888B888999890197F1F7998B888B52
S113098081E064960FB6F894DEBF0FBECDBFDF9151
S1130990CF910895CF93DF93CDB7DEB764970FB6A9
S11309A0F894DEBF0FBECDBF9C8B8B8B19828B89D5
S11309B09C89892F99278A838B898B830BC0898192
S11309C08F5F89838981853028F00E94EA278FEF21
S11309D09FEFD6C00E94B527882389F30BC0898175
S11309E08F5F89838981853028F00E94EA278FEF01
S11309F09FEFC6C060E080E50E94F727882379F363
S1130A000BC089818F5F89838981853028F00E949A
S1130A10EA278FEF9FEFB4C08A810E944128882380
S1130A2081F30BC089818F5F89838981853028F0A8
S1130A300E94EA278FEF9FEFA3C08B810E94412879
S1130A40882381F30BC089818F5F898389818530F5
S1130A5028F00E94EA278FEF9FEF92C00E94B527EB
S1130A60882389F30BC089818F5F898389818530CD
S1130A7028F00E94EA278FEF9FEF82C061E080E5B3
S1130A800E94F727882379F3000080E00E947328EE
S1130A908C830E94EA2780E090E0A0E0B0E48D839C
S1130AA09E83AF83B88720E030E04AE755E46D8148
S1130AB07E818F8198850E943D31DC01CB0189873D
S1130AC09A87AB87BC8720E030E040E85FE3698524
S1130AD07A858B859C850E94B73088232CF481E02D
S1130AE090E09E878D873FC020E03FEF4FE757E4BB
S1130AF069857A858B859C850E94383118164CF55A
S1130B0020E030E040E251E46D817E818F81988560
S1130B100E943D31DC01CB01BC01CD010E94BC30FF
S1130B20DC01CB019E878D870FC080E991E0988B13
S1130B308F878F8598890197F1F7988B8F878D859B
S1130B409E8501979E878D878D859E85892B69F764
S1130B5014C069857A858B859C850E94BC30DC0134
S1130B60CB019E878D878D859E859A8B898B8989FC
S1130B709A890197F1F79A8B898B8C81882F90E061
S1130B8064960FB6F894DEBF0FBECDBFDF91CF9150
S1130B900895CF93DF9300D000D000D0CDB7DEB757
S1130BA01C821D821E82198255C01A824CC01B826F
S1130BB043C08981482F50E08A81282F30E08B81FF
S1130BC0882F90E0440F551F440F551F440F551FA5
S1130BD0240F351F220F331F220F331F820F931F41
S1130BE0880F991F8C59984F24EF31E0FC01318311
S1130BF020838981482F50E08A81282F30E08B811F
S1130C00882F90E0440F551F440F551F440F551F64
S1130C10240F351F220F331F220F331F820F931F00
S1130C20880F991F8254944F24EF31E0FC013183E3
S1130C3020838B818F5F8B838B81843008F4B9CFC1
S1130C408A818F5F8A838A81883008F4B0CF898152
S1130C508F5F89838981843008F4A7CF198233C1D7
S1130C608981882F90E0880F991F875B944F24E631
S1130C7030E0FC01318320838981882F90E0880F44
S1130C80991F8357944F24E630E0FC01318320837D
S1130C908981882F90E0880F991F8856974F24E602
S1130CA030E0FC01318320838981882F90E0880F14
S1130CB0991F8853974F24E630E0FC013183208349
S1130CC08981882F90E0880F991F8859974F24E6CF
S1130CD030E0FC01318320838981893070F489817B
S1130CE0882F90E001962AE030E0B9010E94D231C9
S1130CF0805D8E831D821C8248C089818930E0F02A
S1130D0089818336C8F48981882F90E001962AE08E
S1130D1030E0B9010E94D231CB01805D8E8389819C
S1130D20882F90E001962AE030E0B9010E94D23188
S1130D30805D8D831C8229C08981833630F189814D
S1130D40873C18F58981882F90E0019624E630E0ED
S1130D50B9010E94D231CB01805D8E838981882FB5
S1130D6090E001962AE030E0B9010E94D231CB0133
S1130D70805D8D838981882F90E001962AE030E0A0
S1130D80B9010E94D231805D8C838981282F30E0A3
S1130D908981882F90E0880F991F880F991F8751A8
S1130DA0954FFC0180819181A281B3818362220FDE
S1130DB0331F220F331F2751354FF901808391834D
S1130DC0A283B3838981682F70E08981882F90E0A2
S1130DD0880F991F880F991F8751954FFC018081B7
S1130DE09181A281B3812227382F492F5A2F8E81D6
S1130DF0882F90E0A0E0B0E0822B932BA42BB52B9E
S1130E009B01220F331F220F331F2751354FF90146
S1130E1080839183A283B3838981682F70E0898161
S1130E20882F90E0880F991F880F991F8751954F3D
S1130E30FC0180819181A281B3812227382F492F1F
S1130E405A2F8D81882F90E0A0E0B0E0822B932B65
S1130E50A42BB52B9B01220F331F220F331F2751C5
S1130E60354FF90180839183A283B3838981682FED
S1130E7070E08981882F90E0880F991F880F991F4F
S1130E808751954FFC0180819181A281B3812227F2
S1130E90382F492F5A2F8C81882F90E0A0E0B0E0A2
S1130EA0822B932BA42BB52B9B01220F331F220FD4
S1130EB0331F2751354FF90180839183A283B38374
S1130EC089818F5F89838981883108F4C9CE0000C4
S1130ED026960FB6F894DEBF0FBECDBFDF91CF913B
S1130EE00895CF93DF931F92CDB7DEB7198219828D
S1130EF0B8C18981482F50E080919D01282F880F27
S1130F00330BC901880F991F820F931F880F991FF4
S1130F10840F951F01969C018981882F90E0880F8A
S1130F20991FB9010E9470178981482F50E0809160
S1130F309D01282F880F330BC901880F991F820F39
S1130F40931F880F991F840F951F85559E4FDC01B1
S1130F508C91282F30E08981882F90E00696880FA5
S1130F60991FB9010E9470178981482F50E0809120
S1130F709D01282F880F330BC901880F991F820FF9
S1130F80931F880F991F840F951F880F991F8D50E9
S1130F909E4FFC0180819181FC018981482F50E0A2
S1130FA080919D01282F880F330BC901880F991F49
S1130FB0820F931F880F991F840F951F880F991F05
S1130FC08D509E4FDC018D919C91880F991F880F45
S1130FD0991F880F991F2AE030E0B9010E94D2318D
S1130FE0CB018096AC012091B9023091BA02429FA4
S1130FF0C001439F900D529F900D11249F01280F13
S1131000391F8981882F90E00C96880F991FB901A8
S11310100E9470178981482F50E080919D01282FEC
S1131020880F330BC901880F991F820F931F880FF4
S1131030991F840F951F880F991F875B944FFC019C
S113104080819181FC018981482F50E080919D012C
S1131050282F880F330BC901880F991F820F931F04
S1131060880F991F840F951F880F991F875B944FD2
S1131070DC018D919C91880F991F880F991F880F0F
S1131080991F2AE030E0B9010E94D231CB01809649
S1131090AC012091B9023091BA02429FC001439F32
S11310A0900D529F900D11249F01280F391F8981A3
S11310B0882F90E04296880F991FB9010E947017FB
S11310C08981482F50E080919D01282F880F330B90
S11310D0C901880F991F820F931F880F991F840FCE
S11310E0951F880F991F8D5A9D4FFC018081918116
S11310F0865B9F4F382F22278981882F90E0885E56
S11311009E4F880F991FB9010E9470178981482F3B
S113111050E080919D01282F880F330BC901880F5F
S1131120991F820F931F880F991F840F951F880F93
S1131130991F880F991F8751954FFC0180819181D8
S1131140A281B3812981222F30E0205C3F4F220FFE
S1131150331F220F331F220F331FAC01BD01C901FE
S11311600E94BA178981482F50E080919D01282F51
S1131170880F330BC901880F991F820F931F880FA3
S1131180991F840F951F8D539E4FDC018C918330E2
S113119098F18981882F90E084569F4F880F991F7A
S11311A0880F991F63E070E00E9470178981482FAF
S11311B050E080919D01282F880F330BC901880FBF
S11311C0991F820F931F880F991F840F951F8D53AA
S11311D09E4FFC018081282F30E08981882F90E088
S11311E0885B9F4F880F991F880F991F880F991F3D
S11311F0B9010E94701732C08981482F50E0809154
S11312009D01282F880F330BC901880F991F820F66
S1131210931F880F991F840F951F8D539E4FDC01D8
S11312208C91282F30E08981882F90E084569F4F3D
S1131230880F991F880F991FB9010E94701789811F
S1131240882F90E0885B9F4F880F991F880F991F04
S1131250880F991F62E070E00E94701789818F5F88
S113126089838981863008F444CE00000F90DF9191
S1131270CF910895CF93DF9300D01F92CDB7DEB7FF
S11312809B838A838091BF02882319F481E0898338
S113129030C02091BF0285E2289F812D1124922F16
S11312A0981B9695890F982F96959695892F880F58
S11312B0880F880F891B922F981B992369F49091AA
S11312C0BF0285E2989F812D1124981B9695890F62
S11312D08695869589830DC09091BF0285E2989F7B
S11312E0812D1124981B9695890F869586958F5F7D
S11312F089838A819B81CC01A0E0B0E040E050E08A
S113130029E430E0841B950B2817390708F4B7C18A
S11313108A5B9F4FFC010C94083290919C0181E000
S1131320892780939C010E941D17AAC182E390E043
S113133022E330E0F90120812F7EFC012083A0C14B
S113134080919D01815080939D0180919D0118168B
S113135014F010929D010E94710792C180919D0129
S11313608F5F80939D0180919D0183301CF083E009
S113137080939D010E94710783C180919D01982FE4
S1131380892F880F890F880F8093A0010E9468100D
S113139077C180919D01982F892F880F890F880F1D
S11313A08F5F8093A0010E9468106AC180919D01A3
S11313B0982F892F880F890F880F8E5F8093A00143
S11313C00E9468105DC180919D01982F892F880F1C
S11313D0890F880F8D5F8093A0010E94681050C10F
S11313E080919D01982F892F880F890F880F8C5F1A
S11313F08093A0010E94681043C180919D01982FA1
S1131400892F880F890F880F8B5F8093A0010E941A
S1131410681036C10E94470B33C10E94300C30C1A2
S11314200E94D20C2DC181E08093A4018091A4017B
S11314300E949B1125C18091A40181508093A40135
S11314408091A401882319F488E18093A4018091F8
S1131450A4010E949B1114C18091A4018F5F809309
S1131460A4018091A401893118F081E08093A40142
S11314708091A4010E949B1103C18091A30181501A
S11314808093A3010E943E12FBC08091A3018F5F51
S11314908093A3010E943E12F3C08091A201815067
S11314A08093A2010E943E12EBC08091A2018F5F43
S11314B08093A2010E943E12E3C00E94FE1DE0C080
S11314C080917801815080937801809178018823FC
S11314D019F481E080937801809178010E949C1630
S11314E0CFC0809178018F5F8093780190917801CB
S11314F08981981718F08981809378018091780107
S11315000E949C16BDC00E94CA0DBAC00E94640EFF
S1131510B7C081E080937801809178010E949C1685
S1131520AFC00E943E12ACC085E490E025E430E0F8
S1131530F9012081287FFC01208310929B01A0C027
S11315408091040190910501880F991F880F991FBC
S1131550880F991F9C01ADECBCEC0E940E3296954D
S113156087959695879596958795AC01405E5F4FD4
S11315708091B9029091BA02489F9001499F300D21
S1131580589F300D11248091040190910501820F20
S1131590931FBC0188E491E00E947017109201012E
S11315A06FC081E0809306010E94AB1369C08091F3
S11315B006010E94381664C0809106010E94C3147B
S11315C05FC00E941F145CC080910601815080930B
S11315D006010E94AB1354C0809106018F5F809373
S11315E006010E94AB134CC08091060161E20E9487
S11315F0971546C08091060162E20E94971540C08B
S11316008091060163E20E9497153AC08091060119
S113161064E20E94971534C08091060165E20E943D
S113162097152EC08091060166E20E94971528C086
S11316308091060167E20E94971522C080910601FD
S113164068E20E9497151CC0809100010E94551FFA
S113165017C081E08093000110926408109265081D
S113166010926608109267080BC0809107018F5F83
S113167080930701809107010E946F0101C000005F
S113168000000F900F900F90DF91CF910895CF93AA
S1131690DF93CDB7DEB78091A001882F90E0880F4B
S11316A0991F8357944FFC01808191812091A0015F
S11316B0222F30E0220F331F275B344FF9012081A2
S11316C031818217930719F18091A001882F90E04E
S11316D02091A001222F30E0220F331F2357344FD3
S11316E0F90120813181880F991F875B944FFC0198
S11316F0318320838091C10291E0980F9093C102BD
S1131700882F90E08758944F23E0FC012083809138
S1131710A001882F90E0880F991F8853994FFC01EE
S1131720208131818091A001882F90E0880F991F3A
S11317308D5D9D4FFC01808191812817390719F136
S11317408091A001882F90E02091A001222F30E009
S1131750220F331F2853394FF90120813181880F1B
S1131760991F8D5D9D4FFC01318320838091C102BF
S113177091E0980F9093C102882F90E08758944F7E
S113178026E0FC0120838091A001882F90E08156FF
S11317909D4FFC0120818091A001882F90E0895702
S11317A09D4FFC0180812817E9F08091A001882FCA
S11317B090E02091A001222F30E021563D4FF90105
S11317C0208189579D4FFC0120838091C10291E0C3
S11317D0980F9093C102882F90E08758944F28E087
S11317E0FC0120838091A001882F90E0880F991F2D
S11317F0880F991F8751954FFC01208131814281C7
S113180053818091830290918402A0918502B091CA
S11318108602281739074A075B07B9F08091A001AF
S1131820282F30E08091830290918402A091850258
S1131830B0918602220F331F220F331F2751354FD9
S1131840F90180839183A283B3830E94710781E0AD
S11318508093010110929B010000DF91CF910895C4
S1131860CF93DF931F92CDB7DEB7198280917B01AE
S113187090917C01909305018093040119821FC00B
S11318808981882F90E02091040130910501880F0F
S1131890991F875B944FFC01318320838981882FB2
S11318A090E02091040130910501880F991F83571E
S11318B0944FFC013183208389818F5F89838981DF
S11318C08831F0F28091C6069091C7069093BA02CF
S11318D08093B90280917D0190917E0190930301E0
S11318E0809302018091C4069091C5069093B8023A
S11318F08093B70219821FC08981882F90E02091BC
S1131900B7023091B802880F991F8D5A9D4FFC0180
S1131910318320838981882F90E02091B702309110
S1131920B802880F991F8850994FFC013183208396
S113193089818F5F898389818831F0F20E947107E0
S11319408091C10291E0980F9093C102882F90E09A
S11319508758944F24E0FC0120838091C10291E0D8
S1131960980F9093C102882F90E08758944F25E0F8
S1131970FC0120838091C10291E0980F9093C102F1
S1131980882F90E08758944F23E0FC01208381E066
S11319908093C20281E08093010100000F90DF91E7
S11319A0CF910895CF93DF93CDB7DEB78091A10196
S11319B0882F90E0019720917F0130918001880F5A
S11319C0991F8856974FFC01318320838091A10190
S11319D0882F90E001972091810130918201880F36
S11319E0991F8853974FFC01318320838091A10173
S11319F0882F90E001972091830130918401880F12
S1131A00991F8859974FFC01318320838091A1014C
S1131A10882F90E00197880F991F8856974FFC01F3
S1131A2080819181BC0186E390E00E9470178091CF
S1131A30A101882F90E00197880F991F8853974F31
S1131A40FC0180819181BC0188E390E00E947017C1
S1131A508091A101882F90E00197880F991F8859E0
S1131A60974FFC0180819181BC018AE390E00E9440
S1131A7070178091C10291E0980F9093C102882F52
S1131A8090E08758944F22E0FC0120830000DF910E
S1131A90CF910895CF93DF9300D01F92CDB7DEB7D7
S1131AA01A8219821B828091A101882F90E00197EC
S1131AB099230CF4039695958795959587958F5F53
S1131AC08B838B81282F2295207F8091A101882FE1
S1131AD090E0019783709078992324F401978C6F98
S1131AE09F6F0196820F8F5F8B8385EA8093300509
S1131AF08AE58093310588E08093320582E0809303
S1131B0033058B818093340580917F01909180010E
S1131B10892F99278093350580917F0190918001C9
S1131B20809336058091810190918201892F9927B4
S1131B3080933705809181019091820180933805CB
S1131B408091830190918401892F9927809339058D
S1131B50809183019091840180933A056DE080E344
S1131B6095E00E947E2F9A838983898180933B0527
S1131B7089819A81892F992780933C056DE080E3C0
S1131B8095E00E94062F00000F900F900F90DF91B8
S1131B90CF910895CF93DF93CDB7DEB78091A001A5
S1131BA0882F90E0880F991F8357944FFC01808100
S1131BB091812091A001222F30E0220F331F275B57
S1131BC0344FF9012081318182179307B1F080915C
S1131BD0A001882F90E02091A001222F30E0220F55
S1131BE0331F275B344FF90120813181880F991FFE
S1131BF08357944FFC01318320838091A001882F67
S1131C0090E0880F991F8853994FFC0120813181FE
S1131C108091A001882F90E0880F991F8D5D9D4FC2
S1131C20FC018081918128173907B1F08091A001CE
S1131C30882F90E02091A001222F30E0220F331F43
S1131C402D5D3D4FF90120813181880F991F885303
S1131C50994FFC01318320838091A001882F90E06B
S1131C60880F991F8850994FFC0120813181809100
S1131C70A001882F90E0880F991F8D5A9D4FFC0179
S1131C808081918128173907B1F08091A001882FB4
S1131C9090E02091A001222F30E0220F331F2D5A13
S1131CA03D4FF90120813181880F991F8850994F48
S1131CB0FC013183208381E08093010110929B0118
S1131CC00000DF91CF910895CF93DF93CDB7DEB7B6
S1131CD020917B0130917C01809104019091050158
S1131CE02817390789F08091040190910501909398
S1131CF07C0180937B018091040190910501BC01DA
S1131D0088E491E00E94701720917D0130917E015A
S1131D1080910201909103012817390789F080917D
S1131D2002019091030190937E0180937D01809143
S1131D30020190910301BC018AE491E00E947017B2
S1131D402091C4063091C5068091B7029091B802E3
S1131D5028173907A9F08091B7029091B80290939F
S1131D60C5068093C4068091B7029091B802865B41
S1131D709F4F982F8827BC0184E992E00E94701736
S1131D802091C6063091C7068091B9029091BA029B
S1131D9028173907D9F08091B9029091BA0290932B
S1131DA0C7068093C6064091B9025091BA0220E05A
S1131DB033E0429FC001439F900D529F900D112428
S1131DC09D5BBC018CE392E00E94701781E08093DC
S1131DD001010000DF91CF910895CF93DF9300D0EC
S1131DE000D01F92CDB7DEB79D838C8319821B82EE
S1131DF01A8285EA809330058AE58093310584E070
S1131E008093320586E080933305109235058C81EA
S1131E108093360580917901813001F519821BC0C8
S1131E208981882F90E0880F991F8D5D9D4F2C81AB
S1131E303D81FC01318320838981882F90E0880FC4
S1131E40991F8853994F2C813D81FC013183208354
S1131E5089818F5F89838981883110F38091790129
S1131E608295807F8093340569E080E395E00E9449
S1131E707E2F9B838A838A81809337058A819B8105
S1131E80892F99278093380569E080E395E00E94C3
S1131E90062F809179018F5F809379018091790178
S1131EA0873018F081E08093790100000F900F9043
S1131EB00F900F900F90DF91CF910895CF93DF9300
S1131EC000D000D0CDB7DEB78091DC02882F90E03F
S1131ED0A0E0B0E089839A83AB83BC8389819A8133
S1131EE0AB81BC812227382F492F5A2F8091DD02E4
S1131EF0882F90E0A0E0B0E0822B932BA42BB52B8D
S1131F0089839A83AB83BC8389819A81AB81BC81A9
S1131F102227382F492F5A2F8091DE02882F90E0F4
S1131F20A0E0B0E0822B932BA42BB52B89839A835A
S1131F30AB83BC8389819A81AB81BC812227382FF2
S1131F40492F5A2F8091DF02882F90E0A0E0B0E063
S1131F50822B932BA42BB52B89839A83AB83BC83CD
S1131F6089819A81AB81BC81BC01CD010F900F9016
S1131F700F900F90DF91CF910895CF93DF9300D00E
S1131F8000D000D0CDB7DEB78C837E836D831A82F8
S1131F9019821B828091A001869586958F5F8B8321
S1131FA08B81882F90E082959295907F9827807FEF
S1131FB09827982F8091A00183708F5F892B8B8342
S1131FC085EA809330058AE58093310584E0809327
S1131FD032058C81809333058B81809334058D8108
S1131FE09E81892F9927809335058D8180933605AD
S1131FF069E080E395E00E947E2F9A83898389813A
S11320008093370589819A81892F99278093380590
S113201069E080E395E00E94062F000026960FB643
S1132020F894DEBF0FBECDBFDF91CF910895CF935B
S1132030DF9300D000D01F92CDB7DEB78B837D83B2
S11320406C831A82198285EA809330058AE580932D
S1132050310584E0809332058B81809333058C8134
S11320609D81892F9927809335058C81809336052E
S113207080917A018295807F8093340569E080E3C2
S113208095E00E947E2F9A83898389818093370506
S113209089819A81892F99278093380569E080E3A3
S11320A095E00E94062F80917A018F5F80937A01D8
S11320B080917A01873018F081E080937A010000E2
S11320C00F900F900F900F900F90DF91CF91089584
S11320D0CF93DF93CDB7DEB71092010181E08093F7
S11320E09B0181E080939A018091A001882F90E068
S11320F00196BC0180E390E00E9470178091A001DA
S1132100882F90E0880F991F8D509E4FDC018D9190
S11321109C91FC018091A001882F90E0880F991F69
S11321208D509E4FDC018D919C91880F991F880FD3
S1132130991F880F991F2AE030E0B9010E94D2311B
S1132140CB018096AC012091B9023091BA02429F32
S1132150C001439F900D529F900D11248E0F9F1F1D
S1132160BC0182E390E00E9470178091A001882F47
S113217090E0880F991F875B944FFC0180819181C7
S1132180FC018091A001882F90E0880F991F875B44
S1132190944FDC018D919C91880F991F880F991F92
S11321A0880F991F2AE030E0B9010E94D231CB0197
S11321B08096AC012091B9023091BA02429FC001CD
S11321C0439F900D529F900D11248E0F9F1FBC01B1
S11321D084E390E00E9470178091A001882F90E022
S11321E0880F991F875B944FFC0180819181FC01CA
S11321F08091A001882F90E0880F991F875B944FEE
S1132200DC018D919C91880F991F880F991F880F6D
S1132210991F2AE030E0B9010E94D231CB018096A7
S1132220AC012091B9023091BA02429FC001439F90
S1132230900D529F900D11248E0F9F1FBC0186E4B8
S113224091E00E9470178091A001882F90E0880F80
S1132250991F8D5D9D4FFC0180819181BC0184E4B7
S113226091E00E9470178091A001882F90E0880F60
S1132270991F8D5A9D4FDC018D919C91865B9F4FD8
S1132280982F8827BC0180E992E00E947017809102
S1132290A001882F90E089579D4FFC018081882FF1
S11322A090E0BC0182EA91E00E9470178091A00145
S11322B0882F90E0880F991F880F991F8751954F99
S11322C0FC0180819181A281B381AC01BD0188E8C8
S11322D092E00E94BA178091A001882F90E0880FA5
S11322E0991F880F991F8751954FFC018081918117
S11322F0A281B381AC01BD0188E591E00E94BA17C7
S11323008091A001882F90E0880F991F880F991F52
S11323108751954FFC0180819181A281B381809383
S1132320830290938402A0938502B09386020000F6
S1132330DF91CF910895CF93DF931F92CDB7DEB78E
S1132340898389818093A1018981882F90E0BC01D0
S113235080E591E00E9470178981882F90E00197B1
S1132360880F991F8856974FFC0180819181BC0189
S113237086E390E00E9470178981882F90E001978E
S1132380880F991F8853974FFC0180819181BC016C
S113239088E390E00E9470178981882F90E001976C
S11323A0880F991F8859974FFC0180819181BC0146
S11323B08AE390E00E9470178981882F90E001974A
S11323C0880F991F8856974FFC0180819181BC0129
S11323D082E591E00E9470178981882F90E001972F
S11323E0880F991F8853974FFC0180819181BC010C
S11323F084E591E00E9470178981882F90E001970D
S1132400880F991F8859974FFC0180819181BC01E5
S113241086E591E00E9470178981882F90E00197EA
S1132420880F991F8856974FFC0180819181909362
S1132430800180937F018981882F90E00197880F24
S1132440991F8853974FFC01808191819093820159
S1132450809381018981882F90E00197880F991FCB
S11324608859974FFC0180819181909384018093D6
S1132470830100000F90DF91CF910895CF93DF93F4
S1132480CDB7DEB766970FB6F894DEBF0FBECDBFEB
S113249019821A8284E1E5E8F1E0DE0113960190E5
S11324A00D928A95E1F781E080939B0110929A0145
S11324B08091A301843024F083E08093A30106C0BB
S11324C08091A301882314F41092A3018091A201A6
S11324D088311CF01092A20107C08091A2018823C8
S11324E01CF487E18093A2018091A301082E000CC3
S11324F0990B0196880F982F990F990F890F8A834A
S113250085E490E025E430E0D9012C91287FFC019A
S113251020838AE50E941F1E198246C08981882F64
S113252090E02981222F30E0220F331FAE014F5F4C
S11325305F4F240F351F2E5F3F4FD9014D915C91A2
S11325402091A301022E000C330B2F5F3F4FB901E2
S1132550469F9001479F300D569F300D1124880FE0
S1132560991FAE014F5F5F4F840F951F0296FC01C8
S1132570318320838981882F90E0880F991F9E01E1
S11325802F5F3F4F820F931F0296DC012D913C91E8
S11325908981882F90E08996880F991FB9010E943C
S11325A0701789818F5F898389818A3008F4B6CF57
S11325B08091A201082E000C990B0196BC018CE3BA
S11325C090E00E9470178091A201082E000C990BD4
S11325D0880F991F8D509E4FFC0180819181FC01D1
S11325E08091A201082E000C990B880F991F8D5021
S11325F09E4FDC018D919C91880F991F880F991F24
S1132600880F991F2AE030E0B9010E94D231CB0132
S11326108096AC012091B9023091BA02429FC00168
S1132620439F900D529F900D11248E0F9F1FBC014C
S11326308EE390E00E9470178091A201082E000C96
S1132640990B880F991F875B944FFC0180819181BE
S1132650FC018091A201082E000C990B880F991F90
S1132660875B944FDC018D919C91880F991F880F93
S1132670991F880F991F2AE030E0B9010E94D231D6
S1132680CB018096AC012091B9023091BA02429FED
S1132690C001439F900D529F900D11248E0F9F1FD8
S11326A0BC0180E490E00E9470178091A201082E82
S11326B0000C990B85559E4FFC018081882F90E07A
S11326C0BC0182E490E00E9470178091A201082E60
S11326D0000C990B880F991F8D5A9D4FDC018D9129
S11326E09C91865B9F4F982F8827BC0180EA92E0DB
S11326F00E9470178091A201082E000C990B880F7C
S1132700991F880F991F8751954FFC0180819181F2
S1132710A281B381AC01BD0188E992E00E94BA179D
S11327208A818093C00284E490E022EBDC012C9344
S113273085E490E025E430E0F90120812560DC01A6
S11327402C93000066960FB6F894DEBF0FBECDBF83
S1132750DF91CF910895CF93DF9300D01F92CDB72F
S1132760DEB71B8280910601882321F481E08093E7
S113277006015EC080910601853020F084E08093DC
S1132780060156C080910601882F90E0BC0182E7C3
S113279090E00E94701780910601882F90E00197C5
S11327A085549D4FFC018081882F90E0BC0180E717
S11327B090E00E947017198238C01A8230C080914C
S11327C00601882F90E0AC01415051098981282FDE
S11327D030E08A81882F90E0440F551F440F551F25
S11327E0440F551F240F351F220F331F220F331F91
S11327F0820F931F880F991F8C59984FFC012081D9
S113280031818B81882F90E08E599E4FB9010E94AF
S113281070178B818E5F8B838A818F5F8A838A8115
S1132820843068F289818F5F89838981883028F2B6
S113283000000F900F900F90DF91CF910895CF93E8
S1132840DF9300D0CDB7DEB7198293C01A828AC055
S113285080910601882F90E0BC0161507109898143
S1132860482F50E08A81882F90E020910601222F82
S113287030E0D90111972981E22FF0E02A81222F3B
S113288030E0AA0FBB1FAA0FBB1FAA0FBB1FEA0F82
S1132890FB1FEE0FFF1FEE0FFF1F2E0F3F1F220F18
S11328A0331F2254344FF90120813181660F771F81
S11328B0660F771F660F771F460F571F440F551F6C
S11328C0440F551F840F951F880F991F8C59984FDB
S11328D0FC013183208380910601882F90E0AC01B4
S11328E0415051098981282F30E08A81882F90E056
S11328F0440F551F440F551F440F551F240F351FF8
S1132900220F331F220F331F820F931F880F991F2B
S11329108C59984FFC014081518180910601882F88
S113292090E001979C01220F331F220F331F220FC7
S1132930331F8981882F90E0820F931F9C01220FFF
S1132940331F220F331F8A81882F90E0820F931F39
S1132950880F991F81579F4FBA010E944C328A8178
S11329608F5F8A838A81843008F472CF89818F5F74
S113297089838981883008F469CF00000F900F9013
S1132980DF91CF910895CF93DF9300D000D000D092
S1132990CDB7DEB78E831B821D821C8285EA8093AD
S11329A0FB058AE58093FC0582E48093FD058DE1B7
S11329B08093FE058E8181508093FF05198263C048
S11329C01A825AC08B81882F90E005962E81222F7F
S11329D030E0B901615071092981422F50E02A8108
S11329E0222F30E0660F771F660F771F660F771F61
S11329F0460F571F440F551F440F551F240F351FF3
S1132A00220F331F2C59384FF90120813181232F94
S1132A10332785509A4FFC0120838B81882F90E0C7
S1132A2006962E81222F30E0B90161507109298167
S1132A30422F50E02A81222F30E0660F771F660F65
S1132A40771F660F771F460F571F440F551F440FFC
S1132A50551F240F351F220F331F2C59384FF901EE
S1132A602081318185509A4FFC0120838B818E5FB8
S1132A708B838A818F5F8A838A81843008F4A2CF12
S1132A8089818F5F89838981883008F499CF67E4CD
S1132A908BEF95E00E947E2F9D838C838C818093A5
S1132AA040068C819D81892F99278093410667E494
S1132AB08BEF95E00E94532F8E81882F90E0019731
S1132AC085549D4F21E0FC0120838E81882F90E066
S1132AD0019785549D4FFC018081882F90E0BC01B3
S1132AE080E790E00E9470178BE390E02BE330E0E6
S1132AF0F9012081622F2E81222F30E047E050E03F
S1132B00421B530B21E030E002C0220F331F4A95D1
S1132B10E2F720952623FC012083000026960FB6B9
S1132B20F894DEBF0FBECDBFDF91CF910895CF9350
S1132B30DF9300D000D000D0CDB7DEB78D836E8395
S1132B401A821C821B8285EA8093FB058AE58093A6
S1132B50FC058AE08093FD058E818093FE058D81BE
S1132B6081508093FF05198260C08A81882F90E08C
S1132B7005962D81222F30E0B901615071092E8113
S1132B80222F30E0A901415251092981222F30E03E
S1132B90660F771F660F771F660F771F460F571F45
S1132BA0440F551F440F551F240F351F220F331F89
S1132BB02C59384FF90120813181232F3327855037
S1132BC09A4FFC0120838A81882F90E006962D81FC
S1132BD0222F30E0B901615071092E81222F30E09B
S1132BE0A901415251092981222F30E0660F771F34
S1132BF0660F771F660F771F460F571F440F551F29
S1132C00440F551F240F351F220F331F2C59384FE3
S1132C10F9012081318185509A4FFC0120838A81FA
S1132C208E5F8A8389818F5F89838981843008F4E8
S1132C309CCF6FE08BEF95E00E947E2F9C838B836B
S1132C408B81809308068B819C81892F992780939F
S1132C5009066FE08BEF95E00E94532F0000269643
S1132C600FB6F894DEBF0FBECDBFDF91CF910895AC
S1132C70CF93DF9300D01F92CDB7DEB78B831A8238
S1132C80198285EA8093FB058AE58093FC0582E03E
S1132C908093FD058CE18093FE058B8181508093A8
S1132CA0FF0567E08BEF95E00E947E2F9A8389836E
S1132CB089818093000689819A81892F992780933D
S1132CC0010667E08BEF95E00E94532F8B81882FDC
S1132CD090E0019785549D4FFC0110828B81882FD1
S1132CE090E0019785549D4FFC018081882F90E0EE
S1132CF0BC0180E790E00E9470178BE390E02BE327
S1132D0030E0F9012081622F2B81222F30E047E04F
S1132D1050E0421B530B21E030E002C0220F331F6E
S1132D204A95E2F7262BFC01208300000F900F90B8
S1132D300F90DF91CF910895CF93DF9300D01F922E
S1132D40CDB7DEB78B8319821A8219826BC090913A
S1132D50BF028981292F281B8B81882F90E001973E
S1132D60982F89EF989F802D1124820F8A8389815F
S1132D70482F50E08B81882F90E09C01215031092D
S1132D80C901880F991F880F991F880F991F821BEB
S1132D90930B840F951F01969C018981882F90E0E5
S1132DA08296880F991FB9010E9470178091BF0203
S1132DB0482F50E08981682F70E08B81882F90E044
S1132DC09C0121503109C901880F991F880F991F4F
S1132DD0880F991F821B930B860F971F84179507E3
S1132DE0DCF48A81882F90E00197880F991F825A1A
S1132DF0954FFC018081282F30E08A81882F90E054
S1132E000197880F991F835A954FFC018081A9016E
S1132E1069810E94621803C089810E94991D898179
S1132E208F5F89838981873008F491CF00000F90E8
S1132E300F900F90DF91CF910895CF93DF93CDB78B
S1132E40DEB780919C01813021F483E00E94371722
S1132E5003C081E00E94371780919C01682F81E0B4
S1132E6090E00E943F320000DF91CF910895CF930C
S1132E70DF9300D01F92CDB7DEB78B831A821982FD
S1132E8085EA80939D038AE580939E0384E0809382
S1132E909F0380E88093A00383E08093A1031092B2
S1132EA0A2038B818093A30369E08DE993E00E94E0
S1132EB07E2F9A83898389818093A40389819A814F
S1132EC0892F99278093A50369E08DE993E00E94F7
S1132ED0C52E00000F900F900F90DF91CF910895B1
S1132EE0CF93DF9300D000D000D0CDB7DEB79C8362
S1132EF08B837E836D831A82198285EA80939D0376
S1132F008AE580939E0385E080939F0382E8809303
S1132F10A0038B819C81892F99278093A1038B81A6
S1132F208093A2038D819E81892F99278093A30387
S1132F308D818093A4036AE08DE993E00E947E2F43
S1132F409A83898389818093A50389819A81892FB2
S1132F5099278093A6036AE08DE993E00E94C52E29
S1132F60000026960FB6F894DEBF0FBECDBFDF91EA
S1132F70CF910895CF93DF93CDB7DEB728970FB6DF
S1132F80F894DEBF0FBECDBF9C838B834D835E83DD
S1132F906F8378871A82198285EA80939D038AE574
S1132FA080939E0387E080939F0382E88093A0032D
S1132FB08B819C81892F99278093A1038B81809396
S1132FC0A2038D819E81AF81B8858B2F9927AA2773
S1132FD0BB278093A3038D819E81AF81B885CD01EA
S1132FE0AA27BB278093A4038D819E81AF81B885D6
S1132FF0892F9A2FAB2FBB278093A5038D818093B4
S1133000A6036CE08DE993E00E947E2F9A83898366
S113301089818093A70389819A81892F9927809335
S1133020A8036CE08DE993E00E94C52E0000289669
S11330300FB6F894DEBF0FBECDBFDF91CF910895D8
S1133040CF93DF9300D000D01F92CDB7DEB78B8330
S11330507D836C831A82198285EA80939D038AE5B5
S113306080939E0384E080939F0384E88093A0036D
S11330708B818093A1038C819D81892F99278093D3
S1133080A2038C818093A30369E08DE993E00E94FD
S11330907E2F9A83898389818093A40389819A816D
S11330A0892F99278093A50369E08DE993E00E9415
S11330B0C52E00000F900F900F900F900F90DF918E
S11330C0CF910895CF93DF93CDB7DEB729970FB68D
S11330D0F894DEBF0FBECDBF8E836F8359874887B8
S11330E019821D821C821B821A8285EA80939D03A9
S11330F08AE580939E0383E180939F0382E8809313
S1133100A0038F81882F90E08B9682959295907F73
S11331109827807F9827892F990F990B8093A10373
S11331208F81882F90E08B968295807F8093A20375
S113313019821DC08981882F90E006962E81422F26
S113314050E02981222F30E042955295507F542738
S1133150407F5427240F351F285F3E4FF9012081FB
S113316083569C4FFC01208389818F5F89838981E9
S1133170803100F368E18DE993E00E947E2F9D8306
S11331808C838C818093B3038C819D81892F9927B3
S11331908093B40368E18DE993E00E94C52E88858D
S11331A09985099738F488859985C19693629B839C
S11331B08A8306C088859985C89693629B838A838F
S11331C08F81882F90E080579E4F880F991F9C0114
S11331D08A819B81BC01C9010E9470170000299655
S11331E00FB6F894DEBF0FBECDBFDF91CF91089527
S11331F00F931F93CF93DF9300D0CDB7DEB719821F
S113320033C08981082F10E089818F5F0E943F19A4
S1133210282FC8018B559E4FFC0120838981882F5C
S113322090E08B559E4FFC0180818823D1F41A8253
S113323015C08981882F90E09C01220F331F220F33
S1133240331F8A81882F90E0820F931F8D539E4FE6
S113325023E0FC0120838A818F5F8A838A81843002
S113326040F389818F5F89838981863050F2000021
S11332700F900F90DF91CF911F910F910895CF93ED
S1133280DF9300D000D01F92CDB7DEB78D831982B3
S11332901C821B821092C4021092C50281E08A83B0
S11332A055C085EA809330058AE58093310582E034
S11332B08093320587E0809333058D81982F929512
S11332C0907F8A81890F8093340567E080E395E0DD
S11332D00E947E2F9C838B838B81809335058B8109
S11332E09C81892F99278093360567E080E395E0D8
S11332F00E94062F20C08091F8058823E1F00E94E7
S11333004D2E1092F80580916C04282F30E08D81A9
S1133310882F90E0AC0142955295507F5427407F0E
S113332054278A81882F90E0840F951F2817390726
S113333011F481E089838091C4028130E1F6109216
S1133340C4021092C5028A818F5F8A838A81853084
S113335008F4A7CF89810F900F900F900F900F90D2
S1133360DF91CF910895CF93DF9300D01F92CDB713
S1133370DEB78B838B8182958F70882F90E00197C5
S1133380982F990F990F8B818F70890F81508A83A1
S11333908A81282F30E080916D04882F90E0A0E08E
S11333A0B0E0220F331F220F331F2751354FF9018D
S11333B080839183A283B3838A81682F70E08A819A
S11333C0882F90E0880F991F880F991F8751954F78
S11333D0FC0180819181A281B3812227382F492F5A
S11333E05A2F80916E04882F90E0A0E0B0E0822BE9
S11333F0932BA42BB52B9B01220F331F220F331FBA
S11334002751354FF90180839183A283B3838A8145
S1133410682F70E08A81882F90E0880F991F880FA9
S1133420991F8751954FFC0180819181A281B381BD
S11334302227382F492F5A2F80916F04882F90E02C
S1133440A0E0B0E0822B932BA42BB52B9B01220F81
S1133450331F220F331F2751354FF9018083918386
S1133460A283B3838A81682F70E08A81882F90E0D9
S1133470880F991F880F991F8751954FFC018081F0
S11334809181A281B3812227382F492F5A2F80910D
S11334907004882F90E0A0E0B0E0822B932BA42B43
S11334A0B52B9B01220F331F220F331F2751354F9A
S11334B0F90180839183A283B3838A81882F90E06A
S11334C020917104222F30E0880F991F875B944F5D
S11334D0FC01318320838A81882F90E02A81222F66
S11334E030E0220F331F275B344FF90120813181F3
S11334F0522F442720917204222F30E0242B352BA5
S1133500880F991F875B944FFC01318320838A8144
S1133510882F90E02A81222F30E0220F331F275B6F
S1133520344FF90120813181880F991F8357944FBB
S1133530FC013183208380917404882F90E0909360
S1133540B8028093B7028091B7029091B802909329
S1133550C5068093C406198211C08981882F90E022
S11335602091B7023091B802880F991F8D5A9D4F50
S1133570FC013183208389818F5F8983898188312C
S113358060F38A81882F90E02091760489579D4FBB
S1133590FC0120838A81882F90E02A81222F30E049
S11335A029573D4FF901208181569D4FFC0120830D
S11335B080917804833070F58A81882F90E020917F
S11335C07804222F30E021703327880F991F8D5DF6
S11335D09D4FFC01318320838A81882F90E02A81CA
S11335E0222F30E0220F331F2D5D3D4FF901208142
S11335F03181880F991F8853994FFC0131832083AF
S11336008A81882F90E0209178048D539E4FFC018D
S113361020831DC08A81882F90E0209178048D53E7
S11336209E4FFC0120838A81882F90E0880F991F88
S11336308D5D9D4FFC01118210828A81882F90E05C
S1133640880F991F8853994FFC01118210828A8137
S1133650882F90E020917904222F30E0880F991F61
S11336608856974FFC01318320838A81882F90E00C
S11336702A81222F30E0220F331F2856374FF901B9
S113368020813181522F442720917A04222F30E067
S1133690242B352B880F991F8856974FFC013183B3
S11336A020838A81882F90E020917B04222F30E0B0
S11336B0880F991F8853974FFC01318320838A8197
S11336C0882F90E02A81222F30E0220F331F2853C5
S11336D0374FF90120813181522F442720917C04F6
S11336E0222F30E0242B352B880F991F8853974FB6
S11336F0FC01318320838A81882F90E020917D040E
S1133700222F30E0880F991F8859974FFC0131838D
S113371020838A81882F90E02A81222F30E0220F93
S1133720331F2859374FF90120813181522F442703
S113373020917E04222F30E0242B352B880F991FF3
S11337408859974FFC013183208300000F900F901C
S11337500F90DF91CF910895CF93DF9300D01F9204
S1133760CDB7DEB78B831A82198285EA8093300540
S11337708AE58093310582E08093320581E080936D
S113378033058B818295807F8093340567E080E3E5
S113379095E00E947E2F9A838983898180933505E1
S11337A089819A81892F99278093360567E080E380
S11337B095E00E94062F00000F900F900F90DF916C
S11337C0CF910895CF93DF931F92CDB7DEB71982BF
S11337D080916C0482958F7089838981882F90E011
S11337E00197880F991F880F991F20916D048555A3
S11337F09E4FFC0120838981882F90E00197880FD8
S1133800991F880F991F019620916E0485559E4F2C
S1133810FC0120838981882F90E00197880F991FEC
S1133820880F991F029620916F0485559E4FFC01C5
S113383020838981882F90E00197880F991F880F32
S1133840991F03962091700485559E4FFC01208397
S11338508981882F90E00197880F991F880F991FFD
S1133860209171048D539E4FFC0120838981882F00
S113387090E00197880F991F880F991F0196209156
S113388072048D539E4FFC0120838981882F90E020
S11338900197880F991F880F991F0296209173042E
S11338A08D539E4FFC0120838981882F90E00197DE
S11338B0880F991F880F991F0396209174048D53C4
S11338C09E4FFC0120838981882F90E00197880F07
S11338D0991F880F991F20917504222F30E0880FBB
S11338E0991F8D509E4FFC01318320838981882F3D
S11338F090E00197880F991F880F991F2981222F23
S113390030E021503109220F331F220F331F220FC1
S1133910331F2D503E4FF90120813181522F44270E
S113392020917604222F30E0242B352B880F991F09
S11339308D509E4FFC01318320838981882F90E034
S11339400197880F991F880F991F0196209177047A
S1133950222F30E0880F991F8D509E4FFC01318338
S113396020838981882F90E00197880F991F880F01
S1133970991F01962981222F30E021503109220F0D
S1133980331F220F331F2F5F3F4F220F331F2D5042
S11339903E4FF90120813181522F44272091780430
S11339A0222F30E0242B352B880F991F8D509E4FEA
S11339B0FC01318320838981882F90E00197880F4F
S11339C0991F880F991F029620917904222F30E0C5
S11339D0880F991F8D509E4FFC013183208389816C
S11339E0882F90E00197880F991F880F991F0296DE
S11339F02981222F30E021503109220F331F220F59
S1133A00331F2E5F3F4F220F331F2D503E4FF901BE
S1133A1020813181522F442720917A04222F30E0D3
S1133A20242B352B880F991F8D509E4FFC01318319
S1133A3020838981882F90E00197880F991F880F30
S1133A40991F039620917B04222F30E0880F991F41
S1133A508D509E4FFC01318320838981882F90E013
S1133A600197880F991F880F991F03962981222F88
S1133A7030E021503109220F331F220F331F2D5FF5
S1133A803F4F220F331F2D503E4FF90120813181CA
S1133A90522F442720917C04222F30E0242B352BF5
S1133AA0880F991F8D509E4FFC013183208389819B
S1133AB0882F90E00197880F991F880F991F2091F4
S1133AC07D048D539E4FFC0120838981882F90E0D3
S1133AD00197880F991F880F991F019620917E04E2
S1133AE08D539E4FFC0120838981882F90E001979C
S1133AF0880F991F880F991F029620917F048D5378
S1133B009E4FFC0120838981882F90E00197880FC4
S1133B10991F880F991F0396209180048D539E4FFF
S1133B20FC0120830E94710700000F90DF91CF9168
S1133B300895CF93DF9300D000D0CDB7DEB78C8348
S1133B4019821B821A8285EA80939D038AE58093F9
S1133B509E0383E180939F0382E88093A0038C817A
S1133B60882F90E08B9682959295907F9827807FFE
S1133B709827892F990F990B8093A1038C81882F03
S1133B8090E08B968295807F8093A20319820BC06C
S1133B908981882F90E0069683569C4FFC01108201
S1133BA089818F5F89838981803190F368E18DE910
S1133BB093E00E947E2F9B838A838A818093B30340
S1133BC08A819B81892F99278093B40368E18DE9C9
S1133BD093E00E94C52E8C81882F90E080579E4FE1
S1133BE0880F991F60E070E00E94701700000F902A
S1133BF00F900F900F90DF91CF910895CF93DF93A3
S1133C001F92CDB7DEB71092BF02198206C0898118
S1133C100E94991D89818F5F898389818730B8F3D8
S1133C2081E00E949C168091BF02682F82E090E0A0
S1133C300E943F3200000F90DF91CF910895CF93FF
S1133C40DF9300D01F92CDB7DEB78B831A8219821F
S1133C5085EA80939D038AE580939E0383E08093A5
S1133C609F0380E88093A0038BEE8093A1038B8154
S1133C708093A20368E08DE993E00E947E2F9A83EB
S1133C80898389818093A30389819A81892F9927C4
S1133C908093A40368E08DE993E00E94C52E0000A0
S1133CA00F900F900F90DF91CF910895CF93DF93F2
S1133CB000D000D0CDB7DEB71C821B821982D0C0E1
S1133CC08981882F90E08D539E4FFC01208189814A
S1133CD0882F90E085529E4FFC018081281709F4BB
S1133CE0A2C08981882F90E02981222F30E02D53B2
S1133CF03E4FF901208185529E4FFC01208389812A
S1133D00882F90E08D539E4FFC018081833008F40E
S1133D108AC082E390E022E330E0F901208120614F
S1133D20FC0120838BE390E02BE330E0F901208158
S1133D302D7FFC0120838091BF02853418F185E436
S1133D408093BF021A8219C08A81882F90E02A8149
S1133D50222F30E02F5F3F4F880F991F835A954FD2
S1133D60220F331F235A354FF90120813181FC0181
S1133D70318320838A818F5F8A838091BF029A81F5
S1133D80981710F38091BF02882F90E02981222F89
S1133D9030E02D533E4FF90120812350880F991FA5
S1133DA0835A954FFC0120838091BF02882F90E0B5
S1133DB0880F991F825A954F2981FC012083809195
S1133DC0BF02882F90E0880F991F835A954FFC01FA
S1133DD020818091BF02882F90E00296880F991F5E
S1133DE0622F0E943F328091BF02882F90E0880F9B
S1133DF0991F825A954FFC0120818091BF02882F20
S1133E0090E0880F991F0396622F0E943F328091A1
S1133E10BF028F5F8093BF028091BF02682F82E050
S1133E2090E00E943F328981882F90E08D539E4F0D
S1133E30FC018081833088F48981282F30E081E07F
S1133E4090E002C0880F991F2A95E2F79C018B81AC
S1133E509C81822B932B9C838B8389818F5F8983A5
S1133E608981883108F42CCF8B819C818F3F9F40BE
S1133E7091F482E390E022E330E0F90120812F7E87
S1133E80FC0120838BE390E02BE330E0F9012081F7
S1133E902260FC0120831C821B8200000F900F9083
S1133EA00F900F90DF91CF910895CF93DF93CDB70B
S1133EB0DEB727970FB6F894DEBF0FBECDBF8F8352
S1133EC08091640890916508A0916608B091670894
S1133ED0AC01BD0186EB91E00E94BA1719826CC057
S1133EE0809107019F81891720F58981882F90E0AF
S1133EF0CC96880F991F60E070E00E94701789814A
S1133F00882F90E0880F991F880F991F8E559E4F18
S1133F1040E050E0BA010E94BA178981882F90E0EE
S1133F208E5B9F4F880F991F64E070E00E947017AA
S1133F303DC08F81282F30E08981882F90E0CC9676
S1133F40880F991FB9010E9470179F818981890F79
S1133F500E94BB028A838A81282F30E08981882FBE
S1133F6090E08E5B9F4F880F991FB9010E947017D4
S1133F709F818981890F0E94DC02DC01CB018B8344
S1133F809C83AD83BE838981882F90E0880F991F1D
S1133F90880F991F8E559E4F9C018B819C81AD810A
S1133FA0BE81AC01BD01C9010E94BA178F818F5F28
S1133FB08F8389818F5F89838981853008F490CFCD
S1133FC0000027960FB6F894DEBF0FBECDBFDF9179
S1133FD0CF910895CF92DF92EF92FF920F931F93A8
S1133FE0CF93DF9300D01F92CDB7DEB780E090E08F
S1133FF00E943132893709F49BC060E081E090E08F
S11340000E943F3260E082E090E00E943F321982D9
S113401053C01A824AC01B8241C08981482F50E094
S11340208A81282F30E08B81882F90E0440F551F20
S1134030440F551F440F551F240F351F220F331FE4
S1134040220F331F820F931F880F991F8C59984F8B
S1134050FC01408151818981882F90E09C01220FCD
S1134060331F220F331F220F331F8A81882F90E0C2
S1134070820F931F9C01220F331F220F331F8B814A
S1134080882F90E0820F931F880F991F81579F4FAD
S1134090BA010E944C328B818F5F8B838B81843079
S11340A008F4BBCF8A818F5F8A838A81883008F4C1
S11340B0B2CF89818F5F89838981843008F4A9CF45
S11340C019822DC08981882F90E02981622F70E0A8
S11340D045E651E0649F9001659F300D749F300D5B
S11340E01124880F991F885D984FFC013183208328
S11340F08981882F90E0880F991F885D984FFC0173
S1134100208131818981882F90E0885B9F4F880FBF
S1134110991FB9010E944C3289818F5F89838981FB
S11341208E3180F269E780E090E00E943F32EFC078
S113413081E090E00E94313280939C0182E090E023
S11341400E9431328093BF02198229C08981082FCD
S113415010E08981882F90E00296880F991F0E94B1
S11341603132282FC801880F991F835A954FFC01BB
S113417020838981082F10E08981882F90E0880F9F
S1134180991F03960E943132282FC801880F991F66
S1134190825A954FFC01208389818F5F89838091A6
S11341A0BF029981981790F2198218C08981082F4B
S11341B010E08981882F90E0885B9F4F880F991FBA
S11341C00E9439329C01C801880F991F885D984F5D
S11341D0FC013183208389818F5F898389818E31BA
S11341E028F3198290C01A8287C01B827EC08981FD
S11341F0C82ED12C8A81E82EF12C8B81082F10E057
S11342008981882F90E09C01220F331F220F331FD6
S1134210220F331F8A81882F90E0820F931F9C0105
S1134220220F331F220F331F8B81882F90E0820FC0
S1134230931F880F991F81579F4F0E9439329C0109
S1134240C601880F991F880F991F880F991F8E0D1B
S11342509F1D880F991F880F991F800F911F880F2A
S1134260991F8C59984FFC01318320838981682FD1
S113427070E08A81482F50E08B81882F90E029815B
S1134280A22FB0E02A81E22FF0E02B81222F30E030
S1134290AA0FBB1FAA0FBB1FAA0FBB1FEA0FFB1F4E
S11342A0EE0FFF1FEE0FFF1F2E0F3F1F220F331FB6
S11342B02C59384FF90120813181660F771F660F21
S11342C0771F660F771F460F571F440F551F440F64
S11342D0551F840F951F880F991F8254944FFC011A
S11342E0318320838B818F5F8B838B81843008F4AF
S11342F07ECF8A818F5F8A838A81883008F475CF64
S113430089818F5F89838981843008F46CCF0000B0
S11343100F900F900F90DF91CF911F910F91FF900D
S1134320EF90DF90CF900895CF93DF93CDB7DEB7B2
S11343308AE390E02AE330E0F90120812064FC0163
S113434020838AE390E02AE330E0F90120812062AF
S1134350FC0120838AE390E02AE330E0F901208124
S11343602061FC0120838AE390E02AE330E0F90134
S113437020812860FC0120838AE390E02AE330E076
S1134380F90120812460FC0120838AE390E02AE380
S113439030E0F90120812260FC0120838AE390E06F
S11343A02AE330E0F90120812160FC0120838BE3C2
S11343B090E02BE330E0F90120812064FC012083AC
S11343C08BE390E02BE330E0F90120812062FC01D3
S11343D020838BE390E02BE330E0F901208120611E
S11343E0FC0120838BE390E02BE330E0F901208192
S11343F02860FC0120838BE390E02BE330E0F9019B
S113440020812B7FFC0120838BE390E02BE330E0C1
S1134410F90120812260FC0120838BE390E02BE3EF
S113442030E0F90120812E7FFC01208381E390E0BC
S113443021E330E0F90120812061FC01208381E344
S113444090E021E330E0F90120812062FC01208327
S113445082E390E022E330E0F90120812F7EFC0129
S1134460208382E390E022E330E0F901208120629E
S1134470FC0120830000DF91CF910895CF93DF9357
S1134480CDB7DEB7CE5DD2400FB6F894DEBF0FBE17
S1134490CDBF81E089830E943A248FE590E02FE527
S11344A030E0F90120812068FC0120830E94EA1F8A
S11344B080E090E0AAE7B4E48F839887A987BA875D
S11344C020E030E04AE755E46F81788589859A8554
S11344D00E943D31DC01CB018B879C87AD87BE8771
S11344E020E030E040E85FE36B857C858D859E8528
S11344F00E94B73088232CF481E090E0988B8F875A
S11345003FC020E03FEF4FE757E46B857C858D8506
S11345109E850E94383118164CF520E030E040E2C8
S113452051E46F81788589859A850E943D31DC014B
S1134530CB01BC01CD010E94BC30DC01CB01988BC6
S11345408F870FC080E991E09A8B898B89899A893A
S11345500197F1F79A8B898B8F8598890197988BAE
S11345608F878F859889892B69F714C06B857C8523
S11345708D859E850E94BC30DC01CB01988B8F8792
S11345808F8598899C8B8B8B8B899C890197F1F7FC
S11345909C8B8B8B1D8A8091F50A9091F60AA091D1
S11345A0F70AB091F80A8E8B9F8BA88FB98FCE0132
S11345B0459661E00E945F03CE0186589E4F61E0FC
S11345C00E94A10381E00E94BB028A8381E00E94D1
S11345D0DC02DC01CB018B839C83AD83BE830E9410
S11345E0F8188091040190910501BC0188E491E0E0
S11345F00E9470178091020190910301BC018AE42A
S113460091E00E9470174091B9025091BA0220E0E3
S113461033E0429FC001439F900D529F900D11249F
S11346209D5BBC018CE392E00E9470178091B702FD
S11346309091B802865B9F4F982F8827BC0184E92C
S113464092E00E94701781E08093C8020E94710773
S11346500E941D1780916504882321F00E948A29F5
S1134660109265048091F805882321F00E944D2E54
S11346701092F8058091C702813009F0F1C0809151
S1134680C102882369F489810E94AC1B89818F5FF0
S113469089838981873008F4DFC081E08983DCC0A5
S11346A08091C102882F90E001978758944FFC01B4
S11346B08081882F90E08430910509F452C08530C0
S11346C0910534F48230910579F00397A9F0C4C0C0
S11346D08630910509F479C0863091050CF45BC0ED
S11346E0089709F4A5C0B8C00E944A0D8091C10280
S11346F081508093C102B0C08091C2028823E1F04E
S11347008091C3028F5F8093C3028091C30287307C
S113471048F48091040190910501BC0183E00E945A
S113472017109AC01092C3021092C2028091C10263
S113473081508093C10290C08091A001882F90E0A5
S1134740880F991F875B944FFC0180819181BC0184
S113475083E00E94BD0F8091C10281508093C10209
S11347607BC08091C3028F5F8093C3028091C30298
S1134770873048F48091020190910301BC0184E0E8
S11347800E94171069C01092C3028091C102815027
S11347908093C10261C08091C3028F5F8093C30282
S11347A08091C302873048F48091B7029091B80297
S11347B0BC0185E00E9417104FC01092C302809183
S11347C0C10281508093C10247C08091C2028823F4
S11347D0D1F08091C3028F5F8093C3028091C302A2
S11347E0873038F480919E0190919F010E94ED0ED4
S11347F033C01092C3021092C2028091C102815050
S11348008093C10229C08091A001882F90E0880F75
S1134810991F8D5D9D4FFC0180819181BC0186E0D3
S11348200E94BD0F8091C10281508093C10214C0C7
S11348308091A001882F90E089579D4FFC018081D1
S1134840882F90E0BC0188E00E94BD0F8091C102D6
S113485081508093C10200001092C7021092C602D8
S11348608091C902882309F4F5CE0E94561E109245
S1134870C902F0CECF93DF93CDB7DEB70E94942167
S113488089E190E00E94DF2F8FE690E00E941D30C6
S113489080E895E20E9453300E9414270E947B27EF
S11348A00E94452780E991E00E94D2280E94C90510
S11348B00000DF91CF9108951F920F9200905F0046
S11348C00F9211242F933F934F935F936F937F9392
S11348D08F939F93AF93BF93EF93FF93CF93DF9304
S11348E0CDB7DEB78FE590E02FE530E0D9012C910C
S11348F02068FC01208382E590E022EBDC012C930C
S11349008091C5028F5F8093C5028091C5028C336C
S113491028F01092C50281E08093C4028091C802FD
S1134920882329F18091C6028F5F8093C60280910B
S1134930C602843628F01092C60281E08093C70232
S11349408091CA029091CB0201969093CB028093FE
S1134950CA028091CA029091CB028C32914038F005
S11349601092CB021092CA0281E08093C902809116
S11349709B01882309F49AC08091CC029091CD02C6
S113498001969093CD028093CC028091CC029091B9
S1134990CD02883C910508F489C01092CD02109292
S11349A0CC0280919A018823C1F18091A001882FC3
S11349B090E0880F991F8D509E4FFC01808191815A
S11349C0FC018091A001882F90E0880F991F8D50E1
S11349D09E4FDC018D919C91880F991F880F991F20
S11349E0880F991F2AE030E0B9010E94D231CB012F
S11349F08096AC012091B9023091BA02429FC00165
S1134A00439F900D529F900D11248E0F9F1FBC0148
S1134A1082E390E00E94701749C08091A201082EA1
S1134A20000C990B880F991F8D509E4FFC018081BB
S1134A309181FC018091A201082E000C990B880F32
S1134A40991F8D509E4FDC018D919C91880F991F69
S1134A50880F991F880F991F2AE030E0B9010E943E
S1134A60D231CB018096AC012091B9023091BA02C7
S1134A70429FC001439F900D529F900D11248E0FB1
S1134A809F1FBC018EE390E00E9470178091A201E9
S1134A90082E000C990B85559E4FFC018081882FB0
S1134AA090E0BC0182E490E00E9470179091FA05B6
S1134AB08091CE02981739F08091FA058093CE0246
S1134AC01092CF021AC08091FA058823B1F0809128
S1134AD0CF028F5F8093CF028091CF02843068F041
S1134AE08091FA058093F90581E08093F80510928E
S1134AF0FA051092CE021092CF0290916704809131
S1134B00D002981739F0809167048093D0021092F4
S1134B10D1021AC0809167048823B1F08091D10238
S1134B208F5F8093D1028091D102843068F08091AC
S1134B3067048093660481E080936504109267049F
S1134B401092D0021092D1020000DF91CF91FF9118
S1134B50EF91BF91AF919F918F917F916F915F91F1
S1134B604F913F912F910F9000925F000F901F90F3
S1134B7018951F920F9200905F000F921124CF930B
S1134B80DF93CDB7DEB70000DF91CF910F90009295
S1134B905F000F901F9018951F920F9200905F0076
S1134BA00F9211242F933F934F935F936F937F93AF
S1134BB08F939F93AF93BF93EF93FF93CF93DF9321
S1134BC000D0CDB7DEB71A8219828FE590E02FE5C9
S1134BD030E0D9012C912068FC01208384E490E02A
S1134BE022EBDC012C938091A201082E000C990B7E
S1134BF0880F991F8D509E4FFC0180819181FC018B
S1134C008091A201082E000C990B880F991F8D50DA
S1134C109E4FDC018D919C91880F991F880F991FDD
S1134C20880F991F2AE030E0B9010E94D231CB01EC
S1134C308096AC012091B9023091BA02429FC00122
S1134C40439F900D529F900D11249F01280F391FEF
S1134C508091A201082E000C990B880F991F875B85
S1134C60944FFC0180819181FC018091A201082E66
S1134C70000C990B880F991F875B944FDC018D9171
S1134C809C91880F991F880F991F880F991F4AE0DC
S1134C9050E0BA010E94D231CB018096BC01409110
S1134CA0B9025091BA02649FC001659F900D749F30
S1134CB0900D11248E0F9F1FF901E81BF90BCF01F2
S1134CC08C599F4F9A8389838091D2028F5F8093FE
S1134CD0D2029091D2028091C002981740F01092B3
S1134CE0D20289819A81BC0181E00E9420180000CF
S1134CF00F900F90DF91CF91FF91EF91BF91AF9102
S1134D009F918F917F916F915F914F913F912F91DF
S1134D100F9000925F000F901F9018951F920F92B2
S1134D2000905F000F9211242F933F934F935F9352
S1134D308F939F93EF93FF93CF93DF93CDB7DEB71A
S1134D408091D3028F5F8093D3028091BD0B88231F
S1134D5009F059C08091D3028930A0F58091C3062F
S1134D60282F30E08091D402482F50E081E090E079
S1134D7002C0880F991F4A95E2F78223932320915A
S1134D80D402222F30E002C0959587952A95E2F748
S1134D90019751F485E390E025E330E0F9012081A7
S1134DA02068FC01208309C085E390E025E330E01E
S1134DB0F90120812F77FC0120838091D4028F5F39
S1134DC08093D4028091D302893059F41092D40292
S1134DD085E390E025E330E0F90120812068FC01BF
S1134DE020838091D3028A3071F41092D30283E03D
S1134DF08093BD0B8AE890E02AE830E0F901208135
S1134E00287FFC0120830000DF91CF91FF91EF9177
S1134E109F918F915F914F913F912F910F900092AD
S1134E205F000F901F901895CF93DF93CDB7DEB737
S1134E3083E590E023E530E0F9012081287FFC013F
S1134E40208382E590E022EBFC01208387E590E05B
S1134E5027E530E0F90120812C7FFC01208387E5E0
S1134E6090E027E530E0F90120812160FC012083F6
S1134E7083E590E023E530E0F90120812760FC011F
S1134E8020830000DF91CF910895CF93DF93CDB7B6
S1134E90DEB78EE490E02EE430E0F9012081286052
S1134EA0FC0120838EE490E02EE430E0F9012081BF
S1134EB0287FFC0120838BE490E029E0FC0120831F
S1134EC08AE490E024ECFC01208387E590E027E568
S1134ED030E0F90120812061FC0120838EE490E020
S1134EE02EE430E0F90120812360FC0120830000DE
S1134EF0DF91CF910895CF93DF93CDB7DEB785E4EB
S1134F0090E025E430E0F9012081287FFC01208332
S1134F1084E490E022EBFC01208387E590E027E520
S1134F2030E0F90120812F73FC01208387E590E0B4
S1134F3027E530E0F90120812064FC01208385E429
S1134F4090E025E430E0F90120812560FC01208314
S1134F5085E490E025E430E0F9012081287FFC011C
S1134F6020830000DF91CF910895CF93DF931F92A8
S1134F70CDB7DEB7198284E790E024EAFC012083F0
S1134F8008C089818F5F89838981893C10F080E022
S1134F901DC084E790E0FC018081882394F781E7B9
S1134FA090E0FC018081882F90E0887F9927089702
S1134FB051F081E790E0FC018081882F90E0887FA8
S1134FC09927409711F481E001C080E00F90DF91B0
S1134FD0CF910895CF93DF93CDB7DEB784E790E008
S1134FE024E9FC0120830000DF91CF910895CF9341
S1134FF0DF9300D000D0CDB7DEB78B836C831982EA
S11350008B81882F90E0880F991F982F8C81892B92
S11350108A8383E790E02A81FC01208384E790E07F
S113502024E8FC01208308C089818F5F89838981FA
S1135030893C10F080E01EC084E790E0FC01808190
S1135040882394F781E790E0FC018081882F90E029
S1135050887F9927489759F081E790E0FC01808187
S1135060882F90E0887F99278034910511F481E09E
S113507001C080E00F900F900F900F90DF91CF91BF
S11350800895CF93DF9300D0CDB7DEB78A8319821A
S113509083E790E02A81FC01208384E790E024E800
S11350A0FC01208308C089818F5F89838981893CC1
S11350B010F080E013C084E790E0FC018081882335
S11350C094F781E790E0FC018081882F90E0887F4D
S11350D09927889711F481E001C080E00F900F9028
S11350E0DF91CF910895CF93DF9300D0CDB7DEB792
S11350F08A8319828A81882339F184E790E024EC39
S1135100FC01208309C089818F5F89838981893C5F
S113511018F08FEF9FEF41C084E790E0FC0180819D
S113512088238CF781E790E0FC018081882F90E050
S1135130887F99278035910571F583E790E0FC011C
S11351408081882F90E029C084E790E024E8FC0166
S1135150208309C089818F5F89838981893C18F004
S11351608FEF9FEF1AC084E790E0FC0180818823D1
S11351708CF781E790E0FC018081882F90E0887FA4
S113518099278835910539F483E790E0FC01808103
S1135190882F90E002C08FEF9FEF0F900F90DF9168
S11351A0CF9108950F931F93CF93DF9300D0CDB782
S11351B0DEB79A83898381E790E021E730E0F90143
S11351C020812E7FFC01208381E790E021E730E0FD
S11351D0F90120812D7FFC01208300E710E0498143
S11351E05A8128EE33E0429FC001439F900D529FA5
S11351F0900D11249C0140E050E080E094E2A4EF83
S1135200B0E0BC01CD010E94E631DA01C90140974A
S1135210A109B109B695A79597958795F80180835B
S113522000000F900F90DF91CF911F910F9108957F
S11352301F920F9200905F000F9211242F933F93BF
S11352408F939F93EF93FF93CF93DF93CDB7DEB705
S11352508091670491E0980F90936704882F90E001
S11352602CE230E0F90120818B529D4FFC01208318
S113527080916704883C30F08091670480936604D1
S1135280109267040000DF91CF91FF91EF919F91FD
S11352908F913F912F910F9000925F000F901F907C
S11352A018951F920F9200905F000F9211242F9374
S11352B03F938F939F93EF93FF93CF93DF93CDB758
S11352C0DEB78091FA0591E0980F9093FA05882F44
S11352D090E02CE930E0F901208188599B4FFC01D2
S11352E020838091FA05883C30F08091FA05809300
S11352F0F9051092FA050000DF91CF91FF91EF912B
S11353009F918F913F912F910F9000925F000F908A
S11353101F901895CF93DF9300D000D000D0CDB765
S1135320DEB71C821B821E821D821A821982809122
S11353306604882F90E001978B529D4FFC01808179
S1135340882F90E09C838B838B819C81382F22272C
S113535080916604882F90E002978B529D4FFC0148
S11353608081882F90E0820F931F9C838B83809190
S1135370D902882F90E09E838D838D819E81382F62
S113538022278091DA02882F90E0822B932B9E8330
S11353908D8380916604882F90E004978B529D4FF3
S11353A0FC018081882F90E09A83898389819A8186
S11353B0382F222780916604882F90E003978B5220
S11353C09D4FFC018081882F90E0822B932B9A8340
S11353D089838091D502853A21F48091D6028A3559
S11353E029F01092650480E090E04EC48091D702C9
S11353F0882F90E09C012B5F3F4F80916604882F9B
S113540090E02817390729F01092650480E090E0B5
S11354103BC480916604682F85ED92E00E947E2F44
S11354209C018B819C812817390729F0109265040F
S113543080E090E029C48091D802833809F022C426
S11354408D819E81CC01A0E0B0E040E451E02FEBDF
S113545030E0841B950B2817390708F412C48057D1
S11354609F4FFC010C94083289819A810E943A0969
S113547009C489819A8190939F0180939E0181E060
S11354808093C2028091C10291E0980F9093C1026F
S1135490882F90E08758944F26E0FC012083F2C3C4
S11354A08091A001882F90E0298181569D4FFC01B5
S11354B02083E8C38091A001882F90E0880F991F72
S11354C08850994F29813A81FC013183208380914E
S11354D0A001882F90E0880F991F8850994FFC01F4
S11354E080819181865B9F4F982F8827BC0180E93A
S11354F092E00E947017C6C38091A001882F90E0AB
S1135500880F991F8853994F29813A81FC0131836F
S11355102083B8C38091C6069091C706892BD1F029
S113552089819A81880F991F9C01220F331F220FB2
S1135530331F820F931F805491409C01AFE8B3EE58
S11355400E940E32929582958F7089279F708927C9
S11355509A8389838091A001882F90E0880F991FF6
S11355608357944F29813A81FC01318320838AC374
S11355700E945E0FDC01CB0180938302909384022E
S1135580A0938502B09386027DC38091C606909154
S1135590C706892BD1F089819A81880F991F9C01B4
S11355A0220F331F220F331F820F931F8054914009
S11355B09C01AFE8B3EE0E940E32929582958F70F3
S11355C089279F7089279A83898389819A819093F7
S11355D07C0180937B0156C389819A8190937E01DB
S11355E080937D014FC389819A819093C5068093EE
S11355F0C4068091C4069091C506865B9F4F982F80
S11356008827BC0184E992E00E9470173BC389811A
S11356109A819093C7068093C6064091C60650911E
S1135620C70620E033E0429FC001439F900D529F84
S1135630900D11249D5BBC018CE392E00E947017D5
S11356408091C6069091C706019779F5809104016F
S113565090910501880F991F880F991F880F991F32
S11356609C01ADECBCEC0E940E3296958795969504
S1135670879596958795AC01405E5F4F8091C606ED
S11356809091C706489F9001499F300D589F300D57
S113569011248091040190910501820F931FBC0194
S11356A088E491E00E947017EDC28091040190910A
S11356B00501BC0188E491E00E947017E3C289816E
S11356C09A819093800180937F01DCC289819A81C1
S11356D09093820180938101D5C289819A819093AC
S11356E0840180938301CEC280910601882F90E0CB
S11356F00197002496958795079496958795079426
S1135700982F802D8254944F29813A81FC01318352
S11357102083B8C280910601882F90E0019700246D
S1135720969587950794969587950794982F802D3D
S11357308054944F29813A81FC0131832083A2C291
S113574080910601882F90E0019700249695879513
S11357500794969587950794982F802D8E53944F90
S113576029813A81FC01318320838CC28091060116
S1135770882F90E001970024969587950794969535
S113578087950794982F802D8C53944F29813A81C3
S1135790FC013183208376C280910601882F90E03A
S11357A00197002496958795079496958795079475
S11357B0982F802D8A53944F29813A81FC0131839B
S11357C0208360C280910601882F90E00197002415
S11357D0969587950794969587950794982F802D8D
S11357E08853944F29813A81FC01318320834AC232
S11357F080910601882F90E0019700249695879563
S11358000794969587950794982F802D8653944FE7
S113581029813A81FC013183208334C280910601BD
S1135820882F90E001970024969587950794969584
S113583087950794982F802D8453944F29813A811A
S1135840FC01318320831EC280910601882F90E0E1
S113585001970024969587950794969587950794C4
S1135860982F802D8253944F29813A81FC013183F2
S1135870208308C280910601882F90E001970024BC
S1135880969587950794969587950794982F802DDC
S11358908053944F29813A81FC0131832083F2C1E2
S11358A080910601882F90E00197002496958795B2
S11358B00794969587950794982F802D8E52944F30
S11358C029813A81FC0131832083DCC18091060166
S11358D0882F90E0019700249695879507949695D4
S11358E087950794982F802D8C52944F29813A8163
S11358F0FC0131832083C6C180910601882F90E08A
S11359000197002496958795079496958795079413
S1135910982F802D8A52944F29813A81FC0131833A
S11359202083B0C180910601882F90E00197002464
S1135930969587950794969587950794982F802D2B
S11359408852944F29813A81FC01318320839AC182
S113595080910601882F90E0019700249695879501
S11359600794969587950794982F802D8652944F87
S113597029813A81FC013183208384C1809106010D
S1135980882F90E001970024969587950794969523
S113599087950794982F802D8452944F29813A81BA
S11359A0FC01318320836EC180910601882F90E031
S11359B00197002496958795079496958795079463
S11359C0982F802D8252944F29813A81FC01318392
S11359D0208358C180910601882F90E0019700240C
S11359E0969587950794969587950794982F802D7B
S11359F08052944F29813A81FC013183208342C132
S1135A0080910601882F90E0019700249695879550
S1135A100794969587950794982F802D8E51944FCF
S1135A2029813A81FC01318320832CC180910601B4
S1135A30882F90E001970024969587950794969572
S1135A4087950794982F802D8C51944F29813A8102
S1135A50FC013183208316C180910601882F90E0D8
S1135A6001970024969587950794969587950794B2
S1135A70982F802D8A51944F29813A81FC013183DA
S1135A80208300C180910601882F90E001970024B3
S1135A90969587950794969587950794982F802DCA
S1135AA08851944F29813A81FC0131832083EAC0D3
S1135AB080910601882F90E00197002496958795A0
S1135AC00794969587950794982F802D8651944F27
S1135AD029813A81FC0131832083D4C0809106015D
S1135AE0882F90E0019700249695879507949695C2
S1135AF087950794982F802D8451944F29813A815A
S1135B00FC0131832083BEC080910601882F90E080
S1135B100197002496958795079496958795079401
S1135B20982F802D8251944F29813A81FC01318331
S1135B302083A8C080910601882F90E0019700245B
S1135B40969587950794969587950794982F802D19
S1135B508051944F29813A81FC013183208392C082
S1135B6080910601882F90E00197002496958795EF
S1135B700794969587950794982F802D8E50944F6F
S1135B8029813A81FC01318320837CC08091060104
S1135B90882F90E001970024969587950794969511
S1135BA087950794982F802D8C50944F29813A81A2
S1135BB0FC013183208366C080910601882F90E028
S1135BC00197002496958795079496958795079451
S1135BD0982F802D8A50944F29813A81FC0131837A
S1135BE0208350C080910601882F90E00197002403
S1135BF0969587950794969587950794982F802D69
S1135C008850944F29813A81FC01318320833AC022
S1135C1080910601882F90E001970024969587953E
S1135C200794969587950794982F802D8650944FC6
S1135C3029813A81FC013183208324C080910601AB
S1135C40882F90E001970024969587950794969560
S1135C5087950794982F802D8450944F29813A81F9
S1135C60FC01318320830EC00E945E0FDC01CB0156
S1135C708093640890936508A0936608B0936708BE
S1135C8001C0000080E090E026960FB6F894DEBFD5
S1135C900FBECDBFDF91CF910895CF93DF9300D096
S1135CA0CDB7DEB71A8219828091F905882F90E06A
S1135CB0019788599B4FFC018081882F90E09A833B
S1135CC0898389819A81382F22278091F905882F29
S1135CD090E0029788599B4FFC018081882F90E0C7
