:100000000C9432010C944F010C944F010C944F014D
:100010000C944F010C944F010C944F010C944F0120
:100020000C944F010C944F010C94071F0C944F013A
:100030000C94F41E0C944F010C944F010C944F013E
:100040000C94971D0C944F010C941A210C944F01A1
:100050000C944F010C944F010C944F010C944F01E0
:100060000C944F010C944F010C949E1F0C944F0163
:100070000C944F010C944F010C9453210C944F019C
:100080000C944F010C944F010C944F0132053B0529
:100090004505530562056E057B0588059505A20596
:1000A000AF05B205B505E205EA05F205FA05020657
:1000B0000506160628062B06B8052E06360639064E
:1000C000450648064E06530658065B0663066B0651
:1000D000710677067D06830689068F069506C0059C
:1000E000D1059B063B229C254A229C256C229C25FF
:1000F0007A229C258B229C2592229C2599229C2544
:10010000AD229C259C259C25C7229C25CE229C2582
:10011000D5229C2588229C259C259C259C259C25B8
:100120009C259C259C259C25DC229C25F2229C2537
:1001300008239C251E239C2534239C254A239C258B
:1001400060239C2576239C258C239C25A2239C251B
:10015000B8239C25CE239C25E4239C25FA239C25AB
:1001600010249C2526249C253C249C2552249C2537
:1001700068249C257E249C2594249C25AA249C25C7
:10018000C0249C25D6249C25EC249C2502259C2556
:1001900018259C252E259C2544259C255A259C25E3
:1001A00070259C2586259C2540229C259C259C25E8
:1001B0009C259C259C259C259C259C259C259C2537
:1001C0009C259C259C259C259C259C259C259C2527
:1001D0009C259C259C259C259C259C259C259C2517
:1001E0009C259C259C259C259C259C259C259C2507
:1001F0009C259C259C259C259C259C259C259C25F7
:100200009C259C259C259C259C259C259C259C25E6
:100210009C259C259C259C259C259C259C259C25D6
:100220009C259C259C259C259C259C259C259C25C6
:100230009C259C259C259C259C259C259C259C25B6
:100240009C259C259C259C259C259C259C259C25A6
:100250009C259C259C259C259C259C259C259C2596
:100260009C25362211241FBECFEFD0E1DEBFCDBFCB
:1002700011E0A0E0B1E0ECE5F1E502C005900D92DF
:10028000A639B107D9F72CE0A6E9B1E001C01D926B
:10029000A433B207E1F70E94F01C0C94AC280C9434
:1002A0000000CF93DF93CDB7DEB728970FB6F89451
:1002B000DEBF0FBECDBF6D837E838F8398872D8178
:1002C0003E814F81588588EE93E0DC010E945D28D5
:1002D000DC01CB0189839A83AB83BC8302C00E947B
:1002E0008E0189819A81AB81BC810197A109B109F5
:1002F00089839A83AB83BC8389819A81AB81BC81DA
:10030000892B8A2B8B2B59F7000028960FB6F8946F
:10031000DEBF0FBECDBFDF91CF910895CF93DF93A6
:100320001F92CDB7DEB780E1898301C000008981CB
:100330008150898389818823C9F700000F90DF915C
:10034000CF910895CF93DF9300D000D000D0CDB7E8
:10035000DEB71C821D821E82198255C01A824CC0D3
:100360001B8243C08981482F50E08A81282F30E0CA
:100370008B81882F90E0440F551F440F551F440F69
:10038000551F240F351F220F331F220F331F820FDB
:10039000931F880F991F8E5D984F24EF31E0FC0169
:1003A000318320838981482F50E08A81282F30E0D3
:1003B0008B81882F90E0440F551F440F551F440F29
:1003C000551F240F351F220F331F220F331F820F9B
:1003D000931F880F991F8C5C944F24EF31E0FC0130
:1003E000318320838B818F5F8B838B81843008F4F2
:1003F000B9CF8A818F5F8A838A81883008F4B0CF31
:1004000089818F5F89838981843008F4A7CF19821D
:1004100033C18981882F90E0880F991F8D52954FA5
:1004200024E630E0FC01318320838981882F90E02D
:10043000880F991F8D5F944F24E630E0FC013183D3
:1004400020838981882F90E0880F991F8E5A974FBB
:1004500024E630E0FC01318320838981882F90E0FD
:10046000880F991F8E57974F24E630E0FC013183A7
:1004700020838981882F90E0880F991F8E5D974F88
:1004800024E630E0FC01318320838981893070F4D7
:100490008981882F90E001962AE030E0B9010E941E
:1004A0001228805D8E831D821C8248C0898189301C
:1004B000E0F089818336C8F48981882F90E0019625
:1004C0002AE030E0B9010E941228CB01805D8E83C2
:1004D0008981882F90E001962AE030E0B9010E94DE
:1004E0001228805D8D831C8229C08981833630F17A
:1004F0008981873C18F58981882F90E0019624E650
:1005000030E0B9010E941228CB01805D8E83898181
:10051000882F90E001962AE030E0B9010E9412286D
:10052000CB01805D8D838981882F90E001962AE040
:1005300030E0B9010E941228805D8C838981282FC8
:1005400030E08981882F90E0880F991F880F991FCC
:10055000825C964FFC0180819181A281B38183628C
:10056000220F331F220F331F225C364FF901808385
:100570009183A283B3838981682F70E08981882F5A
:1005800090E0880F991F880F991F825C964FFC019D
:1005900080819181A281B3812227382F492F5A2F40
:1005A0008E81882F90E0A0E0B0E0822B932BA42BCB
:1005B000B52B9B01220F331F220F331F225C364FB6
:1005C000F90180839183A283B3838981682F70E0CE
:1005D0008981882F90E0880F991F880F991F825C6E
:1005E000964FFC0180819181A281B3812227382F0F
:1005F000492F5A2F8D81882F90E0A0E0B0E0822B08
:10060000932BA42BB52B9B01220F331F220F331FDB
:10061000225C364FF90180839183A283B383898161
:10062000682F70E08981882F90E0880F991F880FCC
:10063000991F825C964FFC0180819181A281B381D8
:100640002227382F492F5A2F8C81882F90E0A0E045
:10065000B0E0822B932BA42BB52B9B01220F331FD1
:10066000220F331F225C364FF90180839183A283CE
:10067000B38389818F5F89838981883108F4C9CEEA
:10068000000026960FB6F894DEBF0FBECDBFDF91F7
:10069000CF910895CF93DF931F92CDB7DEB7198224
:1006A000198284C18981482F50E080919901282FB7
:1006B000880F330BC901880F991F820F931F880F72
:1006C000991F840F951F01969C018981882F90E0C6
:1006D000880F991FB9010E94BC128981482F50E0F0
:1006E00080919901282F880F330BC901880F991F1A
:1006F000820F931F880F991F840F951F89559E4F56
:10070000DC018C91282F30E08981882F90E00696BB
:10071000880F991FB9010E94BC128981482F50E0AF
:1007200080919901282F880F330BC901880F991FD9
:10073000820F931F880F991F840F951F880F991F91
:1007400081519E4FFC0180819181FC018981482F5C
:1007500050E080919901282F880F330BC901880F31
:10076000991F820F931F880F991F840F951F880F61
:10077000991F81519E4FDC018D919C91880F991F8B
:10078000880F991F880F991F2AE030E0B9010E9455
:100790001228CB018096AC012091B5023091B602AF
:1007A000429FC001439F900D529F900D11249F01C5
:1007B000280F391F8981882F90E00C96880F991F88
:1007C000B9010E94BC128981482F50E080919901A3
:1007D000282F880F330BC901880F991F820F931F91
:1007E000880F991F840F951F880F991F8D52954F61
:1007F000FC01808191819C018981882F90E0429643
:10080000880F991FB9010E94BC128981482F50E0BE
:1008100080919901282F880F330BC901880F991FE8
:10082000820F931F880F991F840F951F880F991FA0
:10083000815B9D4FDC018D919C91865B9F4F382F92
:1008400022278981882F90E0885E9E4F880F991F0C
:10085000B9010E94BC128981482F50E08091990112
:10086000282F880F330BC901880F991F820F931F00
:10087000880F991F840F951F880F991F880F991F44
:10088000825C964FFC0180819181A281B381298194
:10089000222F30E0205C3F4F220F331F220F331FE7
:1008A000220F331FAC01BD01C9010E9406138981CB
:1008B000482F50E080919901282F880F330BC901F0
:1008C000880F991F820F931F880F991F840F951F00
:1008D00081549E4FDC018C91833098F18981882F5F
:1008E00090E084569F4F880F991F880F991F63E0EF
:1008F00070E00E94BC128981482F50E080919901DC
:10090000282F880F330BC901880F991F820F931F5F
:10091000880F991F840F951F81549E4FFC01808181
:10092000282F30E08981882F90E0885B9F4F880FC7
:10093000991F880F991F880F991FB9010E94BC1237
:1009400032C08981482F50E080919901282F880F6B
:10095000330BC901880F991F820F931F880F991FAE
:10096000840F951F81549E4FDC018C91282F30E01D
:100970008981882F90E084569F4F880F991F880F98
:10098000991FB9010E94BC128981882F90E0885B71
:100990009F4F880F991F880F991F880F991F62E03A
:1009A00070E00E94BC1289818F5F898389818630C3
:1009B00008F478CE00000F90DF91CF910895CF9387
:1009C000DF9300D01F92CDB7DEB79B838A838091DF
:1009D000BB02882319F481E0898330C02091BB02D7
:1009E00085E2289F812D1124922F981B9695890FBF
:1009F000982F96959695892F880F880F880F891BB9
:100A0000922F981B992369F49091BB0285E2989FDD
:100A1000812D1124981B9695890F8695869589833B
:100A20000DC09091BB0285E2989F812D1124981BE7
:100A30009695890F869586958F5F89838A819B819C
:100A4000CC01A0E0B0E040E050E02BE230E0841BBD
:100A5000950B2817390708F472C18A5B9F4FFC0178
:100A60000C9448289091980181E0892780939801FF
:100A70000E94691265C182E390E022E330E0F9014F
:100A800020812F7EFC0120835BC1809199018150E0
:100A90008093990180919901181614F01092990190
:100AA0000E944A034DC1809199018F5F8093990103
:100AB0008091990183301CF083E0809399010E941A
:100AC0004A033EC180919901982F892F880F890F81
:100AD000880F80939C010E94390C32C1809199014A
:100AE000982F892F880F890F880F8F5F80939C0123
:100AF0000E94390C25C180919901982F892F880F68
:100B0000890F880F8E5F80939C010E94390C18C159
:100B100080919901982F892F880F890F880F8D5FF9
:100B200080939C010E94390C0BC180919901982FF0
:100B3000892F880F890F880F8C5F80939C010E94FA
:100B4000390CFEC080919901982F892F880F890F49
:100B5000880F8B5F80939C010E94390CF1C00E942A
:100B6000A706EEC00E949507EBC00E942508E8C0CA
:100B700081E08093A0018091A0010E940F0DE0C050
:100B80008091A00181508093A0018091A0018823D1
:100B900019F488E18093A0018091A0010E940F0DBB
:100BA000CFC08091A0018F5F8093A0018091A001B0
:100BB000893118F081E08093A0018091A0010E940A
:100BC0000F0DBEC080919F01815080939F010E94B4
:100BD000B20DB6C080919F018F5F80939F010E94EC
:100BE000B20DAEC080919E01815080939E010E9403
:100BF000B20DA6C080919E018F5F80939E010E94DE
:100C0000B20D9EC00E944A199BC08091760181500E
:100C10008093760180917601882319F481E0809396
:100C20007601809176010E94E8118AC08091760158
:100C30008F5F80937601909176018981981718F0E3
:100C4000898180937601809176010E94E81178C0B5
:100C50000E94210975C00E94BB0972C081E0809387
:100C60007601809176010E94E8116AC00E94B20D5F
:100C700067C085E490E025E430E0F9012081287F19
:100C8000FC012083109297015BC01092000158C0B4
:100C900081E0809305010E94F70E52C0809105010A
:100CA0000E9484114DC0809105010E940F1048C020
:100CB0000E946B0F45C08091050181508093050112
:100CC0000E94F70E3DC0809105018F5F8093050162
:100CD0000E94F70E35C08091050161E20E94E31089
:100CE0002FC08091050162E20E94E31029C080912B
:100CF000050163E20E94E31023C08091050164E2D4
:100D00000E94E3101DC08091050165E20E94E3107E
:100D100017C08091050166E20E94E31011C0809126
:100D2000050167E20E94E3100BC08091050168E2B3
:100D30000E94E31005C081E00E94A11A01C00000DA
:100D400000000F900F900F90DF91CF910895CF93F7
:100D5000DF93CDB7DEB780919C01882F90E0880F9C
:100D6000991F8D5F944FFC018081918120919C019E
:100D7000222F30E0220F331F2D52354FF9012081F1
:100D800031818217930729F180919C01882F90E08F
:100D900020919C01222F30E0220F331F2D5F344F12
:100DA000F90120813181880F991F8D52954FFC01E7
:100DB0003183208380919C01882F90E0880F991FB8
:100DC0008D52954FFC0180819181BC0183E00E948E
:100DD000320B80919C01882F90E0880F991F8E53D1
:100DE000994FFC012081318180919C01882F90E0F6
:100DF000880F991F815E9D4FFC018081918128178A
:100E0000390729F180919C01882F90E020919C0165
:100E1000222F30E0220F331F2E53394FF90120814A
:100E20003181880F991F815E9D4FFC0131832083A2
:100E300080919C01882F90E0880F991F815E9D4FC3
:100E4000FC0180819181BC0186E00E94320B80917F
:100E50009C01882F90E085569D4FFC012081809158
:100E60009C01882F90E08D579D4FFC0180812817B1
:100E7000F1F080919C01882F90E020919C01222F1D
:100E800030E025563D4FF90120818D579D4FFC01E3
:100E9000208380919C01882F90E08D579D4FFC010D
:100EA0008081882F90E0BC0188E00E94320B809105
:100EB0009C01882F90E0880F991F880F991F825CF2
:100EC000964FFC01208131814281538180917F02C4
:100ED00090918002A0918102B09182022817390777
:100EE0004A075B07B9F080919C01282F30E0809180
:100EF0007F0290918002A0918102B0918202220F24
:100F0000331F220F331F225C364FF90180839183F8
:100F1000A283B3830E944A0381E080930001109270
:100F200097010000DF91CF910895CF93DF931F9237
:100F3000CDB7DEB7198280917801909179019093B5
:100F400004018093030119821FC08981882F90E0DA
:100F50002091030130910401880F991F8D52954F04
:100F6000FC01318320838981882F90E02091030147
:100F700030910401880F991F8D5F944FFC013183DC
:100F8000208389818F5F898389818831F0F2809104
:100F9000C0069091C1069093B6028093B5028091ED
:100FA0007A0190917B0190930201809301018091DD
:100FB000BE069091BF069093B4028093B30219824B
:100FC0001FC08981882F90E02091B3023091B40234
:100FD000880F991F815B9D4FFC013183208389819C
:100FE000882F90E02091B3023091B402880F991FAE
:100FF0008E50994FFC013183208389818F5F8983D3
:1010000089818831F0F20E944A0380910301909116
:101010000401BC0183E00E94BA0B80910101909110
:101020000201BC0184E00E94BA0B8091B30290914E
:10103000B402BC0185E00E94BA0B81E080930001FC
:1010400000000F90DF91CF910895CF93DF93CDB73C
:10105000DEB780919D01882F90E0019720917C015F
:1010600030917D01880F991F8E5A974FFC01318373
:10107000208380919D01882F90E0019720917E012F
:1010800030917F01880F991F8E57974FFC01318354
:10109000208380919D01882F90E00197209180010D
:1010A00030918101880F991F8E5D974FFC0131832C
:1010B000208380919D01882F90E00197880F991FD0
:1010C0008E5A974FFC0180819181BC0186E390E0AC
:1010D0000E94BC1280919D01882F90E00197880F9B
:1010E000991F8E57974FFC0180819181BC0188E345
:1010F00090E00E94BC1280919D01882F90E00197A2
:10110000880F991F8E5D974FFC0180819181BC01F2
:101110008AE390E00E94BC120E9492080000DF91D6
:10112000CF910895CF93DF9300D01F92CDB7DEB754
:101130001A8219821B8280919D01882F90E001976D
:1011400099230CF4039695958795959587958F5FD0
:101150008B838B81282F2295207F80919D01882F62
:1011600090E0019783709078992324F401978C6F15
:101170009F6F0196820F8F5F8B8385EA80932A058C
:101180008AE580932B0588E080932C0582E080938C
:101190002D058B8180932E0580917C0190917D019E
:1011A000892F992780932F0580917C0190917D0153
:1011B0008093300580917E0190917F01892F99273E
:1011C0008093310580917E0190917F01809332055B
:1011D0008091800190918101892F99278093330517
:1011E0008091800190918101809334056DE08AE2C5
:1011F00095E00E94D9269A83898389818093350559
:1012000089819A81892F99278093360582E080937E
:10121000770100008091C1028130E1F71092C10294
:101220001092C0026DE08AE295E00E94612681E0A2
:101230008093770100000F900F900F90DF91CF9176
:101240000895CF93DF93CDB7DEB780919C01882FAF
:1012500090E0880F991F8D5F944FFC0180819181F0
:1012600020919C01222F30E0220F331F2D52354F49
:10127000F9012081318182179307B1F080919C019F
:10128000882F90E020919C01222F30E0220F331F05
:101290002D52354FF90120813181880F991F8D5FC3
:1012A000944FFC013183208380919C01882F90E032
:1012B000880F991F8E53994FFC01208131818091B5
:1012C0009C01882F90E0880F991F815E9D4FFC0143
:1012D0008081918128173907B1F080919C01882F76
:1012E00090E020919C01222F30E0220F331F215EDD
:1012F0003D4FF90120813181880F991F8E53994FFD
:10130000FC013183208380919C01882F90E0880F1D
:10131000991F8E50994FFC012081318180919C0151
:10132000882F90E0880F991F815B9D4FFC01808181
:10133000918128173907B1F080919C01882F90E0A6
:1013400020919C01222F30E0220F331F215B3D4F63
:10135000F90120813181880F991F8E50994FFC012E
:101360003183208381E08093000110929701000077
:10137000DF91CF910895CF93DF93CDB7DEB7209162
:10138000780130917901809103019091040128172F
:10139000390789F0809103019091040190937901BC
:1013A000809378018091030190910401BC0188E44D
:1013B00091E00E94BC1220917A0130917B018091D2
:1013C0000101909102012817390789F080910101EC
:1013D0009091020190937B0180937A0180910101A9
:1013E00090910201BC018AE491E00E94BC1220911C
:1013F000BE063091BF068091B3029091B4022817C7
:101400003907A9F08091B3029091B4029093BF067E
:101410008093BE068091B3029091B402865B9F4F89
:10142000982F8827BC0184E992E00E94BC12209189
:10143000C0063091C1068091B5029091B60228177E
:101440003907D9F08091B5029091B6029093C10608
:101450008093C0064091B5025091B60220E033E07F
:10146000429FC001439F900D529F900D11249D5BA0
:10147000BC018CE392E00E94BC1281E080930001E9
:101480000000DF91CF910895CF93DF9300D000D07B
:1014900000D0CDB7DEB79E838D8319821C821B825C
:1014A00081E08A831092770185EA80932A058AE594
:1014B00080932B0584E080932C0586E080932D0596
:1014C00010922F058D81809330058D819E819093A0
:1014D0009B0180939A0119821BC08981882F90E01B
:1014E000880F991F815E9D4F2D813E81FC013183C4
:1014F00020838981882F90E0880F991F8E53994F00
:101500002D813E81FC013183208389818F5F898316
:101510008981883110F326C08A818295807F8093EB
:101520002E0569E08AE295E00E94D9269C838B8390
:101530008B81809331058B819C81892F99278093A2
:10154000320500008091C1028130E1F71092C102A2
:101550001092C00269E08AE295E00E9461268A81C9
:101560008F5F8A838A818730B8F281E08093770128
:10157000000026960FB6F894DEBF0FBECDBFDF91F8
:10158000CF910895CF93DF93CDB7DEB78091D60288
:10159000882F90E0A0E0B0E080937F0290938002DB
:1015A000A0938102B093820280917F029091800289
:1015B000A0918102B09182022227382F492F5A2F01
:1015C0008091D702882F90E0A0E0B0E0822B932B8F
:1015D000A42BB52B80937F0290938002A09381026D
:1015E000B093820280917F0290918002A09181024B
:1015F000B09182022227382F492F5A2F8091D8028A
:10160000882F90E0A0E0B0E0822B932BA42BB52B89
:1016100080937F0290938002A0938102B093820214
:1016200080917F0290918002A0918102B09182020C
:101630002227382F492F5A2F8091D902882F90E0E6
:10164000A0E0B0E0822B932BA42BB52B80937F02DC
:1016500090938002A0938102B09382020000DF91F8
:10166000CF910895CF93DF9300D000D000D0CDB7B5
:10167000DEB78C837E836D831A8219821B8210925F
:1016800077018091C0069091C1060197D1F48D81B8
:101690009E81880F991F9C01220F331F220F331F39
:1016A000820F931F805491409C01AFE8B3EE0E94DB
:1016B0004E28929582958F7089279F7089279E83E7
:1016C0008D8380919C01869586958F5F8B838B811E
:1016D000882F90E082959295907F9827807F982719
:1016E000982F80919C0183708F5F892B8B8385EA73
:1016F00080932A058AE580932B0584E080932C054E
:101700008C8180932D058B8180932E058D819E8108
:10171000892F992780932F058D818093300569E06B
:101720008AE295E00E94D9269A83898389818093F1
:10173000310589819A81892F99278093320500008C
:101740008091C1028130E1F71092C1021092C00273
:1017500069E08AE295E00E94612681E0809377014A
:10176000000026960FB6F894DEBF0FBECDBFDF9106
:10177000CF910895CF93DF9300D000D000D0CDB7A4
:10178000DEB78C837E836D831B821A8281E089831E
:10179000109277018C81833001F58091C006909181
:1017A000C1060197D1F48D819E81880F991F9C01FC
:1017B000220F331F220F331F820F931F805491403B
:1017C0009C01AFE8B3EE0E944E28929582958F70EF
:1017D00089279F7089279E838D8385EA80932A05B8
:1017E0008AE580932B0584E080932C058C8180937F
:1017F0002D058D819E81892F992780932F058D81BD
:101800008093300526C089818295807F80932E0544
:1018100069E08AE295E00E94D9269B838A838A81C7
:10182000809331058A819B81892F99278093320586
:1018300000008091C1028130E1F71092C102109244
:10184000C00269E08AE295E00E94612689818F5F8B
:10185000898389818730B8F281E080937701000025
:1018600026960FB6F894DEBF0FBECDBFDF91CF91A5
:101870000895CF93DF93CDB7DEB71092000181E0DA
:101880008093970181E08093960180919C01882F3D
:1018900090E00196BC0180E390E00E94BC12809130
:1018A0009C01882F90E0880F991F81519E4FDC0189
:1018B0008D919C91FC0180919C01882F90E0880F74
:1018C000991F81519E4FDC018D919C91880F991F2A
:1018D000880F991F880F991F2AE030E0B9010E94F4
:1018E0001228CB018096AC012091B5023091B6024E
:1018F000429FC001439F900D529F900D11248E0F67
:101900009F1FBC0182E390E00E94BC1280919C0169
:10191000882F90E0880F991F8D52954FFC01808190
:101920009181BC0184E390E00E94BC1280919C01F3
:10193000882F90E0880F991F8D52954FDC018D9173
:101940009C91BC0186E491E00E94BC1280919C01B4
:10195000882F90E0880F991F815E9D4FFC01808148
:101960009181BC0184E491E00E94BC1280919C01B1
:10197000882F90E0880F991F815B9D4FDC018D912E
:101980009C91865B9F4F982F8827BC0180E992E04D
:101990000E94BC1280919C01882F90E0880F991FB3
:1019A000880F991F825C964FFC0180819181A281F2
:1019B000B381AC01BD0188E892E00E9406138091DA
:1019C0009C01882F90E0880F991F880F991F825CD7
:1019D000964FFC0180819181A281B381AC01BD0150
:1019E00088E591E00E94061380919C01882F90E089
:1019F000880F991F880F991F825C964FFC01808188
:101A00009181A281B38180937F0290938002A09301
:101A10008102B09382020000DF91CF910895CF93AD
:101A2000DF931F92CDB7DEB78983898180939D01B3
:101A30008981882F90E0BC0180E591E00E94BC1272
:101A40008981882F90E00197880F991F8E5A974FB0
:101A5000FC0180819181BC0186E390E00E94BC1270
:101A60008981882F90E00197880F991F8E57974F93
:101A7000FC0180819181BC0188E390E00E94BC124E
:101A80008981882F90E00197880F991F8E5D974F6D
:101A9000FC0180819181BC018AE390E00E94BC122C
:101AA0008981882F90E00197880F991F8E5A974F50
:101AB000FC0180819181BC0182E591E00E94BC1211
:101AC0008981882F90E00197880F991F8E57974F33
:101AD000FC0180819181BC0184E591E00E94BC12EF
:101AE0008981882F90E00197880F991F8E5D974F0D
:101AF000FC0180819181BC0186E591E00E94BC12CD
:101B00008981882F90E00197880F991F8E5A974FEF
:101B1000FC018081918190937D0180937C0189817A
:101B2000882F90E00197880F991F8E57974FFC01DF
:101B30008081918190937F0180937E018981882F9C
:101B400090E00197880F991F8E5D974FFC0180816F
:101B50009181909381018093800100000F90DF912B
:101B6000CF910895CF93DF93CDB7DEB766970FB6C9
:101B7000F894DEBF0FBECDBF19821A8284E1E2E87D
:101B8000F1E0DE01139601900D928A95E1F781E074
:101B9000809397011092960180919F01843024F0E8
:101BA00083E080939F0106C080919F01882314F4F5
:101BB00010929F0180919E0188311CF010929E012D
:101BC00007C080919E0188231CF487E180939E01C9
:101BD00080919F01082E000C990B0196880F982F79
:101BE000990F990F890F8A8385E490E025E430E00E
:101BF000D9012C91287FFC0120838AE50E946B1972
:101C0000198246C08981882F90E02981222F30E0F7
:101C1000220F331FAE014F5F5F4F240F351F2E5F22
:101C20003F4FD9014D915C9120919F01022E000CF4
:101C3000330B2F5F3F4FB901469F9001479F300DF7
:101C4000569F300D1124880F991FAE014F5F5F4FD3
:101C5000840F951F0296FC01318320838981882F90
:101C600090E0880F991F9E012F5F3F4F820F931FB7
:101C70000296DC012D913C918981882F90E0899614
:101C8000880F991FB9010E94BC1289818F5F8983D7
:101C900089818A3008F4B6CF80919E01082E000C0D
:101CA000990B0196BC018CE390E00E94BC128091DC
:101CB0009E01082E000C990B880F991F81519E4F91
:101CC000FC0180819181FC0180919E01082E000C15
:101CD000990B880F991F81519E4FDC018D919C912A
:101CE000880F991F880F991F880F991F2AE030E0ED
:101CF000B9010E941228CB018096AC012091B50257
:101D00003091B602429FC001439F900D529F900DAB
:101D100011248E0F9F1FBC018EE390E00E94BC1225
:101D200080919E01082E000C990B880F991F8D52EF
:101D3000954FFC0180819181BC0180E490E00E947C
:101D4000BC1280919E01082E000C990B89559E4F64
:101D5000DC018C91882F90E0BC0182E490E00E942D
:101D6000BC1280919E01082E000C990B880F991FC0
:101D7000815B9D4FFC0180819181865B9F4F982FF5
:101D80008827BC0180EA92E00E94BC1280919E01EB
:101D9000082E000C990B880F991F880F991F825CE1
:101DA000964FFC0180819181A281B381AC01BD017C
:101DB00088E992E00E9406138A818093BD0284E440
:101DC00090E022EBDC012C9385E490E025E430E008
:101DD000F90120812560DC012C93000066960FB686
:101DE000F894DEBF0FBECDBFDF91CF910895CF93A2
:101DF000DF9300D01F92CDB7DEB71B828091050123
:101E0000882321F481E0809305015EC08091050163
:101E1000853020F084E08093050156C08091050153
:101E2000882F90E0BC0182E790E00E94BC12809174
:101E30000501882F90E0019789549D4FFC01808116
:101E4000882F90E0BC0180E790E00E94BC121982CC
:101E500038C01A8230C080910501882F90E0AC0113
:101E6000415051098981282F30E08A81882F90E0E4
:101E7000440F551F440F551F440F551F240F351F86
:101E8000220F331F220F331F820F931F880F991FBA
:101E90008E5D984FFC01208131818B81882F90E0ED
:101EA0008E599E4FB9010E94BC128B818E5F8B832D
:101EB0008A818F5F8A838A81843068F289818F5F0B
:101EC00089838981883028F200000F900F900F904D
:101ED000DF91CF910895CF93DF9300D0CDB7DEB7D8
:101EE000198293C01A828AC080910501882F90E0E0
:101EF000BC01615071098981482F50E08A81882F87
:101F000090E020910501222F30E0D901119729811D
:101F1000E22FF0E02A81222F30E0AA0FBB1FAA0F88
:101F2000BB1FAA0FBB1FEA0FFB1FEE0FFF1FEE0F19
:101F3000FF1F2E0F3F1F220F331F2C5C344FF90160
:101F400020813181660F771F660F771F660F771F1D
:101F5000460F571F440F551F440F551F840F951FE1
:101F6000880F991F8E5D984FFC01318320838091EB
:101F70000501882F90E0AC01415051098981282F3B
:101F800030E08A81882F90E0440F551F440F551F81
:101F9000440F551F240F351F220F331F220F331FED
:101FA000820F931F880F991F8E5D984FFC0140810F
:101FB000518180910501882F90E001979C01220FAB
:101FC000331F220F331F220F331F8981882F90E088
:101FD000820F931F9C01220F331F220F331F8A8110
:101FE000882F90E0820F931F880F991F81579F4F72
:101FF000BA010E9497288A818F5F8A838A81843000
:1020000008F472CF89818F5F89838981883008F4D1
:1020100069CF00000F900F90DF91CF910895CF937B
:10202000DF9300D000D000D0CDB7DEB78E831B8207
:102030001D821C8285EA8093F5058AE58093F6056A
:1020400082E48093F7058DE18093F8058E818150BD
:102050008093F905198263C01A825AC08B81882F38
:1020600090E005962E81222F30E0B9016150710970
:102070002981422F50E02A81222F30E0660F771FFE
:10208000660F771F660F771F460F571F440F551FA8
:10209000440F551F240F351F220F331F2E5D384F5D
:1020A000F90120813181232F33278B509A4FFC0176
:1020B00020838B81882F90E006962E81222F30E09E
:1020C000B901615071092981422F50E02A81222FE4
:1020D00030E0660F771F660F771F660F771F460F7A
:1020E000571F440F551F440F551F240F351F220F34
:1020F000331F2E5D384FF901208131818B509A4F6B
:10210000FC0120838B818E5F8B838A818F5F8A8322
:102110008A81843008F4A2CF89818F5F8983898185
:10212000883008F499CF67E485EF95E00E94D926BE
:102130009D838C838C8180933A068C819D81892F2D
:10214000992780933B0667E485EF95E00E94AE26D1
:102150008E81882F90E0019789549D4F21E0FC01EA
:1021600020838E81882F90E0019789549D4FFC0138
:102170008081882F90E0BC0180E790E00E94BC1233
:102180008BE390E02BE330E0F9012081622F2E8178
:10219000222F30E047E050E0421B530B21E030E0BB
:1021A00002C0220F331F4A95E2F720952623FC0137
:1021B0002083000026960FB6F894DEBF0FBECDBF79
:1021C000DF91CF910895CF93DF9300D000D000D05E
:1021D000CDB7DEB78D836E831A821C821B8285EA9F
:1021E0008093F5058AE58093F6058AE08093F705EC
:1021F0008E818093F8058D8181508093F905198235
:1022000060C08A81882F90E005962D81222F30E0D2
:10221000B901615071092E81222F30E0A90141528C
:1022200051092981222F30E0660F771F660F771F33
:10223000660F771F460F571F440F551F440F551F3A
:10224000240F351F220F331F2E5D384FF9012081D7
:102250003181232F33278B509A4FFC0120838A81B1
:10226000882F90E006962D81222F30E0B901615031
:1022700071092E81222F30E0A90141525109298193
:10228000222F30E0660F771F660F771F660F771FCC
:10229000460F571F440F551F440F551F240F351F5E
:1022A000220F331F2E5D384FF901208131818B5071
:1022B0009A4FFC0120838A818E5F8A8389818F5F98
:1022C00089838981843008F49CCF6FE085EF95E0A5
:1022D0000E94D9269C838B838B81809302068B81FD
:1022E0009C81892F9927809303066FE085EF95E005
:1022F0000E94AE26000026960FB6F894DEBF0FBEF1
:10230000CDBFDF91CF910895CF93DF9300D01F927F
:10231000CDB7DEB78B831A82198285EA8093F505E3
:102320008AE58093F60582E08093F7058CE180933F
:10233000F8058B8181508093F90567E085EF95E082
:102340000E94D9269A83898389818093FA0589819D
:102350009A81892F99278093FB0567E085EF95E0A7
:102360000E94AE268B81882F90E0019789549D4F63
:10237000FC0110828B81882F90E0019789549D4F3A
:10238000FC018081882F90E0BC0180E790E00E94F2
:10239000BC128BE390E02BE330E0F9012081622F47
:1023A0002B81222F30E047E050E0421B530B21E00D
:1023B00030E002C0220F331F4A95E2F7262BFC01C2
:1023C000208300000F900F900F90DF91CF91089520
:1023D000CF93DF9300D01F92CDB7DEB78B831982E6
:1023E0001A8219826BC09091BB028981292F281B08
:1023F0008B81882F90E00197982F89EF989F802DEF
:102400001124820F8A838981482F50E08B81882F85
:1024100090E09C0121503109C901880F991F880F54
:10242000991F880F991F821B930B840F951F01968C
:102430009C018981882F90E08296880F991FB901AD
:102440000E94BC128091BB02482F50E08981682F06
:1024500070E08B81882F90E09C0121503109C901E7
:10246000880F991F880F991F880F991F821B930B44
:10247000860F971F84179507DCF48A81882F90E0D8
:102480000197880F991F8D54974FFC018081282F49
:1024900030E08A81882F90E00197880F991F8E5431
:1024A000974FFC018081A90169810E94AE1303C08E
:1024B00089810E94E51889818F5F898389818730AE
:1024C00008F491CF00000F900F900F90DF91CF9103
:1024D0000895CF93DF93CDB7DEB780919801813017
:1024E00021F483E00E94831203C081E00E948312E2
:1024F00080919801682F81E090E00E948A28000076
:10250000DF91CF910895CF93DF9300D01F92CDB785
:10251000DEB78B831A82198285EA809397038AE556
:102520008093980384E08093990380E880939A03D2
:1025300083E080939B0310929C038B8180939D0387
:1025400069E087E993E00E94D9269A83898389818B
:1025500080939E0389819A81892F992780939F0375
:1025600069E087E993E00E94202600000F900F9019
:102570000F90DF91CF910895CF93DF9300D000D0DB
:1025800000D0CDB7DEB79C838B837E836D831A82A8
:10259000198285EA809397038AE58093980385E002
:1025A0008093990382E880939A038B819C81892F81
:1025B000992780939B038B8180939C038D819E81BF
:1025C000892F992780939D038D8180939E036AE0D4
:1025D00087E993E00E94D9269A8389838981809331
:1025E0009F0389819A81892F99278093A0036AE0AC
:1025F00087E993E00E942026000026960FB6F89403
:10260000DEBF0FBECDBFDF91CF910895CF93DF9393
:10261000CDB7DEB728970FB6F894DEBF0FBECDBF9B
:102620009C838B834D835E836F8378871A821982A4
:1026300085EA809397038AE58093980387E08093E7
:10264000990382E880939A038B819C81892F992733
:1026500080939B038B8180939C038D819E81AF81AE
:10266000B8858B2F9927AA27BB2780939D038D813F
:102670009E81AF81B885CD01AA27BB2780939E0399
:102680008D819E81AF81B885892F9A2FAB2FBB2773
:1026900080939F038D818093A0036CE087E993E092
:1026A0000E94D9269A83898389818093A103898195
:1026B0009A81892F99278093A2036CE087E993E0A0
:1026C0000E942026000028960FB6F894DEBF0FBEA9
:1026D000CDBFDF91CF910895CF93DF9300D000D08D
:1026E0001F92CDB7DEB78B837D836C831A821982EC
:1026F00085EA809397038AE58093980384E080932A
:10270000990384E880939A038B8180939B038C8147
:102710009D81892F992780939C038C8180939D03B1
:1027200069E087E993E00E94D9269A8389838981A9
:1027300080939E0389819A81892F992780939F0393
:1027400069E087E993E00E94202600000F900F9037
:102750000F900F900F90DF91CF910895CF93DF935B
:10276000CDB7DEB729970FB6F894DEBF0FBECDBF49
:102770008E836F835987488719821D821C821B8232
:102780001A8285EA809397038AE58093980383E110
:102790008093990382E880939A038F81882F90E039
:1027A0008B9682959295907F9827807F9827892F86
:1027B000990F990B80939B038F81882F90E08B96C4
:1027C0008295807F80939C0319821DC08981882F08
:1027D00090E006962E81422F50E02981222F30E092
:1027E00042955295507F5427407F5427240F351F20
:1027F0002A5F3E4FF901208189569C4FFC012083BE
:1028000089818F5F89838981803100F368E187E95D
:1028100093E00E94D9269D838C838C818093AD03A5
:102820008C819D81892F99278093AE0368E187E988
:1028300093E00E94202688859985099738F4888539
:102840009985C19693629B838A8306C08885998502
:10285000C89693629B838A838F81882F90E08057EC
:102860009E4F880F991F9C018A819B81BC01C901E1
:102870000E94BC12000029960FB6F894DEBF0FBE6E
:10288000CDBFDF91CF9108950F931F93CF93DF9327
:1028900000D0CDB7DEB7198233C08981082F10E090
:1028A00089818F5F0E948B14282FC8018F559E4FFE
:1028B000FC0120838981882F90E08F559E4FFC0179
:1028C00080818823D1F41A8215C08981882F90E0F5
:1028D0009C01220F331F220F331F8A81882F90E023
:1028E000820F931F81549E4F23E0FC0120838A8135
:1028F0008F5F8A838A81843040F389818F5F8983E7
:102900008981863050F200000F900F90DF91CF91B7
:102910001F910F910895CF93DF9300D000D01F92A5
:10292000CDB7DEB78D8319821C821B821092BE0246
:102930001092BF0281E08A8355C085EA80932A0500
:102940008AE580932B0582E080932C0587E08093B5
:102950002D058D81982F9295907F8A81890F809384
:102960002E0567E08AE295E00E94D9269C838B833E
:102970008B8180932F058B819C81892F9927809350
:10298000300567E08AE295E00E94612620C08091D0
:10299000F2058823E1F00E94A8251092F2058091AB
:1029A0006604282F30E08D81882F90E0AC0142959D
:1029B0005295507F5427407F54278A81882F90E07A
:1029C000840F951F2817390711F481E089838091BE
:1029D000BE028130E1F61092BE021092BF028A81DF
:1029E0008F5F8A838A81853008F4A7CF89810F9011
:1029F0000F900F900F900F90DF91CF910895CF938C
:102A0000DF9300D01F92CDB7DEB78B838B81829589
:102A10008F70882F90E00197982F990F990F8B81D5
:102A20008F70890F81508A838A81282F30E08091AE
:102A30006704882F90E0A0E0B0E0220F331F220F40
:102A4000331F225C364FF90180839183A283B383C5
:102A50008A81682F70E08A81882F90E0880F991F03
:102A6000880F991F825C964FFC0180819181A28121
:102A7000B3812227382F492F5A2F80916804882F3D
:102A800090E0A0E0B0E0822B932BA42BB52B9B0110
:102A9000220F331F220F331F225C364FF901808330
:102AA0009183A283B3838A81682F70E08A81882F03
:102AB00090E0880F991F880F991F825C964FFC0148
:102AC00080819181A281B3812227382F492F5A2FEB
:102AD00080916904882F90E0A0E0B0E0822B932BD6
:102AE000A42BB52B9B01220F331F220F331F225C17
:102AF000364FF90180839183A283B3838A81682F43
:102B000070E08A81882F90E0880F991F880F991FA5
:102B1000825C964FFC0180819181A281B381222742
:102B2000382F492F5A2F80916A04882F90E0A0E017
:102B3000B0E0822B932BA42BB52B9B01220F331FCC
:102B4000220F331F225C364FF90180839183A283C9
:102B5000B3838A81882F90E020916B04222F30E08C
:102B6000880F991F8D52954FFC01318320838A81F4
:102B7000882F90E02A81222F30E0220F331F2D5220
:102B8000354FF90120813181522F442720916C0467
:102B9000222F30E0242B352B880F991F8D52954F13
:102BA000FC01318320838A81882F90E02A81222FA3
:102BB00030E0220F331F2D52354FF9012081318132
:102BC000880F991F8D5F944FFC0131832083809182
:102BD0006E04882F90E09093B4028093B3028091AA
:102BE000B3029091B4029093BF068093BE061982FF
:102BF00011C08981882F90E02091B3023091B402F6
:102C0000880F991F815B9D4FFC013183208389814F
:102C10008F5F89838981883160F38A81882F90E072
:102C2000209170048D579D4FFC0120838A81882F4D
:102C300090E02A81222F30E02D573D4FF90120816D
:102C400085569D4FFC01208380917204833070F57E
:102C50008A81882F90E020917204222F30E0217029
:102C60003327880F991F815E9D4FFC01318320839C
:102C70008A81882F90E02A81222F30E0220F331F93
:102C8000215E3D4FF90120813181880F991F8E53BC
:102C9000994FFC01318320838A81882F90E0209115
:102CA000720481549E4FFC0120831DC08A81882FAD
:102CB00090E02091720481549E4FFC0120838A8110
:102CC000882F90E0880F991F815E9D4FFC01118233
:102CD00010828A81882F90E0880F991F8E53994F18
:102CE000FC01118210828A81882F90E02091730468
:102CF000222F30E0880F991F8E5A974FFC013183A5
:102D000020838A81882F90E02A81222F30E0220FB1
:102D1000331F2E5A374FF90120813181522F44271A
:102D200020917404222F30E0242B352B880F991F1B
:102D30008E5A974FFC01318320838A81882F90E03F
:102D400020917504222F30E0880F991F8E57974FDE
:102D5000FC01318320838A81882F90E02A81222FF1
:102D600030E0220F331F2E57374FF9012081318178
:102D7000522F442720917604222F30E0242B352B2C
:102D8000880F991F8E57974FFC01318320838A81CA
:102D9000882F90E020917704222F30E0880F991F30
:102DA0008E5D974FFC01318320838A81882F90E0CC
:102DB0002A81222F30E0220F331F2E5D374FF90179
:102DC00020813181522F442720917804222F30E036
:102DD000242B352B880F991F8E5D974FFC01318373
:102DE000208300000F900F900F90DF91CF910895F6
:102DF000CF93DF9300D01F92CDB7DEB78B831A82BB
:102E0000198285EA80932A058AE580932B0582E062
:102E100080932C0581E080932D058B818295807FA6
:102E200080932E0567E08AE295E00E94D9269A8376
:102E30008983898180932F0589819A81892F992798
:102E40008093300567E08AE295E00E9461260000E9
:102E50000F900F900F90DF91CF910895CF93DF9354
:102E60001F92CDB7DEB719828091660482958F706C
:102E700089838981882F90E00197880F991F880F97
:102E8000991F2091670489559E4FFC0120838981F9
:102E9000882F90E00197880F991F880F991F01963E
:102EA0002091680489559E4FFC0120838981882FD9
:102EB00090E00197880F991F880F991F0296209123
:102EC000690489559E4FFC0120838981882F90E0F9
:102ED0000197880F991F880F991F039620916A0404
:102EE00089559E4FFC0120838981882F90E00197AE
:102EF000880F991F880F991F20916B0481549E4F52
:102F0000FC0120838981882F90E00197880F991F09
:102F1000880F991F019620916C0481549E4FFC01EB
:102F200020838981882F90E00197880F991F880F4F
:102F3000991F029620916D0481549E4FFC012083BD
:102F40008981882F90E00197880F991F880F991F1A
:102F5000039620916E0481549E4FFC012083898149
:102F6000882F90E00197880F991F880F991F209153
:102F70006F04222F30E0880F991F81519E4FFC0172
:102F8000318320838981882F90E00197880F991FD2
:102F9000880F991F2981222F30E021503109220FFB
:102FA000331F220F331F220F331F21513E4FF901D0
:102FB00020813181522F442720917004222F30E04C
:102FC000242B352B880F991F81519E4FFC01318393
:102FD00020838981882F90E00197880F991F880F9F
:102FE000991F019620917104222F30E0880F991FBC
:102FF00081519E4FFC01318320838981882F90E08D
:103000000197880F991F880F991F01962981222FF8
:1030100030E021503109220F331F220F331F2F5F61
:103020003F4F220F331F21513E4FF9012081318143
:10303000522F442720917204222F30E0242B352B6D
:10304000880F991F81519E4FFC0131832083898114
:10305000882F90E00197880F991F880F991F02967B
:1030600020917304222F30E0880F991F81519E4FC9
:10307000FC01318320838981882F90E00197880F9C
:10308000991F880F991F02962981222F30E0215025
:103090003109220F331F220F331F2E5F3F4F220FA4
:1030A000331F21513E4FF90120813181522F442796
:1030B00020917404222F30E0242B352B880F991F88
:1030C00081519E4FFC01318320838981882F90E0BC
:1030D0000197880F991F880F991F039620917504F7
:1030E000222F30E0880F991F81519E4FFC013183C0
:1030F00020838981882F90E00197880F991F880F7E
:10310000991F03962981222F30E021503109220F87
:10311000331F220F331F2D5F3F4F220F331F2151CB
:103120003E4FF90120813181522F442720917604AE
:10313000222F30E0242B352B880F991F81519E4F71
:10314000FC01318320838981882F90E00197880FCB
:10315000991F880F991F2091770481549E4FFC017D
:1031600020838981882F90E00197880F991F880F0D
:10317000991F01962091780481549E4FFC01208371
:103180008981882F90E00197880F991F880F991FD8
:1031900002962091790481549E4FFC0120838981FD
:1031A000882F90E00197880F991F880F991F039629
:1031B00020917A0481549E4FFC0120830E944A038F
:1031C00000000F90DF91CF910895CF93DF9300D04F
:1031D00000D0CDB7DEB78C8319821B821A8285EAB4
:1031E000809397038AE58093980383E18093990302
:1031F00082E880939A038C81882F90E08B96829549
:103200009295907F9827807F9827892F990F990B07
:1032100080939B038C81882F90E08B968295807F92
:1032200080939C0319820BC08981882F90E00696B9
:1032300089569C4FFC01108289818F5F8983898127
:10324000803190F368E187E993E00E94D9269B835F
:103250008A838A818093AD038A819B81892F9927F4
:103260008093AE0368E187E993E00E9420268C8179
:10327000882F90E080579E4F880F991F60E070E084
:103280000E94BC1200000F900F900F900F90DF91E2
:10329000CF910895CF93DF931F92CDB7DEB71092F1
:1032A000BB02198206C089810E94E51889818F5F5F
:1032B000898389818730B8F381E00E94E811809189
:1032C000BB02682F82E090E00E948A2800000F90E5
:1032D000DF91CF910895CF93DF9300D01F92CDB7A8
:1032E000DEB78B831A82198285EA809397038AE579
:1032F0008093980383E08093990380E880939A03F6
:103300008BEE80939B038B8180939C0368E087E91D
:1033100093E00E94D9269A838983898180939D03B3
:1033200089819A81892F992780939E0368E087E994
:1033300093E00E94202600000F900F900F90DF91E5
:10334000CF910895CF93DF9300D000D0CDB7DEB7F3
:103350001C821B821982D0C08981882F90E0815401
:103360009E4FFC0120818981882F90E089529E4FD9
:10337000FC018081281709F4A2C08981882F90E080
:103380002981222F30E021543E4FF90120818952BA
:103390009E4FFC0120838981882F90E081549E4FAD
:1033A000FC018081833008F48AC082E390E022E34C
:1033B00030E0F90120812061FC0120838BE390E063
:1033C0002BE330E0F90120812D7FFC0120838091E7
:1033D000BB02853418F185E48093BB021A8219C0C0
:1033E0008A81882F90E02A81222F30E02F5F3F4F83
:1033F000880F991F8E54974F220F331F2E54374F2B
:10340000F90120813181FC01318320838A818F5F22
:103410008A838091BB029A81981710F38091BB0236
:10342000882F90E02981222F30E021543E4FF9016E
:1034300020812350880F991F8E54974FFC012083C1
:103440008091BB02882F90E0880F991F8D54974F71
:103450002981FC0120838091BB02882F90E0880F96
:10346000991F8E54974FFC0120818091BB02882FB9
:1034700090E00296880F991F622F0E948A288091FF
:10348000BB02882F90E0880F991F8D54974FFC0145
:1034900020818091BB02882F90E0880F991F0396AE
:1034A000622F0E948A288091BB028F5F8093BB02AB
:1034B0008091BB02682F82E090E00E948A28898177
:1034C000882F90E081549E4FFC018081833088F4E6
:1034D0008981282F30E081E090E002C0880F991F99
:1034E0002A95E2F79C018B819C81822B932B9C83F4
:1034F0008B8389818F5F89838981883108F42CCF00
:103500008B819C818F3F9F4091F482E390E022E386
:1035100030E0F90120812F7EFC0120838BE390E0D5
:103520002BE330E0F90120812260FC0120831C8222
:103530001B8200000F900F900F900F90DF91CF91A2
:103540000895CF93DF9300D0CDB7DEB78A83198279
:103550001EC08A81282F30E0C901880F991F820F71
:10356000931F880F991F9C018981882F90E0820FFB
:10357000931F01969C018981882F90E0CC96880F3B
:10358000991FB9010E94BC1289818F5F898389814B
:103590008630F8F2198203C089818F5F8983809118
:1035A000BC0299819817C0F30DC08981882F90E0E3
:1035B000CC96880F991F60E070E00E94BC12898150
:1035C0008F5F89838981863080F300000F900F9090
:1035D000DF91CF910895CF92DF92EF92FF920F93F8
:1035E0001F93CF93DF9300D01F92CDB7DEB780E05B
:1035F00090E00E947C28893709F469C060E081E08E
:1036000090E00E948A2860E082E090E00E948A2890
:10361000198253C01A824AC01B8241C08981482F37
:1036200050E08A81282F30E08B81882F90E0440F72
:10363000551F440F551F440F551F240F351F220FD0
:10364000331F220F331F820F931F880F991F8E5D28
:10365000984FFC01408151818981882F90E09C0125
:10366000220F331F220F331F220F331F8A81882F0F
:1036700090E0820F931F9C01220F331F220F331FF4
:103680008B81882F90E0820F931F880F991F81579D
:103690009F4FBA010E9497288B818F5F8B838B810C
:1036A000843008F4BBCF8A818F5F8A838A81883017
:1036B00008F4B2CF89818F5F89838981843008F4CF
:1036C000A9CF69E780E090E00E948A28D2C081E01B
:1036D00090E00E947C288093980182E090E00E9414
:1036E0007C288093BB02198229C08981082F10E0B1
:1036F0008981882F90E00296880F991F0E947C286C
:10370000282FC801880F991F8E54974FFC012083E2
:103710008981082F10E08981882F90E0880F991FF8
:1037200003960E947C28282FC801880F991F8D546A
:10373000974FFC01208389818F5F89838091BB0231
:103740009981981790F2198290C01A8287C01B82C3
:103750007EC08981C82ED12C8A81E82EF12C8B81E4
:10376000082F10E08981882F90E09C01220F331FE1
:10377000220F331F220F331F8A81882F90E0820F80
:10378000931F9C01220F331F220F331F8B81882F21
:1037900090E0820F931F880F991F81579F4F0E94BF
:1037A00084289C01C601880F991F880F991F880FD4
:1037B000991F8E0D9F1D880F991F880F991F800FCD
:1037C000911F880F991F8E5D984FFC0131832083D4
:1037D0008981682F70E08A81482F50E08B81882F83
:1037E00090E02981A22FB0E02A81E22FF0E02B8126
:1037F000222F30E0AA0FBB1FAA0FBB1FAA0FBB1FAF
:10380000EA0FFB1FEE0FFF1FEE0FFF1F2E0F3F1FD4
:10381000220F331F2E5D384FF90120813181660F51
:10382000771F660F771F660F771F460F571F440FCE
:10383000551F440F551F840F951F880F991F8C5CCF
:10384000944FFC01318320838B818F5F8B838B812D
:10385000843008F47ECF8A818F5F8A838A818830A2
:1038600008F475CF89818F5F89838981843008F45A
:103870006CCF00000F900F900F90DF91CF911F91B0
:103880000F91FF90EF90DF90CF900895CF93DF934B
:10389000CDB7DEB78AE390E02AE330E0F90120817A
:1038A0002064FC0120838AE390E02AE330E0F90100
:1038B00020812062FC0120838AE390E02AE330E04B
:1038C000F90120812061FC0120838AE390E02AE352
:1038D00030E0F90120812860FC0120838AE390E038
:1038E0002AE330E0F90120812460FC0120838AE38F
:1038F00090E02AE330E0F90120812260FC0120837E
:103900008AE390E02AE330E0F90120812160FC01A4
:1039100020838BE390E02BE330E0F90120812064E9
:10392000FC0120838BE390E02BE330E0F901208160
:103930002062FC0120838BE390E02BE330E0F9016F
:1039400020812061FC0120838BE390E02BE330E0B9
:10395000F90120812860FC0120838BE390E02BE3B8
:1039600030E0F90120812B7FFC0120838BE390E084
:103970002BE330E0F90120812260FC0120838BE3FE
:1039800090E02BE330E0F90120812E7FFC012083C1
:1039900081E390E021E330E0F90120812061FC0126
:1039A000208381E390E021E330E0F901208120626F
:1039B000FC01208382E390E022E330E0F9012081E2
:1039C0002F7EFC01208382E390E022E330E0F901C6
:1039D00020812062FC0120830000DF91CF910895B7
:1039E000CF93DF931F92CDB7DEB781E089830E942A
:1039F000751D8FE590E02FE530E0F901208120680A
:103A0000FC0120830E94EB1A62E370E080E090E00A
:103A10000E9451010E94441480910301909104017D
:103A2000BC0188E491E00E94BC1280910101909158
:103A30000201BC018AE491E00E94BC124091B502EF
:103A40005091B60220E033E0429FC001439F900DA9
:103A5000529F900D11249D5BBC018CE392E00E946B
:103A6000BC128091B3029091B402865B9F4F982F55
:103A70008827BC0184E992E00E94BC1281E0809317
:103A8000C2020E944A030E94691280915F04882347
:103A900021F00E948C2110925F048091F20588230E
:103AA00021F00E94A8251092F205809177018130C3
:103AB00099F48091C102813079F489810E94F816CD
:103AC00089818F5F89838981873010F081E08983C4
:103AD0001092C1021092C0028091C3028823A9F201
:103AE0000E94A2191092C302D0CFCF93DF93CDB71B
:103AF000DEB70E94461C89E190E00E943A278FE6DB
:103B000090E00E94782780E895E20E94AE270E940C
:103B100024200E948B200E94552084E690E00E9481
:103B2000C5200E94A2010000DF91CF9108951F924D
:103B30000F9200905F000F9211242F933F934F93A9
:103B40005F936F937F938F939F93AF93BF93EF9305
:103B5000FF93CF93DF93CDB7DEB78FE590E02FE5EE
:103B600030E0D9012C912068FC01208382E590E0AF
:103B700022EBDC012C938091BF028F5F8093BF0208
:103B80008091BF028C3328F01092BF0281E08093B5
:103B9000BE028091C202882329F18091C0028F5F0A
:103BA0008093C0028091C002843628F01092C00237
:103BB00081E08093C1028091C4029091C502019678
:103BC0009093C5028093C4028091C4029091C50273
:103BD0008C32914038F01092C5021092C40281E0FC
:103BE0008093C30280919701882309F49AC0809141
:103BF000C6029091C70201969093C7028093C602B5
:103C00008091C6029091C702883C910508F489C052
:103C10001092C7021092C602809196018823C1F1CA
:103C200080919C01882F90E0880F991F81519E4FB1
:103C3000FC0180819181FC0180919C01882F90E0A2
:103C4000880F991F81519E4FDC018D919C91880FA7
:103C5000991F880F991F880F991F2AE030E0B9013A
:103C60000E941228CB018096AC012091B5023091C0
:103C7000B602429FC001439F900D529F900D1124A8
:103C80008E0F9F1FBC0182E390E00E94BC1249C0CE
:103C900080919E01082E000C990B880F991F81516D
:103CA0009E4FFC0180819181FC0180919E01082E34
:103CB000000C990B880F991F81519E4FDC018D914B
:103CC0009C91880F991F880F991F880F991F2AE0D0
:103CD00030E0B9010E941228CB018096AC012091FE
:103CE000B5023091B602429FC001439F900D529F92
:103CF000900D11248E0F9F1FBC018EE390E00E9457
:103D0000BC1280919E01082E000C990B89559E4F84
:103D1000FC018081882F90E0BC0182E490E00E9449
:103D2000BC129091F4058091C802981739F08091E7
:103D3000F4058093C8021092C9021AC08091F4055C
:103D40008823B1F08091C9028F5F8093C90280916E
:103D5000C902843068F08091F4058093F30581E016
:103D60008093F2051092F4051092C8021092C902D5
:103D7000909161048091CA02981739F08091610492
:103D80008093CA021092CB021AC0809161048823EA
:103D9000B1F08091CB028F5F8093CB028091CB02F8
:103DA000843068F0809161048093600481E08093A6
:103DB0005F04109261041092CA021092CB020000BC
:103DC000DF91CF91FF91EF91BF91AF919F918F9133
:103DD0007F916F915F914F913F912F910F90009242
:103DE0005F000F901F9018951F920F9200905F0038
:103DF0000F921124CF93DF93CDB7DEB70000DF9190
:103E0000CF910F9000925F000F901F9018951F9216
:103E10000F9200905F000F9211242F933F934F93C6
:103E20005F936F937F938F939F93AF93BF93EF9322
:103E3000FF93CF93DF9300D0CDB7DEB71A821982FC
:103E40008FE590E02FE530E0D9012C912068FC014E
:103E5000208384E490E022EBDC012C9380919E018E
:103E6000082E000C990B880F991F81519E4FFC0161
:103E700080819181FC0180919E01082E000C990B9C
:103E8000880F991F81519E4FDC018D919C91880F65
:103E9000991F880F991F880F991F2AE030E0B901F8
:103EA0000E941228CB018096AC012091B50230917E
:103EB000B602429FC001439F900D529F900D112466
:103EC0008E0F9F1F20919E01022E000C330B220F9C
:103ED000331F2D52354FF90120813181821B930B05
:103EE0008C599F4F9A8389838091CC028F5F8093F6
:103EF000CC029091CC028091BD02981740F01092B4
:103F0000CC0289819A81BC0181E00E946C1300007F
:103F10000F900F90DF91CF91FF91EF91BF91AF91F3
:103F20009F918F917F916F915F914F913F912F91D1
:103F30000F9000925F000F901F9018951F920F92A4
:103F400000905F000F9211242F933F934F935F9344
:103F50008F939F93EF93FF93CF93DF93CDB7DEB70C
:103F60008091CD028F5F8093CD028091330B8823A7
:103F700009F059C08091CD028930A0F58091BD062D
:103F8000282F30E08091CE02482F50E081E090E071
:103F900002C0880F991F4A95E2F78223932320914C
:103FA000CE02222F30E002C0959587952A95E2F740
:103FB000019751F485E390E025E330E0F901208199
:103FC0002068FC01208309C085E390E025E330E010
:103FD000F90120812F77FC0120838091CE028F5F31
:103FE0008093CE028091CD02893059F41092CE0296
:103FF00085E390E025E330E0F90120812068FC01B1
:1040000020838091CD028A3071F41092CD0283E03A
:104010008093330B8AE890E02AE830E0F9012081B0
:10402000287FFC0120830000DF91CF91FF91EF9169
:104030009F918F915F914F913F912F910F9000929F
:104040005F000F901F901895CF93DF93CDB7DEB729
:1040500083E590E023E530E0F9012081287FFC0131
:10406000208382E590E022EBFC01208387E590E04D
:1040700027E530E0F90120812C7FFC01208387E5D2
:1040800090E027E530E0F90120812160FC012083E8
:1040900083E590E023E530E0F90120812760FC0111
:1040A00020830000DF91CF910895CF93DF93CDB7A8
:1040B000DEB78EE490E02EE430E0F9012081286044
:1040C000FC0120838EE490E02EE430E0F9012081B1
:1040D000287FFC0120838BE490E029E0FC01208311
:1040E0008AE490E024ECFC01208387E590E027E55A
:1040F00030E0F90120812061FC0120838EE490E012
:104100002EE430E0F90120812360FC0120830000CF
:10411000DF91CF910895CF93DF93CDB7DEB785E4DC
:1041200090E025E430E0F9012081287FFC01208324
:1041300084E490E022EBFC01208387E590E027E512
:1041400030E0F90120812F73FC01208387E590E0A6
:1041500027E530E0F90120812064FC01208385E41B
:1041600090E025E430E0F90120812560FC01208306
:1041700085E490E025E430E0F9012081287FFC010E
:1041800020830000DF91CF910895CF92DF92EF92CC
:10419000FF920F931F93CF93DF9300D0CDB7DEB77D
:1041A0009A83898381E790E021E730E0F90120815B
:1041B0002E7FFC01208381E790E021E730E0F901C8
:1041C00020812D7FFC01208300E710E089819A8106
:1041D00082959295907F9827807F9827CC01A0E0C8
:1041E000B0E020E034E244EF50E069017A01C81AFF
:1041F000D90AEA0AFB0AD701C60129813A81990145
:1042000040E050E0BC01CD010E942628DA01C9013E
:10421000B695A79597958795F801808300000F9034
:104220000F90DF91CF911F910F91FF90EF90DF9052
:10423000CF9008951F920F9200905F000F9211246B
:104240002F933F938F939F93EF93FF93CF93DF939E
:10425000CDB7DEB78091610491E0980F909361042F
:10426000882F90E02CE230E0F901208181539D4FAE
:10427000FC01208380916104883C30F080916104CE
:1042800080936004109261040000DF91CF91FF9150
:10429000EF919F918F913F912F910F9000925F002E
:1042A0000F901F9018951F920F9200905F000F9231
:1042B00011242F933F938F939F93EF93FF93CF936B
:1042C000DF93CDB7DEB78091F40591E0980F90931E
:1042D000F405882F90E02CE930E0F90120818E5917
:1042E0009B4FFC0120838091F405883C30F0809145
:1042F000F4058093F3051092F4050000DF91CF914F
:10430000FF91EF919F918F913F912F910F9000928C
:104310005F000F901F901895CF93DF9300D000D0CF
:1043200000D0CDB7DEB71A8219821C821B821E8292
:104330001D8280916004882F90E0019781539D4FEA
:10434000FC018081882F90E09A83898389819A81FA
:10435000382F222780916004882F90E002978153A4
:104360009D4FFC018081882F90E0820F931F9A83DC
:1043700089838091D302882F90E09C838B838B81EB
:104380009C81382F22278091D402882F90E0822BA5
:10439000932B9C838B8380916004882F90E00497FB
:1043A00081539D4FFC018081882F90E09E838D83F7
:1043B0008D819E81382F222780916004882F90E084
:1043C000039781539D4FFC018081882F90E0822BC1
:1043D000932B9E838D838091CF02853A21F4809127
:1043E000D0028A3529F010925F0480E090E0A7C3E4
:1043F0008091D102882F90E09C012B5F3F4F8091EC
:104400006004882F90E02817390729F010925F0484
:1044100080E090E094C380916004682F8FEC92E07C
:104420000E94D9269C0189819A812817390729F091
:1044300010925F0480E090E082C38091D2028338C2
:1044400009F07BC38B819C81CC01A0E0B0E040E40B
:1044500051E02FEB30E0841B950B2817390708F447
:104460006BC38E589F4FFC010C9448288D819E8110
:104470000E94DF0462C38D819E810E94440A5DC355
:1044800080919C01882F90E02D8185569D4FFC01E5
:10449000208353C380919C01882F90E0880F991F3F
:1044A0008E50994F2D813E81FC0131832083809174
:1044B0009C01882F90E0880F991F8E50994FFC0126
:1044C00080819181865B9F4F982F8827BC0180E96E
:1044D00092E00E94BC1231C380919C01882F90E031
:1044E000880F991F8E53994F2D813E81FC01318396
:1044F000208323C380919C01882F90E0880F991F0F
:104500008D5F944F2D813E81FC013183208315C343
:104510000E94C20A12C38D819E819093790180937B
:1045200078010BC38D819E8190937B0180937A01EA
:1045300004C38D819E819093BF068093BE068091B7
:10454000BE069091BF06865B9F4F982F8827BC01BF
:1045500084E992E00E94BC12F0C28D819E8190930A
:10456000C1068093C0064091C0065091C10620E06C
:1045700033E0429FC001439F900D529F900D112444
:104580009D5BBC018CE392E00E94BC12D6C28D817F
:104590009E8190937D0180937C01CFC28D819E810D
:1045A00090937F0180937E01C8C28D819E819093FC
:1045B000810180938001C1C280910501882F90E024
:1045C000019700249695879507949695879507946B
:1045D000982F802D8C5C944F2D813E81FC0131837E
:1045E0002083ABC280910501882F90E001970024C1
:1045F000969587950794969587950794982F802D83
:104600008A5C944F2D813E81FC013183208395C2C9
:1046100080910501882F90E0019700249695879559
:104620000794969587950794982F802D885C944FD2
:104630002D813E81FC01318320837FC28091050161
:10464000882F90E00197002496958795079496957A
:1046500087950794982F802D865C944F2D813E81FD
:10466000FC013183208369C280910501882F90E08D
:1046700001970024969587950794969587950794BA
:10468000982F802D845C944F2D813E81FC013183D5
:10469000208353C280910501882F90E00197002468
:1046A000969587950794969587950794982F802DD2
:1046B000825C944F2D813E81FC01318320833DC279
:1046C00080910501882F90E00197002496958795A9
:1046D0000794969587950794982F802D805C944F2A
:1046E0002D813E81FC013183208327C28091050109
:1046F000882F90E0019700249695879507949695CA
:1047000087950794982F802D8E5B944F2D813E8145
:10471000FC013183208311C280910501882F90E034
:104720000197002496958795079496958795079409
:10473000982F802D8C5B944F2D813E81FC0131831D
:104740002083FBC180910501882F90E00197002410
:10475000969587950794969587950794982F802D21
:104760008A5B944F2D813E81FC0131832083E5C11A
:1047700080910501882F90E00197002496958795F8
:104780000794969587950794982F802D885B944F72
:104790002D813E81FC0131832083CFC180910501B1
:1047A000882F90E001970024969587950794969519
:1047B00087950794982F802D865B944F2D813E819D
:1047C000FC0131832083B9C180910501882F90E0DD
:1047D0000197002496958795079496958795079459
:1047E000982F802D845B944F2D813E81FC01318375
:1047F0002083A3C180910501882F90E001970024B8
:10480000969587950794969587950794982F802D70
:10481000825B944F2D813E81FC01318320838DC1C9
:1048200080910501882F90E0019700249695879547
:104830000794969587950794982F802D805B944FC9
:104840002D813E81FC013183208377C18091050158
:10485000882F90E001970024969587950794969568
:1048600087950794982F802D8E5A944F2D813E81E5
:10487000FC013183208361C180910501882F90E084
:1048800001970024969587950794969587950794A8
:10489000982F802D8C5A944F2D813E81FC013183BD
:1048A00020834BC180910501882F90E0019700245F
:1048B000969587950794969587950794982F802DC0
:1048C0008A5A944F2D813E81FC013183208335C16A
:1048D00080910501882F90E0019700249695879597
:1048E0000794969587950794982F802D885A944F12
:1048F0002D813E81FC01318320831FC18091050100
:10490000882F90E0019700249695879507949695B7
:1049100087950794982F802D865A944F2D813E813C
:10492000FC013183208309C180910501882F90E02B
:1049300001970024969587950794969587950794F7
:10494000982F802D845A944F2D813E81FC01318314
:104950002083F3C080910501882F90E00197002407
:10496000969587950794969587950794982F802D0F
:10497000825A944F2D813E81FC0131832083DDC01A
:1049800080910501882F90E00197002496958795E6
:104990000794969587950794982F802D805A944F69
:1049A0002D813E81FC0131832083C7C080910501A8
:1049B000882F90E001970024969587950794969507
:1049C00087950794982F802D8E59944F2D813E8185
:1049D000FC0131832083B1C080910501882F90E0D4
:1049E0000197002496958795079496958795079447
:1049F000982F802D8C59944F2D813E81FC0131835D
:104A000020839BC080910501882F90E001970024AE
:104A1000969587950794969587950794982F802D5E
:104A20008A59944F2D813E81FC013183208385C0BA
:104A300080910501882F90E0019700249695879535
:104A40000794969587950794982F802D8859944FB1
:104A50002D813E81FC01318320836FC0809105014F
:104A6000882F90E001970024969587950794969556
:104A700087950794982F802D8659944F2D813E81DC
:104A8000FC013183208359C080910501882F90E07B
:104A90000197002496958795079496958795079496
:104AA000982F802D8459944F2D813E81FC013183B4
:104AB000208343C080910501882F90E00197002456
:104AC000969587950794969587950794982F802DAE
:104AD0008259944F2D813E81FC01318320832DC06A
:104AE00080910501882F90E0019700249695879585
:104AF0000794969587950794982F802D8059944F09
:104B00002D813E81FC013183208317C080910501F6
:104B1000882F90E0019700249695879507949695A5
:104B200087950794982F802D8E58944F2D813E8124
:104B3000FC013183208301C0000080E090E02696D4
:104B40000FB6F894DEBF0FBECDBFDF91CF910895B1
:104B5000CF93DF9300D0CDB7DEB71A821982809150
:104B6000F305882F90E001978E599B4FFC018081BF
:104B7000882F90E09A83898389819A81382F222710
:104B80008091F305882F90E002978E599B4FFC018E
:104B90008081882F90E0820F931F9A838983809170
:104BA0006204853A21F4809163048A3529F01092D9
:104BB000F20580E090E024C080916404882F90E0AA
:104BC0009C012B5F3F4F8091F305882F90E02817C1
:104BD000390729F01092F20580E090E011C0809131
:104BE0006504813019F40E942E1708C08091650475
:104BF000873021F4809166040E94FF1480E090E0E9
:104C00000F900F90DF91CF910895CF93DF931F9274
:104C1000CDB7DEB7898300008BE290E0FC01808194
:104C2000882F90E080729927892BB1F38CE290E075
:104C30002981FC01208300000F90DF91CF9108951E
:104C4000CF93DF9300D000D0CDB7DEB79B838A83AC
:104C50006C83198219820EC08A819B819C012F5F0F
:104C60003F4F3B832A83FC0180810E940526898176
:104C70008F5F898399818C81981770F300000F9062
:104C80000F900F900F90DF91CF910895CF93DF9306
:104C90001F92CDB7DEB7898300008BE990E0FC015D
:104CA0008081882F90E080729927892BB1F38CE95D
:104CB00090E02981FC01208300000F90DF91CF91CB
:104CC0000895CF93DF9300D000D0CDB7DEB79B839C
:104CD0008A836C83198219820EC08A819B819C0110
:104CE0002F5F3F4F3B832A83FC0180810E94462631
:104CF00089818F5F898399818C81981770F3000077
:104D00000F900F900F900F90DF91CF910895CF9358
:104D1000DF931F92CDB7DEB7898389818093BD066B
:104D20001092330B85E390E025E330E0F901208118
:104D30002F77FC01208388E890E0FC01118210822B
:104D40008AE890E02AE830E0F90120812160FC0146
:104D5000208300000F90DF91CF910895CF93DF93D0
:104D600000D000D0CDB7DEB79B838A836C831982D5
:104D7000198213C08A819B819C012F5F3F4F3B8327
:104D80002A83FC0180810E94872600008091330BDA
:104D90008330E1F789818F5F898399818C819817AE
:104DA00048F300000F900F900F900F90DF91CF917C
:104DB0000895CF93DF93CDB7DEB727970FB6F8945A
:104DC000DEBF0FBECDBF9E838D836F838FEF9FEFBE
:104DD0009A8389831C8238C08C81882F90E0039647
:104DE0002D813E81820F931FFC018081882F90E0EE
:104DF00029813A81822793279A8389831B821EC047
:104E000089819A8181709927892B79F089819A818A
:104E1000969587959A83898389819A81F1E08F2776
:104E2000F0EA9F279A83898306C089819A819695A3
:104E300087959A8389838B818F5F8B838B81883061
:104E4000F8F28C818F5F8C838C81282F30E08F81EA
:104E5000882F90E00597281739070CF4BDCF89817A
:104E60009A8127960FB6F894DEBF0FBECDBFDF91B3
:104E7000CF910895CF93DF9300D0CDB7DEB79A835B
:104E8000898382E290E022E230E0F9012081226011
:104E9000FC01208382E290E022E230E0F9012081EF
:104EA0002E7FFC01208380E990E029813A81232F25
:104EB0003327FC01208389E290E02981FC012083D3
:104EC00085E990E025E930E0F90120812660FC01C8
:104ED00020838AE290E02AE230E0F901208128690B
:104EE000FC01208300000F900F90DF91CF91089577
:104EF000CF93DF9300D0CDB7DEB79A83898381E368
:104F000090E021E330E0F90120812860FC0120835A
:104F100081E390E021E330E0F90120812B7FFC0167
:104F2000208388E990E029813A81232F3327FC01EF
:104F3000208389E990E02981FC0120838DE990E0BC
:104F400026E0FC0120838AE990E028E9FC01208327
:104F500000000F900F90DF91CF9108950F931F9352
:104F6000CF93DF9300D0CDB7DEB79A83898384E3F4
:104F700090E024E330E0F90120812068FC012083E7
:104F800084E390E024E330E0F90120812F7BFC01F1
:104F9000208385E390E025E330E0F901208120645F
:104FA000FC01208385E390E025E330E0F9012081D6
:104FB0002068FC0120838AE890E02AE830E0F901CB
:104FC00020812860FC0120838AE890E02AE830E014
:104FD000F9012081287FFC01208306E810E0898107
:104FE0009A819C0140E050E080E094E2A4EFB0E0C0
:104FF000BC01CD010E942628DA01C901F801918384
:1050000080838DE790E02DE730E0F9012081206179
:10501000FC01208300000F900F90DF91CF911F9132
:105020000F91089597FB072E16F4009407D077FD93
:1050300009D00E94682807FC05D03EF49095819520
:105040009F4F0895709561957F4F0895A1E21A2EA4
:10505000AA1BBB1BFD010DC0AA1FBB1FEE1FFF1F1C
:10506000A217B307E407F50720F0A21BB30BE40B6C
:10507000F50B661F771F881F991F1A9469F76095B3
:105080007095809590959B01AC01BD01CF0108956D
:10509000EE0FFF1F0590F491E02D0994A29FB0013F
:1050A000B39FC001A39F700D811D1124911DB29F5C
:1050B000700D811D1124911D08950E944E28A59FF9
:1050C000900DB49F900DA49F800D911D1124089503
:1050D000AA1BBB1B51E107C0AA1FBB1FA617B7071E
:1050E00010F0A61BB70B881F991F5A95A9F780953A
:1050F0009095BC01CD010895E199FECF9FBB8EBB79
:10510000E09A99278DB30895A8E1B0E042E050E01D
:105110000C949E28262FE199FECF9FBB8EBB2DBB02
:105120000FB6F894E29AE19A0FBE019608950E9494
:105130008A28272F0C948B28DC01CB01FC01E199F4
:10514000FECF06C0FFBBEEBBE09A31960DB20D92CA
:0C51500041505040B8F70895F894FFCF8C
:10515C00010300640001C8C8B5E7C5BCB6CFBFAA3F
:10516C00000000000000CEC2B6C8B9FDB8DF0000D8
:10517C00000000000000CEC2B6C8B9FDB5CD0000DD
:10518C00000000000000C8C8B5E7C5BCB6CCC2B76B
:10519C00000000000000C8C8B5E7C5BCBDD3B7B45B
:1051AC00000000000000BCD3C8C8C6F7B6CFBFAA29
:1051BC00000000000000BCD3C8C8C6F7B6CCC2B70C
:1051CC0000000000000001016400030064006400A2
:1051DC00640002000400060008000A000C000E0027
:0651EC0010001200140087
:00000001FF
