:100000000C9459010C9476010C9476010C947601B1
:100010000C9476010C9476010C9476010C94760184
:100020000C9476010C9476010C94572D0C94760167
:100030000C94442D0C9476010C9476010C9476016A
:100040000C94E72B0C9476010C94A3300C9476015D
:100050000C9476010C9476010C9476010C94760144
:100060000C9476010C9476010C94192E0C94760164
:100070000C9476010C9476010C94DC300C9476018F
:100080000C9476010C9476010C947601DC0BE50B54
:10009000EF0BFD0B0C0C180C250C320C3F0C4C0C10
:1000A000590C8B10E60C130D1B0D230D2B0D330D6E
:1000B000360D470D590D5C0DE90C610D690D6C0D88
:1000C000780DAB0DB10DB60DBB0DBE0DC60DCE0D31
:1000D000D40DDA0DE00DE60DEC0DF20DF80DF10C7E
:1000E000020DFE0D5C0E720E8B10190ED30EF70E64
:1000F0001C0F410F660F8B10D70FF10F1410371024
:100100005A108B10970E9C0EA20EA80EAE0E8B10DE
:10011000AD0F8B0F9C0F8B10B50FC60FB40E030ED7
:100120005C0C710C860CD10C7D108210851088102F
:100130008B10C4310936D5310936F731093605320D
:10014000093640320936673209366E320936823254
:10015000093609360936DA320936E1320936E8322B
:100160000936333209360936093609360936093671
:10017000093609360936EF320936053309361B339D
:10018000093631330936473309365D33093673335F
:100190000936893309369F330936B5330936CB33EF
:1001A0000936E1330936F73309360D34093623347D
:1001B0000936393409364F340936653409367B340B
:1001C000093691340936A7340936BD340936D3349B
:1001D0000936E9340936FF340936153509362B3529
:1001E000093641350936573509366D3509368335B7
:1001F000093699350936C935093609360936D535EE
:10020000093609360936E235093609360936EF3539
:10021000093609360936FC35093609360936AF354F
:10022000093609360936CB310936BC350936093667
:1002300009360936093609360936093609360936C6
:1002400009360936093609360936093609360936B6
:1002500009360936093609360936093609360936A6
:100260000936093609360936093609360936093696
:100270000936093609360936093609360936093686
:100280000936093609360936093609360936093676
:100290000936093609360936093609360936093666
:1002A0000936093609360936093609360936093656
:1002B000BF3111241FBECFEFD0E1DEBFCDBF11E0B3
:1002C000A0E0B1E0E6E5F4E702C005900D92A639A2
:1002D000B107D9F72CE0A6E9B1E001C01D92AD3D10
:1002E000B207E1F70E94D32A0C94293A0C9400003B
:1002F000CF93DF9300D000D0CDB7DEB78C836C8175
:1003000087E199E00E94F005198253C08981882F06
:1003100090E02981222F30E0220F331F245E364FD8
:10032000F90120813181880F991F8859944FFC0170
:10033000318320838981882F90E02981222F30E02A
:10034000220F331F2859344FF90120813181880F42
:10035000991F8455944FFC01318320838981882F14
:1003600090E02981222F30E0220F331F245B364F8B
:10037000F90120813181880F991F815B9D4FFC011C
:10038000318320838981882F90E02981222F30E0DA
:10039000220F331F215B3D4FF90120813181880FEE
:1003A000991F8150994FFC013183208389818F5F90
:1003B00089838981883108F4A9CF1982CBC01A8238
:1003C000C2C01B82B9C08981682F70E08A81482F22
:1003D00050E08B81882F90E02981A22FB0E02A8104
:1003E000E22FF0E02B81222F30E0AA0FBB1FAA0FD3
:1003F000BB1FAA0FBB1FEA0FFB1FEE0FFF1FEE0F65
:10040000FF1F2E0F3F1F220F331F2458364FF901B5
:1004100020813181660F771F660F771F660F771F68
:10042000460F571F440F551F440F551F840F951F2C
:10043000880F991F8957984FFC0131832083898148
:10044000682F70E08A81482F50E08B81882F90E0E0
:100450002981A22FB0E02A81E22FF0E02B81222F08
:1004600030E0AA0FBB1FAA0FBB1FAA0FBB1FEA0FCA
:10047000FB1FEE0FFF1FEE0FFF1F2E0F3F1F220F60
:10048000331F2957384FF90120813181660F771FBB
:10049000660F771F660F771F460F571F440F551FB4
:1004A000440F551F840F951F880F991F8352944F37
:1004B000FC01318320838981482F50E08A81282FD5
:1004C00030E08B81882F90E0440F551F440F551F5B
:1004D000440F551F240F351F220F331F220F331FC8
:1004E000820F931F880F991F8957984FFC014081F5
:1004F00051818981882F90E09C01220F331F220FA8
:10050000331F220F331F8A81882F90E0820F931FA1
:100510009C01220F331F220F331F8B81882F90E005
:10052000820F931F880F991F81579F4FBA010E9416
:10053000143A8B818F5F8B838B81843008F443CF97
:100540008A818F5F8A838A81883008F43ACF8981D3
:100550008F5F89838981843008F431CF00000F9048
:100560000F900F900F90DF91CF910895CF93DF936D
:1005700000D000D01F92CDB7DEB76A837B838C8317
:100580009D8381E0898313C089810E942B059B0193
:10059000AC018A819B81AC81BD81281739074A074C
:1005A0005B0711F4898109C089818F5F89838091FC
:1005B000BF029981891740F780E00F900F900F904C
:1005C0000F900F90DF91CF910895CF93DF9300D0DC
:1005D00000D01F92CDB7DEB789834A835B836C83DB
:1005E0007D838091BF029981891748F08A819B8120
:1005F000AC81BD81AC01BD0189810E94D204809192
:1006000006010E94ED2500000F900F900F900F90B3
:100610000F90DF91CF910895CF93DF9300D000D05A
:10062000CDB7DEB78C838091BF029C81891708F417
:100630005AC085E08093C0028C81882F90E001979A
:10064000880F991F815D984FFC01808191819B8368
:100650008A838C81898318C08981882F90E00197D3
:100660002981222F30E0220F331F215D384FF901FD
:1006700020813181880F991F815D984FFC01318362
:10068000208389818F5F89838091BF029981981728
:1006900018F38091BF02882F90E00197880F991F6F
:1006A000815D984F2A813B81FC01318320838091B9
:1006B000BF0281508093BF029091BF0280910601DA
:1006C000981768F48091BF02863020F481E080930F
:1006D000060105C08091BF0284508093060180917D
:1006E00006010E94ED25198217C08981882F90E0AC
:1006F000880F991F815D984FFC012081318189818C
:10070000882F90E088539F4F880F991FB9010E944E
:10071000143A89818F5F898389818C3230F380918B
:10072000BF02682F8FEF91E00E94073A00000F9000
:100730000F900F900F90DF91CF910895CF93DF939B
:1007400000D000D000D0CDB7DEB78E8381E080939B
:10075000C002109217098091C5029091C602A09123
:10076000C702B091C8028093180990931909A09309
:100770001A09B0931B0919822FC08981082E000C19
:10078000990B2981022E000C330B220F331F28599D
:10079000344FF90120813181880F991F845E964F73
:1007A000FC01318320838981082E000C990B29815B
:1007B000022E000C330B220F331F215B3D4FF9013A
:1007C00020813181880F991F845B964FFC01318312
:1007D000208389818F5F89838981883174F21982AE
:1007E00057C01A824EC01B8245C08981682F880F6E
:1007F000770B8A81482F880F550B8B81082E000CB0
:10080000990B2981A22F220FBB0B2A81E22F220FE5
:10081000FF0B2B81022E000C330BAA0FBB1FAA0F5C
:10082000BB1FAA0FBB1FEA0FFB1FEE0FFF1FEE0F30
:10083000FF1F2E0F3F1F220F331F2957384FF9017B
:1008400020813181660F771F660F771F660F771F34
:10085000460F571F440F551F440F551F840F951FF8
:10086000880F991F8458964FFC01318320838B8118
:100870008F5F8B838B8184300CF4B7CF8A818F5F3D
:100880008A838A8188300CF4AECF89818F5F898317
:10089000898184300CF4A5CF8091850790918607DB
:1008A0009D838C838AE289831AC08981082E000C7B
:1008B000990B01962981022E000C330B220F331F56
:1008C000215D384FF90120813181880F991F815DA9
:1008D000984FFC01318320838981815089838981EC
:1008E00088231CF78C819D819093300780932F077C
:1008F00061E087E199E00E94AE0581E08093060106
:10090000809106010E94ED25198219C08981082E67
:10091000000C990B880F991F815D984FFC01208175
:1009200031818981082E000C990B88539F4F880FC5
:10093000991FB9010E94143A89818F5F8983898147
:100940008C3224F36E818FEF91E00E94073A000011
:1009500026960FB6F894DEBF0FBECDBFDF91CF91C4
:100960000895CF93DF9300D000D0CDB7DEB78C834E
:100970008C81882F90E00197880F991F815D984F97
:10098000FC01808191819A83898389819A810E9467
:1009900019078B838B810F900F900F900F90DF9131
:1009A000CF910895CF93DF93CDB7DEB727970FB6DA
:1009B000F894DEBF0FBECDBF8B834C835D836E8307
:1009C0007F838B81882F90E00197880F991F815D2D
:1009D000984FFC018081918104969A8389838C8150
:1009E0009D81AE81BF818B2F9927AA27BB27282FF6
:1009F00089819A81622F0E9436068C819D81AE8109
:100A0000BF81CD01AA27BB27282F89819A81019711
:100A1000622F0E9436068C819D81AE81BF81892F15
:100A20009A2FAB2FBB27282F89819A810297622F9B
:100A30000E9436062C8189819A810397622F0E9439
:100A40003606000027960FB6F894DEBF0FBECDBF66
:100A5000DF91CF910895CF92DF92EF92FF92CF93E3
:100A6000DF93CDB7DEB727970FB6F894DEBF0FBE82
:100A7000CDBF8F838F81882F90E00197880F991FBA
:100A8000815D984FFC018081918104969A838983CE
:100A900089819A810E941907CC01A0E0B0E08B8384
:100AA0009C83AD83BE838B819C81AD81BE81CC2430
:100AB000D82EE92EFA2E89819A8101970E94190772
:100AC000CC01A0E0B0E08C299D29AE29BF298B8301
:100AD0009C83AD83BE838B819C81AD81BE81CC2400
:100AE000D82EE92EFA2E89819A8102970E94190741
:100AF000CC01A0E0B0E08C299D29AE29BF298B83D1
:100B00009C83AD83BE838B819C81AD81BE81CC24CF
:100B1000D82EE92EFA2E89819A8103970E9419070F
:100B2000CC01A0E0B0E08C299D29AE29BF298B83A0
:100B30009C83AD83BE838B819C81AD81BE81BC01D2
:100B4000CD0127960FB6F894DEBF0FBECDBFDF9163
:100B5000CF91FF90EF90DF90CF900895CF93DF93E8
:100B6000CDB7DEB727970FB6F894DEBF0FBECDBF67
:100B70009E838D836F838F81882F90E00197880FEC
:100B8000991F815D984FFC01808191819C838B83AB
:100B90001A82198216C02D813E8189819A81820F25
:100BA000931FFC01408129813A818B819C81820FB6
:100BB000931F642F0E94360689819A8101969A8339
:100BC000898389819A818536914028F30000279690
:100BD0000FB6F894DEBF0FBECDBFDF91CF91089561
:100BE0000F931F93CF93DF93CDB7DEB727970FB641
:100BF000F894DEBF0FBECDBF9E838D836F838F8140
:100C0000882F90E00197880F991F815D984FFC0114
:100C1000808191819C838B831A82198216C02D81D9
:100C20003E8189819A818901080F191F29813A81A2
:100C30008B819C81820F931F0E941907F80180838A
:100C400089819A8101969A83898389819A818536DF
:100C5000914028F3000027960FB6F894DEBF0FBE30
:100C6000CDBFDF91CF911F910F910895CF93DF9367
:100C7000CDB7DEB764970FB6F894DEBF0FBECDBF19
:100C80009B8B8A8B6C8B19828A899B89892F9927E8
:100C90008A838A898B830AC089818F5F898389814E
:100CA000853020F00E94752F80E0BAC00E94402F4E
:100CB000882391F30AC089818F5F89838981853078
:100CC00020F00E94752F80E0ABC060E080E50E94BC
:100CD000822F882381F30AC089818F5F898389816C
:100CE000853020F00E94752F80E09AC08A810E9492
:100CF000CC2F882389F30AC089818F5F89838981FA
:100D0000853020F00E94752F80E08AC08B810E9480
:100D1000CC2F882389F30AC089818F5F89838981D9
:100D2000853020F00E94752F80E07AC08C890E9467
:100D3000CC2F882389F30E94752F80E090E0A0E0FB
:100D4000B0E48C839D83AE83BF8320E030E04AE72C
:100D500055E46C817D818E819F810E940539DC0183
:100D6000CB0188879987AA87BB8720E030E040E8DD
:100D70005FE3688579858A859B850E947F38882313
:100D80002CF481E090E09D878C873FC020E03FEF0E
:100D90004FE757E4688579858A859B850E940039ED
:100DA00018164CF520E030E040E251E46C817D8182
:100DB0008E819F810E940539DC01CB01BC01CD01F0
:100DC0000E948438DC01CB019D878C870FC080E9AD
:100DD00091E09F878E878E859F850197F1F79F878A
:100DE0008E878C859D8501979D878C878C859D85B9
:100DF000892B69F714C0688579858A859B850E944F
:100E00008438DC01CB019D878C878C859D85998BEF
:100E1000888B888999890197F1F7998B888B81E074
:100E200064960FB6F894DEBF0FBECDBFDF91CF91B1
:100E30000895CF93DF93CDB7DEB764970FB6F894DC
:100E4000DEBF0FBECDBF9C8B8B8B19828B899C899B
:100E5000892F99278A838B898B830BC089818F5F28
:100E600089838981853028F00E94752F8FEF9FEF4D
:100E7000D6C00E94402F882389F30BC089818F5FE1
:100E800089838981853028F00E94752F8FEF9FEF2D
:100E9000C6C060E080E50E94822F882379F30BC0F2
:100EA00089818F5F89838981853028F00E94752F21
:100EB0008FEF9FEFB4C08A810E94CC2F882381F3EB
:100EC0000BC089818F5F89838981853028F00E94DA
:100ED000752F8FEF9FEFA3C08B810E94CC2F8823AB
:100EE00081F30BC089818F5F89838981853028F0E8
:100EF0000E94752F8FEF9FEF92C00E94402F882392
:100F000089F30BC089818F5F89838981853028F0BF
:100F10000E94752F8FEF9FEF82C061E080E50E94F5
:100F2000822F882379F3000080E00E94FE2F8C83BB
:100F30000E94752F80E090E0A0E0B0E48D839E8356
:100F4000AF83B88720E030E04AE755E46D817E81C9
:100F50008F8198850E940539DC01CB0189879A87AA
:100F6000AB87BC8720E030E040E85FE369857A85A5
:100F70008B859C850E947F3888232CF481E090E04B
:100F80009E878D873FC020E03FEF4FE757E469859C
:100F90007A858B859C850E94003918164CF520E0D7
:100FA00030E040E251E46D817E818F8198850E941E
:100FB0000539DC01CB01BC01CD010E948438DC0184
:100FC000CB019E878D870FC080E991E0988B8F873A
:100FD0008F8598890197F1F7988B8F878D859E85EE
:100FE00001979E878D878D859E85892B69F714C013
:100FF00069857A858B859C850E948438DC01CB01CC
:101000009E878D878D859E859A8B898B89899A8904
:101010000197F1F79A8B898B8C81882F90E06496E9
:101020000FB6F894DEBF0FBECDBFDF91CF9108950C
:10103000CF93DF9300D000D000D0CDB7DEB71C82B5
:101040001D821E82198255C01A824CC01B8243C069
:101050008981482F50E08A81282F30E08B81882FAA
:1010600090E0440F551F440F551F440F551F240F88
:10107000351F220F331F220F331F820F931F880F3C
:10108000991F8957984F24EF31E0FC013183208369
:101090008981482F50E08A81282F30E08B81882F6A
:1010A00090E0440F551F440F551F440F551F240F48
:1010B000351F220F331F220F331F820F931F880FFC
:1010C000991F8352944F24EF31E0FC013183208338
:1010D0008B818F5F8B838B81843008F4B9CF8A81B9
:1010E0008F5F8A838A81883008F4B0CF89818F5FCF
:1010F00089838981843008F4A7CF198233C189811B
:10110000882F90E0880F991F8859944F24E630E08B
:10111000FC01318320838981882F90E0880F991FFB
:101120008455944F24E630E0FC013183208389818B
:10113000882F90E0880F991F8954974F24E630E05C
:10114000FC01318320838981882F90E0880F991FCB
:101150008951974F24E630E0FC0131832083898157
:10116000882F90E0880F991F8957974F24E630E029
:10117000FC01318320838981893070F48981882F33
:1011800090E001962AE030E0B9010E949A39805D32
:101190008E831D821C8248C089818930E0F089815C
:1011A0008336C8F48981882F90E001962AE030E0E8
:1011B000B9010E949A39CB01805D8E838981882F85
:1011C00090E001962AE030E0B9010E949A39805DF2
:1011D0008D831C8229C08981833630F18981873CC7
:1011E00018F58981882F90E0019624E630E0B90156
:1011F0000E949A39CB01805D8E838981882F90E08F
:1012000001962AE030E0B9010E949A39CB01805D55
:101210008D838981882F90E001962AE030E0B90122
:101220000E949A39805D8C838981282F30E08981E2
:10123000882F90E0880F991F880F991F885F944F1F
:10124000FC0180819181A281B3818362220F331FCF
:10125000220F331F285F344FF90180839183A283CB
:10126000B3838981682F70E08981882F90E0880F8F
:10127000991F880F991F885F944FFC01808191818D
:10128000A281B3812227382F492F5A2F8E81882F90
:1012900090E0A0E0B0E0822B932BA42BB52B9B0118
:1012A000220F331F220F331F285F344FF901808331
:1012B0009183A283B3838981682F70E08981882F0D
:1012C00090E0880F991F880F991F885F944FFC0149
:1012D00080819181A281B3812227382F492F5A2FF3
:1012E0008D81882F90E0A0E0B0E0822B932BA42B7F
:1012F000B52B9B01220F331F220F331F285F344F62
:10130000F90180839183A283B3838981682F70E080
:101310008981882F90E0880F991F880F991F885F17
:10132000944FFC0180819181A281B3812227382FC3
:10133000492F5A2F8C81882F90E0A0E0B0E0822BBB
:10134000932BA42BB52B9B01220F331F220F331F8E
:10135000285F344FF90180839183A283B38389810D
:101360008F5F89838981883108F4C9CE0000269671
:101370000FB6F894DEBF0FBECDBFDF91CF910895B9
:10138000CF93DF931F92CDB7DEB719821982B8C110
:101390008981482F50E080919901282F880F330BC5
:1013A000C901880F991F820F931F880F991F840FFF
:1013B000951F01969C018981882F90E0880F991FC5
:1013C000B9010E94081E8981482F50E0809199013F
:1013D000282F880F330BC901880F991F820F931F85
:1013E000880F991F840F951F89559E4FDC018C91A2
:1013F000282F30E08981882F90E00696880F991F6A
:10140000B9010E94081E8981482F50E080919901FE
:10141000282F880F330BC901880F991F820F931F44
:10142000880F991F840F951F880F991F81519E4F18
:10143000FC0180819181FC018981482F50E08091DD
:101440009901282F880F330BC901880F991F820F2C
:10145000931F880F991F840F951F880F991F815123
:101460009E4FDC018D919C91880F991F880F991FC9
:10147000880F991F2AE030E0B9010E949A39CB0108
:101480008096AC012091B5023091B602429FC00116
:10149000439F900D529F900D11249F01280F391FDB
:1014A0008981882F90E00C96880F991FB9010E94BE
:1014B000081E8981482F50E080919901282F880FBC
:1014C000330BC901880F991F820F931F880F991F33
:1014D000840F951F880F991F8859944FFC018081B4
:1014E0009181FC018981482F50E080919901282F3A
:1014F000880F330BC901880F991F820F931F880F24
:10150000991F840F951F880F991F8859944FDC01EC
:101510008D919C91880F991F880F991F880F991F93
:101520002AE030E0B9010E949A39CB018096AC01E3
:101530002091B5023091B602429FC001439F900DA9
:10154000529F900D11249F01280F391F8981882FE8
:1015500090E04296880F991FB9010E94081E898168
:10156000482F50E080919901282F880F330BC90133
:10157000880F991F820F931F880F991F840F951F43
:10158000880F991F815B9D4FFC0180819181865B53
:101590009F4F382F22278981882F90E0885E9E4FA9
:1015A000880F991FB9010E94081E8981482F50E0B9
:1015B00080919901282F880F330BC901880F991F3B
:1015C000820F931F880F991F840F951F880F991FF3
:1015D000880F991F885F944FFC0180819181A281BF
:1015E000B3812981222F30E0205C3F4F220F331F2F
:1015F000220F331F220F331FAC01BD01C9010E940E
:10160000521E8981482F50E080919901282F880F20
:10161000330BC901880F991F820F931F880F991FE1
:10162000840F951F81549E4FDC018C91843098F17A
:101630008981882F90E084569F4F880F991F880FCB
:10164000991F64E070E00E94081E8981482F50E0D5
:1016500080919901282F880F330BC901880F991F9A
:10166000820F931F880F991F840F951F81549E4FDF
:10167000FC018081282F30E08981882F90E0885BF1
:101680009F4F880F991F880F991F880F991FB901C5
:101690000E94081E32C08981482F50E08091990134
:1016A000282F880F330BC901880F991F820F931FB2
:1016B000880F991F840F951F81549E4FDC018C91D8
:1016C000282F30E08981882F90E084569F4F880F23
:1016D000991F880F991FB9010E94081E8981882FC0
:1016E00090E0885B9F4F880F991F880F991F880F84
:1016F000991F63E070E00E94081E89818F5F8983D3
:101700008981863008F444CE00000F90DF91CF919C
:101710000895CF93DF9300D000D0CDB7DEB79C8380
:101720008B838091BB02882319F481E0898330C0C8
:101730002091BB0285E2289F812D1124922F981BB6
:101740009695890F982F96959695892F880F880FD3
:10175000880F891B922F981B992369F49091BB02E3
:1017600085E2989F812D1124981B9695890F869567
:10177000869589830DC09091BB0285E2989F812D4B
:101780001124981B9695890F869586958F5F89837E
:101790008B819C81CC01A0E0B0E040E050E022E5EC
:1017A00030E0841B950B2817390708F4B4C48A5B12
:1017B0009F4FFC010C94D0399091980181E08927CA
:1017C000809398010E94B51DA9C482E390E022E3B2
:1017D00030E0F90120812F7EFC0120839FC480919D
:1017E000990181508093990180919901181614F004
:1017F000109299010E94C00991C4809199018F5F54
:10180000809399018091990183301CF083E080934B
:1018100099010E94C00982C480919901982F892F53
:10182000880F890F880F80939C010E94041476C44E
:1018300080919901982F892F880F890F880F8F5FCA
:1018400080939C010E94041469C480919901982F8F
:10185000892F880F890F880F8E5F80939C010E94CB
:1018600004145CC480919901982F892F880F890FE7
:10187000880F8D5F80939C010E9404144FC4809157
:101880009901982F892F880F890F880F8C5F80937B
:101890009C010E94041442C480919901982F892FC1
:1018A000880F890F880F8B5F80939C010E9404141E
:1018B00035C40E94961032C48091780190917901CC
:1018C000909304018093030180910301909104019E
:1018D000BC0183E00E94E11361E081E00E9458288E
:1018E0001DC48091CB069091CC069093B402809356
:1018F000B3028091B3029091B402BC0185E00E94D2
:10190000E11361E082E00E94582808C48091CD066E
:101910009091CE069093B6028093B5028091B50265
:101920009091B602019779F580910301909104019D
:10193000880F991F880F991F880F991F9C01ADEC84
:10194000BCEC0E94D6399695879596958795969585
:101950008795AC01405E5F4F8091CD069091CE0699
:10196000489F9001499F300D589F300D1124809160
:10197000030190910401820F931FBC0188E491E060
:101980000E94081E09C08091030190910401BC01CE
:1019900088E491E00E94081E61E083E00E945828DC
:1019A000BDC380917A0190917B0190930201809355
:1019B00001018091010190910201BC0184E00E942B
:1019C000E11361E084E00E945828A8C30E948411BA
:1019D000A5C381E08093A0018091A0010E943715EA
:1019E0009DC38091A00181508093A0018091A001AE
:1019F000882319F488E18093A0018091A0010E94BE
:101A000037158CC38091A0018F5F8093A0018091D6
:101A1000A001893118F081E08093A0018091A0019C
:101A20000E9437157BC380919F01815080939F0155
:101A30000E94DA1573C380919F018F5F80939F018D
:101A40000E94DA156BC380919E01815080939E01A4
:101A50000E94DA1563C380919E018F5F80939E017F
:101A60000E94DA155BC30E94962458C380917701C7
:101A700081508093770180917701882319F481E068
:101A800080937701809177010E94341D47C3809134
:101A900077018F5F80937701909177018981981703
:101AA00018F0898180937701809177010E94341D1D
:101AB00035C30E94FC1132C30E9496120E94C009D5
:101AC0002DC381E080937701809177010E94341DBE
:101AD00025C30E94DA1522C385E490E025E430E0B6
:101AE000F9012081287FFC0120831092970116C301
:101AF0000E943B288091030190910401880F991F57
:101B0000880F991F880F991F9C01ADECBCEC0E94B7
:101B1000D639969587959695879596958795AC0134
:101B2000405E5F4F8091B5029091B602489F900150
:101B3000499F300D589F300D1124809103019091E1
:101B40000401820F931FBC0188E491E00E94081EEB
:101B500010920001E3C281E0809305010E944717C3
:101B6000DDC2809105010E945A1BD8C280910501F7
:101B70000E94D918D3C20E94BB17D0C28091050120
:101B80008150809305010E944717C8C280910501CA
:101B90008F5F809305010E944717C0C280910501A5
:101BA00061E20E94231BBAC28091050162E20E9499
:101BB000231BB4C28091050163E20E94231BAEC2C5
:101BC0008091050164E20E94231BA8C28091050157
:101BD00065E20E94231BA2C28091050166E20E9479
:101BE000231B9CC28091050167E20E94231B96C2C1
:101BF0008091050168E20E94231B90C2809106013A
:101C00000E94ED258BC281E0809306011092C102F3
:101C10001092C2021092C3021092C4021092C50226
:101C20001092C6021092C7021092C8021092C0020F
:101C300075C28091C5029091C602A091C702B09171
:101C4000C802892B8A2B8B2B41F486E08093C0023B
:101C5000809106010E94ED2561C28091C50290919C
:101C6000C602A091C702B091C802BC01CD010E947A
:101C7000B602882341F088E08093C002809106017B
:101C80000E94ED254BC28091BF028F5F8093BF02FF
:101C90008091BF028D3258F08CE28093BF0289E0C0
:101CA0008093C002809106010E94ED2537C2809189
:101CB000BF020E949E0332C280910601882F90E0ED
:101CC00005971816190624F081E08093060105C0D7
:101CD00080910601855080930601809106010E9443
:101CE000ED251CC280910601882F90E09C012B5F9E
:101CF0003F4F8091BF02882F90E08217930754F0E6
:101D0000809106018B5F80930601809106010E94FD
:101D1000ED2503C28091BF02863008F0FEC181E04C
:101D200080930601809106010E94ED25F6C1809105
:101D300006010E940C03F2C1809106018F5F0E9490
:101D40000C03ECC1809106018E5F0E940C03E6C17A
:101D5000809106018D5F0E940C03E0C18091060115
:101D60008C5F0E940C03DAC18091C1029091C20283
:101D7000A091C302B091C402BC01CD010E94B60281
:101D80008A838A81882339F08A818093060182E0E0
:101D90008093C00203C083E08093C002809106015B
:101DA0000E94ED25BBC1809106018093BC0281E0B9
:101DB0008093BD029091BC028091BF02891740F4CC
:101DC00087E08093C002809106010E94ED25A6C1A4
:101DD00085E10E94CF1D8091BC02682F87E199E0C8
:101DE0000E94F0058091BD020E949E2697C18091BD
:101DF00006018F5F8093BC0281E08093BD029091C9
:101E0000BC028091BF02891740F487E08093C00232
:101E1000809106010E94ED2581C185E10E94CF1DC0
:101E20008091BC02682F87E199E00E94F0058091C3
:101E3000BD020E949E2672C1809106018E5F809332
:101E4000BC0281E08093BD029091BC028091BF02F0
:101E5000891740F487E08093C002809106010E94B8
:101E6000ED255CC185E10E94CF1D8091BC02682FE9
:101E700087E199E00E94F0058091BD020E949E26B4
:101E80004DC1809106018D5F8093BC0281E08093FB
:101E9000BD029091BC028091BF02891740F487E097
:101EA0008093C002809106010E94ED2537C185E133
:101EB0000E94CF1D8091BC02682F87E199E00E94AB
:101EC000F0058091BD020E949E2628C180910601E6
:101ED0008C5F8093BC0281E08093BD029091BC0234
:101EE0008091BF02891740F487E08093C0028091FF
:101EF00006010E94ED2512C185E10E94CF1D80914F
:101F0000BC02682F87E199E00E94F0058091BD0234
:101F10000E949E2603C18091BD0281508093BD0224
:101F20008091BD02882319F481E08093BD028091E5
:101F3000BD020E949E26F2C08091BD028F5F8093F9
:101F4000BD028091BD02823018F082E08093BD0214
:101F50008091BD020E949E26E1C081E08093BE0276
:101F60008091BE020E943127D9C08091BE0281506B
:101F70008093BE028091BE02882319F481E0809391
:101F8000BE028091BE020E943127C8C08091BE026D
:101F90008F5F8093BE028091BE02843018F084E08F
:101FA0008093BE028091BE020E943127B7C09091FB
:101FB00006018091BF02891740F487E08093C00238
:101FC000809106010E94ED25A9C0809106010E9422
:101FD000780184E08093C002809106010E94ED2583
:101FE0009DC080910601882F90E09C012F5F3F4F9C
:101FF0008091BF02882F90E08217930744F487E016
:102000008093C002809106010E94ED2587C08091D7
:1020100006018F5F0E94780184E08093C002809166
:1020200006010E94ED257AC080910601882F90E07C
:102030009C012E5F3F4F8091BF02882F90E0821756
:10204000930744F487E08093C002809106010E94C8
:10205000ED2564C0809106018E5F0E94780184E0C6
:102060008093C002809106010E94ED2557C08091A7
:102070000601882F90E09C012D5F3F4F8091BF02A9
:10208000882F90E08217930744F487E08093C00282
:10209000809106010E94ED2541C0809106018D5F6F
:1020A0000E94780184E08093C002809106010E9422
:1020B000ED2534C080910601882F90E09C012C5FB3
:1020C0003F4F8091BF02882F90E08217930744F41E
:1020D00087E08093C002809106010E94ED251EC01A
:1020E000809106018C5F0E94780184E08093C00299
:1020F000809106010E94ED2511C0809105010E948A
:102100005F180CC00E94AD1909C00E94C51806C016
:102110000E94BE1B03C0000001C0000000000F9021
:102120000F900F900F90DF91CF910895CF93DF9391
:10213000CDB7DEB780919C01882F90E0880F991F62
:102140008455944FFC018081918120919C01222F24
:1021500030E0220F331F2859344FF901208131819B
:102160008217930729F180919C01882F90E020919C
:102170009C01222F30E0220F331F2455344FF901E8
:1021800020813181880F991F8859944FFC01318338
:10219000208380919C01882F90E0880F991F885997
:1021A000944FFC0180819181BC0183E00E947E13E9
:1021B00080919C01882F90E0880F991F8153994F3F
:1021C000FC012081318180919C01882F90E0880F53
:1021D000991F815E9D4FFC018081918128173907ED
:1021E00029F180919C01882F90E020919C01222F61
:1021F00030E0220F331F2153394FF9012081318103
:10220000880F991F815E9D4FFC013183208380914F
:102210009C01882F90E0880F991F815E9D4FFC01E3
:1022200080819181BC0186E00E947E1380919C0197
:10223000882F90E085569D4FFC01208180919C0164
:10224000882F90E08D579D4FFC0180812817F1F079
:1022500080919C01882F90E020919C01222F30E0FA
:1022600025563D4FF90120818D579D4FFC0120835C
:1022700080919C01882F90E08D579D4FFC018081BB
:10228000882F90E0BC0188E00E947E1380919C0121
:10229000882F90E0880F991F880F991F885F944FAF
:1022A000FC01208131814281538180917F02909194
:1022B0008002A0918102B0918202281739074A0753
:1022C0005B07B9F080919C01282F30E080917F025C
:1022D00090918002A0918102B0918202220F331F5F
:1022E000220F331F285F344FF90180839183A2832B
:1022F000B3830E94C00981E080930001109297018E
:102300000000DF91CF910895CF93DF93CDB7DEB773
:1023100080919D01882F90E0019720917C01309160
:102320007D01880F991F8954974FFC0131832083C9
:1023300080919D01882F90E0019720917E0130913E
:102340007F01880F991F8951974FFC0131832083AA
:1023500080919D01882F90E001972091800130911C
:102360008101880F991F8957974FFC013183208382
:1023700080919D01882F90E00197880F991F8954C3
:10238000974FFC0180819181BC0186E390E00E941F
:10239000081E80919D01882F90E00197880F991F5A
:1023A0008951974FFC0180819181BC0188E390E0C5
:1023B0000E94081E80919D01882F90E00197880F50
:1023C000991F8957974FFC0180819181BC018AE355
:1023D00090E00E94081E8091CA0291E0980F9093AD
:1023E000CA02882F90E08856944F22E0FC01208397
:1023F0000000DF91CF910895CF93DF93CDB7DEB783
:1024000080919C01882F90E0880F991F8455944FEC
:10241000FC018081918120919C01222F30E0220FCC
:10242000331F2859344FF9012081318182179307D6
:10243000B1F080919C01882F90E020919C01222F87
:1024400030E0220F331F2859344FF90120813181A8
:10245000880F991F8455944FFC013183208380910C
:102460009C01882F90E0880F991F8153994FFC01A0
:102470002081318180919C01882F90E0880F991FE5
:10248000815E9D4FFC018081918128173907B1F051
:1024900080919C01882F90E020919C01222F30E0B8
:1024A000220F331F215E3D4FF90120813181880FBA
:1024B000991F8153994FFC013183208380919C01A6
:1024C000882F90E0880F991F8150994FFC0120813F
:1024D000318180919C01882F90E0880F991F815B4A
:1024E0009D4FFC018081918128173907B1F08091BF
:1024F0009C01882F90E020919C01222F30E0220F38
:10250000331F215B3D4FF90120813181880F991FD5
:102510008150994FFC013183208381E08093000139
:10252000109297010000DF91CF910895CF93DF9330
:10253000CDB7DEB720917801309179018091030108
:10254000909104012817390789F080910301909137
:102550000401909379018093780180910301909117
:102560000401BC0188E491E00E94081E20917A01D8
:1025700030917B0180910101909102012817390768
:1025800089F0809101019091020190937B018093E9
:102590007A018091010190910201BC018AE491E0ED
:1025A0000E94081E2091CB063091CC068091B30288
:1025B0009091B40228173907A9F08091B302909145
:1025C000B4029093CC068093CB068091B302909195
:1025D000B402865B9F4F982F8827BC0184E992E064
:1025E0000E94081E2091CD063091CE068091B50242
:1025F0009091B60228173907D9F08091B5029091D1
:10260000B6029093CE068093CD064091B5025091CC
:10261000B60220E033E0429FC001439F900D529FDD
:10262000900D11249D5BBC018CE392E00E94081E7A
:1026300081E0809300010000DF91CF910895CF9356
:10264000DF9300D000D0CDB7DEB78091E302882FB2
:1026500090E0A0E0B0E089839A83AB83BC8389815A
:102660009A81AB81BC812227382F492F5A2F809124
:10267000E402882F90E0A0E0B0E0822B932BA42B03
:10268000B52B89839A83AB83BC8389819A81AB8183
:10269000BC812227382F492F5A2F8091E502882F9D
:1026A00090E0A0E0B0E0822B932BA42BB52B898384
:1026B0009A83AB83BC8389819A81AB81BC812227B9
:1026C000382F492F5A2F8091E602882F90E0A0E002
:1026D000B0E0822B932BA42BB52B89839A83AB83F9
:1026E000BC8389819A81AB81BC81BC01CD010F90F3
:1026F0000F900F900F90DF91CF910895CF93DF93BC
:1027000000D000D000D0CDB7DEB78C837E836D8340
:102710001A8219821B8280919C01869586958F5F13
:102720008B838B81882F90E082959295907F98275C
:10273000807F9827982F80919C0183708F5F892BD1
:102740008B8385EA809337058AE58093380584E09A
:10275000809339058C8180933A058B8180933B056A
:102760008D819E81892F992780933C058D8180934F
:102770003D0569E087E395E00E9446379A838983A7
:10278000898180933E0589819A81892F9927809339
:102790003F0500008091CE028130E1F769E087E3D8
:1027A00095E00E94CE361092CE021092CD0200002B
:1027B00026960FB6F894DEBF0FBECDBFDF91CF9146
:1027C0000895CF93DF9300D01F92CDB7DEB78983F2
:1027D0007B836A838981882F90E08330910519F08B
:1027E000059731F00AC08A819B810E94852705C028
:1027F0008A819B810E94E027000000000F900F90CB
:102800000F90DF91CF910895CF93DF93CDB7DEB7CF
:102810001092000181E08093970181E080939601FE
:1028200080919C01882F90E00196BC0180E390E0AC
:102830000E94081E80919C01882F90E0880F991FAC
:1028400081519E4FDC018D919C91FC0180919C01F6
:10285000882F90E0880F991F81519E4FDC018D9148
:102860009C91880F991F880F991F880F991F2AE044
:1028700030E0B9010E949A39CB018096AC012091D9
:10288000B5023091B602429FC001439F900D529F06
:10289000900D11248E0F9F1FBC0182E390E00E94D7
:1028A000081E80919C01882F90E0880F991F8859FD
:1028B000944FFC0180819181FC0180919C01882FC3
:1028C00090E0880F991F8859944FDC018D919C915D
:1028D000880F991F880F991F880F991F2AE030E0F1
:1028E000B9010E949A39CB018096AC012091B502C2
:1028F0003091B602429FC001439F900D529F900DB0
:1029000011248E0F9F1FBC0184E390E00E94081EDB
:1029100080919C01882F90E0880F991F8859944FCF
:10292000FC0180819181FC0180919C01882F90E0C5
:10293000880F991F8859944FDC018D919C91880FC5
:10294000991F880F991F880F991F2AE030E0B9015D
:102950000E949A39CB018096AC012091B50230914A
:10296000B602429FC001439F900D529F900D1124CB
:102970008E0F9F1FBC0186E491E00E94081E80918B
:102980009C01882F90E0880F991F815E9D4FFC016C
:1029900080819181BC0184E491E00E94081E8091B5
:1029A0009C01882F90E0880F991F815B9D4FDC016F
:1029B0008D919C91865B9F4F982F8827BC0180E961
:1029C00092E00E94081E80919C01882F90E08D5714
:1029D0009D4FFC018081882F90E0BC018AEB91E043
:1029E0000E94081E80919C01882F90E0880F991FFB
:1029F000880F991F885F944FFC0180819181A2818B
:102A0000B381AC01BD0188E892E00E94521E809122
:102A10009C01882F90E0880F991F880F991F885F6D
:102A2000944FFC0180819181A281B381AC01BD01F1
:102A300088E591E00E94521E80919C01882F90E0D1
:102A4000880F991F880F991F885F944FFC01808120
:102A50009181A281B38180937F0290938002A093A1
:102A60008102B09382020000DF91CF910895CF934D
:102A7000DF931F92CDB7DEB78983898180939D0153
:102A80008981882F90E0BC0180E591E00E94081EBA
:102A90008981882F90E00197880F991F8954974F5B
:102AA000FC0180819181BC0186E390E00E94081EB8
:102AB0008981882F90E00197880F991F8951974F3E
:102AC000FC0180819181BC0188E390E00E94081E96
:102AD0008981882F90E00197880F991F8957974F18
:102AE000FC0180819181BC018AE390E00E94081E74
:102AF0008981882F90E00197880F991F8954974FFB
:102B0000FC0180819181BC0182E591E00E94081E58
:102B10008981882F90E00197880F991F8951974FDD
:102B2000FC0180819181BC0184E591E00E94081E36
:102B30008981882F90E00197880F991F8957974FB7
:102B4000FC0180819181BC0186E591E00E94081E14
:102B50008981882F90E00197880F991F8954974F9A
:102B6000FC018081918190937D0180937C0189811A
:102B7000882F90E00197880F991F8951974FFC018A
:102B80008081918190937F0180937E018981882F3C
:102B900090E00197880F991F8957974FFC0180811A
:102BA0009181909381018093800100000F90DF91CB
:102BB000CF910895CF93DF93CDB7DEB766970FB669
:102BC000F894DEBF0FBECDBF19821A8284E1E2E81D
:102BD000F1E0DE01139601900D928A95E1F781E014
:102BE000809397011092960180919F01843024F088
:102BF00083E080939F0106C080919F01882314F495
:102C000010929F0180919E0188311CF010929E01CC
:102C100007C080919E0188231CF487E180939E0168
:102C200080919F01082E000C990B0196880F982F18
:102C3000990F990F890F8A8385E490E025E430E0AD
:102C4000D9012C91287FFC0120838AE50E94B724BA
:102C5000198246C08981882F90E02981222F30E097
:102C6000220F331FAE014F5F5F4F240F351F2E5FC2
:102C70003F4FD9014D915C9120919F01022E000C94
:102C8000330B2F5F3F4FB901469F9001479F300D97
:102C9000569F300D1124880F991FAE014F5F5F4F73
:102CA000840F951F0296FC01318320838981882F30
:102CB00090E0880F991F9E012F5F3F4F820F931F57
:102CC0000296DC012D913C918981882F90E08996B4
:102CD000880F991FB9010E94081E89818F5F89831F
:102CE00089818A3008F4B6CF80919E01082E000CAD
:102CF000990B0196BC018CE390E00E94081E809124
:102D00009E01082E000C990B880F991F81519E4F30
:102D1000FC0180819181FC0180919E01082E000CB4
:102D2000990B880F991F81519E4FDC018D919C91C9
:102D3000880F991F880F991F880F991F2AE030E08C
:102D4000B9010E949A39CB018096AC012091B5025D
:102D50003091B602429FC001439F900D529F900D4B
:102D600011248E0F9F1FBC018EE390E00E94081E6D
:102D700080919E01082E000C990B880F991F88598D
:102D8000944FFC0180819181FC0180919E01082E6D
:102D9000000C990B880F991F8859944FDC018D9175
:102DA0009C91880F991F880F991F880F991F2AE0FF
:102DB00030E0B9010E949A39CB018096AC01209194
:102DC000B5023091B602429FC001439F900D529FC1
:102DD000900D11248E0F9F1FBC0180E490E00E9493
:102DE000081E80919E01082E000C990B89559E4F5C
:102DF000FC018081882F90E0BC0182E490E00E9479
:102E0000081E80919E01082E000C990B880F991FB7
:102E1000815B9D4FDC018D919C91865B9F4F982F2C
:102E20008827BC0180EA92E00E94081E80919E01E2
:102E3000082E000C990B880F991F880F991F885F27
:102E4000944FFC0180819181A281B381AC01BD01CD
:102E500088E992E00E94521E8A818093C90284E42C
:102E600090E022EBDC012C9385E490E025E430E057
:102E7000F90120812560DC012C93000066960FB6D5
:102E8000F894DEBF0FBECDBFDF91CF910895CF93F1
:102E9000DF9300D01F92CDB7DEB71B828091050172
:102EA000882321F481E0809305015EC080910501B3
:102EB000853020F084E08093050156C080910501A3
:102EC000882F90E0BC0182E790E00E94081E80916C
:102ED0000501882F90E0019789549D4FFC01808166
:102EE000882F90E0BC0180E790E00E94081E1982C4
:102EF00038C01A8230C080910501882F90E0AC0163
:102F0000415051098981282F30E08A81882F90E033
:102F1000440F551F440F551F440F551F240F351FD5
:102F2000220F331F220F331F820F931F880F991F09
:102F30008957984FFC01208131818B81882F90E047
:102F40008E599E4FB9010E94081E8B818E5F8B8324
:102F50008A818F5F8A838A81843068F289818F5F5A
:102F600089838981883028F200000F900F900F909C
:102F7000DF91CF910895CF93DF9300D0CDB7DEB727
:102F8000198293C01A828AC080910501882F90E02F
:102F9000BC01615071098981482F50E08A81882FD6
:102FA00090E020910501222F30E0D901119729816D
:102FB000E22FF0E02A81222F30E0AA0FBB1FAA0FD8
:102FC000BB1FAA0FBB1FEA0FFB1FEE0FFF1FEE0F69
:102FD000FF1F2E0F3F1F220F331F2352344FF901C3
:102FE00020813181660F771F660F771F660F771F6D
:102FF000460F571F440F551F440F551F840F951F31
:10300000880F991F8957984FFC0131832083809145
:103010000501882F90E0AC01415051098981282F8A
:1030200030E08A81882F90E0440F551F440F551FD0
:10303000440F551F240F351F220F331F220F331F3C
:10304000820F931F880F991F8957984FFC01408169
:10305000518180910501882F90E001979C01220FFA
:10306000331F220F331F220F331F8981882F90E0D7
:10307000820F931F9C01220F331F220F331F8A815F
:10308000882F90E0820F931F880F991F81579F4FC1
:10309000BA010E94143A8A818F5F8A838A818430C0
:1030A00008F472CF89818F5F89838981883008F421
:1030B00069CF00000F900F90DF91CF910895CF93CB
:1030C000DF9300D01F92CDB7DEB78B831A821982AF
:1030D00085EA809302068AE58093030682E0809366
:1030E00004068EE4809305068B818150809306064A
:1030F00067E082E096E00E9446379A83898389815F
:103100008093070689819A81892F992780930806E1
:1031100067E082E096E00E941B378B81882F90E069
:10312000019789549D4F22E0FC0120838B81882FD9
:1031300090E0019789549D4FFC018081882F90E099
:10314000BC0180E790E00E94081E8BE390E02BE337
:1031500030E0F9012081622F2B81222F30E047E0FF
:1031600050E0421B530B21E030E002C0220F331F1E
:103170004A95E2F720952623FC01208300000F905A
:103180000F900F90DF91CF910895CF93DF93CDB73C
:10319000DEB781E00E945F1882E00E945F1883E042
:1031A0000E945F1884E00E945F180000DF91CF91B9
:1031B0000895CF93DF9300D000D000D0CDB7DEB715
:1031C0008E831B821D821C8285EA809302068AE51B
:1031D0008093030682E4809304068DE180930506C4
:1031E0008E81815080930606198263C01A825AC06C
:1031F0008B81882F90E005962E81222F30E0B90137
:10320000615071092981422F50E02A81222F30E03C
:10321000660F771F660F771F660F771F460F571FC2
:10322000440F551F440F551F240F351F220F331F06
:103230002957384FF90120813181232F33278E5FA1
:10324000994FFC0120838B81882F90E006962E8178
:10325000222F30E0B901615071092981422F50E0DD
:103260002A81222F30E0660F771F660F771F660FC7
:10327000771F460F571F440F551F440F551F240F2C
:10328000351F220F331F2957384FF9012081318113
:103290008E5F994FFC0120838B818E5F8B838A81A7
:1032A0008F5F8A838A81843008F4A2CF89818F5FFF
:1032B00089838981883008F499CF67E482E096E0B9
:1032C0000E9446379D838C838C81809347068C8136
:1032D0009D81892F99278093480667E482E096E0D4
:1032E0000E941B378E81882F90E0019789549D4F53
:1032F00021E0FC0120838E81882F90E00197895482
:103300009D4FFC018081882F90E0BC0180E790E018
:103310000E94081E8BE390E02BE330E0F90120814E
:10332000622F2E81222F30E047E050E0421B530BEA
:1033300021E030E002C0220F331F4A95E2F72095CA
:103340002623FC012083000026960FB6F894DEBFEA
:103350000FBECDBFDF91CF910895CF93DF93CDB74F
:10336000DEB7AA970FB6F894DEBF0FBECDBF81E0DF
:103370000E94D91880E090E0A0E4B0E489839A83A9
:10338000AB83BC8320E030E04AE755E469817A8171
:103390008B819C810E940539DC01CB0189A39AA312
:1033A000ABA3BCA320E030E040E85FE369A17AA1D1
:1033B0008BA19CA10E947F3888232CF481E090E0AF
:1033C0009EA38DA33FC020E03FEF4FE757E469A1E4
:1033D0007AA18BA19CA10E94003918164CF520E01F
:1033E00030E040E251E469817A818B819C810E94C6
:1033F0000539DC01CB01BC01CD010E948438DC0120
:10340000CB019EA38DA30FC080E991E098A78FA365
:103410008FA198A50197F1F798A78FA38DA19EA1E1
:1034200001979EA38DA38DA19EA1892B69F714C03E
:1034300069A17AA18BA19CA10E948438DC01CB01F7
:103440009EA38DA38DA19EA19AA789A789A59AA5C0
:103450000197F1F79AA789A782E00E94D91880E026
:1034600090E0A0E4B0E48D839E83AF83B88720E032
:1034700030E04AE755E46D817E818F8198850E9416
:103480000539DC01CB018F8B988FA98FBA8F20E093
:1034900030E040E85FE36F89788D898D9A8D0E94D6
:1034A0007F3888232CF481E090E09C8F8B8F3FC085
:1034B00020E03FEF4FE757E46F89788D898D9A8D33
:1034C0000E94003918164CF520E030E040E251E44B
:1034D0006D817E818F8198850E940539DC01CB0149
:1034E000BC01CD010E948438DC01CB019C8F8B8F05
:1034F0000FC080E991E09E8F8D8F8D8D9E8D0197FD
:10350000F1F79E8F8D8F8B8D9C8D01979C8F8B8F6C
:103510008B8D9C8D892B69F714C06F89788D898D6F
:103520009A8D0E948438DC01CB019C8F8B8F8B8D10
:103530009C8D98A38F8F8F8D98A10197F1F798A3F9
:103540008F8F83E00E94D91880E090E0A0E4B0E47F
:1035500089879A87AB87BC8720E030E04AE755E44B
:1035600069857A858B859C850E940539DC01CB01B4
:103570008D879E87AF87B88B20E030E040E85FE31F
:103580006D857E858F8598890E947F3888232CF4ED
:1035900081E090E09A8B898B3FC020E03FEF4FE7BE
:1035A00057E46D857E858F8598890E9400391816AD
:1035B0004CF520E030E040E251E469857A858B8566
:1035C0009C850E940539DC01CB01BC01CD010E9424
:1035D0008438DC01CB019A8B898B0FC080E991E0A4
:1035E0009C8B8B8B8B899C890197F1F79C8B8B8BA8
:1035F00089899A8901979A8B898B89899A89892BDC
:1036000069F714C06D857E858F8598890E948438FE
:10361000DC01CB019A8B898B89899A899E8B8D8B52
:103620008D899E890197F1F79E8B8D8B84E00E9496
:10363000D9180000AA960FB6F894DEBF0FBECDBF12
:10364000DF91CF910895CF93DF9300D000D0CDB715
:10365000DEB78B836C831A82198285EA8093020617
:103660008AE58093030682E0809304068C81809330
:1036700005068B8181508093060667E082E096E024
:103680000E9446379A838983898180930F068981B6
:103690009A81892F99278093100667E082E096E04F
:1036A0000E941B3700000F900F900F900F90DF913A
:1036B000CF910895CF93DF9300D01F92CDB7DEB79F
:1036C0008B831A82198285EA809302068AE58093A9
:1036D000030682E0809304068CE1809305068B81CB
:1036E00081508093060667E082E096E00E944637AC
:1036F0009A83898389818093070689819A81892F9A
:1037000099278093080667E082E096E00E941B37C5
:103710008B81882F90E0019789549D4FFC01108286
:103720008B81882F90E0019789549D4FFC01808107
:10373000882F90E0BC0180E790E00E94081E8BE398
:1037400090E02BE330E0F9012081622F2B81222FC2
:1037500030E047E050E0421B530B21E030E002C074
:10376000220F331F4A95E2F7262BFC01208300002D
:103770000F900F900F90DF91CF910895CF93DF932B
:10378000CDB7DEB7AA970FB6F894DEBF0FBECDBF98
:1037900081E00E945A1B80E090E0A0E4B0E48983BD
:1037A0009A83AB83BC8320E030E04AE755E469812B
:1037B0007A818B819C810E940539DC01CB0189A330
:1037C0009AA3ABA3BCA320E030E040E85FE369A18B
:1037D0007AA18BA19CA10E947F3888232CF481E0E0
:1037E00090E09EA38DA33FC020E03FEF4FE757E45A
:1037F00069A17AA18BA19CA10E94003918164CF5F1
:1038000020E030E040E251E469817A818B819C8143
:103810000E940539DC01CB01BC01CD010E94843836
:10382000DC01CB019EA38DA30FC080E991E098A796
:103830008FA38FA198A50197F1F798A78FA38DA1CA
:103840009EA101979EA38DA38DA19EA1892B69F7AF
:1038500014C069A17AA18BA19CA10E948438DC01CB
:10386000CB019EA38DA38DA19EA19AA789A789A50F
:103870009AA50197F1F79AA789A782E00E945A1B9F
:1038800080E090E0A0E4B0E48D839E83AF83B887AE
:1038900020E030E04AE755E46D817E818F81988594
:1038A0000E940539DC01CB018F8B988FA98FBA8FCD
:1038B00020E030E040E85FE36F89788D898D9A8D54
:1038C0000E947F3888232CF481E090E09C8F8B8FBE
:1038D0003FC020E03FEF4FE757E46F89788D898D37
:1038E0009A8D0E94003918164CF520E030E040E235
:1038F00051E46D817E818F8198850E940539DC01BC
:10390000CB01BC01CD010E948438DC01CB019C8F2E
:103910008B8F0FC080E991E09E8F8D8F8D8D9E8D56
:103920000197F1F79E8F8D8F8B8D9C8D01979C8FCA
:103930008B8F8B8D9C8D892B69F714C06F89788D47
:10394000898D9A8D0E948438DC01CB019C8F8B8FEE
:103950008B8D9C8D98A38F8F8F8D98A10197F1F7F8
:1039600098A38F8F83E00E945A1B80E090E0A0E430
:10397000B0E489879A87AB87BC8720E030E04AE7CC
:1039800055E469857A858B859C850E940539DC0123
:10399000CB018D879E87AF87B88B20E030E040E871
:1039A0005FE36D857E858F8598890E947F388823A7
:1039B0002CF481E090E09A8B898B3FC020E03FEFB0
:1039C0004FE757E46D857E858F8598890E94003981
:1039D00018164CF520E030E040E251E469857A8524
:1039E0008B859C850E940539DC01CB01BC01CD0192
:1039F0000E948438DC01CB019A8B898B0FC080E94F
:103A000091E09C8B8B8B8B899C890197F1F79C8B28
:103A10008B8B89899A8901979A8B898B89899A8955
:103A2000892B69F714C06D857E858F8598890E94E2
:103A30008438DC01CB019A8B898B89899A899E8B8A
:103A40008D8B8D899E890197F1F79E8B8D8B84E0FC
:103A50000E945A1B0000AA960FB6F894DEBF0FBE54
:103A6000CDBFDF91CF910895CF93DF9300D01F9208
:103A7000CDB7DEB78B8319821A8219826BC0909101
:103A8000BB028981292F281B8B81882F90E0019709
:103A9000982F89EF989F802D1124820F8A83898126
:103AA000482F50E08B81882F90E09C0121503109F4
:103AB000C901880F991F880F991F880F991F821BB2
:103AC000930B840F951F01969C018981882F90E0AC
:103AD0008296880F991FB9010E94081E8091BB022F
:103AE000482F50E08981682F70E08B81882F90E00B
:103AF0009C0121503109C901880F991F880F991F16
:103B0000880F991F821B930B860F971F84179507A9
:103B1000DCF48A81882F90E00197880F991F8358E1
:103B2000954FFC018081282F30E08A81882F90E01A
:103B30000197880F991F8458954FFC018081A90136
:103B400069810E94FA1E03C089810E943124898103
:103B50008F5F89838981873008F491CF00000F90AF
:103B60000F900F90DF91CF910895CF93DF93CDB752
:103B7000DEB780919801813021F483E00E94CF1D4F
:103B800003C081E00E94CF1D80919801682F81E0E1
:103B900090E00E94073A0000DF91CF910895CF9303
:103BA000DF9300D01F92CDB7DEB78B831A821982C4
:103BB00085EA8093A4038AE58093A50384E080933B
:103BC000A60380E88093A70383E08093A803109264
:103BD000A9038B818093AA0369E084EA93E00E94A1
:103BE00046379A83898389818093AB0389819A813F
:103BF000892F99278093AC0369E084EA93E00E94BF
:103C00008D3600000F900F900F90DF91CF910895A7
:103C1000CF93DF9300D000D000D0CDB7DEB79C8328
:103C20008B837E836D831A82198285EA8093A40335
:103C30008AE58093A50385E08093A60382E88093BC
:103C4000A7038B819C81892F99278093A8038B815F
:103C50008093A9038D819E81892F99278093AA0340
:103C60008D818093AB036AE084EA93E00E9446373B
:103C70009A83898389818093AC0389819A81892F72
:103C800099278093AD036AE084EA93E00E948D3621
:103C9000000026960FB6F894DEBF0FBECDBFDF91B1
:103CA000CF910895CF93DF93CDB7DEB728970FB6A6
:103CB000F894DEBF0FBECDBF9C838B834D835E83A4
:103CC0006F8378871A82198285EA8093A4038AE534
:103CD0008093A50387E08093A60382E88093A703DF
:103CE0008B819C81892F99278093A8038B81809356
:103CF000A9038D819E81AF81B8858B2F9927AA2733
:103D0000BB278093AA038D819E81AF81B885CD01A9
:103D1000AA27BB278093AB038D819E81AF81B88595
:103D2000892F9A2FAB2FBB278093AC038D81809373
:103D3000AD036CE084EA93E00E9446379A8389835E
:103D400089818093AE0389819A81892F99278093F5
:103D5000AF036CE084EA93E00E948D360000289661
:103D60000FB6F894DEBF0FBECDBFDF91CF9108959F
:103D7000CF93DF9300D000D01F92CDB7DEB78B83F7
:103D80007D836C831A82198285EA8093A4038AE575
:103D90008093A50384E08093A60384E88093A7031F
:103DA0008B818093A8038C819D81892F9927809393
:103DB000A9038C818093AA0369E084EA93E00E94BE
:103DC00046379A83898389818093AB0389819A815D
:103DD000892F99278093AC0369E084EA93E00E94DD
:103DE0008D3600000F900F900F900F900F90DF9185
:103DF000CF910895CF93DF93CDB7DEB729970FB654
:103E0000F894DEBF0FBECDBF8E836F83598748877E
:103E100019821D821C821B821A8285EA8093A40368
:103E20008AE58093A50383E18093A60382E88093CB
:103E3000A7038F81882F90E08B9682959295907F33
:103E40009827807F9827892F990F990B8093A80333
:103E50008F81882F90E08B968295807F8093A90335
:103E600019821DC08981882F90E006962E81422FED
:103E700050E02981222F30E042955295507F5427FF
:103E8000407F5427240F351F295F3E4FF9012081C1
:103E90008C559C4FFC01208389818F5F89838981A8
:103EA000803100F368E184EA93E00E9446379D8305
:103EB0008C838C818093BA038C819D81892F992773
:103EC0008093BB0368E184EA93E00E948D36888585
:103ED0009985099738F488859985C19693629B8363
:103EE0008A8306C088859985C89693629B838A8356
:103EF0008F81882F90E080579E4F880F991F9C01DB
:103F00008A819B81BC01C9010E94081E000029967C
:103F10000FB6F894DEBF0FBECDBFDF91CF910895ED
:103F20000F931F93CF93DF9300D0CDB7DEB71982E5
:103F300033C08981082F10E089818F5F0E94D71FCD
:103F4000282FC8018F559E4FFC0120838981882F1F
:103F500090E08F559E4FFC0180818823D1F41A8216
:103F600015C08981882F90E09C01220F331F220FFA
:103F7000331F8A81882F90E0820F931F81549E4FB8
:103F800024E0FC0120838A818F5F8A838A818430C8
:103F900040F389818F5F89838981863050F20000E8
:103FA0000F900F90DF91CF911F910F910895CF93B4
:103FB000DF9300D000D01F92CDB7DEB78D8319827A
:103FC0001C821B821092CB021092CC0281E08A8369
:103FD00055C085EA809337058AE58093380582E0ED
:103FE0008093390587E080933A058D81982F9295CB
:103FF000907F8A81890F80933B0567E087E395E096
:104000000E9446379C838B838B8180933C058B81F8
:104010009C81892F992780933D0567E087E395E090
:104020000E94CE3620C08091FF058823E1F00E94D7
:1040300015361092FF0580917304282F30E08D8192
:10404000882F90E0AC0142955295507F5427407FD5
:1040500054278A81882F90E0840F951F28173907ED
:1040600011F481E089838091CB028130E1F61092D6
:10407000CB021092CC028A818F5F8A838A8185303D
:1040800008F4A7CF89810F900F900F900F900F9099
:10409000DF91CF910895CF93DF9300D01F92CDB7DA
:1040A000DEB78B838B8182958F70882F90E001978C
:1040B000982F990F990F8B818F70890F81508A8368
:1040C0008A81282F30E080917404882F90E0A0E04E
:1040D000B0E0220F331F220F331F285F344FF90146
:1040E00080839183A283B3838A81682F70E08A8161
:1040F000882F90E0880F991F880F991F885F944F31
:10410000FC0180819181A281B3812227382F492F20
:104110005A2F80917504882F90E0A0E0B0E0822BA8
:10412000932BA42BB52B9B01220F331F220F331F80
:10413000285F344FF90180839183A283B3838A81FE
:10414000682F70E08A81882F90E0880F991F880F70
:10415000991F885F944FFC0180819181A281B38176
:104160002227382F492F5A2F80917604882F90E0EC
:10417000A0E0B0E0822B932BA42BB52B9B01220F48
:10418000331F220F331F285F344FF901808391833F
:10419000A283B3838A81682F70E08A81882F90E0A0
:1041A000880F991F880F991F885F944FFC018081A9
:1041B0009181A281B3812227382F492F5A2F8091D4
:1041C0007704882F90E0A0E0B0E0822B932BA42B03
:1041D000B52B9B01220F331F220F331F285F344F53
:1041E000F90180839183A283B3838A81882F90E031
:1041F00020917804222F30E0880F991F8859944F1E
:10420000FC01318320838A81882F90E02A81222F2C
:1042100030E0220F331F2859344FF90120813181BA
:10422000522F442720917904222F30E0242B352B64
:10423000880F991F8859944FFC01318320838A810C
:10424000882F90E02A81222F30E0220F331F285937
:10425000344FF90120813181880F991F8455944F83
:10426000FC013183208380917B04882F90E0909320
:10427000B4028093B3028091B3029091B402909300
:10428000CC068093CB06198211C08981882F90E0DB
:104290002091B3023091B402880F991F815B9D4F2A
:1042A000FC013183208389818F5F898389818831F3
:1042B00060F38A81882F90E020917D048D579D4F77
:1042C000FC0120838A81882F90E02A81222F30E010
:1042D0002D573D4FF901208185569D4FFC012083CC
:1042E00080917F04833070F58A81882F90E020913F
:1042F0007F04222F30E021703327880F991F815EC1
:104300009D4FFC01318320838A81882F90E02A8190
:10431000222F30E0220F331F215E3D4FF901208113
:104320003181880F991F8153994FFC01318320837C
:104330008A81882F90E020917F0481549E4FFC0158
:1043400020831DC08A81882F90E020917F048154B2
:104350009E4FFC0120838A81882F90E0880F991F4F
:10436000815E9D4FFC01118210828A81882F90E02E
:10437000880F991F8153994FFC01118210828A8105
:10438000882F90E020918004222F30E0880F991F21
:104390008954974FFC01318320838A81882F90E0D4
:1043A0002A81222F30E0220F331F2954374FF90181
:1043B00020813181522F442720918104222F30E027
:1043C000242B352B880F991F8954974FFC0131837B
:1043D00020838A81882F90E020918204222F30E070
:1043E000880F991F8951974FFC01318320838A815F
:1043F000882F90E02A81222F30E0220F331F29518D
:10440000374FF90120813181522F442720918304B5
:10441000222F30E0242B352B880F991F8951974F7D
:10442000FC01318320838A81882F90E020918404CD
:10443000222F30E0880F991F8957974FFC01318355
:1044400020838A81882F90E02A81222F30E0220F5A
:10445000331F2957374FF90120813181522F4427CB
:1044600020918504222F30E0242B352B880F991FB3
:104470008957974FFC013183208300000F900F90E4
:104480000F90DF91CF910895CF93DF9300D01F92CB
:10449000CDB7DEB78B831A82198285EA8093370500
:1044A0008AE58093380582E08093390581E0809326
:1044B0003A058B818295807F80933B0567E087E397
:1044C00095E00E9446379A838983898180933C05D1
:1044D00089819A81892F992780933D0567E087E339
:1044E00095E00E94CE3600000F900F900F90DF9164
:1044F000CF910895CF93DF931F92CDB7DEB7198286
:104500008091730482958F7089838981882F90E0D0
:104510000197880F991F880F991F2091740489555E
:104520009E4FFC0120838981882F90E00197880F9E
:10453000991F880F991F01962091750489559E4FE8
:10454000FC0120838981882F90E00197880F991FB3
:10455000880F991F02962091760489559E4FFC0181
:1045600020838981882F90E00197880F991F880FF9
:10457000991F03962091770489559E4FFC01208353
:104580008981882F90E00197880F991F880F991FC4
:104590002091780481549E4FFC0120838981882FCB
:1045A00090E00197880F991F880F991F019620911D
:1045B000790481549E4FFC0120838981882F90E0EB
:1045C0000197880F991F880F991F029620917A04EE
:1045D00081549E4FFC0120838981882F90E00197B0
:1045E000880F991F880F991F039620917B0481548F
:1045F0009E4FFC0120838981882F90E00197880FCE
:10460000991F880F991F20917C04222F30E0880F7A
:10461000991F81519E4FFC01318320838981882F0E
:1046200090E00197880F991F880F991F2981222FE9
:1046300030E021503109220F331F220F331F220F88
:10464000331F21513E4FF90120813181522F4427E0
:1046500020917D04222F30E0242B352B880F991FC9
:1046600081519E4FFC01318320838981882F90E006
:104670000197880F991F880F991F019620917E043A
:10468000222F30E0880F991F81519E4FFC0131830A
:1046900020838981882F90E00197880F991F880FC8
:1046A000991F01962981222F30E021503109220FD4
:1046B000331F220F331F2F5F3F4F220F331F215114
:1046C0003E4FF90120813181522F442720917F04F0
:1046D000222F30E0242B352B880F991F81519E4FBC
:1046E000FC01318320838981882F90E00197880F16
:1046F000991F880F991F029620918004222F30E085
:10470000880F991F81519E4FFC013183208389813D
:10471000882F90E00197880F991F880F991F0296A4
:104720002981222F30E021503109220F331F220F1F
:10473000331F2E5F3F4F220F331F21513E4FF90190
:1047400020813181522F442720918104222F30E093
:10475000242B352B880F991F81519E4FFC013183EB
:1047600020838981882F90E00197880F991F880FF7
:10477000991F039620918204222F30E0880F991F01
:1047800081519E4FFC01318320838981882F90E0E5
:104790000197880F991F880F991F03962981222F4F
:1047A00030E021503109220F331F220F331F2D5FBC
:1047B0003F4F220F331F21513E4FF901208131819C
:1047C000522F442720918304222F30E0242B352BB5
:1047D000880F991F81519E4FFC013183208389816D
:1047E000882F90E00197880F991F880F991F2091BB
:1047F000840481549E4FFC0120838981882F90E09E
:104800000197880F991F880F991F019620918504A1
:1048100081549E4FFC0120838981882F90E001976D
:10482000880F991F880F991F029620918604815442
:104830009E4FFC0120838981882F90E00197880F8B
:10484000991F880F991F03962091870481549E4FCA
:10485000FC0120830E94C00900000F90DF91CF91DE
:104860000895CF93DF9300D000D0CDB7DEB78C830F
:1048700019821B821A8285EA8093A4038AE58093B9
:10488000A50383E18093A60382E88093A7038C812C
:10489000882F90E08B9682959295907F9827807FC5
:1048A0009827892F990F990B8093A8038C81882FC3
:1048B00090E08B968295807F8093A90319820BC02C
:1048C0008981882F90E006968C559C4FFC011082C0
:1048D00089818F5F89838981803190F368E184EADF
:1048E00093E00E9446379B838A838A818093BA0330
:1048F0008A819B81892F99278093BB0368E184EA91
:1049000093E00E948D368C81882F90E080579E4FD7
:10491000880F991F60E070E00E94081E00000F9051
:104920000F900F900F90DF91CF910895CF93DF9369
:104930001F92CDB7DEB71092BB02198206C08981E3
:104940000E94312489818F5F898389818730B8F300
:1049500081E00E94341D8091BB02682F82E090E0CC
:104960000E94073A00000F90DF91CF910895CF93F6
:10497000DF9300D01F92CDB7DEB78B831A821982E6
:1049800085EA8093A4038AE58093A50383E080935E
:10499000A60380E88093A7038BEE8093A8038B8106
:1049A0008093A90368E084EA93E00E9446379A83E3
:1049B000898389818093AA0389819A81892F992784
:1049C0008093AB0368E084EA93E00E948D36000098
:1049D0000F900F900F90DF91CF910895CF93DF93B9
:1049E00000D000D0CDB7DEB71C821B821982D0C0A8
:1049F0008981882F90E081549E4FFC01208189811C
:104A0000882F90E089529E4FFC018081281709F47D
:104A1000A2C08981882F90E02981222F30E0215483
:104A20003E4FF901208189529E4FFC0120838981EC
:104A3000882F90E081549E4FFC018081843008F4DF
:104A40008AC082E390E022E330E0F9012081206116
:104A5000FC0120838BE390E02BE330E0F90120811F
:104A60002D7FFC0120838091BB02853418F185E401
:104A70008093BB021A8219C08A81882F90E02A8114
:104A8000222F30E02F5F3F4F880F991F8458954F9A
:104A9000220F331F2458354FF90120813181FC0149
:104AA000318320838A818F5F8A838091BB029A81C0
:104AB000981710F38091BB02882F90E02981222F54
:104AC00030E021543E4FF90120812450880F991F76
:104AD0008458954FFC0120838091BB02882F90E081
:104AE000880F991F8358954F2981FC01208380915D
:104AF000BB02882F90E0880F991F8458954FFC01C6
:104B000020818091BB02882F90E00296880F991F28
:104B1000622F0E94073A8091BB02882F90E0880F95
:104B2000991F8358954FFC0120818091BB02882FEB
:104B300090E0880F991F0396622F0E94073A809198
:104B4000BB028F5F8093BB028091BB02682F82E023
:104B500090E00E94073A8981882F90E081549E4F0F
:104B6000FC018081833088F48981282F30E081E046
:104B700090E002C0880F991F2A95E2F79C018B8173
:104B80009C81822B932B9C838B8389818F5F89836C
:104B90008981883108F42CCF8B819C818F3F9F4085
:104BA00091F482E390E022E330E0F90120812F7E4E
:104BB000FC0120838BE390E02BE330E0F9012081BE
:104BC0002260FC0120831C821B8200000F900F904A
:104BD0000F900F90DF91CF910895CF93DF93CDB7D2
:104BE000DEB727970FB6F894DEBF0FBECDBF8F8319
:104BF0008091C5029091C602A091C702B091C802EF
:104C0000AC01BD018CEB91E00E94521E8091C1026B
:104C10009091C202A091C302B091C402AC01BD0147
:104C200086EB91E00E94521E8091C002882F90E096
:104C3000BC018EE890E00E94081E19826FC08F812F
:104C4000282F30E08981882F90E0820F931F9C01EC
:104C50008981882F90E0CC96880F991FB9010E9416
:104C6000081E8F81282F30E08981882F90E0280F3F
:104C7000391F8091BF02882F90E082179307D4F4E8
:104C80008981882F90E0880F991F880F991F8E5572
:104C90009E4F40E050E0BA010E94521E8981882F49
:104CA00090E08E5B9F4F880F991F64E070E00E9438
:104CB000081E31C09F818981890F0E94B1048A83B7
:104CC0008A81282F30E08981882F90E08E5B9F4F6A
:104CD000880F991FB9010E94081E9F818981890F41
:104CE0000E942B05DC01CB018B839C83AD83BE83AB
:104CF0008981882F90E0880F991F880F991F8E5502
:104D00009E4F9C018B819C81AD81BE81AC01BD0118
:104D1000C9010E94521E89818F5F898389818530F4
:104D200008F48DCF1092C002000027960FB6F894B9
:104D3000DEBF0FBECDBFDF91CF910895CF93DF933C
:104D400000D01F92CDB7DEB78B838091B5029091D2
:104D5000B602BC0180E990E00E94081E198276C06C
:104D60008B81882F90E00197982F892F880F890FCA
:104D7000880F880F982F8981890F8F5F8A838A8196
:104D8000282F30E08981882F90E0875B9F4F880F24
:104D9000991FB9010E94081E8A81882F90E001970F
:104DA000880F991F845E964FFC01408151818A8152
:104DB000882F90E00197880F991F845E964FFC0121
:104DC00080819181880F991F880F991F880F991FE3
:104DD0009C01ADECBCEC0E94D639969587959695D2
:104DE000879596958795BC01605E7F4F2091B502AF
:104DF0003091B602629FC001639F900D729F900D2B
:104E000011249A01280F391F8981882F90E08B5A2D
:104E10009F4F880F991FB9010E94081E8A81882F11
:104E200090E00197880F991F845B964FFC012081C9
:104E300031818981882F90E08A579F4F880F991F71
:104E4000B9010E94081E89818F5F898389818C3016
:104E500008F486CF00000F900F900F90DF91CF9154
:104E60000895CF93DF9300D000D0CDB7DEB78C8309
:104E70001B828C81882F90E0BC0182E091E00E942F
:104E8000081E198237C01A822FC08C81882F90E0AB
:104E9000AC01415051098981282F30E08A81882F47
:104EA00090E0440F551F440F551F440F551F240F0A
:104EB000351F220F331F220F331F820F931F880FBE
:104EC000991F8458964FFC01208131818B81882F56
:104ED00090E08E539F4FB9010E94081E8B818E5F18
:104EE0008B838A818F5F8A838A81843070F2898183
:104EF0008F5F89838981883030F200000F900F9096
:104F00000F900F90DF91CF910895CF93DF9300D052
:104F100000D01F92CDB7DEB79D838C8319820FC05E
:104F20008981882F90E02C813D81880F991F8859B5
:104F3000944FFC013183208389818F5F898389812C
:104F4000883170F385EA809337058AE580933805C8
:104F500084E08093390583E080933A0510923B0505
:104F60008C819D81892F992780933C058C8180932A
:104F70003D0569E087E395E00E9446379B838A837D
:104F80008A8180933E058A819B81892F992780930E
:104F90003F0500008091CE028130E1F769E087E3B0
:104FA00095E00E94CE361092CE021092CD02000003
:104FB0000F900F900F900F900F90DF91CF91089569
:104FC000CF93DF9300D000D01F92CDB7DEB79D8383
:104FD0008C8319820FC08981882F90E0880F991FD8
:104FE000815B9D4F2C813D81FC0131832083898130
:104FF0008F5F89838981883170F385EA80933705D3
:105000008AE58093380584E08093390585E08093B4
:105010003A0510923B058C819D81892F99278093B9
:105020003C058C8180933D0569E087E395E00E9413
:1050300046379B838A838A8180933E058A819B8140
:10504000892F992780933F0500008091CE028130FF
:10505000E1F769E087E395E00E94CE361092CE0238
:105060001092CD0200000F900F900F900F900F90B4
:10507000DF91CF910895CF93DF931F92CDB7DEB725
:1050800019820EC08981882F90E08E579F4F880F1C
:10509000991F60E070E00E94081E89818F5F8983FC
:1050A0008981843078F300000F90DF91CF910895CB
:1050B000CF93DF9300D0CDB7DEB789836A830E9498
:1050C0003B288A81282F30E08981882F90E08F57F4
:1050D0009F4F880F991FB9010E94081E00000F9072
:1050E0000F90DF91CF910895CF92DF92EF92FF92D0
:1050F0000F931F93CF93DF9300D01F92CDB7DEB7EE
:1051000080E090E00E94F939893709F4A0C060E09E
:1051100081E090E00E94073A60E082E090E00E9427
:10512000073A60E08FEF91E00E94073A198253C07E
:105130001A824AC01B8241C08981482F50E08A816F
:10514000282F30E08B81882F90E0440F551F440FAB
:10515000551F440F551F240F351F220F331F220FD9
:10516000331F820F931F880F991F8957984FFC0197
:10517000408151818981882F90E09C01220F331F4B
:10518000220F331F220F331F8A81882F90E0820F56
:10519000931F9C01220F331F220F331F8B81882FF7
:1051A00090E0820F931F880F991F81579F4FBA017C
:1051B0000E94143A8B818F5F8B838B81843008F43B
:1051C000BBCF8A818F5F8A838A81883008F4B2CF0F
:1051D00089818F5F89838981843008F4A9CF1982FE
:1051E0002DC08981882F90E02981622F70E045E6EB
:1051F00051E0649F9001659F300D749F300D112424
:10520000880F991F815D984FFC013183208389812C
:10521000882F90E0880F991F815D984FFC012081B5
:1052200031818981882F90E088539F4F880F991F83
:10523000B9010E94143A89818F5F898389818C32F8
:1052400080F269E780E090E00E94073AF5C081E0D3
:1052500090E00E94F9398093980182E090E00E94EA
:10526000F9398093BB028FEF91E00E94F939809366
:10527000BF02198229C08981082F10E08981882FF7
:1052800090E00296880F991F0E94F939282FC801D3
:10529000880F991F8458954FFC0120838981082F1E
:1052A00010E08981882F90E0880F991F03960E9453
:1052B000F939282FC801880F991F8358954FFC0191
:1052C000208389818F5F89838091BB0299819817A0
:1052D00090F2198218C08981082F10E08981882FE7
:1052E00090E088539F4F880F991F0E94013A9C01BC
:1052F000C801880F991F815D984FFC01318320837D
:1053000089818F5F898389818C3228F3198290C0CB
:105310001A8287C01B827EC08981C82ED12C8A81C7
:10532000E82EF12C8B81082F10E08981882F90E0E6
:105330009C01220F331F220F331F220F331F8A813C
:10534000882F90E0820F931F9C01220F331F220FA2
:10535000331F8B81882F90E0820F931F880F991F36
:1053600081579F4F0E94013A9C01C601880F991FE7
:10537000880F991F880F991F8E0D9F1D880F991FE9
:10538000880F991F800F911F880F991F8957984F79
:10539000FC01318320838981682F70E08A81482F46
:1053A00050E08B81882F90E02981A22FB0E02A81E4
:1053B000E22FF0E02B81222F30E0AA0FBB1FAA0FB3
:1053C000BB1FAA0FBB1FEA0FFB1FEE0FFF1FEE0F45
:1053D000FF1F2E0F3F1F220F331F2957384FF90190
:1053E00020813181660F771F660F771F660F771F49
:1053F000460F571F440F551F440F551F840F951F0D
:10540000880F991F8352944FFC01318320838B8135
:105410008F5F8B838B81843008F47ECF8A818F5F8E
:105420008A838A81883008F475CF89818F5F898368
:105430008981843008F46CCF00000F900F900F909A
:10544000DF91CF911F910F91FF90EF90DF90CF9060
:105450000895CF93DF93CDB7DEB78AE390E02AE3D8
:1054600030E0F90120812064FC0120838AE390E090
:105470002AE330E0F90120812062FC0120838AE3E5
:1054800090E02AE330E0F90120812061FC012083D3
:105490008AE390E02AE330E0F90120812860FC01F2
:1054A00020838AE390E02AE330E0F9012081246040
:1054B000FC0120838AE390E02AE330E0F9012081B7
:1054C0002260FC0120838AE390E02AE330E0F901C6
:1054D00020812160FC0120838BE390E02BE330E00E
:1054E000F90120812064FC0120838BE390E02BE311
:1054F00030E0F90120812062FC0120838BE390E001
:105500002BE330E0F90120812061FC0120838BE353
:1055100090E02BE330E0F90120812860FC0120833A
:105520008BE390E02BE330E0F90120812B7FFC013D
:1055300020838BE390E02BE330E0F90120812260AF
:10554000FC0120838BE390E02BE330E0F901208124
:105550002E7FFC01208381E390E021E330E0F9011C
:1055600020812061FC01208381E390E021E330E091
:10557000F90120812062FC01208382E390E022E394
:1055800030E0F90120812F7EFC01208382E390E04E
:1055900022E330E0F90120812062FC012083000039
:1055A000DF91CF910895CF93DF93CDB7DEB72F97DB
:1055B0000FB6F894DEBF0FBECDBF81E089830E9495
:1055C000C52B8FE590E02FE530E0F90120812068C0
:1055D000FC0120830E94742880E090E0AAE7B4E4F4
:1055E0008A839B83AC83BD8320E030E04AE755E4A7
:1055F0006A817B818C819D810E940539DC01CB0110
:105600008E839F83A887B98720E030E040E85FE37E
:105610006E817F81888599850E947F3888232CF44C
:1056200081E090E09B878A873FC020E03FEF4FE713
:1056300057E46E817F81888599850E94003918160C
:105640004CF520E030E040E251E46A817B818C81BE
:105650009D810E940539DC01CB01BC01CD010E9476
:105660008438DC01CB019B878A870FC080E991E0F9
:105670009D878C878C859D850197F1F79D878C8709
:105680008A859B8501979B878A878A859B85892B3D
:1056900069F714C06E817F81888599850E9484385E
:1056A000DC01CB019B878A878A859B859F878E87B4
:1056B0008E859F850197F1F79F878E870E94901FA7
:1056C0008091030190910401BC0188E491E00E9463
:1056D000081E8091010190910201BC018AE491E0D1
:1056E0000E94081E4091B5025091B60220E033E0BE
:1056F000429FC001439F900D529F900D11249D5BCE
:10570000BC018CE392E00E94081E8091B30290914C
:10571000B402865B9F4F982F8827BC0184E992E0F2
:105720000E94081E81E08093CF020E94C0090E945F
:10573000B51D80916C04882321F00E9415311092D0
:105740006C048091FF05882321F00E941536109289
:10575000FF058091CE02813079F489810E94442234
:1057600089818F5F89838981873010F081E0898307
:105770001092CE021092CD028091D0028823C9F2FD
:105780000E94EE241092D002D4CFCF93DF93CDB7F6
:10579000DEB70E94292A89E190E00E94A7378FE6B0
:1057A00090E00E94E53780E895E20E941B380E9455
:1057B0009F2E0E94062F0E94D02E80E991E00E9429
:1057C0005D300E9418080000DF91CF9108951F926C
:1057D0000F9200905F000F9211242F933F934F93ED
:1057E0005F936F937F938F939F93AF93BF93EF9349
:1057F000FF93CF93DF93CDB7DEB78FE590E02FE532
:1058000030E0D9012C912068FC01208382E590E0F2
:1058100022EBDC012C938091CC028F5F8093CC0231
:105820008091CC028C3328F01092CC0281E08093DE
:10583000CB028091CF02882329F18091CD028F5F26
:105840008093CD028091CD02843628F01092CD0253
:1058500081E08093CE028091D1029091D202019694
:105860009093D2028093D1028091D1029091D20282
:105870008C32914038F01092D2021092D10281E025
:105880008093D00280919701882309F49AC0809177
:10589000D3029091D40201969093D4028093D302C4
:1058A0008091D3029091D402883C910508F489C07C
:1058B0001092D4021092D302809196018823C1F1F4
:1058C00080919C01882F90E0880F991F81519E4FF5
:1058D000FC0180819181FC0180919C01882F90E0E6
:1058E000880F991F81519E4FDC018D919C91880FEB
:1058F000991F880F991F880F991F2AE030E0B9017E
:105900000E949A39CB018096AC012091B50230916A
:10591000B602429FC001439F900D529F900D1124EB
:105920008E0F9F1FBC0182E390E00E94081E49C0B9
:1059300080919E01082E000C990B880F991F8151B0
:105940009E4FFC0180819181FC0180919E01082E77
:10595000000C990B880F991F81519E4FDC018D918E
:105960009C91880F991F880F991F880F991F2AE013
:1059700030E0B9010E949A39CB018096AC012091A8
:10598000B5023091B602429FC001439F900D529FD5
:10599000900D11248E0F9F1FBC018EE390E00E949A
:1059A000081E80919E01082E000C990B89559E4F70
:1059B000FC018081882F90E0BC0182E490E00E948D
:1059C000081E909101068091D502981739F08091B8
:1059D00001068093D5021092D6021AC0809101066A
:1059E0008823B1F08091D6028F5F8093D602809198
:1059F000D602843068F0809101068093000681E031
:105A00008093FF05109201061092D5021092D602E3
:105A100090916E048091D702981739F080916E04AE
:105A20008093D7021092D8021AC080916E04882306
:105A3000B1F08091D8028F5F8093D8028091D80214
:105A4000843068F080916E0480936D0481E08093CF
:105A50006C0410926E041092D7021092D8020000CB
:105A6000DF91CF91FF91EF91BF91AF919F918F9176
:105A70007F916F915F914F913F912F910F90009285
:105A80005F000F901F9018951F920F9200905F007B
:105A90000F921124CF93DF93CDB7DEB70000DF91D3
:105AA000CF910F9000925F000F901F9018951F925A
:105AB0000F9200905F000F9211242F933F934F930A
:105AC0005F936F937F938F939F93AF93BF93EF9366
:105AD000FF93CF93DF9300D0CDB7DEB71A82198240
